:020000040800F2
:10000000580C00209D060008FD060008FD060008AB
:10001000FD060008FD060008FD06000800000000BF
:10002000000000000000000000000000FD060008C5
:10003000FD06000800000000FD060008E12500089C
:10004000FD060008FD060008FD060008FD06000884
:10005000FD060008FD060008F91A0008171B000835
:10006000351B0008531B0008711B0008FD06000823
:10007000FD060008FD060008FD060008FD06000854
:10008000FD060008FD060008FD060008FD06000844
:10009000FD060008FD060008FD0600088F1B00088D
:1000A000FD060008FD060008FD060008FD06000824
:1000B00069300008FD060008FD060008FD0600087E
:1000C000FD060008FD060008FD060008FD06000804
:1000D000FD060008FD060008890100087D2E0008C5
:1000E000FD060008FD060008FD060008FD060008E4
:1000F000FD060008FD060008FD060008FD060008D4
:10010000FD060008FD060008153D0008FD06000874
:10011000FD060008FD060008FD060008FD060008B3
:10012000FD060008FD060008FD060008FD060008A3
:10013000FD060008FD060008FD060008FD06000893
:10014000FD060008FD060008FD060008FD06000883
:10015000FD060008FD060008FD060008FD06000873
:10016000FD060008FD060008FD060008FD06000863
:10017000FD060008FD060008FD060008FD06000853
:10018000FD060008FD06000880B500AF40F22551CD
:100190004E4800F028FA0346002B06D04C4B1B7843
:1001A0009BB21946494800F0C6F94A4B1B78582BB8
:1001B00007D1474B1A78484B1A70464B00221A70E9
:1001C00081E0444B1B78592B07D1414B1A78434BA4
:1001D0001A70404B00221A7075E03E4B1B78432B7F
:1001E00007D13B4B1A783E4B1A703A4B00221A70DB
:1001F00069E0384B1B784F2B55D1354B1A78394B6A
:100200001A70374B1B781A46642303FB02F3354AF6
:1002100012781344184606F045F80346324918464A
:1002200006F048F903461A46304B1A602F4B1B68FC
:100230002F49184605F080FF03461A462D4B1B68D0
:100240001946104605F078FF03461A46274B1A60F8
:10025000264B1B684FF00001184606F015FA0346BE
:10026000002B09D0214B1B682349184605F066FF77
:1002700003461A461D4B1A601C4B1B681E49184644
:1002800006F020FA0346002B09D0184B1B681A49C8
:10029000184605F051FF03461A46144B1A600D4BE1
:1002A00000221A700FE00B4B1B78422B07D1084B32
:1002B0001A78124B1A70074B00221A7003E0044B95
:1002C0001A78044B1A7000BF80BD00BF0044004084
:1002D0006202002049020020450200204402002062
:1002E0006C02002061020020000020415802002022
:1002F00000009A42040100200000B443480200209C
:1003000090B484B000AF03460A46FB711346BB713C
:100310000023FB60BB7903F003039B000F2202FA6A
:1003200003F3FB601649BB799B08DBB21846144AFD
:10033000BB799B08DBB2023352F82320FB68DB4316
:100340001A40831C41F823200D48BB799B08DBB27F
:100350001C460B4ABB799B08DBB2023352F82320C0
:10036000F979BB7903F003039B0001FA03F31A4305
:10037000A31C40F8232000BF1037BD4690BC704737
:100380000038014080B58AB000AF78603960002342
:100390007B6200233B620023FB610023BB617B681F
:1003A0001B8A9BB27B627B6A23F440537B623B686F
:1003B000DB881A467B6A13437B627B6A9AB27B684E
:1003C0001A827B689B899BB27B627B6A23F4B05361
:1003D00023F00C037B623B689A883B681B891343BC
:1003E0009AB23B685B8913439BB21A467B6A1343FC
:1003F0007B627B6A9AB27B689A817B689B8A9BB29C
:100400007B627B6A23F440737B623B689B891A465C
:100410007B6A13437B627B6A9AB27B689A8207F19C
:100420000803184600F02AFB7B68304A934203D049
:100430007B682F4A934202D17B693B6201E03B69B2
:100440003B627B689B899BB21BB2002B0CDA3A6A39
:1004500013469B0013449A001A443B681B685B00D8
:10046000B2FBF3F3FB610BE03A6A13469B001344C3
:100470009A001A443B681B689B00B2FBF3F3FB61D4
:10048000FB691C4AA2FB03235B091B017B627B6A9D
:100490001B09642202FB03F3FA69D31ABB617B6870
:1004A0009B899BB21BB2002B0CDABB69DB00323399
:1004B000104AA2FB03235B0903F007037A6A134384
:1004C0007B620BE0BB691B0132330A4AA2FB0323A8
:1004D0005B0903F00F037A6A13437B627B6A9AB26B
:1004E0007B681A8100BF2837BD4680BD00100140DF
:1004F000001401401F85EB5180B483B000AF7860D9
:100500000B46FB70FB78002B08D07B689B899BB265
:1005100043F400539AB27B689A8107E07B689B8919
:100520009BB223F400539AB27B689A8100BF0C37C8
:10053000BD4680BC704780B483B000AF78600B4686
:100540007B807B88C3F308039AB27B689A8000BFE4
:100550000C37BD4680BC704780B487B000AF786070
:100560000B467B8013467B7000233B610023FB60BE
:100570000023BB6000237B617B687B617B88DBB2EF
:100580005B09DBB23B617B8803F01F03FB60012248
:10059000FB6802FA03F3BB603B69012B03D17B6963
:1005A0000C337B6109E03B69022B03D17B6910337B
:1005B0007B6102E07B6914337B617B78002B06D082
:1005C0007B697A691168BA680A431A6006E07B6938
:1005D0007A691168BA68D2430A401A6000BF1C37B2
:1005E000BD4680BC704780B487B000AF78600B46D2
:1005F0007B800023FB6000237B610023BB60002322
:10060000FB747B88DBB25B09DBB2BB607B8803F0E9
:100610001F037B6101227B6902FA03F37B61BB68E4
:10062000012B07D17B689B899BB21A467B691340DB
:100630007B6111E0BB68022B07D17B681B8A9BB2F0
:100640001A467B6913407B6106E07B689B8A9BB2FC
:100650001A467B6913407B617B881B0A9BB2FB6057
:100660000122FB6802FA03F3FB607B681B889BB2E4
:100670001A46FB681340FB607B69002B05D0FB68C2
:10068000002B02D00123FB7401E00023FB74FB7CF0
:1006900018461C37BD4680BC7047000080B582B04C
:1006A00000AF114B7B60114B3B6007E03B681A1DAC
:1006B0003A607A68111D796012681A603B680C4ACA
:1006C0009342F3D30B480C494FF000028842B8BF65
:1006D00040F8042BFADB02F0CDFA00F073F900BF0A
:1006E0000837BD4680BD00BF20690008000000201B
:1006F000F8000020F80000205404002080B400AF6F
:10070000FEE7000080B584B000AF0121042000F0B6
:100710007BFA0023BB800023FB804FF6FF73BB6096
:100720000023BB810023BB733B1D1946054803F022
:1007300005FB0121034803F06BFB00BF1037BD46EA
:1007400080BD00BF0008004080B586B000AFFFF755
:10075000D9FF7023BB800123FB8002233B8240F63C
:100760003303FB603B1D1946184803F071FB082159
:10077000164803F05BFD41F26703FB603B1D194621
:10078000124803F0DFFB0821104803F06AFD41F630
:100790009B03FB603B1D19460C4803F05BFC0821E2
:1007A0000A4803F07BFD42F2CF03FB603B1D194674
:1007B000064803F0D5FC0821044803F08AFD00F048
:1007C00007F800BF1837BD4680BD00BF00080040D5
:1007D00080B582B000AF0121082000F0F7F90222B5
:1007E0000C21274802F00AF802220D21244802F0C9
:1007F00005F802220E21224802F000F802220F2101
:100800001F4801F0FBFF4FF47F433B600023BB71A7
:100810000023FB7102233B7103237B713B46194686
:10082000174801F029FF0121022000F0CFF94FF411
:1008300070433B600023BB710023FB7101233B71BC
:1008400003237B713B4619460E4801F015FF012139
:10085000102000F0BBF94FF470433B600023BB71E4
:100860000023FB7101233B7103237B713B46194637
:10087000054801F001FF00BF0837BD4680BD00BF3D
:10088000000C0240000402400010024080B584B019
:1008900000AF03463960FB713B68002BCCBF0123DE
:1008A0000023FB733B68002BB8BF5B423B60FB79C6
:1008B000013B032B7AD801A252F823F0CD0800089F
:1008C000050900083D09000875090008FB7B002B9D
:1008D0000AD04FF48051384801F074FF4FF40051B2
:1008E000354801F07DFF09E04FF40051324801F036
:1008F00069FF4FF48051304801F072FF2F4A3B6886
:10090000536354E0FB7B002B0AD04FF480412A480C
:1009100001F058FF4FF40041274801F061FF09E062
:100920004FF40041244801F04DFF4FF4804122482C
:1009300001F056FF214A3B68936338E0FB7B002BB4
:100940000AD04FF480511E4801F03CFF4FF4804123
:100950001B4801F045FF09E04FF48041184801F0C1
:1009600031FF4FF48051164801F03AFF134A3B68BB
:10097000D3631CE0FB7B002B0AD04FF400511048DE
:1009800001F020FF4FF400410D4801F029FF09E07C
:100990004FF400410A4801F015FF4FF40051084898
:1009A00001F01EFF054A3B68136400E000BF00BF72
:1009B0001037BD4680BD00BF000402400008004063
:1009C0000010024080B500AF02F054F901F02CFE97
:1009D00002F0F8F903F070F802F044FE01F056FF5F
:1009E000002300220021002002F018FE41F288308E
:1009F00001F0DEFD034B01221A6003F013F902F04F
:100A000061FFF7E71801002080B483B000AF034610
:100A1000FB71054B00221A70034AFB79137000BF6B
:100A20000C37BD4680BC70470238024080B582B0AA
:100A300000AF00233B600023FB710023BB7131201A
:100A400000F01EF90346BB713B6801333B603B6815
:100A5000B3F5A06F02D0BB79002BF0D0312000F0AD
:100A60000FF90346002B02D00123FB7101E00023A4
:100A7000FB71FB7918460837BD4680BD80B489B04C
:100A800000AF78600023BB6100237B610023FB6122
:100A900002233B610023FB600223BB60474B9B6842
:100AA00003F00C03BB61BB69042B07D0082B09D0F2
:100AB000002B3DD17B68424A1A603DE07B68414A89
:100AC0001A6039E03D4B5B689B0D03F00103FB604E
:100AD0003A4B5B6803F03F03BB60FB68002B0CD014
:100AE000384ABB68B2FBF3F3344A52689209C2F346
:100AF000080202FB03F3FB610BE0314ABB68B2FB67
:100B0000F3F32E4A52689209C2F3080202FB03F380
:100B1000FB612A4B5B681B0C03F0030301335B0092
:100B20003B61FA693B69B2FBF3F27B681A6003E050
:100B30007B68234A1A6000BF204B9B6803F0F003D8
:100B4000BB61BB691B09BB611F4ABB6913441B78AE
:100B5000DBB27B617B681A687B69DA407B685A602C
:100B6000164B9B6803F4E053BB61BB699B0ABB61F6
:100B7000154ABB6913441B78DBB27B617B685A68FA
:100B80007B69DA407B689A600C4B9B6803F4604396
:100B9000BB61BB695B0BBB610B4ABB6913441B7830
:100BA000DBB27B617B685A687B69DA407B68DA601C
:100BB00000BF2437BD4680BC704700BF00380240EC
:100BC0000024F40000127A000000002080B483B0FA
:100BD00000AF78600B46FB70FB78002B06D009490C
:100BE000084B1A6B7B6813430B6306E00549054B02
:100BF0001A6B7B68DB4313400B6300BF0C37BD46A9
:100C000080BC70470038024080B483B000AF786089
:100C10000B46FB70FB78002B06D00949084B1A6C79
:100C20007B6813430B6406E00549054B1A6C7B682F
:100C3000DB4313400B6400BF0C37BD4680BC7047DC
:100C40000038024080B483B000AF78600B46FB7080
:100C5000FB78002B06D00949084B5A6C7B6813437C
:100C60004B6406E00549054B5A6C7B68DB43134037
:100C70004B6400BF0C37BD4680BC70470038024053
:100C800080B487B000AF0346FB710023FB600023F4
:100C90007B610023FB74FB795B09DBB2FB60FB68C3
:100CA000012B03D1124B1B687B6109E0FB68022B0F
:100CB00003D10F4B1B6F7B6102E00D4B5B6F7B61C0
:100CC000FB7903F01F03FB607A69FB6822FA03F3E8
:100CD00003F00103002B02D00123FB7401E0002389
:100CE000FB74FB7C18461C37BD4680BC704700BFB8
:100CF0000038024080B483B000AF78600B46FB70D0
:100D00007B68FA781A70012318460C37BD4680BC00
:100D1000704780B485B000AF786039600023FB6015
:100D20000AE07B685A1C7A603A68511C3960127874
:100D30001A70FB680133FB603B681B78002BF0D115
:100D4000FB6818461437BD4680BC704780B586B036
:100D500000AFF8607A603B600B46FB7200237B615A
:100D60007B68013B7B603B68092B1DD93B681D4AB2
:100D7000A2FB0323DB08F97A7A68F868FFF7E6FF3D
:100D800078617B69FA681344FB6010E0FB7A1946CE
:100D9000F868FFF7AFFFFB680133FB607B69013345
:100DA0007B617B68013B7B607B68002BEEDC3968F4
:100DB0000C4BA3FB0123DA0813469B0013445B0092
:100DC000CA1AD3B23033DBB21946F868FFF792FF84
:100DD00002467B6913447B617B6918461837BD4620
:100DE00080BD00BFCDCCCCCC80B586B000AFF86064
:100DF0007A603B600B46FB7200237B613B68002BF3
:100E000003DA3B685B423B6101E03B683B617B6826
:100E1000013B7B603B69092B1FD93B68002B0CDA37
:100E20003B692E4AA2FB0323DB085B42F97A7A680E
:100E3000F868FFF7D9FF78610AE03B69274AA2FB0F
:100E40000323DB08F97A7A68F868FFF7CDFF786149
:100E50007B69FA681344FB6025E03B68002B11DADC
:100E60007B68013B7B600DE0FB7A1946F868FFF771
:100E700041FFFB680133FB607B6901337B617B6869
:100E8000013B7B607B68002BEEDC3B68002B0ADAC1
:100E90002D21F868FFF72EFF02467B6913447B6122
:100EA000FB680133FB6039690C4BA3FB0123DA08B3
:100EB00013469B0013445B00CA1AD3B23033DBB233
:100EC0001946F868FFF716FF02467B6913447B61F9
:100ED0007B6918461837BD4680BD00BFCDCCCCCC51
:100EE00080B588B002AFF8607A601A460B46FB7294
:100EF0001346BB7200237B617B68013B7B603B6ACE
:100F00001B09002B20D03B6A1B09BA7AF97A00939F
:100F100013467A68F868FFF7E3FF02467B691344DB
:100F20007B617B69FA681344FB6010E0FB7A194629
:100F3000F868FFF7DFFEFB680133FB607B69013374
:100F40007B617B68013B7B607B68002BEEDC3B6A4E
:100F500003F00F03092B0BD83B6ADBB203F00F033E
:100F6000DBB23033DBB21946F868FFF7C3FE19E095
:100F7000BB7A002B0BD03B6ADBB203F00F03DBB272
:100F80003733DBB21946F868FFF7B4FE0AE03B6A74
:100F9000DBB203F00F03DBB25733DBB21946F8685C
:100FA000FFF7A8FE7B6901337B617B691846183720
:100FB000BD4680BD80B58AB002AFF860B9607A6086
:100FC0003B600023BB6100237B61FB68002B00F0CA
:100FD000FC80FB6800221A70F7E07B681B78252BE9
:100FE0000BD0FB685A1CFA607A68511C7960127841
:100FF0001A707B6901337B61E7E07B6801331B7802
:10100000252B0BD1FB685A1CFA6025221A707B68CD
:1010100002337B607B6901337B61D6E02023FB7761
:101020000023BB777B6801337B607B681B78302BA8
:1010300014D13023FB777B6801337B600EE0BB7FEC
:101040001A46920013445B00DAB27B681B781344A3
:10105000DBB2303BBB777B6801337B607B681B78FE
:101060002F2B03D97B681B78392BE8D9BA7F7B6992
:1010700013441A46BB689A4205D9BB68DAB27B6949
:10108000DBB2D31ABB777B681B78583B202B00F26E
:101090008E8001A252F823F069110008AF110008F8
:1010A000AF110008AF110008AF110008AF11000820
:1010B000AF110008AF110008AF110008AF11000810
:1010C000AF110008991100081D110008AF110008A8
:1010D000AF110008AF110008AF1100081D11000882
:1010E000AF110008AF110008AF110008AF110008E0
:1010F000AF110008AF110008AF110008AF110008D0
:10110000AF11000885110008AF1100083511000863
:10111000AF110008AF1100084D110008B87F3B68FF
:101120001A1D3A601B68F97F0246F868FFF75CFEFB
:10113000B8613FE0B87F3B681A1D3A601B68F97FD1
:101140000246F868FFF702FEB86133E0B87F3B68FB
:101150001A1D3A601B68F97F009300230246F86865
:10116000FFF7BEFEB86125E0B87F3B681A1D3A6004
:101170001B68F97F009301230246F868FFF7B0FE71
:10118000B86117E03B681A1D3A601B681946F86899
:10119000FFF7BFFDB8610DE03B681A1D3A601B68A0
:1011A000DBB21946F868FFF7A5FDB86102E04FF021
:1011B000FF3325E07B6801337B60BB69FA68134429
:1011C000FB607A69BB6913447B617B681B78002BE9
:1011D00004D07A69BB689A42FFF4FFAE7A69BB68B3
:1011E0009A4203D2FB6800221A7008E0FB68013BB8
:1011F000FB60FB6800221A707B69013B7B617B69A5
:1012000018462037BD4680BD80B584B000AFF86079
:10121000B9607A607B68BA686421F868FFF7CAFE33
:10122000034618461037BD4680BD0EB480B585B064
:1012300000AF786007F12003BB60BA68F96978688D
:10124000FFF7E2FFF860FB6818461437BD46BDE8BB
:10125000804003B07047000090B589B000AF78605F
:1012600001210820FFF7B2FC01214FF48040FFF775
:10127000E9FC00233B770023BB770123FB770323A3
:101280007B770123BB6107F1180319461E4801F063
:10129000F3F91023BB6107F1180319461A4801F04E
:1012A000EBF900210320FFF72BF801233B61012319
:1012B000BB7500233B7510237B7507F1100318469F
:1012C00002F0FAF906233B7303237B730023BB73FD
:1012D0000123FB7307F10C03184602F091FA0B4B44
:1012E00000221A607A684FF000034FF00004C2E950
:1012F00002347A684FF000034FF00004C2E9003472
:1013000000BF2437BD4690BD000C0240880200207B
:1013100090B589B000AF786001210820FFF756FC36
:1013200001214FF48040FFF78DFC00233B77002321
:10133000BB770123FB7703237B770223BB6107F194
:10134000180319461E4801F097F92023BB6107F1E5
:10135000180319461A4801F08FF901210320FEF7FE
:10136000CFFF02233B610123BB7500233B75102394
:101370007B7507F11003184602F09EF907233B73B3
:1013800003237B730023BB730123FB7307F10C035F
:10139000184602F035FA0B4B00221A607A684FF0BB
:1013A00000034FF00004C2E902347A684FF00003F2
:1013B0004FF00004C2E9003400BF2437BD4690BDA1
:1013C000000C02408402002090B589B000AF786024
:1013D00001210820FFF7FAFB01214FF48040FFF7BD
:1013E00031FC00233B770023BB770123FB770323EA
:1013F0007B770423BB6107F1180319461E4801F0EF
:101400003BF94023BB6107F1180319461A4801F064
:1014100033F902210320FEF773FF04233B6101230C
:10142000BB7500233B7510237B7507F1100318462D
:1014300002F042F908233B7303237B730023BB7341
:101440000123FB7307F10C03184602F0D9F90B4B8B
:1014500000221A607A684FF000034FF00004C2E9DE
:1014600002347A684FF000034FF00004C2E9003400
:1014700000BF2437BD4690BD000C02408C02002006
:1014800090B589B000AF786001210820FFF79EFB7E
:1014900001214FF48040FFF7D5FB00233B77002369
:1014A000BB770123FB7703237B770823BB6107F11D
:1014B000180319461E4801F0DFF88023BB6107F1CD
:1014C000180319461A4801F0D7F803210320FEF744
:1014D00017FF08233B610123BB7500233B751023D5
:1014E0007B7507F11003184602F0E6F809233B73F9
:1014F00003237B730023BB730123FB7307F10C03EE
:10150000184602F07DF90B4B00221A607A684FF002
:1015100000034FF00004C2E902347A684FF0000380
:101520004FF00004C2E9003400BF2437BD4690BD2F
:10153000000C02408002002090B589B000AF7860B6
:1015400001210220FFF742FB01214FF48040FFF709
:1015500079FB00233B770023BB770123FB77032331
:101560007B771023BB6107F1180319461E4801F071
:1015700083F80423BB6107F1180319461A4801F0E8
:101580007BF804210120FEF7BBFE10233B61012301
:10159000BB7500233B7510237B7507F110031846BC
:1015A00002F08AF80A233B7303237B730023BB7387
:1015B0000123FB7307F10C03184602F021F90B4BD2
:1015C00000221A607A684FF000034FF00004C2E96D
:1015D00002347A684FF000034FF00004C2E900348F
:1015E00000BF2437BD4690BD0004024078020020B1
:1015F00090B589B000AF786001210220FFF7E6FACC
:1016000001214FF48040FFF71DFB00233B770023AF
:10161000BB770123FB7703237B772023BB6107F193
:10162000180319461E4801F027F80823BB6107F18B
:10163000180319461A4801F01FF805210120FEF78A
:101640005FFE20233B610123BB7500233B75102304
:101650007B7507F11003184602F02EF817233B7331
:1016600003237B730023BB730123FB7307F10C037C
:10167000184602F0C5F80B4B00221A607A684FF04A
:1016800000034FF00004C2E902347A684FF000030F
:101690004FF00004C2E9003400BF2437BD4690BDBE
:1016A000000402407C02002090B583B000AF786057
:1016B0001A4B1B68184604F0C3F97B68D3E9003461
:1016C0001A46234604F06EF803460C467A68C2E9CF
:1016D0000234124B1B68184604F0B2F903460C465C
:1016E0007A68C2E900340D4B1B68002B04DA7B6872
:1016F00001221A7401230CE0084B1B68002B04DD47
:101700007B6800221A74002303E07B6802221A74AB
:10171000022318460C37BD4690BD00BF880200204A
:1017200090B583B000AF78601A4B1B68184604F080
:1017300087F97B68D3E900341A46234604F032F86F
:1017400003460C467A68C2E90234124B1B681846FD
:1017500004F076F903460C467A68C2E900340D4B72
:101760001B68002B04DA7B6801221A7401230CE049
:10177000084B1B68002B04DD7B6800221A740023D1
:1017800003E07B6802221A74022318460C37BD4618
:1017900090BD00BF8402002090B583B000AF786098
:1017A0001A4B1B68184604F04BF97B68D3E90034E8
:1017B0001A46234603F0F6FF03460C467A68C2E950
:1017C0000234124B1B68184604F03AF903460C46E3
:1017D0007A68C2E900340D4B1B68002B04DA7B6881
:1017E00001221A7401230CE0084B1B68002B04DD56
:1017F0007B6800221A74002303E07B6802221A74BB
:10180000022318460C37BD4690BD00BF8C02002055
:1018100090B583B000AF78601A4B1B68184604F08F
:101820000FF97B68D3E900341A46234603F0BAFF68
:1018300003460C467A68C2E90234124B1B6818460C
:1018400004F0FEF803460C467A68C2E900340D4BFA
:101850001B68002B04DA7B6801221A7401230CE058
:10186000084B1B68002B04DD7B6800221A740023E0
:1018700003E07B6802221A74022318460C37BD4627
:1018800090BD00BF8002002080B582B000AF012172
:10189000144800F07EFF0346FB711021114800F050
:1018A00078FF0346BB71104B1B78FA799A4214D02B
:1018B0000D4AFB7913700C4B1B78002B0DD1BB79B3
:1018C000012B05D1094B1B680133084A136004E062
:1018D000064B1B68013B054A136000BF0837BD4635
:1018E00080BD00BF000C02401000002088020020D4
:1018F00080B582B000AF0221144800F04AFF0346D1
:10190000FB712021114800F044FF0346BB71104BCE
:101910001B78FA799A4214D00D4AFB7913700C4B5C
:101920001B78002B0DD1BB79012B05D1094B1B680E
:101930000133084A136004E0064B1B68013B054A6B
:10194000136000BF0837BD4680BD00BF000C0240D9
:10195000110000208402002080B582B000AF042175
:10196000144800F016FF0346FB714021114800F0B7
:1019700010FF0346BB71104B1B78FA799A4214D0C2
:101980000D4AFB7913700C4B1B78002B0DD1BB79E2
:10199000012B05D1094B1B680133084A136004E091
:1019A000064B1B68013B054A136000BF0837BD4664
:1019B00080BD00BF000C0240120000208C020020FD
:1019C00080B582B000AF0821144800F0E2FE034663
:1019D000FB718021114800F0DCFE0346BB71104B07
:1019E0001B78FA799A4214D00D4AFB7913700C4B8C
:1019F0001B78002B0DD1BB79012B05D1094B1B683E
:101A00000133084A136004E0064B1B68013B054A9A
:101A1000136000BF0837BD4680BD00BF000C024008
:101A2000130000208002002080B582B000AF10219A
:101A3000144800F0AEFE0346FB710421114800F08B
:101A4000A8FE0346BB71104B1B78FA799A4214D05A
:101A50000D4AFB7913700C4B1B78002B0DD1BB7911
:101A6000012B05D1094B1B680133084A136004E0C0
:101A7000064B1B68013B054A136000BF0837BD4693
:101A800080BD00BF00040240140000207802002046
:101A900080B582B000AF2021144800F07AFE0346E2
:101AA000FB710821114800F074FE0346BB71104B16
:101AB0001B78FA799A4214D00D4AFB7913700C4BBB
:101AC0001B78002B0DD1BB79012B05D1094B1B686D
:101AD0000133084A136004E0064B1B68013B054ACA
:101AE000136000BF0837BD4680BD00BF0004024040
:101AF000150000207C02002080B500AF012001F01D
:101B00004DFE0346002B04D0FFF7BEFE012001F07E
:101B100069FE00BF80BD80B500AF022001F03EFE2F
:101B20000346002B04D0FFF7E3FE022001F05AFE2B
:101B300000BF80BD80B500AF042001F02FFE03463A
:101B4000002B04D0FFF708FF042001F04BFE00BF7C
:101B500080BD80B500AF082001F020FE0346002BB9
:101B600004D0FFF72DFF082001F03CFE00BF80BD30
:101B700080B500AF102001F011FE0346002B04D009
:101B8000FFF752FF102001F02DFE00BF80BD80B591
:101B900000AF202001F002FE0346002B04D0FFF727
:101BA00077FF202001F01EFE00BF80BD0000000076
:101BB0002DE9F04F85B000AF774B1A68774B1B6863
:101BC00013445B42DA0F13445B101A46744B1A60DD
:101BD000744B1A68744B1B681344DA0F13445B1080
:101BE0001A46724B1A606D4B1A686E4B1B68134491
:101BF0005B42DA0F13445B101A466D4B1A60664B5A
:101C00001A68694B1B681344DA0F13445B101A46B9
:101C1000684B1A60624B1A68674B1B68D31A674A95
:101C20001360624B1A68664B1B68D31A654A1360CF
:101C30005F4B1A68644B1B68D31A644A13605D4B90
:101C40001A68634B1B68D31A624A1360544B1B68B3
:101C5000594A1360554B1B68594A1360544B1B6813
:101C6000594A1360534B1B68594A1360534B1B6806
:101C7000184604F017FB0246574B1A60514B1B687D
:101C8000184604F00FFB0246544B1A604F4B1B687A
:101C9000184604F007FB0246514B1A604D4B1B6877
:101CA000184604F0FFFA02464E4B1A604A4B1A6877
:101CB0004A4B1B681946104604F040FA03464FF0A1
:101CC0008041184604F0F6FB03461A46464B1A605C
:101CD000434B1A68434B1B681946104604F02EFA12
:101CE00003464FF08041184604F0E4FB03461A46D1
:101CF0003E4B1A603E4B1B68184603F0B3FE044689
:101D00000D46354B1A68354B1B681946104604F0D2
:101D100013FA0346184603F0A5FE1BA3D3E90023DC
:101D200004F01EF802460B462046294603F03CFD0F
:101D300003460C461846214604F0AAF902462C4BED
:101D40001A602B4B1B68184603F08CFE10A3D3E9D6
:101D5000002304F06BF90346002B4BD0244B1B6887
:101D6000184603F07FFE0AA3D3E9002303F01AFD0F
:101D700003460C461846214604F08AF902461C4BDD
:101D80001A6054E0AFF300806666666666E66840F7
:101D90006E861BF0F9211940880200208402002081
:101DA000E80200208C02002080020020F4020020C3
:101DB000A0020020C80200203C0100209C0200205C
:101DC00040010020AC02002044010020A4020020B9
:101DD00048010020FC020020C0020020BC020020BC
:101DE000F0020020B8020020E4020020C40200201B
:101DF000E0010020C64B1B684FF00001184604F0BC
:101E000043FC0346002B12D0C14B1B68184603F05D
:101E100029FEB9A3D3E9002303F0C6FC03460C4610
:101E20001846214604F034F90246B94B1A60B84B03
:101E30001B68B849184604F089FA0346184603F0AF
:101E400011FEAFA3D3E9002303F08AFF03460C463B
:101E50001846214604F01CF90246AF4B1A60AF4BFE
:101E60001B68184603F0FEFDC7E90201AC4B1B6876
:101E7000184603F0F7FD04460D46A54B1B681846AF
:101E800003F0F0FD02460B461046194602F0E8FA50
:101E900002460B462046294603F038FE03460C4610
:101EA000C7E900349F4B1B68184603F0DBFD05466D
:101EB0000E46974B1B68184603F0D4FD03460C46AC
:101EC0001846214602F07EFA03460C461A4623467F
:101ED0002846314603F01AFE03460C461A462346AE
:101EE000D7E9000103F060FC03460C461846214682
:101EF00085A3D3E9002303F033FF03460C461A46BB
:101F00002346D7E9020103F04FFC03460C4618466E
:101F1000214604F0BDF80246804B1A60824B1B68D4
:101F2000184603F09FFDC7E902017D4B1B68184668
:101F300003F098FD04460D46754B1B68184603F0E8
:101F400091FD02460B461046194602F03BFA024646
:101F50000B462046294603F0D9FD03460C461D4694
:101F60002646704B1B68184603F07CFDC7E900014C
:101F7000674B1B68184603F075FD03460C46184670
:101F8000214602F06DFA03460C46984684F000495B
:101F900042464B46D7E9000103F0B8FD03460C4624
:101FA0001A4623462846314603F0FEFB03460C46FC
:101FB0001846214654A3D3E9002303F0D1FE03467B
:101FC0000C461A462346D7E9020103F0EDFB03460F
:101FD0000C461846214604F05BF80246524B1A6044
:101FE000524B1B68184603F03DFD804689464C4B1A
:101FF0001B68184603F036FD04460D464C4B1B6823
:10200000184603F02FFD3EA3D3E9002303F07EFD25
:1020100002460B46104619464FF00002454B03F0AE
:102020009FFE02460B461046194602F019FA024678
:102030000B462046294603F069FD03460C461D4623
:102040002646384B1B68184603F00CFDC7E9020111
:10205000374B1B68184603F005FD29A3D3E900237D
:1020600003F054FD03460C46184621464FF000028B
:10207000304B03F075FE03460C461846214602F02D
:10208000A1F903460C461A462346D7E9020103F09C
:102090003DFD03460C461A4623462846314603F0CA
:1020A00083FB03460C461846214617A3D3E90023B9
:1020B00003F056FE03460C461A4623464046494660
:1020C00003F072FB03460C461846214603F0E0FF7E
:1020D0000246164B1A60184B1B68184603F0C2FCE8
:1020E000804689460E4B1B68184603F0BBFC04462D
:1020F0000D4623E0AFF300806E861BF0F9211940F6
:10210000F1D4C853FB210940EFFC4292D06BD63F7B
:10211000E001002000003443E0020020CC02002057
:10212000E4020020C4020020B0020020EC020020E3
:102130005802002000806640D00200203E4B1B6801
:10214000184603F08FFC38A3D3E9002303F0DEFC2C
:1021500002460B46104619464FF00002374B03F07B
:10216000FFFD02460B461046194602F02BF90246C7
:102170000B462046294603F0C9FC03460C461D4683
:1021800026462F4B1B68184603F06CFCC7E902017A
:10219000294B1B68184603F065FC23A3D3E90023F1
:1021A00003F0B4FC03460C46184621464FF00002EB
:1021B000224B03F0D5FD03460C461846214602F09B
:1021C0004FF903460C469A4684F0004B52465B4654
:1021D000D7E9020103F09AFC03460C461A4623464F
:1021E0002846314603F0E0FA03460C4618462146DD
:1021F0000FA3D3E9002303F0B3FD03460C461A46B0
:1022000023464046494603F0CFFA03460C4618469B
:10221000214603F03DFF02460A4B1A6000BF143707
:10222000BD46BDE8F08F00BFF1D4C853FB21094083
:10223000EFFC4292D06BD63F5802002000806640EF
:10224000C4020020D00200202DE9B04300AFA24B11
:102250001B781A46A14B1A60A14B1B781A46A14B5A
:102260001A60A14B1B68184603F0EAFB04460D46B2
:102270009A4B1B68184603F0E3FB91A3D3E90023B4
:1022800003F044FC02460B462046294603F08CFA34
:1022900003460C461846214603F0D2FE0246924BF6
:1022A0001A60924B1B68184603F0CAFB04460D46A1
:1022B0008C4B1B68184603F0C3FB81A3D3E90023B2
:1022C00003F024FC02460B462046294603F06CFA34
:1022D00003460C461846214603F0B2FE0246834BE5
:1022E0001A60834B1B68184603F0AAFB74A3D3E95A
:1022F000002303F00BFC03460C4625461C46774B97
:102300001B68184603F09CFB4FF00002794B03F06A
:10231000FDFB02460B46104619466BA3D3E900238A
:1023200003F0F4FB02460B462046294603F03CFA34
:1023300003460C461846214603F082FE02466E4BC9
:102340001A606B4B1B68184603F07AFB5CA3D3E959
:10235000002303F0DBFB03460C4625461C465F4B7F
:102360001B68184603F06CFB4FF00002614B03F052
:10237000CDFB02460B461046194653A3D3E9002372
:1023800003F0C4FB02460B462046294603F00CFA34
:1023900003460C461846214603F052FE0246564BB1
:1023A0001A60514B1B68524A1360504B1B68534ACA
:1023B0001360534B1B68184603F042FB04460D465E
:1023C0004D4B1B684F4A82FB03129210DB17D31A46
:1023D000184603F035FB804689464B4B1B68184670
:1023E00003F040FB3AA3D3E9002303F08FFB02463E
:1023F0000B46104619464FF00002444B03F0B0FC68
:1024000002460B461046194602F02AF802460B46D1
:102410004046494603F07AFB02460B4620462946D1
:1024200003F0C2F903460C461846214603F008FEA5
:102430000246334B1A60364B1B68184603F000FB0C
:1024400004460D46334B1B682E4A82FB0312921042
:10245000DB17D31A184603F0F3FA804689462A4B55
:102460001B68184603F0FEFA19A3D3E9002303F012
:102470004DFB02460B46104619464FF00002234B17
:1024800003F06EFC02460B461046194601F09AFF17
:1024900002460B464046494603F038FB02460B46CF
:1024A0002046294603F080F903460C46184621468B
:1024B00003F0C6FD0246164B1A6000BFBDE8B083AC
:1024C000158C4AEA0434713FC8D0D291337FF23E72
:1024D000F1D4C853FB21094074020020B40200204B
:1024E0007702002098020020F8020020D402002089
:1024F0004C0100200000E03FDC02002050010020E1
:10250000D802002067666666580200200080664098
:10251000A80200209002002080B483B000AF0346E0
:102520003960FB7197F90730002B0BDA0D49FB7905
:1025300003F00F03043B3A68D2B21201D2B20B444B
:102540001A7609E0084997F907303A68D2B21201C1
:10255000D2B20B4483F8002300BF0C37BD4680BCC9
:10256000704700BF00ED00E000E100E080B582B000
:1025700000AF78607B68B3F1807F01D3012311E065
:102580000A4A7B6823F07F43013B53600F214FF0E1
:10259000FF30FFF7C1FF054B00229A60034B072273
:1025A0001A60002318460837BD4680BD10E000E0E1
:1025B00080B483B000AF78607B684FF47A7202FB1E
:1025C00003F3064A136000BF044B1B68002BFBD1CA
:1025D00000BF0C37BD4680BC704700BF54010020CF
:1025E00080B400AF0D4B1B6801330C4A13600C4BD9
:1025F0001B68002B04D00A4B1B68013B084A136080
:10260000084B1B68002B04D0064B1B68013B054A96
:10261000136000BFBD4680BC704700BF580100205A
:102620005C0100205401002080B500AF0F4B1B78E7
:10263000002B19D10120FEF7E7F900BFFEF7F6F9EC
:102640000346002BFAD00A4B1B680A4AA2FB03235D
:102650009B0C1846FFF78AFF0346002B00D0FEE7CD
:10266000024B01221A7000E000BF80BD6001002013
:102670009000002083DE1B4380B487B000AF7860F9
:10268000396000237B6100233B610023FB60002352
:102690007B6176E001227B6902FA03F33B613B68D0
:1026A0001A683B691340FB60FA683B699A4265D13E
:1026B0007B681A687B695B00032101FA03F3DB4343
:1026C0001A407B681A607B681A683B681B79194658
:1026D0007B695B0001FA03F31A437B681A603B686D
:1026E0001B79012B03D03B681B79022B2ED17B6811
:1026F0009A687B695B00032101FA03F3DB431A400C
:102700007B689A607B689A683B685B7919467B694D
:102710005B0001FA03F31A437B689A607B685A688E
:102720007B699BB2194601238B40DB431A407B68CF
:102730005A607B685B683A68927911467A6992B20E
:1027400001FA02F292B21A437B685A607B68DA6837
:102750007B699BB25B00032101FA03F3DB431A4060
:102760007B68DA607B68DA683B68DB7919467B69ED
:102770005B0001FA03F31A437B68DA607B6901337B
:102780007B617B690F2B85D900BF1C37BD4680BCA0
:10279000704780B485B000AF78600B467B80002323
:1027A000FB737B681A697B881340002B02D00123DE
:1027B000FB7301E00023FB73FB7B18461437BD4617
:1027C00080BC704780B483B000AF78600B467B80DC
:1027D0007B687A881A8300BF0C37BD4680BC70477F
:1027E00080B483B000AF78600B467B807B687A88CA
:1027F0005A8300BF0C37BD4680BC704780B485B09B
:1028000000AF78600B467B8013467B700023FB6033
:102810000023BB607A787B8803F007039B0002FAF1
:1028200003F3FB607B88DB089BB218467B88DB08E0
:102830009BB21A467B68083253F822207B8803F04B
:1028400007039B000F2101FA03F3DB4302EA0301B4
:102850007B6800F1080243F822107B88DB089BB2FA
:102860001A467B68083253F82220FB681343BB608A
:102870007B88DB089BB21A467B680832B96843F84C
:10288000221000BF1437BD4680BC704780B582B0AF
:1028900000AF01210820FEF799F94FF4E0633B6097
:1028A00002237B7101233B710023BB710023FB7169
:1028B0003B4619460A48FFF7DFFE4FF4807108488F
:1028C000FFF780FF4FF400710548FFF77BFF4FF4DF
:1028D00080610348FFF776FF00BF0837BD4680BD23
:1028E000000C024080B500AF4FF400710248FFF7C2
:1028F00077FF00BF80BD00BF000C024080B500AF75
:102900004FF480710248FFF76BFF00BF80BD00BF2E
:10291000000C024080B500AF4FF480610248FFF721
:102920005FFF00BF80BD00BF000C024080B500AF5C
:102930004FF480710748FFF745FF4FF400710548D9
:10294000FFF740FF4FF480610248FFF73BFF00BFF5
:1029500080BD00BF000C024080B500AF012000F038
:1029600077F84CF2503000F076F900BF80BD80B5AA
:1029700082B000AF03463A60FB710B46BB71BA7977
:10298000FB791146184600F041F907E03B681B78D7
:10299000184600F0CCF83B6801333B603B681B787D
:1029A000002BF3D100BF0837BD4680BD80B483B093
:1029B00000AF0346FB71FA790B4913469B001344A1
:1029C0009B000B4404331968FA79074813469B00AF
:1029D00013449B00034408331B884B8300BF0C3710
:1029E000BD4680BC704700BF1800002080B483B093
:1029F00000AF0346FB71FA790B4913469B00134461
:102A00009B000B4404331968FA79074813469B006E
:102A100013449B00034408331B880B8300BF0C370F
:102A2000BD4680BC704700BF1800002080B500AFD5
:102A30000120FFF7DBFF4FF47A7000F00CF9012062
:102A4000FFF7B4FF4FF47A7000F005F900BF80BDC6
:102A500080B582B000AF0346FB710020FFF7A6FFF0
:102A600097F90730002B03DA0520FFF7BFFF02E0DC
:102A70000520FFF79BFFFB7903F04003002B03D0F9
:102A80000420FFF7B3FF02E00420FFF78FFFFB797C
:102A900003F02003002B03D00320FFF7A7FF02E081
:102AA0000320FFF783FFFB7903F01003002B03D013
:102AB0000220FFF79BFF02E00220FFF777FFFFF7FE
:102AC000B5FFFB7903F00803002B03D00520FFF7C7
:102AD0008DFF02E00520FFF769FFFB7903F0040397
:102AE000002B03D00420FFF781FF02E00420FFF752
:102AF0005DFFFB7903F00203002B03D00320FFF7F7
:102B000075FF02E00320FFF751FFFB7903F001039B
:102B1000002B03D00220FFF769FF02E00220FFF73D
:102B200045FFFFF783FF00BF0837BD4680BD80B576
:102B300082B000AF0346FB710020FFF757FF97F903
:102B40000730002B03DA0520FFF750FF02E00520D5
:102B5000FFF72CFFFB7903F04003002B03D0042088
:102B6000FFF744FF02E00420FFF720FFFB7903F0AA
:102B70002003002B03D00320FFF738FF02E00320DF
:102B8000FFF714FFFB7903F01003002B03D00220A2
:102B9000FFF72CFF02E00220FFF708FFFFF746FFD8
:102BA000FB7903F00803002B03D00520FFF71EFF7D
:102BB00002E00520FFF7FAFEFB7903F00403002B87
:102BC00003D00420FFF712FF02E00420FFF7EEFE1F
:102BD000FB7903F00203002B03D00320FFF706FF6D
:102BE00002E00320FFF7E2FEFB7903F00103002B74
:102BF00003D00220FFF7FAFE02E00220FFF7D6FE24
:102C0000FFF714FF00BF0837BD4680BD80B584B014
:102C100000AF03460A46FB711346BB71FB790F2BCD
:102C200001D90023FB71BB79012B01D90023BB71B2
:102C3000BB799B01FB73FA7BFB791343FB73FB7B33
:102C400063F07F03FB73FB7B1846FFF701FF00BFB8
:102C50001037BD4680BD80B483B000AF786000BF40
:102C60007B685A1E7A60002BFAD100BF0C37BD4634
:102C700080BC704780B500AF124A124B1B6843F00E
:102C8000010313600F4B00229A600E4A0D4B1B6824
:102C900023F0847323F4803313600A4B0A4A5A608A
:102CA000084A084B1B6823F480231360054B00225D
:102CB000DA6000F00DF8054B4FF000629A6000BF3B
:102CC00080BD00BF003802401030002400ED00E05D
:102CD00080B483B000AF00237B6000233B60354AA3
:102CE000344B1B6843F480331360324B1B6803F48E
:102CF00000333B607B6801337B603B68002B03D172
:102D00007B68B3F5A06FF0D12A4B1B6803F4003346
:102D1000002B02D001233B6001E000233B603B68B5
:102D2000012B42D1234A234B1B6C43F08053136485
:102D3000214A214B1B6843F4804313601D4A1D4BFD
:102D40009B6893601B4A1B4B9B6843F40043936052
:102D5000184A184B9B6843F4A0539360154B174ACD
:102D60005A60144A134B1B6843F08073136000BF12
:102D7000104B1B6803F00073002BF9D0104B40F28E
:102D800005621A600B4A0B4B9B6823F003039360A8
:102D9000084A084B9B6843F00203936000BF054B51
:102DA0009B6803F00C03082BF9D100BF0C37BD461C
:102DB00080BC704700380240007000400854400753
:102DC000003C024080B588B000AF01210220FDF731
:102DD000FDFE01214FF48020FDF716FF4FF4406304
:102DE0007B6102237B7602233B760023BB760123A3
:102DF000FB7607F1140319461E48FFF73DFC072236
:102E00000A211C48FFF7FAFC07220B211948FFF79B
:102E1000F5FC4FF416537B6000233B8100237B813C
:102E20000023BB8100233B820C23FB813B1D194601
:102E30001148FDF7A7FA01210F48FDF75DFB0122BC
:102E400040F225510C48FDF787FB27233B770023F1
:102E50007B770023BB770123FB7707F11C03184620
:102E600000F0CEFC01210448FDF746FB00BF2037EF
:102E7000BD4680BD000402400048004080B500AF60
:102E800040F225514E48FDF7AEFB0346002B06D01D
:102E90004C4B1B789BB219464948FDF74CFB4A4BFB
:102EA0001B78582B07D1474B1A78484B1A70464B62
:102EB00000221A7081E0444B1B78592B07D1414BFB
:102EC0001A78434B1A70404B00221A7075E03E4B43
:102ED0001B78432B07D13B4B1A783E4B1A703A4B69
:102EE00000221A7069E0384B1B784F2B55D1354BB7
:102EF0001A78394B1A70374B1B781A46642303FB38
:102F000002F3354A12781344184603F0CBF903460E
:102F10003249184603F0CEFA03461A46304B1A607F
:102F20002F4B1B682F49184603F006F903461A4633
:102F30002D4B1B681946104603F0FEF803461A464F
:102F4000274B1A60264B1B684FF00001184603F010
:102F50009BFB0346002B09D0214B1B6823491846D5
:102F600003F0ECF803461A461D4B1A601C4B1B6815
:102F70001E49184603F0A6FB0346002B09D0184B48
:102F80001B681A49184603F0D7F803461A46144B33
:102F90001A600D4B00221A700FE00B4B1B78422B6E
:102FA00007D1084B1A78124B1A70074B00221A707F
:102FB00003E0044B1A78044B1A7000BF80BD00BFB9
:102FC0000048004062020020490200204502002023
:102FD000440200206C020020610200200000204119
:102FE0005802002000009A42640100200000B4430F
:102FF0004802002080B584B000AF01210120FDF718
:1030000003FE49F68313BB800023FB800923BB60CA
:103010000023BB810023BB733B1D19464FF080404A
:1030200000F08CFE01214FF0804000F0F1FE012203
:1030300001214FF0804001F069F900BF1037BD4613
:1030400080BD80B582B000AF1C233B7100237B7133
:103050000123BB710123FB713B1D184600F0D0FB1F
:1030600000BF0837BD4680BDB0B500AF01214FF0AD
:10307000804001F06EF90346002B00F0A48201218C
:103080004FF0804001F08EF9AD48FEF749FBAC4BA4
:10309000D3E902014FF00002AA4B02F037FD0346CC
:1030A0000C4618462146A4A3D3E9002302F02EFDC6
:1030B00003460C461846214602F0C2FF0246A24BC8
:1030C0001A60A24BB3F900309AB29F4B1B689BB2B7
:1030D000D31A9BB21AB29E4B1A809D4BB3F90030A3
:1030E0009AB29C4BB3F900309BB2D31A9BB21AB27E
:1030F000994B1A80994BB3F900309AB2944BB3F9BB
:1031000000309BB213449BB21AB2944B1A80944B7A
:103110001B68184603F0C6F804468D4BB3F900301F
:10312000184603F0BFF803468E49184603F00EF91F
:1031300003461D46884BB3F90030184603F0B2F839
:1031400003468949184603F001F903461946284603
:1031500002F0F4FF03461D46804BB3F900301846D9
:1031600003F0A0F803464FF00001184603F0EEF814
:1031700003461946284602F0E1FF03461946204659
:1031800002F0DCFF0346184603F0A6FA0246744B31
:103190001A60734B1B684FF6FE72934203DD704B4F
:1031A0004FF6FE721A606E4B1B6819460220FDF73F
:1031B0006DFB674BB3F90020664B1A806B48FEF736
:1031C000EBFA6A4BD3E902014FF000025D4B02F0CB
:1031D0009DFC03460C461846214657A3D3E900231D
:1031E00002F094FC03460C461846214602F028FFE4
:1031F00002465F4B1A605F4BB3F900309AB25C4BEA
:103200001B689BB2D31A9BB21AB25B4B1A805A4B03
:10321000B3F900309AB2594BB3F900309BB2D31ACC
:103220009BB21AB2564B1A80564BB3F900309AB281
:10323000514BB3F900309BB213449BB21AB2514BBD
:103240001A80514B1B68184603F02CF804464A4B71
:10325000B3F90030184603F025F8034641491846F3
:1032600003F074F803461D46454BB3F90030184689
:1032700003F018F803463C49184603F067F8034684
:103280001946284602F05AFF03461D463D4BB3F946
:103290000030184603F006F803464FF000011846C8
:1032A00003F054F803461946284602F047FF034648
:1032B0001946204602F042FF0346184603F00CFA76
:1032C0000246314B1A60304B1B684FF6FE72934238
:1032D00003DD2D4B4FF6FE721A602B4B1B6819460F
:1032E0000320FDF7D3FA244BB3F90020234B1A80B7
:1032F0002648FEF7D9F9254BD3E902014FF0000229
:10330000104B02F003FC03460C46184621460AA364
:10331000D3E9002302F0FAFB03460C461846214687
:1033200002F08EFE02461A4B1A601A4BB3F90030B7
:103330009AB231E0AFF30080EC51B81E85EBF53F57
:103340000003002000004E4088010020960100206C
:103350007E010020B6010020B8010020BA01002043
:10336000A00100200000A0400000204150030020E8
:103370008C0100209801002080010020BC01002069
:10338000BE010020C0010020A4010020380300205D
:1033900084010020940100208F4B1B689BB2D31A3C
:1033A0009BB21AB28D4B1A808C4BB3F900309AB293
:1033B0008B4BB3F900309BB2D31A9BB21AB2894B34
:1033C0001A80894BB3F900309AB2844BB3F90030BC
:1033D0009BB213449BB21AB2834B1A80834B1B6877
:1033E000184602F05FFF04467C4BB3F900301846E4
:1033F00002F058FF03467E49184602F0A7FF034635
:103400001D46784BB3F90030184602F04BFF0346D7
:103410007849184602F09AFF03461946284602F0FA
:103420008DFE03461D46704BB3F90030184602F07E
:1034300039FF03464FF00001184602F087FF0346AC
:103440001946284602F07AFE03461946204602F045
:1034500075FE0346184603F03FF90246634B1A60B7
:10346000624B1B684FF6FE72934203DD5F4B4FF6D3
:10347000FE721A605D4B1B6819460120FDF706FAC3
:10348000564BB3F90020564B1A805B48FEF7C0F943
:10349000594BD3E902014FF00002584B02F036FBC2
:1034A00003460C461846214649A3D3E9002302F0FF
:1034B0002DFB03460C461846214602F0C1FD02468C
:1034C0004F4B1A604F4BB3F900309AB24C4B1B680C
:1034D0009BB2D31A9BB21AB24B4B1A804A4BB3F928
:1034E00000309AB2494BB3F900309BB2D31A9BB269
:1034F0001AB2474B1A80474BB3F900309AB2424B8D
:10350000B3F900309BB213449BB21AB2414B1A80FC
:10351000414B1B68184602F0C5FE04463A4BB3F90E
:103520000030184602F0BEFE03463149184602F04C
:103530000DFF03461D46364BB3F90030184602F026
:10354000B1FE03462B49184602F000FF0346194618
:10355000284602F0F3FD03461D462E4BB3F900301A
:10356000184602F09FFE03464FF00001184602F095
:10357000EDFE03461946284602F0E0FD03461946D3
:10358000204602F0DBFD0346184603F0A5F802468C
:10359000214B1A60204B1B684FF6FE72934203DDED
:1035A0001D4B4FF6FE721A601B4B1B681946042018
:1035B000FDF76CF9144BB3F90020144B1A80FEF799
:1035C000F7FAFEF741FE00BFB0BD00BFAFF30080C9
:1035D000EC51B81E85EBF53F840100207C010020F2
:1035E000B0010020B2010020B40100209C010020A5
:1035F0000000A040000020411803002000004E40C1
:10360000900100209A01002082010020C2010020C8
:10361000C4010020C6010020A801002080B485B0AC
:1036200000AF7B600346FB810B46BB8113467B8169
:10363000084AFB891380084ABB891380074A7B89A3
:1036400013807B681AB2064B1A8000BF1437BD4640
:1036500080BC704794010020960100209801002052
:103660009A01002080B500AFFFF7C4FCFFF7E9FC2A
:103670000B48FDF7F1FD0B48FDF74AFE0A48FDF740
:10368000A3FE0A48FDF7FCFE0948FDF755FF09486F
:10369000FDF7AEFFFDF758F8FDF79AF800BF80BDC3
:1036A00038030020000300205003002018030020EE
:1036B000700300208803002080B485B000AF7860DC
:1036C0000023FB60344BFB607B689B79002B4FD061
:1036D0003149314B1A687B681B68DB4313400B6030
:1036E0002D492D4B5A687B681B68DB4313404B60A8
:1036F0007B681B791A46FB681344FB60FB68FA6819
:1037000011687A6812680A431A602349224B9A6842
:103710007B681B68DB4313408B601F491E4BDA68D4
:103720007B681B68DB431340CB607B685B79102BA5
:103730000ED11949184B9A687B681B6813438B603C
:103740001549154BDA687B681B681343CB601DE095
:10375000114BFB607B685B791A46FB681344FB6086
:10376000FB68FA6811687A6812680A431A600DE00B
:103770007B681B791A46FB681344FB60FB68FA6898
:1037800011687A681268D2430A401A6000BF143781
:10379000BD4680BC704700BF003C014080B485B08E
:1037A00000AF78600023FB730023BB600C4B1A68EA
:1037B0007B681340BB600A4B5A697B681340002B3F
:1037C00005D0BB68002B02D00123FB7301E000236E
:1037D000FB73FB7B18461437BD4680BC704700BFA7
:1037E000003C014080B483B000AF7860034A7B683E
:1037F000536100BF0C37BD4680BC7047003C0140A0
:1038000080B485B000AF78600023FB730023BB73E6
:103810000F237B737B68DB78002B39D0274BDB6869
:10382000DB431B0ADBB203F00703FB73FB7BC3F133
:103830000403BB737A7BFB7B42FA03F37B737B68E5
:103840005B781A46BB7B02FA03F3FB737B689A78BA
:103850007B7B1340DAB2FB7B1343FB73FB7B1B01C7
:10386000FB73174A7B681B781344FA7B83F80023A9
:10387000134A7B681B785B09DBB218467B681B78B0
:1038800003F01F03012101FA03F342F820300FE097
:103890000B497B681B785B09DBB218467B681B7899
:1038A00003F01F0301229A4000F1200341F8232076
:1038B00000BF1437BD4680BC704700BF00ED00E07C
:1038C00000E100E080B500AF504B1B68002B0BD02F
:1038D0004F4B1B68002B07D04E4B1B68002B03D0AF
:1038E0004D4B1B68012B21D14B4B01221A604B4BD6
:1038F0001B68632B00F38280FFF700F80A20FEF7B5
:1039000057FE464B1B680133444A1360434B1B6808
:10391000632B73D1FFF70AF80A20FEF749FE3F4BED
:1039200000221A603C4B00221A6067E03C4B1B6887
:10393000002B0BD03B4B1B68002B07D03A4B1B686E
:10394000002B03D0344B1B68022B20D1324B0222B8
:103950001A60324B1B68632B52DCFEF7DBFF0A2038
:10396000FEF726FE2D4B1B6801332C4A13602B4BB0
:103970001B68632B44D1FEF7D9FF0A20FEF718FE1F
:10398000264B00221A60244B00221A6038E0274B95
:103990001B68002B0BD0264B1B68002B07D0254B38
:1039A0001B68002B03D01C4B1B68032B20D11A4B28
:1039B00003221A60194B1B68632B23DCFEF792FF6E
:1039C0000A20FEF7F5FD154B1B680133134A1360FF
:1039D000124B1B68632B15D1FEF7A8FF0A20FEF7D8
:1039E000E7FD0E4B00221A600B4B00221A6009E023
:1039F000FEF79CFF094B00221A6004E000BF02E0C2
:103A000000BF00E000BF00BF80BD00BFC8000020B5
:103A1000CC000020D0000020300200202C0200202A
:103A2000E0000020E4000020E8000020D400002096
:103A3000D8000020DC00002080B582B002AFFEF785
:103A40008BFF164B1B68184602F00CF8144B1B78C2
:103A50001A46144B1B780193009202460B461249FA
:103A60001248FDF7E2FB114A00210020FEF77FFF1C
:103A70000F4B1B781A460A4B1B781946094B1B78CB
:103A800000930B460B490948FDF7CFFB074A01217C
:103A90000020FEF76CFF00BFBD4680BD580200202D
:103AA000440200204502002024670008A8030020EB
:103AB000470200203467000880B582B000AF0121C2
:103AC0000420FDF783F802233B6000233B710323AE
:103AD0007B710023BB710223FB713B4619465048A2
:103AE000FEF7CAFD04233B6000233B7103237B7177
:103AF0000023BB710223FB713B4619464848FEF781
:103B0000BBFD08233B6000233B7103237B71002333
:103B1000BB710223FB713B4619464148FEF7ACFDE1
:103B200010233B6000233B7103237B710023BB7197
:103B30000223FB713B4619463948FEF79DFD2023C1
:103B40003B6000233B7103237B710023BB71022385
:103B5000FB713B4619463248FEF78EFD40233B6021
:103B600000233B7103237B710023BB710223FB7194
:103B70003B4619462A48FEF77FFD80233B60002321
:103B80003B7103237B710023BB710223FB713B4616
:103B900019462348FEF770FD4FF480733B60002305
:103BA0003B7103237B710023BB710223FB713B46F6
:103BB00019461B48FEF760FD4FF400733B6000237D
:103BC0003B7103237B710023BB710223FB713B46D6
:103BD00019461348FEF750FD4FF480633B60002305
:103BE0003B7103237B710023BB710223FB713B46B6
:103BF00019460B48FEF740FD4FF400633B6000237D
:103C00003B7103237B710023BB710223FB713B4695
:103C100019460348FEF730FD00BF0837BD4680BD9A
:103C20000008024080B500AF02212E48FEF7B1FD2A
:103C300003461A462C4B1A6004212A48FEF7A9FDB8
:103C400003461A46294B1A6008212648FEF7A1FDB3
:103C500003461A46264B1A6010212248FEF799FDAA
:103C600003461A46234B1A6020211E48FEF791FD99
:103C700003461A46204B1A6040211A48FEF789FD78
:103C800003461A461D4B1A6080211648FEF781FD37
:103C900003461A461A4B1A604FF480711148FEF71A
:103CA00078FD03461A46174B1A604FF400710D4811
:103CB000FEF76FFD03461A46134B1A604FF48061FE
:103CC0000848FEF766FD03461A46104B1A604FF48B
:103CD00000610448FEF75DFD03461A460C4B1A606E
:103CE00000BF80BD00080240C8000020CC000020BA
:103CF000D0000020E0000020E4000020E8000020C8
:103D0000D4000020D8000020DC000020F0000020BB
:103D1000EC00002080B500AF0121074800F019FB3E
:103D20000346002B05D00121034800F03BFBFFF7C1
:103D300083FE00BF80BD00BF000C004080B485B092
:103D400000AF786039600023FB817B681B88FB81B2
:103D50007B68284A934213D07B68274A93420FD04E
:103D60007B68B3F1804F0BD07B68244A934207D025
:103D70007B68234A934203D07B68224A934208D14E
:103D8000FB8923F07003FB813B685A88FB8913434E
:103D9000FB817B681C4A93420CD07B681B4A934290
:103DA00008D0FB8923F44073FB813B681A89FB89A7
:103DB0001343FB817B68FA891A803B685A687B68E9
:103DC000DA623B681A887B681A857B68094A9342E5
:103DD00003D07B68084A934204D13B689B7A9AB22D
:103DE0007B681A867B6801229A8200BF1437BD4621
:103DF00080BC704700000140000401400004004006
:103E000000080040000C004000100040001400407A
:103E100080B483B000AF78600B46FB70FB78002B5A
:103E200008D07B681B889BB243F001039AB27B6881
:103E30001A8007E07B681B889BB223F001039AB2CB
:103E40007B681A8000BF0C37BD4680BC70470000FD
:103E500080B485B000AF7860396000237B81002397
:103E6000FB810023BB817B681B8C9BB223F0010389
:103E70009AB27B681A847B681B8CFB817B689B8869
:103E8000BB817B681B8B7B817B8923F070037B81EB
:103E90007B8923F003037B813B681A887B8913436A
:103EA0007B81FB8923F00203FB813B689A89FB89B4
:103EB0001343FB813B685A88FB891343FB817B6872
:103EC0001E4A934203D07B681D4A934223D1FB894B
:103ED00023F00803FB813B68DA89FB891343FB81EC
:103EE000FB8923F00403FB813B689A88FB89134319
:103EF000FB81BB8923F48073BB81BB8923F40073EE
:103F0000BB813B681A8ABB891343BB813B685A8AD1
:103F1000BB891343BB817B68BA899A807B687A89A5
:103F20001A833B689A687B685A637B68FA891A84AB
:103F300000BF1437BD4680BC704700BF0000014081
:103F40000004014080B485B000AF78603960002380
:103F50007B810023FB810023BB817B681B8C9BB290
:103F600023F010039AB27B681A847B681B8CFB8158
:103F70007B689B88BB817B681B8B7B817B8923F45F
:103F8000E0437B817B8923F440737B813B681B8802
:103F90001B029AB27B8913437B81FB8923F02003A8
:103FA000FB813B689B891B019AB2FB891343FB8110
:103FB0003B685B881B019AB2FB891343FB817B68DA
:103FC000224A934203D07B68214A93422BD1FB893A
:103FD00023F08003FB813B68DB891B019AB2FB89DC
:103FE0001343FB81FB8923F04003FB813B689B88E3
:103FF0001B019AB2FB891343FB81BB8923F48063C5
:10400000BB81BB8923F40063BB813B681B8A9B0097
:104010009AB2BB891343BB813B685B8A9B009AB20F
:10402000BB891343BB817B68BA899A807B687A8994
:104030001A833B689A687B689A637B68FA891A845A
:1040400000BF1437BD4680BC704700BF0000014070
:104050000004014080B485B000AF7860396000236F
:104060007B810023FB810023BB817B681B8C9BB27F
:1040700023F480739AB27B681A847B681B8CFB8163
:104080007B689B88BB817B689B8B7B817B8923F0D2
:1040900070037B817B8923F003037B813B681A8853
:1040A0007B8913437B81FB8923F40073FB813B688D
:1040B0009B891B029AB2FB891343FB813B685B8897
:1040C0001B029AB2FB891343FB817B68224A93420D
:1040D00003D07B68214A93422BD1FB8923F40063F0
:1040E000FB813B68DB891B029AB2FB891343FB818E
:1040F000FB8923F48063FB813B689B881B029AB297
:10410000FB891343FB81BB8923F48053BB81BB89AB
:1041100023F40053BB813B681B8A1B019AB2BB8905
:104120001343BB813B685B8A1B019AB2BB89134373
:10413000BB817B68BA899A807B687A899A833B685D
:104140009A687B68DA637B68FA891A8400BF14373F
:10415000BD4680BC704700BF000001400004014024
:1041600080B485B000AF786039600023BB81002344
:104170007B810023FB817B681B8C9BB223F48053E3
:104180009AB27B681A847B681B8C7B817B689B88D6
:10419000FB817B689B8BBB81BB8923F4E043BB81A4
:1041A000BB8923F44073BB813B681B881B029AB216
:1041B000BB891343BB817B8923F400537B813B681C
:1041C0009B891B039AB27B8913437B813B685B8885
:1041D0001B039AB27B8913437B817B68114A93420C
:1041E00003D07B68104A93420AD1FB8923F48043B1
:1041F000FB813B681B8A9B019AB2FB891343FB81BD
:104200007B68FA899A807B68BA899A833B689A6846
:104210007B681A647B687A891A8400BF1437BD46AC
:1042200080BC7047000001400004014080B485B0AC
:1042300000AF78600B467B800023FB817B681B8B83
:10424000FB81FB8923F00803FB81FA897B881343F8
:10425000FB817B68FA891A8300BF1437BD4680BC96
:10426000704780B485B000AF78600B467B80002338
:10427000FB817B681B8BFB81FB8923F40063FB8143
:104280007B881B029AB2FB891343FB817B68FA8906
:104290001A8300BF1437BD4680BC704780B485B018
:1042A00000AF78600B467B800023FB817B689B8B93
:1042B000FB81FB8923F00803FB81FA897B88134388
:1042C000FB817B68FA899A8300BF1437BD4680BCA6
:1042D000704780B485B000AF78600B467B800023C8
:1042E000FB817B689B8BFB81FB8923F40063FB8153
:1042F0007B881B029AB2FB891343FB817B68FA8996
:104300009A8300BF1437BD4680BC704780B483B029
:1043100000AF78600B467B8013467B707B78002B68
:1043200008D07B689B899AB27B8813439AB27B68DA
:104330009A8109E07B689B899AB27B88DB439BB2B8
:1043400013409AB27B689A8100BF0C37BD4680BC8F
:10435000704780B485B000AF78600B467B80002347
:10436000FB730023BB8100237B817B681B8A9AB28D
:104370007B881340BB817B689B899AB27B88134002
:104380007B81BB89002B05D07B89002B02D00123C8
:10439000FB7301E00023FB73FB7B18461437BD461B
:1043A00080BC704780B483B000AF78600B467B80E0
:1043B0007B88DB439AB27B681A8200BF0C37BD460C
:1043C00080BC704730B5224A21F00043934287B049
:1043D0001BDD204A934205DD02460B4601F0E2F95F
:1043E00007B030BD02AA00F07FF800F00303012BF4
:1043F0001AD0022B0FD01BB30124DDE90423DDE921
:104400000201009401F000F8EAE70022002300F026
:104410008FFA07B030BDDDE90423DDE9020100F0C9
:1044200087FA01F10041DBE7DDE904450093DDE9AE
:10443000020122462B4600F0E7FF01F10041CFE7E1
:10444000DDE90423DDE9020100F072FAC8E700BFEC
:10445000FB21E93FFFFFEF7F21F00041704700BFE4
:1044600030B51F4A21F00043934287B01BDD1D4A3F
:10447000934205DD02460B4601F094F907B030BDCA
:1044800002AA00F031F800F003000128DDE904235E
:104490001AD002280FD0E0B1DDE9020100F048FA9D
:1044A00001F10041EAE7002300930022002300F01D
:1044B000ABFF07B030BD0124DDE90201009400F03C
:1044C000A3FF01F10041D9E7DDE9020100F030FA74
:1044D000D4E70124DDE90201009400F095FFCDE767
:1044E000FB21E93FFFFFEF7F2DE9F04F9A4E21F0CE
:1044F0000047B74291B040F38E809246974A974268
:104500000C4626DC00298AA3D3E9002340F3B481BA
:1045100001F048F9924B9F4204460D4600F090800E
:1045200085A3D3E9002301F03DF902460B46CAE911
:1045300000232046294601F035F97FA3D3E9002363
:1045400001F030F90125CAE90201284611B0BDE8A1
:10455000F08F844A974240F39080834A974265DC0B
:104560003D15A5F21645A7EB055319461F4606460D
:1045700001F066FD01F064FA8046894602460B466A
:1045800030463946CDE90A8901F00CF90022774B13
:1045900001F0BCFA8946804601F052FD01F050FA64
:1045A00002460B4606460F4640464946CDE90C6793
:1045B00001F0F8F800226D4B01F0A8FA0022002368
:1045C000CDE90E0101F00AFD002800F073810023FF
:1045D00030463946002201F001FD002814BF0123B6
:1045E0000223634A019202212A4600910AA85146F9
:1045F00000F0C2FA002C054614DADAF80420DAF8E2
:104600000C3002F1004203F100434542CAF8042095
:10461000CAF80C3006E0C2E9000100250024C2E916
:1046200002450025284611B0BDE8F08F02460B4632
:1046300001F0B8F80025CAE90201CAE90001F1E772
:104640003FA3D3E9002301F0ADF83FA3D3E9002352
:104650000D46044601F0A6F802460B46CAE90023BF
:104660002946204601F09EF837A3D3E9002301F044
:1046700099F80125CAE90201D4E7FFF7EDFE34A35A
:10468000D3E900238046894601F040FA0022394BE5
:1046900001F08AF801F0D4FC054601F0D1F924A319
:1046A000D3E90023CDE9040101F030FA02460B46BC
:1046B0004046494601F076F81FA3D3E9002380461F
:1046C0008946DDE9040101F021FA1F2DCDE902013F
:1046D00054DC294B6A1E53F822309F424ED00246CA
:1046E0000B464046494601F05DF802460B46CAE9D2
:1046F000002383460E465A4633464046494601F05B
:1047000051F8DDE9022301F04DF8002C02460B467A
:10471000CAE9022386DA5B4606F1004601F1004150
:104720008AE84800CAF80C10CAF808006D4279E718
:1047300000004054FB21F93F3163621A61B4D03D5F
:104740000000601A61B4D03D7370032E8A19A33B38
:1047500083C8C96D305FE43FFB21E93F7BD902404C
:10476000FB21F93FFB213941FFFFEF7F0000704142
:10477000C46700080000E03F44670008DDE9022349
:104780004046494601F00EF83A15C1F30A53D31AD0
:10479000102B83460E460992CAE90001ABDD58A3EF
:1047A000D3E90023DDE9040101F0B0F906460F4624
:1047B00002460B464046494600F0F4FFCDE90601AB
:1047C00002460B464046494600F0ECFF32463B4667
:1047D00000F0E8FF4CA3D3E9002306460F46DDE9CD
:1047E000040101F093F932463B4600F0DBFFDDE9BE
:1047F0000689CDE9020102460B464046494600F0D3
:10480000D1FF0B46C1F30A570E460999CF1B02464A
:10481000312F8346CAE900236CDD3DA3D3E9002391
:10482000DDE9040101F072F906460F4602460B4627
:1048300040464946CDE9068900F0B4FF02460B46E2
:1048400080468946DDE9060100F0ACFF32463B4672
:1048500000F0A8FF30A3D3E9002306460F46DDE9A8
:10486000040101F053F932463B4600F09BFF02463B
:104870000B46CDE9022334E700F096FF2A4B9F4216
:1048800004460D4618D026A3D3E9002300F08CFF80
:1048900002460B46CAE900232946204600F082FF63
:1048A0001FA3D3E9002300F07FFF4FF0FF35CAE9D3
:1048B0000201B7E6032394E611A3D3E9002300F035
:1048C00073FF11A3D3E900230D46044600F06CFFEB
:1048D00002460B46CAE900232946204600F062FF43
:1048E00009A3D3E9002300F05FFF4FF0FF35CAE9C9
:1048F000020197E6DDE90689FDE600BFAFF300801F
:104900000000601A61B4D03D7370032E8A19A33B76
:104910000000002E8A19A33BC14920259A837B39C8
:104920003163621A61B4D03DFB21F93F0000000001
:104930002DE9F04F21F00046B6F1795F85B00C46C5
:1049400092469B4605466BDA01F07AFB002800F0A0
:10495000E8802A4623462846214601F0D7F874A36A
:10496000D3E900238046894601F0D0F872A3D3E949
:10497000002300F019FF42464B4601F0C7F870A330
:10498000D3E9002300F00EFF42464B4601F0BEF88B
:104990006DA3D3E9002300F007FF42464B4601F028
:1049A000B5F86BA3D3E9002300F0FCFE42464B466A
:1049B00001F0ACF868A3D3E9002300F0F5FE42460D
:1049C0004B4601F0A3F8CDE900010022644B4046BC
:1049D000494601F09BF8DDE9002306460F464046B4
:1049E000494601F093F85246804689465B46284680
:1049F000214601F08BF802460B464046494600F03E
:104A0000D1FE02460B463046394600F0CBFE024648
:104A10000B460020534900F0C5FE05B0BDE8F08FFD
:104A200002460B4601F072F841A3D3E90023804609
:104A3000894601F06BF840A3D3E9002300F0B4FEEF
:104A400042464B4601F062F83DA3D3E9002300F053
:104A5000A9FE42464B4601F059F83BA3D3E9002397
:104A600000F0A2FE42464B4601F050F838A3D3E9CD
:104A7000002300F097FE42464B4601F047F836A36C
:104A8000D3E9002300F090FE4B46424601F03EF889
:104A9000354B9E42CDE9000197DD344B9E424FF0ED
:104AA000000238DCA6F5001300202E4916461F46EA
:104AB00000F078FECDE902010022294B404649462C
:104AC00001F024F832463B4600F06CFEDDE900239D
:104AD00006460F464046494601F018F852468046C1
:104AE00089465B462846214601F010F802460B46EF
:104AF0004046494600F056FE02460B4630463946CF
:104B000000F050FE02460B46DDE9020100F04AFECD
:104B100005B0BDE8F08F164B164FCDE902230026F5
:104B2000CAE71049002005B0BDE8F08FAFF3008060
:104B3000D43888BEE9FAA8BDC4B1B4BD9EEE213E0A
:104B4000AD529C804F7E923E9015CB19A001FA3E4B
:104B50007751C1166CC1563F4C5555555555A53F1B
:104B60000000E03F0000F03F3233D33F0000E93F58
:104B70000000E73F0000D23F2DE9F04FADF5197D71
:104B80009C4CA29E9C4D54F8264005942646D41E6B
:104B900085FB0475E417C4EBA50424EAE4741D4600
:104BA0000893631CA3EB8303013D02EBC30304934F
:104BB0002B4609940295651BF418039006911AD4AC
:104BC0002C4401340DF1780800260027DDF88C9282
:104BD00008E059F8250000F033FF0135A542E8E967
:104BE000020108D0002DF4DA013530463946A542DD
:104BF000E8E90201F6D1059B002B2EDB089B4FEA6A
:104C0000C309039BA9F10808984420AB9944059B6C
:104C100070AA02EBC30B0DF5DC7A029B002BC0F2ED
:104C20000F83039B4D46A3F108040026002775E976
:104C30000223F4E9020100F069FF02460B46304608
:104C4000394600F0B1FD444506460F46EFD1EAE98A
:104C50000267DA4509F10809DFD10598089A009042
:104C600000F18043013B9B000CAC191F234402F16F
:104C700000520B93039B013A21440A9103EBC20BB0
:104C8000009A98A901EBC203002A53E9284513466C
:104C90002BDD01EBC308A8F1A8080DF12C090DF5D7
:104CA000DC7A0022554B2046294600F02FFF01F008
:104CB000C7F900F0C5FE0022514B06460F4600F032
:104CC00025FF02460B462046294600F06BFD01F009
:104CD000B7F978E8022349F8040F3946304600F066
:104CE00063FDD04504460D46DBD1DDF8109020462B
:104CF00029464A4600F0CCFC00224FF07F53044680
:104D00000D4600F003FF00F037FC00223D4B00F0A1
:104D1000FDFE02460B462046294600F043FD0D46A7
:104D2000044601F08DF9804600F08AFE0B460246EB
:104D30002946204600F036FD4B46002B06460F461E
:104D400040F3F780009A0CA9013AC9F1180351F811
:104D5000225045FA03F101FA03F30CA8EB1A40F8CC
:104D60002230C9F11705884443FA05F5002D63DDAB
:104D7000009B002B08F1010840F381820C9C002C61
:104D800000F01883012000230CAAC4F1807442F8BB
:104D90002340009A824219DD0CAA0CAC52F8201074
:104DA0006FF07F42511A44F8201000990233994263
:104DB0000CDD1046009A0CA901EB830301EB820184
:104DC0001A68821A43F8042B8B42F9D1049B002BFA
:104DD0001ADD049B012B4FF0010440F05882009B28
:104DE0005A1E0CAB0CA953F82230C3F3160341F83A
:104DF000223058E210690008ABAAAA2A0000703ECF
:104E00000000704100002040022D15D132463B4683
:104E10000020974900F0C6FC06460F46049A9449C4
:104E2000002000F035FC02460B463046394600F0C3
:104E3000B9FC022506460F460022002330463946BB
:104E400001F0CCF8002800F05282009A059B501E19
:104E500083420FDC02F18043013B0CAA0B9C02EB66
:104E60008303002253F80419A34242EA0102F9D154
:104E7000002A6FD1059B0CAA013B52F82330002B6E
:104E800040F033820A9A012352F8041901330029B1
:104E9000FAD0009AD31802F1010A9A4507933DDC33
:104EA000009B0899099A0B4407990AEB0208994656
:104EB00020AB08F1804803EBC9098B18A39A08F1CD
:104EC000FF3802EB880870AA02EBCA0AA39A02EB29
:104ED0008303009358F8040F00F0B2FD029B002BEF
:104EE000E9E802011DDB039B4D46A3F108040026FF
:104EF000002775E90223F4E9020100F007FE0246EB
:104F00000B463046394600F04FFC5C4506460F46DE
:104F1000EFD1009B9845EAE80267DBD1079B00933D
:104F2000AEE6009B002600279845EAE80267D1D14B
:104F3000F4E706D1009B0CAA013B52F82350ED1573
:104F400014E700224B4B01F067F8002840F0828103
:104F5000054671E70CA9029551F820300499CDF867
:104F60001C8018390246009004916BB900F180430F
:104F7000013B0CA800EB830353F80409013A1839EC
:104F80000028F9D000920491049A3949002000F0D9
:104F90007FFB009B002B04460D46C0F20382DA0023
:104FA00070A901EB020B04920CAA02EB8306DFF856
:104FB000C8900BF1080704364FF0000856F8040DAE
:104FC00000F03EFD22462B4600F0A0FD4B4667E96F
:104FD000020142462046294600F098FD0CAB9E4255
:104FE00004460D46EAD10DF5907ACDF80CA0DDF817
:104FF00014A04FF00009BAF1000FC0F23D81DFF8B4
:105000007C805D4618A1D1E900010026002700241C
:1050100003E04C4510DCF8E80201F5E8022300F05B
:1050200075FD02460B463046394600F0BDFB0134A3
:10503000A24506460F46ECDA039B03EBC903ABF12E
:10504000080BC3E900676EAB5B4509F10109D2D1DA
:10505000A29BDDF80CA0032B00F28B80DFE813F09D
:10506000D10090009000100000000040FB21F93FAB
:105070000000F03F0000E03F0000703ED8680008EC
:10508000009B002B40F3A481049B0AEB0308D8E9A2
:105090000067D34658E9029A32463B464846514695
:1050A00000F082FB04460D4602460B464846514638
:1050B00000F078FB32463B4600F076FBC8E9000181
:1050C00068E90245C34526462F46E3D1009B012BE4
:1050D000DA4640F37D81049B5B44D3E90067984640
:1050E00099460DF5947B59E902343246184621461B
:1050F0003B46CDE9000100F057FB04460D46024651
:105100000B46DDE9000100F04DFB32463B4600F066
:105110004BFBC9E9000169E90245CB4526462F460C
:10512000E1D1002308F108081D464CAC1846294679
:1051300078E9022300F038FB444503460D46F5D1DB
:10514000029A002A00F02081DAF80440DAF80C20F4
:10515000069FDAF80010DAF808003B6105F1004517
:1051600004F1004402F100427D617C60FA60396024
:10517000B860079B03F007000DF5197DBDE8F08FBF
:10518000049C00260834544433463046194674E9DA
:10519000022300F009FB544506460B46F5D1029A5E
:1051A00030461946002A00F0DA80069803F10044E0
:1051B000324644600660DAE9000100F0F3FA0B467B
:1051C0000099002902460EDD012410461946FAE92D
:1051D000022300F0E9FA0B4600990134A14202468D
:1051E000F3DA029909B103F100431946069B104610
:1051F000C3E90201079B03F007000DF5197DBDE827
:10520000F08F049C0022083454441346104619467B
:1052100074E9022300F0C8FAA24502460B46F5D114
:10522000029909B103F100431946069B1046C3E9F0
:105230000001079B03F007000DF5197DBDE8F08F15
:1052400000260027EAE90267DA4509F108097FF438
:10525000E4AC02E5009B002B08F10108C8BF022561
:105260003FF78CAD32463B460020634900F09AFA86
:10527000022506460F46DFE500260027DCE6049BF4
:10528000002B26DD0024049B012B3FF4A8AD022B4C
:1052900009D1009B5A1E0CAB0CA953F82230C3F362
:1052A000150341F82230022D7FF4C6AD32463B464D
:1052B0000020514900F076FA06460F46002C3FF4D4
:1052C000BBADABE500990133994278D1049B002B2B
:1052D000D9DC022D7FF4B0AD32463B460020464972
:1052E00000F060FA06460F46A6E50123D1E53946EF
:1052F000049F02957A423046CDF81C8000F0C8F930
:1053000000223E4B04460D4600F086FE002862D087
:1053100000223B4B2046294600F0F8FB00F090FEAF
:10532000064600F08DFB0022344B00F0EFFB0246F6
:105330000B462046294600F035FA00F081FE009920
:105340000B4601331A4600933B46183304930B4631
:105350000CA941F82300134641F8236014E6069B8C
:105360003246C3E900010B46DAE9000100F01AFAFF
:105370000B460099002902463FF726AF1946069BC7
:105380001046C3E9020135E718462946DAE9002349
:10539000DAE90245069FC7E90401C7E90023C7E926
:1053A0000245E6E6A29B032B3FF6E3AEDFE803F0FF
:1053B000211C1C0E009B012B88DD0CAA012352F836
:1053C000044F002C3FF47EAF581CDDE40DF5907ABD
:1053D00000231D46B4E62946204600F031FE009A1F
:1053E0000CA941F82200CFE5002633460DF5907A4E
:1053F000D5E60022134613E70000F03F000070419D
:105400000000703E000000002DE9F04F21F0004642
:10541000B6F1795F85B00C4690469946054604DAA8
:1054200000F00EFE002800F085802A46234628461C
:10543000214600F06BFB06460F4602460B46284607
:10544000214600F063FB3EA3D3E9002382468B464E
:105450003046394600F05AFB3BA3D3E9002300F065
:10546000A1F932463B4600F051FB39A3D3E90023B2
:1054700000F09AF932463B4600F048FB36A3D3E9E8
:10548000002300F08FF932463B4600F03FFB34A387
:10549000D3E9002300F088F90E9BCDE900019BB30E
:1054A0000022334B4046494600F030FBDDE9002343
:1054B000CDE902015046594600F028FB02460B4652
:1054C000DDE9020100F06EF932463B4600F01EFBBA
:1054D00042464B4600F066F923A3D3E90023064673
:1054E0000F465046594600F011FB02460B46304627
:1054F000394600F059F902460B462846214600F08D
:1055000051F905B0BDE8F08F02460B4630463946EA
:1055100000F0FCFA14A3D3E9002300F043F952464B
:105520005B4600F0F3FA2A46234600F03DF905B049
:10553000BDE8F08F2846214605B0BDE8F08F00BFDA
:105540007CD5CF5A3AD9E53DEB9C2B8AE6E55A3E0D
:105550007DFEB157E31DC73ED561C119A0012A3FA9
:10556000A6F810111111813F495555555555C53FA4
:105570000000E03F00000000C1F30A522DE9F843AB
:10558000A2F2FF36132E0B460D4604468846074608
:105590001DDC002E40DB3C4A42FA06F901EA090212
:1055A0000243864618D036A3D3E9002300F0FCF866
:1055B0000022002300F03AFD20B1002D42DB28EA52
:1055C000090500273C4629462046BDE8F883332ECE
:1055D00006DDB6F5806F2FD019462046BDE8F8836A
:1055E000A2F213424FF0FF3929FA02F910EA090F2B
:1055F000F2D023A3D3E9002300F0D6F80022002341
:1056000000F014FD0028DDD0002D21DB454627EAFF
:1056100009073C462946D7E719A3D3E9002300F040
:10562000C3F80022002300F001FD0028CAD0002D9D
:1056300019DB00273D46C5E702460B4600F0B4F8EB
:105640000446CAE74FF4801343FA06F6B044B6E7BF
:10565000142E10D00123C6F1340603FA06F63719CA
:1056600028BF9844D2E725F00042084B224318BFD8
:105670001D460027A6E705F10108C7E7AFF3008044
:105680009C7500883CE4377EFFFF0F000000F0BFF0
:10569000F8B5C1F30A5604460D460B4617460EBB35
:1056A00021F000430343864625D00022344B00F00E
:1056B0002DFA344A974204460D460B462ADBC1F3C5
:1056C0000A56363E3E4440F2FE72964228DC002ED8
:1056D00012DD23F0FF4323F4E00343EA065520469E
:1056E0002946F8BD40F2FF729642EBD102460B46C6
:1056F00000F05AF8F8BDF8BD16F1350F1DDA4CF27E
:1057000050339F4222462B4625DC19A1D1E90001E6
:1057100000F03CF816A3D3E9002300F0F7F9F8BD38
:1057200022462B4614A1D1E9000100F02FF812A364
:10573000D3E9002300F0EAF9F8BD23F0FF4323F496
:10574000E003363643EA06552046294600220E4B32
:1057500000F0DCF9F8BD08A1D1E9000100F016F86D
:1057600005A3D3E9002300F0D1F9F8BDAFF3008021
:1057700059F3F8C21F6EA5019C7500883CE4377E82
:1057800000005043B03CFFFF0000903C03F000439A
:1057900021F0004242EA0301704700BF81F000415E
:1057A00002E000BF83F0004330B54FEA41044FEA06
:1057B000430594EA050F08BF90EA020F1FBF54EAA1
:1057C000000C55EA020C7FEA645C7FEA655C00F03D
:1057D000E2804FEA5454D4EB5555B8BF6D420CDD0E
:1057E0002C4480EA020281EA030382EA000083EA91
:1057F000010180EA020281EA0303362D88BF30BD31
:1058000011F0004F4FEA01314FF4801C4CEA113186
:1058100002D0404261EB410113F0004F4FEA0333E5
:105820004CEA133302D0524263EB430394EA050F70
:1058300000F0A780A4F10104D5F1200E0DDB02FADF
:105840000EFC22FA05F2801841F1000103FA0EF273
:10585000801843FA05F359410EE0A5F120050EF139
:10586000200E012A03FA0EFC28BF4CF0020C43FA6A
:1058700005F3C01851EBE37101F0004507D54FF077
:10588000000EDCF1000C7EEB00006EEB0101B1F5C7
:10589000801F1BD3B1F5001F0CD349085FEA30000D
:1058A0004FEA3C0C04F101044FEA445212F5800F18
:1058B00080F09A80BCF1004F08BF5FEA500C50F1B5
:1058C000000041EB045141EA050130BD5FEA4C0C98
:1058D000404141EB010111F4801FA4F10104E9D121
:1058E00091F0000F04BF01460020B1FA81F308BF18
:1058F0002033A3F10B03B3F120020CDA0C3208DDE4
:1059000002F1140CC2F10C0201FA0CF021FA02F1BE
:105910000CE002F11402D8BFC2F1200C01FA02F12E
:1059200020FA0CFCDCBF41EA0C019040E41AA2BF53
:1059300001EB0451294330BD6FEA04041F3C1CDA1B
:105940000C340EDC04F11404C4F1200220FA04F03B
:1059500001FA02F340EA030021FA04F345EA0301E5
:1059600030BDC4F10C04C4F1200220FA02F001FAA7
:1059700004F340EA0300294630BD21FA04F0294629
:1059800030BD94F0000F83F4801306BF81F48011C2
:105990000134013D4EE77FEA645C18BF7FEA655C35
:1059A00029D094EA050F08BF90EA020F05D054EA07
:1059B000000C04BF1946104630BD91EA030F1EBF0C
:1059C0000021002030BD5FEA545C05D14000494110
:1059D00028BF41F0004130BD14F580043CBF01F503
:1059E000801130BD01F0004545F0FE4141F47001E9
:1059F0004FF0000030BD7FEA645C1ABF19461046C4
:105A00007FEA655C1CBF0B46024650EA013406BFC4
:105A100052EA033591EA030F41F4002130BD00BF83
:105A200090F0000F04BF0021704730B54FF4806440
:105A300004F132044FF000054FF0000150E700BFC1
:105A400090F0000F04BF0021704730B54FF4806420
:105A500004F1320410F0004548BF40424FF000010D
:105A60003EE700BF42004FEAE2014FEA31014FEA50
:105A700002701FBF12F07F4393F07F4F81F060519F
:105A8000704792F0000F14BF93F07F4F704730B50E
:105A90004FF4607401F0004521F0004120E700BFA1
:105AA00050EA010208BF704730B54FF000050AE028
:105AB00050EA010208BF704730B511F0004502D529
:105AC000404261EB41014FF4806404F132045FEA2B
:105AD000915C3FF4DCAE4FF003025FEADC0C18BFD0
