:020000040800F2
:10000000B00D0020AD0300080D0400080D04000829
:100010000D0400080D0400080D0400080000000095
:100020000000000000000000000000000D040008B7
:100030000D040008000000000D040008051300086E
:100040000D0400080D0400080D0400080D0400084C
:100050000D0400080D04000889110008A71100080C
:10006000C5110008E3110008011200080D04000882
:100070000D0400080D0400080D0400080D0400081C
:100080000D0400080D0400080D0400080D0400080C
:100090000D0400080D0400080D0400081F120008DC
:1000A0000D0400080D0400080D0400080D040008EC
:1000B000F52000080D0400080D0400080D040008D8
:1000C0000D0400080D0400080D0400080D040008CC
:1000D0000D0400080D040008890100088D1A0008AD
:1000E0000D0400080D0400080D0400080D040008AC
:1000F0000D0400080D0400080D0400080D0400089C
:100100000D0400080D040008212F00080D0400084C
:100110000D0400080D0400080D0400080D0400087B
:100120000D0400080D0400080D0400080D0400086B
:100130000D0400080D0400080D0400080D0400085B
:100140000D0400080D0400080D0400080D0400084B
:100150000D0400080D0400080D0400080D0400083B
:100160000D0400080D0400080D0400080D0400082B
:100170000D0400080D0400080D0400080D0400081B
:100180000D0400080D04000880B500AF40F22551B1
:10019000434800F0B0F80346002B7ED0404800F002
:1001A0009BF80346DAB23F4B1A703F4B1B78782B13
:1001B00008D13C4B1B781A463C4B1A603A4B002244
:1001C0001A7043E0384B1B78792B08D1354B1B78DC
:1001D0001A46374B1A60344B00221A7036E0324B05
:1001E0001B78582B08D12F4B1B781A46314B1A60BD
:1001F0002D4B00221A7029E02B4B1B78592B08D16C
:10020000284B1B781A462C4B1A60274B00221A7079
:100210001CE0254B1B78672B07D1224B1A78274B04
:100220001A70214B00221A7010E01F4B1B78732BA1
:1002300008D11C4B1B781A46214B1A601A4B00221E
:100240001A7003E0174B1A78174B1A701D4B1A6877
:10025000164B1B689A4205D11B4B1A68144B1B683E
:100260009A4212D0114B1B68184604F0C7FD024693
:10027000164B1A600E4B1B68184604F0BFFD024671
:10028000134B1A60134B01221A60084B1B680D4A6E
:100290001360074B1B680C4A136000BF80BD00BF92
:1002A00000440040F4030020EC030020E40300209D
:1002B000B0030020C0030020D0030020BB030020B7
:1002C000B4030020DC030020D803002064050020D4
:1002D000A40500205C05002080B483B000AF7860E6
:1002E0007B689B889BB2C3F308039BB218460C370C
:1002F000BD4680BC704780B487B000AF78600B46C5
:100300007B800023FB6000237B610023BB60002314
:10031000FB747B88DBB25B09DBB2BB607B8803F0DC
:100320001F037B6101227B6902FA03F37B61BB68D7
:10033000012B07D17B689B899BB21A467B691340CE
:100340007B6111E0BB68022B07D17B681B8A9BB2E3
:100350001A467B6913407B6106E07B689B8A9BB2EF
:100360001A467B6913407B617B881B0A9BB2FB604A
:100370000122FB6802FA03F3FB607B681B889BB2D7
:100380001A46FB681340FB607B69002B05D0FB68B5
:10039000002B02D00123FB7401E00023FB74FB7CE3
:1003A00018461C37BD4680BC7047000080B582B03F
:1003B00000AF114B7B60114B3B6007E03B681A1D9F
:1003C0003A607A68111D796012681A603B680C4ABD
:1003D0009342F3D30B480C494FF000028842B8BF58
:1003E00040F8042BFADB01F0A9FA00F0AFF800BFE7
:1003F0000837BD4680BD00BF28540008000000201B
:10040000E4000020E8000020AC05002080B400AF2C
:10041000FEE7000080B584B000AF03463960FB7191
:100420003B68002BCCBF01230023FB733B68002BF0
:10043000B8BF5B423B60FB79013B032B7AD801A23A
:1004400052F823F0550400088D040008C504000884
:10045000FD040008FB7B002B0AD04FF48051384884
:1004600001F042F84FF40051354801F04BF809E033
:100470004FF40051324801F037F84FF480513048C2
:1004800001F040F82F4A3B68536354E0FB7B002B9C
:100490000AD04FF480412A4801F026F84FF4004179
:1004A000274801F02FF809E04FF40041244801F0FB
:1004B0001BF84FF48041224801F024F8214A3B68A0
:1004C000936338E0FB7B002B0AD04FF480511E4829
:1004D00001F00AF84FF480411B4801F013F809E0DD
:1004E0004FF48041184800F0FFFF4FF48051164848
:1004F00001F008F8134A3B68D3631CE0FB7B002B38
:100500000AD04FF40051104800F0EEFF4FF40041C4
:100510000D4800F0F7FF09E04FF400410A4800F0F1
:10052000E3FF4FF40051084800F0ECFF054A3B6838
:10053000136400E000BF00BF1037BD4680BD00BFA0
:1005400000040240000800400010024090B585B051
:1005500004AF01F0F3F900F0F9FE00F0E1FF41F221
:10056000883000F0B7FE01F069FD4FF000034FF056
:100570000004CDE902344FF000034FF00004CDE950
:1005800000344FF000024FF000034FF000004FF036
:10059000000101F045FC40F6B83000F09BFE102150
:1005A0003E4800F088FF03461A463D4B1A60202162
:1005B0003A4800F080FF03461A463A4B1A60402141
:1005C000364800F078FF03461A46374B1A604FF062
:1005D00000034FF00004CDE902344FF000034FF068
:1005E0000004CDE900344FF00002304B4FF0000022
:1005F0004FF0000101F014FC40F6B83000F06AFE44
:100600004FF000034FF00004CDE902344FF0000337
:100610004FF00004CDE900344FF00002234B4FF0BF
:100620000000224901F0FCFB40F6B83000F052FE19
:100630004FF000034FF00004CDE902344FF0000307
:100640004FF00004CDE900344FF000024FF00003FA
:100650004FF00000154901F0E3FB40F6B83000F020
:1006600039FE4FF000034FF00004CDE902344FF0A3
:1006700000034FF00004CDE900344FF000024FF0CA
:1006800000034FF000004FF0000101F0C9FB40F6FD
:10069000B83000F01FFE00F0B7FFFCE70008024092
:1006A000C8030020F0030020C403002000005940CC
:1006B00080B483B000AF0346FB71054B00221A7073
:1006C000034AFB79137000BF0C37BD4680BC7047EE
:1006D0000238024080B582B000AF00233B600023A7
:1006E000FB710023BB71312000F03AF80346BB7167
:1006F0003B6801333B603B68B3F5A06F02D0BB7928
:10070000002BF0D0312000F02BF80346002B02D054
:100710000123FB7101E00023FB71FB7918460837C8
:10072000BD4680BD80B483B000AF78600B46FB70DF
:10073000FB78002B06D00949084B1A6B7B681343E2
:100740000B6306E00549054B1A6B7B68DB431340DE
:100750000B6300BF0C37BD4680BC704700380240B9
:1007600080B487B000AF0346FB710023FB60002319
:100770007B610023FB74FB795B09DBB2FB60FB68E8
:10078000012B03D1124B1B687B6109E0FB68022B34
:1007900003D10F4B1B6F7B6102E00D4B5B6F7B61E5
:1007A000FB7903F01F03FB607A69FB6822FA03F30D
:1007B00003F00103002B02D00123FB7401E00023AE
:1007C000FB74FB7C18461C37BD4680BC704700BFDD
:1007D0000038024080B483B000AF78600B46FB70F5
:1007E0007B68FA781A70012318460C37BD4680BC26
:1007F000704780B485B000AF786039600023FB603B
:100800000AE07B685A1C7A603A68511C3960127899
:100810001A70FB680133FB603B681B78002BF0D13A
:10082000FB6818461437BD4680BC704780B586B05B
:1008300000AFF8607A603B600B46FB7200237B617F
:100840007B68013B7B603B68092B1DD93B681D4AD7
:10085000A2FB0323DB08F97A7A68F868FFF7E6FF62
:1008600078617B69FA681344FB6010E0FB7A1946F3
:10087000F868FFF7AFFFFB680133FB607B6901336A
:100880007B617B68013B7B607B68002BEEDC396819
:100890000C4BA3FB0123DA0813469B0013445B00B7
:1008A000CA1AD3B23033DBB21946F868FFF792FFA9
:1008B00002467B6913447B617B6918461837BD4645
:1008C00080BD00BFCDCCCCCC80B586B000AFF86089
:1008D0007A603B600B46FB7200237B613B68002B18
:1008E00003DA3B685B423B6101E03B683B617B684C
:1008F000013B7B603B69092B1FD93B68002B0CDA5D
:100900003B692E4AA2FB0323DB085B42F97A7A6833
:10091000F868FFF7D9FF78610AE03B69274AA2FB34
:100920000323DB08F97A7A68F868FFF7CDFF78616E
:100930007B69FA681344FB6025E03B68002B11DA01
:100940007B68013B7B600DE0FB7A1946F868FFF796
:1009500041FFFB680133FB607B6901337B617B688E
:10096000013B7B607B68002BEEDC3B68002B0ADAE6
:100970002D21F868FFF72EFF02467B6913447B6147
:10098000FB680133FB6039690C4BA3FB0123DA08D8
:1009900013469B0013445B00CA1AD3B23033DBB258
:1009A0001946F868FFF716FF02467B6913447B611E
:1009B0007B6918461837BD4680BD00BFCDCCCCCC76
:1009C00080B588B002AFF8607A601A460B46FB72B9
:1009D0001346BB7200237B617B68013B7B603B6AF3
:1009E0001B09002B20D03B6A1B09BA7AF97A0093C5
:1009F00013467A68F868FFF7E3FF02467B69134401
:100A00007B617B69FA681344FB6010E0FB7A19464E
:100A1000F868FFF7DFFEFB680133FB607B69013399
:100A20007B617B68013B7B607B68002BEEDC3B6A73
:100A300003F00F03092B0BD83B6ADBB203F00F0363
:100A4000DBB23033DBB21946F868FFF7C3FE19E0BA
:100A5000BB7A002B0BD03B6ADBB203F00F03DBB297
:100A60003733DBB21946F868FFF7B4FE0AE03B6A99
:100A7000DBB203F00F03DBB25733DBB21946F86881
:100A8000FFF7A8FE7B6901337B617B691846183745
:100A9000BD4680BD80B58AB002AFF860B9607A60AB
:100AA0003B600023BB6100237B61FB68002B00F0EF
:100AB000FC80FB6800221A70F7E07B681B78252B0E
:100AC0000BD0FB685A1CFA607A68511C7960127866
:100AD0001A707B6901337B61E7E07B6801331B7827
:100AE000252B0BD1FB685A1CFA6025221A707B68F3
:100AF00002337B607B6901337B61D6E02023FB7787
:100B00000023BB777B6801337B607B681B78302BCD
:100B100014D13023FB777B6801337B600EE0BB7F11
:100B20001A46920013445B00DAB27B681B781344C8
:100B3000DBB2303BBB777B6801337B607B681B7823
:100B40002F2B03D97B681B78392BE8D9BA7F7B69B7
:100B500013441A46BB689A4205D9BB68DAB27B696E
:100B6000DBB2D31ABB777B681B78583B202B00F293
:100B70008E8001A252F823F0490C00088F0C000867
:100B80008F0C00088F0C00088F0C00088F0C0008D9
:100B90008F0C00088F0C00088F0C00088F0C0008C9
:100BA0008F0C0008790C0008FD0B00088F0C000862
:100BB0008F0C00088F0C00088F0C0008FD0B00083C
:100BC0008F0C00088F0C00088F0C00088F0C000899
:100BD0008F0C00088F0C00088F0C00088F0C000889
:100BE0008F0C0008650C00088F0C0008150C00081D
:100BF0008F0C00088F0C00082D0C0008B87F3B6894
:100C00001A1D3A601B68F97F0246F868FFF75CFE20
:100C1000B8613FE0B87F3B681A1D3A601B68F97FF6
:100C20000246F868FFF702FEB86133E0B87F3B6820
:100C30001A1D3A601B68F97F009300230246F8688A
:100C4000FFF7BEFEB86125E0B87F3B681A1D3A6029
:100C50001B68F97F009301230246F868FFF7B0FE96
:100C6000B86117E03B681A1D3A601B681946F868BE
:100C7000FFF7BFFDB8610DE03B681A1D3A601B68C5
:100C8000DBB21946F868FFF7A5FDB86102E04FF046
:100C9000FF3325E07B6801337B60BB69FA6813444E
:100CA000FB607A69BB6913447B617B681B78002B0E
:100CB00004D07A69BB689A42FFF4FFAE7A69BB68D8
:100CC0009A4203D2FB6800221A7008E0FB68013BDD
:100CD000FB60FB6800221A707B69013B7B617B69CA
:100CE00018462037BD4680BD80B584B000AFF8609F
:100CF000B9607A607B68BA686421F868FFF7CAFE59
:100D0000034618461037BD4680BD0EB480B585B089
:100D100000AF786007F12003BB60BA68F9697868B2
:100D2000FFF7E2FFF860FB6818461437BD46BDE8E0
:100D3000804003B07047000090B583B000AF78608A
:100D40001A4B1B68184603F077FC7B68D3E9003424
:100D50001A46234603F022FB03460C467A68C2E992
:100D60000234124B1B68184603F066FC03460C461F
:100D70007A68C2E900340D4B1B68002B04DA7B68EB
:100D800001221A7401230CE0084B1B68002B04DDC0
:100D90007B6800221A74002303E07B6802221A7425
:100DA000022318460C37BD4690BD00BF0804002042
:100DB00090B583B000AF78601A4B1B68184603F0FB
:100DC0003BFC7B68D3E900341A46234603F0E6FA7D
:100DD00003460C467A68C2E90234124B1B68184677
:100DE00003F02AFC03460C467A68C2E900340D4B36
:100DF0001B68002B04DA7B6801221A7401230CE0C3
:100E0000084B1B68002B04DD7B6800221A7400234A
:100E100003E07B6802221A74022318460C37BD4691
:100E200090BD00BF0404002090B583B000AF78608F
:100E30001A4B1B68184603F0FFFB7B68D3E90034AC
:100E40001A46234603F0AAFA03460C467A68C2E91A
:100E50000234124B1B68184603F0EEFB03460C46A7
:100E60007A68C2E900340D4B1B68002B04DA7B68FA
:100E700001221A7401230CE0084B1B68002B04DDCF
:100E80007B6800221A74002303E07B6802221A7434
:100E9000022318460C37BD4690BD00BF0C0400204D
:100EA00090B583B000AF78601A4B1B68184603F00A
:100EB000C3FB7B68D3E900341A46234603F06EFA7D
:100EC00003460C467A68C2E90234124B1B68184686
:100ED00003F0B2FB03460C467A68C2E900340D4BBE
:100EE0001B68002B04DA7B6801221A7401230CE0D2
:100EF000084B1B68002B04DD7B6800221A7400235A
:100F000003E07B6802221A74022318460C37BD46A0
:100F100090BD00BF0004002080B582B000AF012169
:100F2000144800F0C8FA0346FB711021114800F084
:100F3000C2FA0346BB71104B1B78FA799A4214D05F
:100F40000D4AFB7913700C4B1B78002B0DD1BB792C
:100F5000012B05D1094B1B680133084A136004E0DB
:100F6000064B1B68013B054A136000BF0837BD46AE
:100F700080BD00BF000C02400000002008040020DB
:100F800080B582B000AF0221144800F094FA034605
:100F9000FB712021114800F08EFA0346BB71104B03
:100FA0001B78FA799A4214D00D4AFB7913700C4BD6
:100FB0001B78002B0DD1BB79012B05D1094B1B6888
:100FC0000133084A136004E0064B1B68013B054AE5
:100FD000136000BF0837BD4680BD00BF000C024053
:100FE000010000200404002080B582B000AF04217D
:100FF000144800F060FA0346FB714021114800F0EC
:101000005AFA0346BB71104B1B78FA799A4214D0F6
:101010000D4AFB7913700C4B1B78002B0DD1BB795B
:10102000012B05D1094B1B680133084A136004E00A
:10103000064B1B68013B054A136000BF0837BD46DD
:1010400080BD00BF000C0240020000200C04002004
:1010500080B582B000AF0821144800F02CFA034696
:10106000FB718021114800F026FA0346BB71104B3A
:101070001B78FA799A4214D00D4AFB7913700C4B05
:101080001B78002B0DD1BB79012B05D1094B1B68B7
:101090000133084A136004E0064B1B68013B054A14
:1010A000136000BF0837BD4680BD00BF000C024082
:1010B000030000200004002080B582B000AF1021A2
:1010C000144800F0F8F90346FB710421114800F0C0
:1010D000F2F90346BB71104B1B78FA799A4214D08F
:1010E0000D4AFB7913700C4B1B78002B0DD1BB798B
:1010F000012B05D1094B1B680133084A136004E03A
:10110000064B1B68013B054A136000BF0837BD460C
:1011100080BD00BF0004024004000020F80300204E
:1011200080B582B000AF2021144800F0C4F9034616
:10113000FB710821114800F0BEF90346BB71104B4A
:101140001B78FA799A4214D00D4AFB7913700C4B34
:101150001B78002B0DD1BB79012B05D1094B1B68E6
:101160000133084A136004E0064B1B68013B054A43
:10117000136000BF0837BD4680BD00BF00040240B9
:1011800005000020FC03002080B500AF012001F025
:1011900055FE0346002B04D0FFF7BEFE012001F0F0
:1011A00071FE00BF80BD80B500AF022001F046FE99
:1011B0000346002B04D0FFF7E3FE022001F062FE9D
:1011C00000BF80BD80B500AF042001F037FE0346AC
:1011D000002B04D0FFF708FF042001F053FE00BFEE
:1011E00080BD80B500AF082001F028FE0346002B2B
:1011F00004D0FFF72DFF082001F044FE00BF80BDA2
:1012000080B500AF102001F019FE0346002B04D07A
:10121000FFF752FF102001F035FE00BF80BD80B502
:1012200000AF202001F00AFE0346002B04D0FFF798
:1012300077FF202001F026FE00BF80BD80B483B080
:1012400000AF03463960FB7197F90730002B0BDACA
:101250000D49FB7903F00F03043B3A68D2B2120147
:10126000D2B20B441A7609E0084997F907303A6878
:10127000D2B21201D2B20B4483F8002300BF0C3764
:10128000BD4680BC704700BF00ED00E000E100E01B
:1012900080B582B000AF78607B68B3F1807F01D306
:1012A000012311E00A4A7B6823F07F43013B53602E
:1012B0000F214FF0FF30FFF7C1FF054B00229A606E
:1012C000034B07221A60002318460837BD4680BD2D
:1012D00010E000E080B483B000AF78607B684FF42A
:1012E0007A7202FB03F3064A136000BF044B1B68CB
:1012F000002BFBD100BF0C37BD4680BC704700BF40
:10130000E800002080B400AF0D4B1B6801330C4A8D
:1013100013600C4B1B68002B04D00A4B1B68013B6D
:10132000084A1360084B1B68002B04D0064B1B684F
:10133000013B054A136000BFBD4680BC704700BF3B
:10134000EC000020F0000020E800002080B500AF95
:101350000F4B1B78002B19D10120FFF7A9F900BF13
:10136000FFF7B8F90346002BFAD00A4B1B680A4A6C
:10137000A2FB03239B0C1846FFF78AFF0346002BB2
:1013800000D0FEE7024B01221A7000E000BF80BDD2
:10139000F40000208000002083DE1B4380B487B06F
:1013A00000AF7860396000237B6100233B6100233C
:1013B000FB6000237B6176E001227B6902FA03F384
:1013C0003B613B681A683B691340FB60FA683B6904
:1013D0009A4265D17B681A687B695B00032101FA38
:1013E00003F3DB431A407B681A607B681A683B682A
:1013F0001B7919467B695B0001FA03F31A437B688A
:101400001A603B681B79012B03D03B681B79022BC8
:101410002ED17B689A687B695B00032101FA03F394
:10142000DB431A407B689A607B689A683B685B790B
:1014300019467B695B0001FA03F31A437B689A60E3
:101440007B685A687B699BB2194601238B40DB435A
:101450001A407B685A607B685B683A6892791146EB
:101460007A6992B201FA02F292B21A437B685A6028
:101470007B68DA687B699BB25B00032101FA03F3A6
:10148000DB431A407B68DA607B68DA683B68DB79AB
:1014900019467B695B0001FA03F31A437B68DA6043
:1014A0007B6901337B617B690F2B85D900BF1C37BA
:1014B000BD4680BC704780B485B000AF78600B46F5
:1014C0007B800023FB737B681A697B881340002BA9
:1014D00002D00123FB7301E00023FB73FB7B184662
:1014E0001437BD4680BC704780B483B000AF7860CD
:1014F0000B467B807B687A881A8300BF0C37BD4619
:1015000080BC704780B483B000AF78600B467B80AE
:101510007B687A885A8300BF0C37BD4680BC704711
:1015200080B582B000AF01210420FFF7FBF87023E3
:101530003B6003237B7100233B710023BB710023BD
:10154000FB713B4619460F48FFF728FF10210D4855
:10155000FFF7B1FF03461A460B4B1A6020210948DA
:10156000FFF7A9FF03461A46084B1A6040210548B9
:10157000FFF7A1FF03461A46054B1A6000BF083764
:10158000BD4680BD00080240C8030020F0030020D3
:10159000C403002080B500AF4FF480610248FFF71C
:1015A000B1FF00BF80BD00BF000C024080B500AF9E
:1015B0004FF480710248FFF7A5FF00BF80BD00BF58
:1015C000000C024080B500AF4FF400710248FFF7F5
:1015D00099FF00BF80BD00BF000C024080B500AF86
:1015E0004FF480710748FFF77FFF4FF40071054803
:1015F000FFF77AFF4FF480610248FFF775FF00BFE5
:1016000080BD00BF000C024080B500AFFFF7CEFFE9
:10161000FFF7D8FFFFF7BEFFFFF7E0FF00BF80BD79
:1016200080B500AF012000F077F84CF2503000F0A8
:1016300076F900BF80BD80B582B000AF03463A6046
:10164000FB710B46BB71BA79FB791146184600F065
:1016500041F907E03B681B78184600F0CCF83B687E
:1016600001333B603B681B78002BF3D100BF083788
:10167000BD4680BD80B483B000AF0346FB71FA79EC
:101680000B4913469B0013449B000B440433196819
:10169000FA79074813469B0013449B000344083320
:1016A0001B884B8300BF0C37BD4680BC704700BF12
:1016B0000800002080B483B000AF0346FB71FA79C4
:1016C0000B4913469B0013449B000B4404331968D9
:1016D000FA79074813469B0013449B0003440833E0
:1016E0001B880B8300BF0C37BD4680BC704700BF12
:1016F0000800002080B500AF0120FFF7DBFF4FF4AA
:101700007A7000F00CF90120FFF7B4FF4FF47A7003
:1017100000F005F900BF80BD80B582B000AF034680
:10172000FB710020FFF7A6FF97F90730002B03DAC3
:101730000520FFF7BFFF02E00520FFF79BFFFB79C5
:1017400003F04003002B03D00420FFF7B3FF02E0B7
:101750000420FFF78FFFFB7903F02003002B03D059
:101760000320FFF7A7FF02E00320FFF783FFFB79C9
:1017700003F01003002B03D00220FFF79BFF02E0D1
:101780000220FFF777FFFFF7B5FFFB7903F00803AF
:10179000002B03D00520FFF78DFF02E00520FFF7A7
:1017A00069FFFB7903F00403002B03D00420FFF74B
:1017B00081FF02E00420FFF75DFFFB7903F00203E5
:1017C000002B03D00320FFF775FF02E00320FFF793
:1017D00051FFFB7903F00103002B03D00220FFF738
:1017E00069FF02E00220FFF745FFFFF783FF00BF1C
:1017F0000837BD4680BD80B582B000AF0346FB719F
:101800000020FFF757FF97F90730002B03DA052078
:10181000FFF750FF02E00520FFF72CFFFB7903F0F4
:101820004003002B03D00420FFF744FF02E0042014
:10183000FFF720FFFB7903F02003002B03D00320E8
:10184000FFF738FF02E00320FFF714FFFB7903F0F6
:101850001003002B03D00220FFF72CFF02E0022030
:10186000FFF708FFFFF746FFFB7903F00803002BA3
:1018700003D00520FFF71EFF02E00520FFF7FAFE68
:10188000FB7903F00403002B03D00420FFF712FFC1
:1018900002E00420FFF7EEFEFB7903F00203002BC9
:1018A00003D00320FFF706FF02E00320FFF7E2FE6C
:1018B000FB7903F00103002B03D00220FFF7FAFEAF
:1018C00002E00220FFF7D6FEFFF714FF00BF083743
:1018D000BD4680BD80B584B000AF03460A46FB71AB
:1018E0001346BB71FB790F2B01D90023FB71BB7928
:1018F000012B01D90023BB71BB799B01FB73FA7BE0
:10190000FB791343FB73FB7B63F07F03FB73FB7B70
:101910001846FFF701FF00BF1037BD4680BD80B4F9
:1019200083B000AF786000BF7B685A1E7A60002BDE
:10193000FAD100BF0C37BD4680BC704780B500AF00
:10194000124A124B1B6843F0010313600F4B002235
:101950009A600E4A0D4B1B6823F0847323F4803386
:1019600013600A4B0A4A5A60084A084B1B6823F462
:1019700080231360054B0022DA6000F00DF8054B60
:101980004FF000629A6000BF80BD00BF0038024087
:101990001030002400ED00E080B483B000AF0023DD
:1019A0007B6000233B60354A344B1B6843F4803333
:1019B0001360324B1B6803F400333B607B680133D8
:1019C0007B603B68002B03D17B68B3F5A06FF0D13F
:1019D0002A4B1B6803F40033002B02D001233B6029
:1019E00001E000233B603B68012B42D1234A234B9B
:1019F0001B6C43F080531364214A214B1B6843F452
:101A0000804313601D4A1D4B9B6893601B4A1B4B10
:101A10009B6843F400439360184A184B9B6843F457
:101A2000A0539360154B174A5A60144A134B1B6816
:101A300043F08073136000BF104B1B6803F000730A
:101A4000002BF9D0104B40F205621A600B4A0B4B89
:101A50009B6823F003039360084A084B9B6843F09C
:101A60000203936000BF054B9B6803F00C03082B37
:101A7000F9D100BF0C37BD4680BC7047003802402A
:101A80000070004008544007003C024080B500AFA1
:101A900040F225518348FEF72EFC0346002B06D06A
:101AA0008048FEF719FC0346DAB27F4B1A707F4B71
:101AB0001B78582B07D17C4B1A787D4B1A707B4BC7
:101AC00000221A70EBE0794B1B78772B18D1794BF9
:101AD0001B789BB21A46920013445B009AB2724B79
:101AE0001B789BB213449AB2734B1A80734B1B78CA
:101AF0000133DAB2714B1A706C4B00221A70CEE0CF
:101B00006A4B1B78712B0DD1674B1A78694B1A7091
:101B10006A4B1B780133DAB2684B1A70634B0022B0
:101B20001A70BCE0614B1B78592B07D15E4B1A78B9
:101B3000634B1A705D4B00221A70B0E05B4B1B7850
:101B4000722B18D15F4B1B789BB21A46920013443C
:101B50005B009AB2544B1B789BB213449AB25A4B17
:101B60001A805A4B1B780133DAB2584B1A704F4B1C
:101B700000221A7093E04D4B1B78652B0DD14A4B18
:101B80001A78504B1A70514B1B780133DAB24F4B15
:101B90001A70464B00221A7081E0444B1B78432B8D
:101BA00007D1414B1A784A4B1A70404B00221A70E9
:101BB00075E03E4B1B784F2B55D13B4B1A78454B6C
:101BC0001A70434B1B781A46642303FB02F3414A05
:101BD00012781344184603F011F903463E4918469B
:101BE00003F014FA03461A463C4B1A603B4B1B6841
:101BF0003B49184603F04CF803461A46394B1B681C
:101C00001946104603F044F803461A46334B1A604F
:101C1000324B1B684FF00001184603F0E1FA03460F
:101C2000002B09D02D4B1B682F49184603F032F8C2
:101C300003461A46294B1A60284B1B682A49184646
:101C400003F0ECFA0346002B09D0244B1B6826490D
:101C5000184603F01DF803461A46204B1A60134B32
:101C600000221A701BE0114B1B784C2B07D10E4B36
:101C70001A781E4B1A700D4B00221A700FE00B4B96
:101C80001B78422B07D1084B1A78194B1A70074B57
:101C900000221A7003E0044B1A78044B1A7000BF3C
:101CA00080BD00BF0048004015040020BD03002097
:101CB000B9030020D4030020EA030020BA03002067
:101CC000B8030020E1030020F6030020E203002017
:101CD000E0030020D503002000002041CC030020B9
:101CE00000009A42F80000200000B443F5030020F1
:101CF000BC03002090B400AF394A4FF000034FF00E
:101D00000004C2E90034374A4FF000034FF00004EA
:101D1000C2E90034344A4FF000034FF00004C2E936
:101D20000034324A4FF000034FF00004C2E900349F
:101D30002F4A4FF000034FF00004C2E900342D4A4F
:101D40004FF000034FF00004C2E900342A4A4FF07C
:101D500000034FF00004C2E90034284A4FF00003AA
:101D60004FF00004C2E90034254A4FF000034FF061
:101D70000004C2E90034234A4FF000034FF000048E
:101D8000C2E90034204A4FF000034FF00004C2E9DA
:101D900000341E4A4FF000034FF00004C2E9003443
:101DA0001B4A4FF000034FF00004C2E90034194A07
:101DB0004FF000034FF00004C2E90034164A4FF020
:101DC00000034FF00004C2E90034144A4FF000034E
:101DD0004FF00004C2E9003400BFBD4690BC70471C
:101DE00098010020A0010020A8010020B0010020DF
:101DF000B8010020C0010020C8010020D00100204F
:101E0000D8010020E0010020E8010020F0010020BE
:101E1000F80100206001002068010020700100200E
:101E200080B584B000AFC7E90201C7E90023D7E954
:101E30000823D7E9020100F011F8D7E90823D7E910
:101E4000000100F047F8D7E90823D7E9060100F0C0
:101E50007DF800BF1037BD4680BD000090B585B04D
:101E600000AFC7E90201C7E90023144AD7E90234E9
:101E7000C2E90034124BD3E900341A462346D7E9AD
:101E8000000102F069FD03460C460E4AC2E9003427
:101E90000D4A4FF000034FF00004C2E900340B4A32
:101EA0004FF000034FF00004C2E90034084B002259
:101EB0001A6000BF1437BD4690BD00BF000200206D
:101EC000B000002018020020200200203002002074
:101ED0009002002090B585B000AFC7E90201C7E9C4
:101EE0000023144AD7E90234C2E90034124BD3E983
:101EF00000341A462346D7E9000102F02DFD0346BF
:101F00000C460E4AC2E900340D4A4FF000034FF070
:101F10000004C2E900340B4A4FF000034FF0000404
:101F2000C2E90034084B00221A6000BF1437BD46D6
:101F300090BD00BF08020020B00000204002002039
:101F400048020020580200209402002090B585B07D
:101F500000AFC7E90201C7E90023144AD7E90234F8
:101F6000C2E90034124BD3E900341A462346D7E9BC
:101F7000000102F0F1FC03460C460E4AC2E90034AF
:101F80000D4A4FF000034FF00004C2E900340B4A41
:101F90004FF000034FF00004C2E90034084B002268
:101FA0001A6000BF1437BD4690BD00BF100200206C
:101FB000B000002068020020700200208002002093
:101FC0009802002090B400AF164A4FF000034FF083
:101FD0000004C2E90034144A4FF000034FF000043B
:101FE000C2E90034114A4FF000034FF00004C2E987
:101FF00000340F4A4FF000034FF00004C2E90034F0
:102000000C4A4FF000034FF00004C2E900340A4AC2
:102010004FF000034FF00004C2E9003400BFBD469A
:1020200090BC7047C002002038020020E802002067
:1020300060020020100300208802002098B500AF45
:10204000FFF758FEFFF7BEFF224B00221A60224A1C
:102050004FF000034FF00004C2E902341E4A4FF073
:1020600000034FF00004C2E900341C4B00221A6048
:102070001B4A4FF000034FF00004C2E90234184A33
:102080004FF000034FF00004C2E90034154B00226A
:102090001A60154A4FF000034FF00004C2E9023401
:1020A000114A4FF000034FF00004C2E900340F4B17
:1020B00000221A600E4A4FF000034FF00004C2E9FC
:1020C00002340B4A4FF000034FF00004C2E9003421
:1020D00000BF98BD080400208004002004040020F4
:1020E000280400200C040020980400200004002094
:1020F0004804002098B500AF01214FF0804000F067
:1021000023FF0346002B00F0CA8101214FF08040DD
:1021100000F043FFA84B1B68092B0FD1A64B4FF0D3
:10212000FF321A60A548FEF707FEA548FEF740FEFD
:10213000A448FEF779FEA448FEF7B2FE9E4B1B684A
:1021400001339D4A136000F0BFF900F0CDFC00F0B0
:1021500057FD9E4B1B68184602F06EFA9C4BD3E964
:1021600000341A46234602F05DFD0346002B0AD0D8
:10217000974BD3E900341846214602F05DFD024634
:10218000924B1A6018E0914B1B68184602F054FA03
:10219000904BD3E900341A46234602F025FD03464E
:1021A000002B09D08B4BD3E900341846214602F0AE
:1021B00043FD0246854B1A60874B1B68184602F0A8
:1021C0003BFA834BD3E900341A46234602F02AFD3A
:1021D0000346002B0AD07E4BD3E900341846214633
:1021E00002F02AFD02467C4B1A6018E07A4B1B680D
:1021F000184602F021FA774BD3E900341A462346F9
:1022000002F0F2FC0346002B09D0724BD3E90034F4
:102210001846214602F010FD02466F4B1A606F4BC4
:102220001B68184602F008FA694BD3E900341A46D5
:10223000234602F0F7FC0346002B0AD0644BD3E997
:1022400000341846214602F0F7FC0246634B1A6040
:1022500018E0624B1B68184602F0EEF95D4BD3E9BB
:1022600000341A46234602F0BFFC0346002B09D077
:10227000584BD3E900341846214602F0DDFC0246F3
:10228000564B1A60564B1B68184602F0D5F9504B56
:10229000D3E900341A46234602F0C4FC0346002B5F
:1022A0000AD04B4BD3E900341846214602F0C4FC57
:1022B00002464B4B1A6018E0494B1B68184602F067
:1022C000BBF9444BD3E900341A46234602F08CFC98
:1022D0000346002B09D03F4BD3E900341846214672
:1022E00002F0AAFC02463E4B1A603E4BD3E90001C5
:1022F0003D4BD3E900341A46234602F04FF803461B
:102300000C463A4AC2E90034384BD3E900014FF099
:102310000002374B02F068FC0346002B0BD0334B16
:10232000D3E900014FF00002324B02F07BFC034680
:10233000002B40F09C802D4BD3E900014FF00002B0
:102340002B4B02F06FFC0346002B0AD0274BD3E93E
:1023500000014FF00002284B02F046FC0346002B20
:102360000AD1224BD3E900014FF00002234B02F0C7
:102370003BFC0346002B45D0144B1B6803F59C53D4
:102380000833124A1360144B1B6803F59C5308333F
:10239000114A1360114B1B6803F59C5308330F4A15
:1023A00013600F4B1B6803F59C5308330C4A1360F2
:1023B000134B00221A605AE0A00300208004002082
:1023C0002804002098040020480400203401002044
:1023D000D0000020C8000020380100203C0100206F
:1023E00040010020100200207001002000030020A6
:1023F00000002440000024C000806640008066C0C9
:102400009C030020274BD3E900014FF00002264B2C
:1024100002F0EAFB0346002B0AD1224BD3E900016C
:102420004FF00002214B02F0FDFB0346002B1ED0B3
:102430001F4B1B68A3F59C53083B1D4A13601D4BA3
:102440001B68A3F59C53083B1A4A13601A4B1B6880
:10245000A3F59C53083B184A1360184B1B68A3F55F
:102460009C53083B154A1360154B01221A60104B10
:102470001B6819460120FDF7CDFF0E4B1B6819465E
:102480000220FDF7C7FF0C4B1B6819460320FDF720
:10249000C1FF0A4B1B6819460420FDF7BBFF00BFB4
:1024A00098BD00BF00030020000024C000806640EB
:1024B00034010020380100203C01002040010020B0
:1024C0009C030020000000002DE9F84300AFB84B4A
:1024D000D3E90023B4A1D1E9000102F03DFA02469C
:1024E0000B4610461946B34BD3E9022302F00AF912
:1024F00002460B4610461946AF4BD3E9002302F0C3
:102500002BFA02460B4610461946AC4BD3E9002382
:1025100002F0F8F802460B46A949C1E90023A44B92
:10252000D3E90023A0A1D1E9000102F015FA024687
:102530000B4610461946A34BD3E9022302F0E2F8FA
:1025400002460B46104619469B4BD3E9002302F086
:1025500003FA02460B4610461946984BD3E900236E
:1025600002F0D0F802460B469749C1E90023904B90
:10257000D3E900238CA1D1E9000102F0EDF9024674
:102580000B4610461946914BD3E9022302F0BAF8E4
:1025900002460B4610461946874BD3E9002302F04A
:1025A000DBF902460B4610461946844BD3E900235B
:1025B00002F0A8F802460B468549C1E900237C4B8E
:1025C000D3E9002378A1D1E9000102F0C5F9024660
:1025D0000B46104619467F4BD3E9022302F092F8CE
:1025E00002460B4610461946734BD3E9002302F00E
:1025F000B3F902460B4610461946704BD3E9002347
:1026000002F080F802460B467349C1E900236E4B85
:10261000D3E900016A4BD3E9002301F0C1FE024671
:102620000B46904683F000494FF000024FF0804384
:102630004046494602F090F902460B466749C1E917
:102640000023654BD3E90001614BD3E9002301F07E
:10265000A7FE02460B46104619464FF000024FF007
:10266000804302F079F902460B465D49C1E9002337
:10267000534BD3E90001584BD3E9002301F090FEFE
:1026800002460B46144683F000454FF000024FF01F
:1026900080432046294602F05FF903460C46514A22
:1026A000C2E90034484BD3E90001494BD3E9003477
:1026B0001A46234601F074FE03460C46184621468E
:1026C0004FF000024FF0804302F046F903460C46FB
:1026D000454AC2E90034434BD3E90001424BD3E9F8
:1026E00000341A46234601F05BFE03460C461846AA
:1026F00021464FF000023D4B02F004F803460C4621
:102700003B4AC2E90034364BD3E90001334BD3E9ED
:1027100000341A46234601F043FE03460C46184691
:1027200021464FF00002314B01F0ECFF03460C460E
:10273000304AC2E90034224BD3E90001224BD3E9ED
:1027400000341A46234601F02BFE03460C46184679
:1027500021461F4BD3E900341A46234601F020FEE0
:1027600003460C46184621461B4BD3E900341A4653
:10277000234601F015FE03460C4625461C461E4B1B
:10278000D3E900014FF000021C4B01F0BBFF0246F1
:102790000B462046294602F0DFF803460C46184A4D
:1027A000C2E900342EE000BFF1D4C853FB21194028
:1027B0009800002028040020B0000020A80000207D
:1027C0009801002080040020A0010020480400207F
:1027D000A801002098040020B00100202003002060
:1027E0002803002030030020380300200000E03FD1
:1027F000B8010020C0010020A0000020000010400F
:10280000C8010020A84BD3E90001A3A3D3E900230A
:1028100001F078FF03460C46A44AC2E90034A34BFA
:10282000D3E900341846214600F0C8FBA04BD3E999
:1028300000341A46234601F065FF03460C461D4648
:1028400026469A4BD3E900341846214600F004FC92
:10285000984BD3E900341A46234601F053FF034650
:102860000C461A4623462846314601F097FD03469A
:102870000C46914AC2E900348C4BD3E90034184627
:10288000214600F0E9FB8A4BD3E900341A4623467F
:1028900001F038FF03460C461D462646834BD3E91C
:1028A00000341846214600F089FB824BD3E90034FE
:1028B0001A46234601F026FF03460C461A462346D5
:1028C0002846314601F06CFD03460C467B4AC2E9BE
:1028D00000347B4BD3E900347A4AC2E90034764BAA
:1028E000D3E90001784BD3E900341A46234601F0BE
:1028F00057FD03460C46184621464FF00002734B25
:1029000001F000FF03460C4618462146704BD3E900
:1029100000341A46234601F0F5FE03460C461846DD
:1029200021466C4BD3E900341A46234601F038FDAA
:1029300003460C46674AC2E90034604BD3E9000104
:10294000654BD3E900341A46234601F029FD0346BE
:102950000C46184621464FF000025C4B01F0D2FEB7
:1029600003460C4618462146594BD3E900341A4613
:10297000234601F0C7FE03460C4618462146574B36
:10298000D3E900341A46234601F00AFD03460C46FB
:10299000524AC2E900344B4BD3E90001504BD3E912
:1029A00000341A46234601F0FBFC03460C46184649
:1029B00021464FF00002454B01F0A4FE03460C46B1
:1029C00018462146424BD3E900341A46234601F00B
:1029D00099FE03460C461846214631A3D3E900234D
:1029E00001F090FE03460C46184621462E4BD3E9D3
:1029F00000341A46234601F0D3FC03460C462A4A0B
:102A0000C2E90034284BD3E900014FF00002354BF6
:102A100002F0FEF80346002B0DD0234BD3E9000152
:102A20004FF000022F4B01F0B9FC03460C461E4A42
:102A3000C2E9003418E01C4BD3E900014FF000025A
:102A40004FF0000302F0D0F80346002B0CD0164BD9
:102A5000D3E900014FF00002224B01F0A1FC034634
:102A60000C46114AC2E90034134BD3E90034164A2C
:102A7000C2E90034114BD3E90034174AC2E90034EB
:102A8000104BD3E90034164AC2E9003400BFBDE858
:102A9000F88300BFAFF3008012E7FAA146DF913F51
:102AA000775AF01ADCA54C40700100207801002014
:102AB000B8010020C0010020D0010020D801002072
:102AC000C8010020E0010020E80100200000E03FF4
:102AD000B000002060010020F0010020680100200B
:102AE000F80100200080764098B500AF344BD3E960
:102AF0000001344BD3E900341A46234601F04EFC62
:102B000003460C46304AC2E900342F4BD3E900019A
:102B10004FF000022D4B01F0F5FD03460C462C4A08
:102B2000C2E900342A4BD3E900342A4AC2E900340E
:102B3000294BD3E90001294BD3E900341A46234637
:102B400001F02CFC03460C46254AC2E90034244B14
:102B5000D3E900014FF000021C4B01F0D3FD034606
:102B60000C46204AC2E900341E4BD3E900341E4A09
:102B7000C2E900341D4BD3E900011D4BD3E90034F9
:102B80001A46234601F00AFC03460C46194AC2E9DC
:102B90000034184BD3E900014FF000024FF000035E
:102BA00001F0B0FD03460C46134AC2E90034124B53
:102BB000D3E90034114AC2E9003400BF98BD00BF18
:102BC0000002002060010020B002002000409F4071
:102BD000B8020020A802002008020020680100209E
:102BE000D8020020E0020020D002002010020020C5
:102BF000700100200003002008030020F8020020DC
:102C0000F8B500AF7A4BD3E900341846214600F0FE
:102C1000D5F9784BD3E900341A46234601F072FD0A
:102C200003460C461D462646714BD3E90034184630
:102C3000214600F011FA704BD3E900341A462346BE
:102C400001F060FD03460C461A46234628463146ED
:102C500001F0A6FB03460C46684AC2E90034644B07
:102C6000D3E900341846214600F0A8F9624BD3E9B5
:102C700000341A46234601F045FD03460C461D4626
:102C800026465B4BD3E900341846214600F0E4F9B0
:102C9000584BD3E900341A46234601F033FD03466E
:102CA0000C461A4623462846314601F077FB034678
:102CB0000C46534AC2E90034524BD3E90034524A1D
:102CC000C2E900344D4BD3E900341A4623464FF095
:102CD00000004FF0000101F061FB03460C4618466E
:102CE0002146474BD3E900341A46234601F056FBF0
:102CF00003460C46454AC2E90034404BD3E9000183
:102D00003F4BD3E900341A46234601F047FB034604
:102D10000C463F4AC2E90034384BD3E90001384B36
:102D2000D3E900341A46234601F03AFB03460C4629
:102D3000384AC2E90034314BD3E900341A462346FD
:102D40004FF000004FF0000101F028FB03460C4655
:102D5000184621462A4BD3E900341A46234601F08F
:102D60001FFB03460C462C4AC2E90034274BD3E92B
:102D700000342A4AC2E90034254BD3E90034284AFA
:102D8000C2E90034234BD3E90034264AC2E90034B7
:102D9000214BD3E90034244AC2E90034204BD3E963
:102DA00000341846214601F047FF02461F4B1A60C7
:102DB0001A4BD3E900341846214601F03DFF024684
:102DC0001B4B1A60184BD3E900341846214601F01A
:102DD00033FF0246174B1A60124BD3E900341846F2
:102DE000214601F029FF0246134B1A6000BFF8BDCF
:102DF00078010020A8020020D0020020400300201B
:102E000048030020F802002050030020580300204F
:102E10006003002068030020700300207803002076
:102E2000800300208803002090030020340100204C
:102E3000380100203C0100204001002080B485B012
:102E400000AF78600023FB730023BB600C4B1A6853
:102E50007B681340BB600A4B5A697B681340002BA8
:102E600005D0BB68002B02D00123FB7301E00023D7
:102E7000FB73FB7B18461437BD4680BC704700BF10
:102E8000003C014080B483B000AF7860034A7B68A7
:102E9000536100BF0C37BD4680BC7047003C014009
:102EA00080B582B002AFFEF7BBFB164B1B6818461D
:102EB00001F0D4FB144B1B781A46144B1B7801937A
:102EC000009202460B4612491248FDF71EFF114AB6
:102ED00000210020FEF7AFFB0F4B1B781A460A4B70
:102EE0001B781946094B1B7800930B460B49094880
:102EF000FDF70BFF074A01210020FEF79CFB00BFF6
:102F0000BD4680BDCC030020B8030020B9030020DB
:102F10003052000808050020BB0300204052000882
:102F200080B500AF0121074800F00EF80346002BE2
:102F300005D00121034800F030F8FFF7B1FF00BFD2
:102F400080BD00BF000C004080B485B000AF786049
:102F50000B467B800023FB730023BB8100237B8116
:102F60007B681B8A9AB27B881340BB817B689B89F4
:102F70009AB27B8813407B81BB89002B05D07B896B
:102F8000002B02D00123FB7301E00023FB73FB7BCA
:102F900018461437BD4680BC704780B483B000AF7C
:102FA00078600B467B807B88DB439AB27B681A8211
:102FB00000BF0C37BD4680BC7047000030B5224AC8
:102FC00021F00043934287B01BDD204A934205DD88
:102FD00002460B4601F0E2F907B030BD02AA00F04C
:102FE0007FF800F00303012B1AD0022B0FD01BB384
:102FF0000124DDE90423DDE90201009401F000F879
:10300000EAE70022002300F08FFA07B030BDDDE9C7
:103010000423DDE9020100F087FA01F10041DBE75A
:10302000DDE904450093DDE9020122462B4600F06C
:10303000E7FF01F10041CFE7DDE90423DDE902010B
:1030400000F072FAC8E700BFFB21E93FFFFFEF7F06
:1030500021F00041704700BF30B51F4A21F0004306
:10306000934287B01BDD1D4A934205DD02460B46A5
:1030700001F094F907B030BD02AA00F031F800F079
:1030800003000128DDE904231AD002280FD0E0B1A3
:10309000DDE9020100F048FA01F10041EAE700230E
:1030A00000930022002300F0ABFF07B030BD0124E5
:1030B000DDE90201009400F0A3FF01F10041D9E72E
:1030C000DDE9020100F030FAD4E70124DDE9020174
:1030D000009400F095FFCDE7FB21E93FFFFFEF7F74
:1030E0002DE9F04F9A4E21F00047B74291B040F3DE
:1030F0008E809246974A97420C4626DC00298AA386
:10310000D3E9002340F3B48101F048F9924B9F4288
:1031100004460D4600F0908085A3D3E9002301F01A
:103120003DF902460B46CAE900232046294601F034
:1031300035F97FA3D3E9002301F030F90125CAE96D
:103140000201284611B0BDE8F08F844A974240F34F
:103150009080834A974265DC3D15A5F21645A7EBA2
:10316000055319461F46064601F066FD01F064FA54
:103170008046894602460B4630463946CDE90A89E3
:1031800001F00CF90022774B01F0BCFA8946804629
:1031900001F052FD01F050FA02460B4606460F467A
:1031A00040464946CDE90C6701F0F8F800226D4B26
:1031B00001F0A8FA00220023CDE90E0101F00AFD7A
:1031C000002800F07381002330463946002201F0C8
:1031D00001FD002814BF01230223634A019202214A
:1031E0002A4600910AA8514600F0C2FA002C054672
:1031F00014DADAF80420DAF80C3002F1004203F1B4
:1032000000434542CAF80420CAF80C3006E0C2E97F
:10321000000100250024C2E902450025284611B01E
:10322000BDE8F08F02460B4601F0B8F80025CAE968
:103230000201CAE90001F1E73FA3D3E9002301F04D
:10324000ADF83FA3D3E900230D46044601F0A6F8EC
:1032500002460B46CAE900232946204601F09EF8A3
:1032600037A3D3E9002301F099F80125CAE9020147
:10327000D4E7FFF7EDFE34A3D3E900238046894667
:1032800001F040FA0022394B01F08AF801F0D4FC39
:10329000054601F0D1F924A3D3E90023CDE90401C7
:1032A00001F030FA02460B464046494601F076F8F6
:1032B0001FA3D3E9002380468946DDE9040101F01C
:1032C00021FA1F2DCDE9020154DC294B6A1E53F867
:1032D00022309F424ED002460B464046494601F0FE
:1032E0005DF802460B46CAE9002383460E465A465D
:1032F00033464046494601F051F8DDE9022301F02A
:103300004DF8002C02460B46CAE9022386DA5B46DA
:1033100006F1004601F100418AE84800CAF80C10A5
:10332000CAF808006D4279E700004054FB21F93FDC
:103330003163621A61B4D03D0000601A61B4D03DBF
:103340007370032E8A19A33B83C8C96D305FE43FB5
:10335000FB21E93F7BD90240FB21F93FFB213941A9
:10336000FFFFEF7F00007041D05200080000E03FF7
:1033700050520008DDE902234046494601F00EF8AC
:103380003A15C1F30A53D31A102B83460E460992FD
:10339000CAE90001ABDD58A3D3E90023DDE904014C
:1033A00001F0B0F906460F4602460B464046494634
:1033B00000F0F4FFCDE9060102460B4640464946BF
:1033C00000F0ECFF32463B4600F0E8FF4CA3D3E9A7
:1033D000002306460F46DDE9040101F093F9324669
:1033E0003B4600F0DBFFDDE90689CDE9020102463C
:1033F0000B464046494600F0D1FF0B46C1F30A5741
:103400000E460999CF1B0246312F8346CAE9002395
:103410006CDD3DA3D3E90023DDE9040101F072F97D
:1034200006460F4602460B4640464946CDE9068908
:1034300000F0B4FF02460B4680468946DDE90601EE
:1034400000F0ACFF32463B4600F0A8FF30A3D3E9C2
:10345000002306460F46DDE9040101F053F9324628
:103460003B4600F09BFF02460B46CDE9022334E7C2
:1034700000F096FF2A4B9F4204460D4618D026A323
:10348000D3E9002300F08CFF02460B46CAE9002373
:103490002946204600F082FF1FA3D3E9002300F055
:1034A0007FFF4FF0FF35CAE90201B7E6032394E638
:1034B00011A3D3E9002300F073FF11A3D3E9002384
:1034C0000D46044600F06CFF02460B46CAE9002395
:1034D0002946204600F062FF09A3D3E9002300F04B
:1034E0005FFF4FF0FF35CAE9020197E6DDE9068983
:1034F000FDE600BFAFF300800000601A61B4D03D6C
:103500007370032E8A19A33B0000002E8A19A33B77
:10351000C14920259A837B393163621A61B4D03D59
:10352000FB21F93F000000002DE9F04F21F000469B
:10353000B6F1795F85B00C4692469B4605466BDA3C
:1035400001F07AFB002800F0E8802A46234628464E
:10355000214601F0D7F874A3D3E9002380468946B9
:1035600001F0D0F872A3D3E9002300F019FF42461E
:103570004B4601F0C7F870A3D3E9002300F00EFF1B
:1035800042464B4601F0BEF86DA3D3E9002300F09C
:1035900007FF42464B4601F0B5F86BA3D3E9002381
:1035A00000F0FCFE42464B4601F0ACF868A3D3E9BC
:1035B000002300F0F5FE42464B4601F0A3F8CDE9AA
:1035C00000010022644B4046494601F09BF8DDE9CA
:1035D000002306460F464046494601F093F85246FE
:1035E000804689465B462846214601F08BF8024614
:1035F0000B464046494600F0D1FE02460B46304697
:10360000394600F0CBFE02460B460020534900F03D
:10361000C5FE05B0BDE8F08F02460B4601F072F81A
:1036200041A3D3E900238046894601F06BF840A30B
:10363000D3E9002300F0B4FE42464B4601F062F8A5
:103640003DA3D3E9002300F0A9FE42464B4601F01A
:1036500059F83BA3D3E9002300F0A2FE42464B46B3
:1036600001F050F838A3D3E9002300F097FE42465A
:103670004B4601F047F836A3D3E9002300F090FE53
:103680004B46424601F03EF8354B9E42CDE90001E3
:1036900097DD344B9E424FF0000238DCA6F5001354
:1036A00000202E4916461F4600F078FECDE90201A3
:1036B0000022294B4046494601F024F832463B4659
:1036C00000F06CFEDDE9002306460F464046494601
:1036D00001F018F85246804689465B462846214646
:1036E00001F010F802460B464046494600F056FEEF
:1036F00002460B463046394600F050FE02460B4665
:10370000DDE9020100F04AFE05B0BDE8F08F164B7E
:10371000164FCDE902230026CAE71049002005B064
:10372000BDE8F08FAFF30080D43888BEE9FAA8BDB9
:10373000C4B1B4BD9EEE213EAD529C804F7E923E00
:103740009015CB19A001FA3E7751C1166CC1563FB6
:103750004C5555555555A53F0000E03F0000F03F42
:103760003233D33F0000E93F0000E73F0000D23F83
:103770002DE9F04FADF5197D9C4CA29E9C4D54F85F
:10378000264005942646D41E85FB0475E417C4EB39
:10379000A50424EAE4741D460893631CA3EB830389
:1037A000013D02EBC30304932B4609940295651B6C
:1037B000F418039006911AD42C4401340DF17808C2
:1037C00000260027DDF88C9208E059F8250000F06B
:1037D00033FF0135A542E8E9020108D0002DF4DAF3
:1037E000013530463946A542E8E90201F6D1059B8C
:1037F000002B2EDB089B4FEAC309039BA9F10808A5
:10380000984420AB9944059B70AA02EBC30B0DF5BD
:10381000DC7A029B002BC0F20F83039B4D46A3F181
:1038200008040026002775E90223F4E9020100F0EC
:1038300069FF02460B463046394600F0B1FD44456B
:1038400006460F46EFD1EAE90267DA4509F10809B1
:10385000DFD10598089A009000F18043013B9B005E
:103860000CAC191F234402F100520B93039B013A45
:1038700021440A9103EBC20B009A98A901EBC20301
:10388000002A53E9284513462BDD01EBC308A8F1B4
:10389000A8080DF12C090DF5DC7A0022554B2046C5
:1038A000294600F02FFF01F0C7F900F0C5FE002205
:1038B000514B06460F4600F025FF02460B462046B8
:1038C000294600F06BFD01F0B7F978E8022349F8CA
:1038D000040F3946304600F063FDD04504460D46DE
:1038E000DBD1DDF81090204629464A4600F0CCFC9A
:1038F00000224FF07F5304460D4600F003FF00F016
:1039000037FC00223D4B00F0FDFE02460B462046F0
:10391000294600F043FD0D46044601F08DF980462E
:1039200000F08AFE0B4602462946204600F036FD8E
:103930004B46002B06460F4640F3F780009A0CA931
:10394000013AC9F1180351F8225045FA03F101FA7E
:1039500003F30CA8EB1A40F82230C9F1170588448C
:1039600043FA05F5002D63DD009B002B08F10108EB
:1039700040F381820C9C002C00F01883012000236E
:103980000CAAC4F1807442F82340009A824219DDE7
:103990000CAA0CAC52F820106FF07F42511A44F878
:1039A00020100099023399420CDD1046009A0CA9B0
:1039B00001EB830301EB82011A68821A43F8042B9E
:1039C0008B42F9D1049B002B1ADD049B012B4FF095
:1039D000010440F05882009B5A1E0CAB0CA953F80E
:1039E0002230C3F3160341F8223058E2185400087D
:1039F000ABAAAA2A0000703E0000704100002040DF
:103A0000022D15D132463B460020974900F0C6FCF6
:103A100006460F46049A9449002000F035FC024601
:103A20000B463046394600F0B9FC022506460F46E3
:103A3000002200233046394601F0CCF8002800F07F
:103A40005282009A059B501E83420FDC02F1804394
:103A5000013B0CAA0B9C02EB8303002253F80419D0
:103A6000A34242EA0102F9D1002A6FD1059B0CAAB8
:103A7000013B52F82330002B40F033820A9A012395
:103A800052F8041901330029FAD0009AD31802F130
:103A9000010A9A4507933DDC009B0899099A0B445B
:103AA00007990AEB0208994620AB08F1804803EB1E
:103AB000C9098B18A39A08F1FF3802EB880870AA8D
:103AC00002EBCA0AA39A02EB8303009358F8040F8F
:103AD00000F0B2FD029B002BE9E802011DDB039B15
:103AE0004D46A3F108040026002775E90223F4E9F6
:103AF000020100F007FE02460B463046394600F050
:103B00004FFC5C4506460F46EFD1009B9845EAE81E
:103B10000267DBD1079B0093AEE6009B00260027DF
:103B20009845EAE80267D1D1F4E706D1009B0CAAD8
:103B3000013B52F82350ED1514E700224B4B01F0E6
:103B400067F8002840F08281054671E70CA90295CC
:103B500051F820300499CDF81C80183902460090A5
:103B600004916BB900F18043013B0CA800EB830387
:103B700053F80409013A18390028F9D00092049149
:103B8000049A3949002000F07FFB009B002B04467B
:103B90000D46C0F20382DA0070A901EB020B049219
:103BA0000CAA02EB8306DFF8C8900BF10807043675
:103BB0004FF0000856F8040D00F03EFD22462B465B
:103BC00000F0A0FD4B4667E9020142462046294627
:103BD00000F098FD0CAB9E4204460D46EAD10DF56F
:103BE000907ACDF80CA0DDF814A04FF00009BAF1DE
:103BF000000FC0F23D81DFF87C805D4618A1D1E95D
:103C0000000100260027002403E04C4510DCF8E802
:103C10000201F5E8022300F075FD02460B4630462E
:103C2000394600F0BDFB0134A24506460F46ECDAEA
:103C3000039B03EBC903ABF1080BC3E900676EAB51
:103C40005B4509F10109D2D1A29BDDF80CA0032B41
:103C500000F28B80DFE813F0D1009000900010009C
:103C600000000040FB21F93F0000F03F0000E03F72
:103C70000000703EE0530008009B002B40F3A4813D
:103C8000049B0AEB0308D8E90067D34658E9029A77
:103C900032463B464846514600F082FB04460D46FC
:103CA00002460B464846514600F078FB32463B46FA
:103CB00000F076FBC8E9000168E90245C3452646E5
:103CC0002F46E3D1009B012BDA4640F37D81049B14
:103CD0005B44D3E90067984699460DF5947B59E912
:103CE00002343246184621463B46CDE9000100F039
:103CF00057FB04460D4602460B46DDE9000100F085
:103D00004DFB32463B4600F04BFBC9E9000169E937
:103D10000245CB4526462F46E1D1002308F108088D
:103D20001D464CAC1846294678E9022300F038FBC2
:103D3000444503460D46F5D1029A002A00F0208141
:103D4000DAF80440DAF80C20069FDAF80010DAF806
:103D500008003B6105F1004504F1004402F1004216
:103D60007D617C60FA603960B860079B03F00700F2
:103D70000DF5197DBDE8F08F049C002608345444ED
:103D800033463046194674E9022300F009FB5445D6
:103D900006460B46F5D1029A30461946002A00F035
:103DA000DA80069803F10044324644600660DAE99E
:103DB000000100F0F3FA0B460099002902460EDDDF
:103DC000012410461946FAE9022300F0E9FA0B46ED
:103DD00000990134A1420246F3DA029909B103F1D4
:103DE00000431946069B1046C3E90201079B03F0F6
:103DF00007000DF5197DBDE8F08F049C0022083402
:103E0000544413461046194674E9022300F0C8FAD8
:103E1000A24502460B46F5D1029909B103F10043D0
:103E20001946069B1046C3E90001079B03F00700F3
:103E30000DF5197DBDE8F08F00260027EAE902673D
:103E4000DA4509F108097FF4E4AC02E5009B002B98
:103E500008F10108C8BF02253FF78CAD32463B464A
:103E60000020634900F09AFA022506460F46DFE576
:103E700000260027DCE6049B002B26DD0024049BA3
:103E8000012B3FF4A8AD022B09D1009B5A1E0CABAD
:103E90000CA953F82230C3F3150341F82230022D48
:103EA0007FF4C6AD32463B460020514900F076FA19
:103EB00006460F46002C3FF4BBADABE5009901333D
:103EC000994278D1049B002BD9DC022D7FF4B0AD50
:103ED00032463B460020464900F060FA06460F464F
:103EE000A6E50123D1E53946049F02957A42304682
:103EF000CDF81C8000F0C8F900223E4B04460D4668
:103F000000F086FE002862D000223B4B2046294666
:103F100000F0F8FB00F090FE064600F08DFB00225A
:103F2000344B00F0EFFB02460B462046294600F0DA
:103F300035FA00F081FE00990B4601331A460093D2
:103F40003B46183304930B460CA941F82300134653
:103F500041F8236014E6069B3246C3E900010B4694
:103F6000DAE9000100F01AFA0B460099002902462E
:103F70003FF726AF1946069B1046C3E9020135E715
:103F800018462946DAE90023DAE90245069FC7E91F
:103F90000401C7E90023C7E90245E6E6A29B032B1B
:103FA0003FF6E3AEDFE803F0211C1C0E009B012B63
:103FB00088DD0CAA012352F8044F002C3FF47EAF99
:103FC000581CDDE40DF5907A00231D46B4E6294621
:103FD000204600F031FE009A0CA941F82200CFE5FE
:103FE000002633460DF5907AD5E60022134613E7F6
:103FF0000000F03F000070410000703E0000000033
:104000002DE9F04F21F00046B6F1795F85B00C46FE
:1040100090469946054604DA00F00EFE002800F0AE
:1040200085802A4623462846214600F06BFB06463B
:104030000F4602460B462846214600F063FB3EA38E
:10404000D3E9002382468B463046394600F05AFBBE
:104050003BA3D3E9002300F0A1F932463B4600F030
:1040600051FB39A3D3E9002300F09AF932463B46CD
:1040700000F048FB36A3D3E9002300F08FF9324665
:104080003B4600F03FFB34A3D3E9002300F088F95E
:104090000E9BCDE900019BB30022334B40464946BD
:1040A00000F030FBDDE90023CDE90201504659461E
:1040B00000F028FB02460B46DDE9020100F06EF934
:1040C00032463B4600F01EFB42464B4600F066F986
:1040D00023A3D3E9002306460F465046594600F075
:1040E00011FB02460B463046394600F059F90246AC
:1040F0000B462846214600F051F905B0BDE8F08F87
:1041000002460B463046394600F0FCFA14A3D3E9C8
:10411000002300F043F952465B4600F0F3FA2A46CA
:10412000234600F03DF905B0BDE8F08F2846214652
:1041300005B0BDE8F08F00BF7CD5CF5A3AD9E53D38
:10414000EB9C2B8AE6E55A3E7DFEB157E31DC73E48
:10415000D561C119A0012A3FA6F810111111813FA4
:10416000495555555555C53F0000E03F000000003A
:10417000C1F30A522DE9F843A2F2FF36132E0B4683
:104180000D460446884607461DDC002E40DB3C4AAF
:1041900042FA06F901EA09020243864618D036A31C
:1041A000D3E9002300F0FCF80022002300F03AFDE0
:1041B00020B1002D42DB28EA090500273C462946AC
:1041C0002046BDE8F883332E06DDB6F5806F2FD08C
:1041D00019462046BDE8F883A2F213424FF0FF399A
:1041E00029FA02F910EA090FF2D023A3D3E9002338
:1041F00000F0D6F80022002300F014FD0028DDD0E6
:10420000002D21DB454627EA09073C462946D7E72A
:1042100019A3D3E9002300F0C3F80022002300F023
:1042200001FD0028CAD0002D19DB00273D46C5E757
:1042300002460B4600F0B4F80446CAE74FF4801378
:1042400043FA06F6B044B6E7142E10D00123C6F1A7
:10425000340603FA06F6371928BF9844D2E725F04A
:104260000042084B224318BF1D460027A6E705F170
:104270000108C7E7AFF300809C7500883CE4377EF7
:10428000FFFF0F000000F0BFF8B5C1F30A56044667
:104290000D460B4617460EBB21F0004303438646EE
:1042A00025D00022344B00F02DFA344A97420446C0
:1042B0000D460B462ADBC1F30A56363E3E4440F219
:1042C000FE72964228DC002E12DD23F0FF4323F419
:1042D000E00343EA065520462946F8BD40F2FF7246
:1042E0009642EBD102460B4600F05AF8F8BDF8BDF5
:1042F00016F1350F1DDA4CF250339F4222462B4601
:1043000025DC19A1D1E9000100F03CF816A3D3E99E
:10431000002300F0F7F9F8BD22462B4614A1D1E99D
:10432000000100F02FF812A3D3E9002300F0EAF90E
:10433000F8BD23F0FF4323F4E003363643EA065585
:104340002046294600220E4B00F0DCF9F8BD08A1FA
:10435000D1E9000100F016F805A3D3E9002300F02D
:10436000D1F9F8BDAFF3008059F3F8C21F6EA50173
:104370009C7500883CE4377E00005043B03CFFFF52
:104380000000903C03F0004321F0004242EA0301A8
:10439000704700BF81F0004102E000BF83F000439E
:1043A00030B54FEA41044FEA430594EA050F08BFD0
:1043B00090EA020F1FBF54EA000C55EA020C7FEA94
:1043C000645C7FEA655C00F0E2804FEA5454D4EB11
:1043D0005555B8BF6D420CDD2C4480EA020281EADB
:1043E000030382EA000083EA010180EA020281EA13
:1043F0000303362D88BF30BD11F0004F4FEA013165
:104400004FF4801C4CEA113102D0404261EB410173
:1044100013F0004F4FEA03334CEA133302D05242F9
:1044200063EB430394EA050F00F0A780A4F10104B5
:10443000D5F1200E0DDB02FA0EFC22FA05F28018EF
:1044400041F1000103FA0EF2801843FA05F35941D5
:104450000EE0A5F120050EF1200E012A03FA0EFC54
:1044600028BF4CF0020C43FA05F3C01851EBE3717E
:1044700001F0004507D54FF0000EDCF1000C7EEB9B
:1044800000006EEB0101B1F5801F1BD3B1F5001FD9
:104490000CD349085FEA30004FEA3C0C04F10104F8
:1044A0004FEA445212F5800F80F09A80BCF1004F21
:1044B00008BF5FEA500C50F1000041EB045141EAA3
:1044C000050130BD5FEA4C0C404141EB010111F4A4
:1044D000801FA4F10104E9D191F0000F04BF01464F
:1044E0000020B1FA81F308BF2033A3F10B03B3F12D
:1044F00020020CDA0C3208DD02F1140CC2F10C02BD
:1045000001FA0CF021FA02F10CE002F11402D8BF1A
:10451000C2F1200C01FA02F120FA0CFCDCBF41EAE6
:104520000C019040E41AA2BF01EB0451294330BDB5
:104530006FEA04041F3C1CDA0C340EDC04F1140492
:10454000C4F1200220FA04F001FA02F340EA030069
:1045500021FA04F345EA030130BDC4F10C04C4F1AF
:10456000200220FA02F001FA04F340EA030029468F
:1045700030BD21FA04F0294630BD94F0000F83F4D9
:10458000801306BF81F480110134013D4EE77FEABC
:10459000645C18BF7FEA655C29D094EA050F08BF08
:1045A00090EA020F05D054EA000C04BF19461046E9
:1045B00030BD91EA030F1EBF0021002030BD5FEA2D
:1045C000545C05D14000494128BF41F0004130BD55
:1045D00014F580043CBF01F5801130BD01F00045A9
:1045E00045F0FE4141F470014FF0000030BD7FEA1C
:1045F000645C1ABF194610467FEA655C1CBF0B4617
:10460000024650EA013406BF52EA033591EA030F2D
:1046100041F4002130BD00BF90F0000F04BF002125
:10462000704730B54FF4806404F132044FF0000558
:104630004FF0000150E700BF90F0000F04BF0021D1
:10464000704730B54FF4806404F1320410F0004537
:1046500048BF40424FF000013EE700BF42004FEA32
:10466000E2014FEA31014FEA02701FBF12F07F43AF
:1046700093F07F4F81F06051704792F0000F14BFAC
:1046800093F07F4F704730B54FF4607401F00045F0
:1046900021F0004120E700BF50EA010208BF704747
:1046A00030B54FF000050AE050EA010208BF70473C
:1046B00030B511F0004502D5404261EB41014FF4A5
:1046C000806404F132045FEA915C3FF4DCAE4FF0A9
:1046D00003025FEADC0C18BF03325FEADC0C18BF90
:1046E000033202EBDC02C2F1200300FA03FC20FAE1
:1046F00002F001FA03FE40EA0E0021FA02F114442E
:10470000C1E600BF70B54FF0FF0C4CF4E06C1CEA42
:1047100011541DBF1CEA135594EA0C0F95EA0C0FB7
:1047200000F0DEF82C4481EA030621EA4C5123EA2A
:104730004C5350EA013518BF52EA033541F4801159
:1047400043F4801338D0A0FB02CE4FF00005E1FB0C
:1047500002E506F00042E0FB03E54FF00006E1FB56
:1047600003569CF0000F18BF4EF0010EA4F1FF0499
:10477000B6F5007F64F5407404D25FEA4E0E6D41D9
:1047800046EB060642EAC62141EA55514FEAC520EA
:1047900040EA5E504FEACE2EB4F1FD0C88BFBCF566
:1047A000E06F1ED8BEF1004F08BF5FEA500E50F117
:1047B000000041EB045170BD06F0004646EA0101DD
:1047C00040EA020081EA0301B4EB5C04C2BFD4EB0F
:1047D0000C0541EA045170BD41F480114FF0000E08
:1047E000013C00F3AB8014F1360FDEBF002001F076
:1047F000004170BDC4F10004203C35DA0C341BDCF0
:1048000004F11404C4F1200500FA05F320FA04F0C1
:1048100001FA05F240EA020001F0004221F00041F5
:1048200010EBD37021FA04F642EB06015EEA430E68
:1048300008BF20EAD37070BDC4F10C04C4F1200598
:1048400000FA04F320FA05F001FA04F240EA02004B
:1048500001F0004110EBD37041F100015EEA430E1C
:1048600008BF20EAD37070BDC4F1200500FA05F23C
:104870004EEA020E20FA04F301FA05F243EA0203BB
:1048800021FA04F001F0004121FA04F220EA0200CA
:1048900000EBD3705EEA430E08BF20EAD37070BD10
:1048A00094F0000F0FD101F00046400041EB0101F0
:1048B00011F4801F08BF013CF7D041EA060195F0D2
:1048C000000F18BF704703F00046520043EB03038C
:1048D00013F4801F08BF013DF7D043EA0603704779
:1048E00094EA0C0F0CEA135518BF95EA0C0F0CD084
:1048F00050EA410618BF52EA4306D1D181EA0301CA
:1049000001F000414FF0000070BD50EA410606BFC3
:104910001046194652EA430619D094EA0C0F02D108
:1049200050EA013613D195EA0C0F05D152EA03364D
:104930001CBF104619460AD181EA030101F000416B
:1049400041F0FE4141F470014FF0000070BD41F0B4
:10495000FE4141F4780170BD70B54FF0FF0C4CF48E
:10496000E06C1CEA11541DBF1CEA135594EA0C0FAD
:1049700095EA0C0F00F0A7F8A4EB050481EA030EFA
:1049800052EA03354FEA013100F088804FEA0333E1
:104990004FF0805545EA131343EA12634FEA0222AF
:1049A00045EA111545EA10654FEA00260EF0004170
:1049B0009D4208BF964244F1FD0404F5407402D2C2
:1049C0005B084FEA3202B61A65EB03055B084FEA53
:1049D00032024FF480104FF4002CB6EB020E75EB50
:1049E000030E22BFB61A754640EA0C005B084FEA78
:1049F0003202B6EB020E75EB030E22BFB61A7546F5
:104A000040EA5C005B084FEA3202B6EB020E75EB3F
:104A1000030E22BFB61A754640EA9C005B084FEAB7
:104A20003202B6EB020E75EB030E22BFB61A7546C4
:104A300040EADC0055EA060E18D04FEA051545EAB3
:104A400016754FEA06164FEAC30343EA52734FEA5C
:104A5000C2025FEA1C1CC0D111F4801F0BD141EAD5
:104A600000014FF000004FF0004CB6E711F4801F3A
:104A700004BF01430020B4F1FD0C88BFBCF5E06F1A
:104A80003FF6AFAEB5EB030C04BFB6EB020C5FEA2A
:104A9000500C50F1000041EB045170BD0EF0004E7F
:104AA0004EEA113114EB5C04C2BFD4EB0C0541EAB1
:104AB000045170BD41F480114FF0000E013C90E6AE
:104AC00045EA060E8DE60CEA135594EA0C0F08BF72
:104AD00095EA0C0F3FF43BAF94EA0C0F0AD150EA71
:104AE00001347FF434AF95EA0C0F7FF425AF104604
:104AF00019462CE795EA0C0F06D152EA03353FF42C
:104B0000FDAE1046194622E750EA410618BF52EAA8
:104B100043067FF4C5AE50EA41047FF40DAF52EA7C
:104B200043057FF4EBAE12E74FF0FF3C06E000BF19
:104B30004FF0010C02E000BF4FF0010C4DF804CD26
:104B40004FEA410C7FEA6C5C4FEA430C18BF7FEAE6
:104B50006C5C1BD001B050EA410C0CBF52EA430C14
:104B600091EA030F02BF90EA020F0020704710F194
:104B7000000F91EA030F58BF994208BF90422CBF23
:104B8000D8176FEAE37040F0010070474FEA410C1C
:104B90007FEA6C5C02D150EA013C07D14FEA430C3A
:104BA0007FEA6C5CD6D152EA033CD3D05DF8040BAB
:104BB000704700BF8446104662468C4619466346DD
:104BC00000E000BF01B5FFF7B7FF002848BF10F1B4
:104BD000000F01BD4DF808EDFFF7F4FF0CBF0120F9
:104BE00000205DF808FB00BF4DF808EDFFF7EAFF75
:104BF00034BF012000205DF808FB00BF4DF808ED30
:104C0000FFF7E0FF94BF012000205DF808FB00BF24
:104C10004DF808EDFFF7CEFF94BF012000205DF8AE
:104C200008FB00BF4DF808EDFFF7C4FF34BF0120BB
:104C300000205DF808FB00BF4FEA410212F50012A8
:104C400015D211D56FF47873B3EB625212D94FEAD3
:104C5000C12343F0004343EA505311F0004F23FABD
:104C600002F018BF404270474FF00000704750EA12
:104C7000013005D111F0004008BF6FF000407047CF
:104C80004FF00000704700BF80F0004002E000BF1E
:104C900081F0004142001FBF5FEA410392EA030F27
:104CA0007FEA226C7FEA236C6AD04FEA1262D2EB71
:104CB0001363C1BFD218414048404140B8BF5B4276
:104CC000192B88BF704710F0004F40F4000020F00F
:104CD0007F4018BF404211F0004F41F4000121F025
:104CE0007F4118BF494292EA030F3FD0A2F101026F
:104CF00041FA03FC10EB0C00C3F1200301FA03F1AD
:104D000000F0004302D5494260EB4000B0F5000FCF
:104D100013D3B0F1807F06D340084FEA310102F18E
:104D20000102FE2A51D2B1F1004F40EBC25008BF40
:104D300020F0010040EA03007047490040EB00000A
:104D400010F4000FA2F10102EDD1B0FA80FCACF139
:104D5000080CB2EB0C0200FA0CF0AABF00EBC25038
:104D600052421843BCBFD0401843704792F0000F26
:104D700081F4000106BF80F400000132013BB5E779
:104D80004FEA41037FEA226C18BF7FEA236C21D0EF
:104D900092EA030F04D092F0000F08BF0846704754
:104DA00090EA010F1CBF0020704712F07F4F04D122
:104DB000400028BF40F00040704712F100723CBF35
:104DC00000F50000704700F0004343F0FE4040F45F
:104DD000000070477FEA226216BF08467FEA23631D
:104DE0000146420206BF5FEA412390EA010F40F408
:104DF000800070474FF0000304E000BF10F0004354
:104E000048BF40425FEA000C08BF704743F096433A
:104E100001464FF000001CE050EA010208BF704755
:104E20004FF000030AE000BF50EA010208BF7047DC
:104E300011F0004302D5404261EB41015FEA010CF1
:104E400002BF84460146002043F0B64308BFA3F1E9
:104E50008053A3F50003BCFA8CF2083AA3EBC253CB
:104E600010DB01FA02FC634400FA02FCC2F12002EA
:104E7000BCF1004F20FA02F243EB020008BF20F021
:104E80000100704702F1200201FA02FCC2F1200287
:104E900050EA4C0021FA02F243EB020008BF20EA7C
:104EA000DC7070474FF0FF0C1CEAD0521EBF1CEAAA
:104EB000D15392EA0C0F93EA0C0F6FD01A4480EA98
:104EC000010C400218BF5FEA41211ED04FF0006381
:104ED00043EA501043EA5111A0FB01310CF00040AD
:104EE000B1F5000F3EBF490041EAD3715B0040EAD3
:104EF000010062F17F02FD2A1DD8B3F1004F40EBA3
:104F0000C25008BF20F00100704790F0000F0CF075
:104F1000004C08BF49024CEA502040EA51207F3A39
:104F2000C2BFD2F1FF0340EAC250704740F4000014
:104F30004FF00003013A5DDC12F1190FDCBF00F005
:104F400000407047C2F10002410021FA02F1C2F1B3
:104F5000200200FA02FC5FEA310040F1000053EA4F
:104F60004C0308BF20EADC70704792F0000F00F09D
:104F7000004C02BF400010F4000F013AF9D040EAA3
:104F80000C0093F0000F01F0004C02BF490011F437
:104F9000000F013BF9D041EA0C018FE70CEAD15335
:104FA00092EA0C0F18BF93EA0C0F0AD030F0004CB5
:104FB00018BF31F0004CD8D180EA010000F0004069
:104FC000704790F0000F17BF90F0004F084691F027
:104FD000000F91F0004F14D092EA0C0F01D1420261
:104FE0000FD193EA0C0F03D14B0218BF084608D12A
:104FF00080EA010000F0004040F0FE4040F4000074
:10500000704740F0FE4040F4400070474FF0FF0C06
:105010001CEAD0521EBF1CEAD15392EA0C0F93EA4D
:105020000C0F69D0A2EB030280EA010C49024FEA9F
:10503000402037D04FF0805343EA111143EA101358
:105040000CF000408B4238BF5B0042F17D024FF410
:10505000000C8B4224BF5B1A40EA0C00B3EB510FEB
:1050600024BFA3EB510340EA5C00B3EB910F24BFD4
:10507000A3EB910340EA9C00B3EBD10F24BFA3EB59
:10508000D10340EADC001B0118BF5FEA1C1CE0D121
:10509000FD2A3FF650AF8B4240EBC25008BF20F0D4
:1050A000010070470CF0004C4CEA50207F32C2BF28
:1050B000D2F1FF0340EAC250704740F400004FF0C5
:1050C0000003013A37E792F0000F00F0004C02BFF6
:1050D000400010F4000F013AF9D040EA0C0093F0C0
:1050E000000F01F0004C02BF490011F4000F013B1A
:1050F000F9D041EA0C0195E70CEAD15392EA0C0F82
:1051000008D142027FF47DAF93EA0C0F7FF470AFB9
:10511000084676E793EA0C0F04D14B023FF44CAFFC
:1051200008466EE730F0004C18BF31F0004CCAD191
:1051300030F000427FF45CAF31F000437FF43CAFCD
:105140005FE700BF4FF0FF3C06E000BF4FF0010CEF
:1051500002E000BF4FF0010C4DF804CD4FEA4002D1
:105160004FEA41037FEA226C18BF7FEA236C11D01B
:1051700001B052EA530C18BF90EA010F58BFB2EBCE
:10518000030088BFC81738BF6FEAE17018BF40F04E
:10519000010070477FEA226C02D15FEA402C05D102
:1051A0007FEA236CE4D15FEA412CE1D05DF8040B87
:1051B000704700BF844608466146FFE70FB5FFF71A
:1051C000C9FF002848BF10F1000F0FBD4DF808EDD2
:1051D000FFF7F4FF0CBF012000205DF808FB00BFC3
:1051E0004DF808EDFFF7EAFF34BF012000205DF81D
:1051F00008FB00BF4DF808EDFFF7E0FF94BF01206A
:1052000000205DF808FB00BF4DF808EDFFF7D2FF66
:1052100094BF012000205DF808FB00BF4DF808EDA9
:10522000FFF7C8FF34BF012000205DF808FB00BF76
:10523000483A256620593A256420583A25642000CA
:10524000473A256320793A256420783A256400009E
:10525000FB21F93FFB2109407CD91240FB21194079
:105260007A6A1F407CD92240BBFD2540FB212940A2
:105270003A462C407A6A2F405C4731407CD9324014
:105280009C6B3440BBFD3540DB8F3740FB21394000
:105290001BB43A403A463C405AD83D407A6A3F40B7
:1052A0004C7E40405C4741406C1042407CD94240BB
:1052B0008CA243409C6B4440AC344540BBFD454010
:1052C000CBC64640DB8F4740EB584840FB21494066
:1052D00083F9A200444E6E00FC291500D157270027
:1052E000DD34F50062DBC0003C999500419043003D
:1052F0006351FE00BBDEAB00B761C5003A6E24000F
:10530000D24D42004906E00009EA2E001C92D1006D
:10531000EB1DFE0029B11C00E83EA700F535820018
:1053200044BB2E009CE98400B4267000417E5F00DF
:10533000D6913900538339009CF439008B5F840087
:1053400028F9BD00F81F3B00DEFF97000F9805000D
:10535000112FEF000A5A8B006D1F6D00CF7E3600B3
:1053600009CB2700464FB7009E663F002DEA5F003D
:10537000BA277500E5EBC7003D7BF100F739070060
:1053800092528A00FB6BEA001FB15F00085D8D003E
:10539000300356007BFC4600F0AB6B0020BCCF0016
:1053A00036F49A00E3A91D005E619100081BE60037
:1053B00085996500A0145F008D40680080D8FF00CB
:1053C00027734D0006063100CA561500C9A87300A0
:1053D0007BE260006B8CC00000000040FB21F93FC5
:1053E000000000002D44743E000000809846F83C08
:1053F0000000006051CC783B00000080831BF03936
:105400000000004020257A38000000802282E33628
:10541000000000001DF369350200000003000000D9
:0854200004000000060000007A
:10542800010101010101000000000000001002401C
:105438000100000010000000000000000100000052
:1054480000100240020000001000000000000000F0
:1054580002000000001002400400000010000000DC
:1054680000000000030000000010024008000000D7
:1054780010000000000000000400000000100240BE
:1054880010000000100000000000000005000000EF
:105498000010024020000000100000000000000082
:1054A800007A030A00000000000000000102030463
:1054B80006070809000000000000000000E08C401A
:1054C8000000000000003C40000000000000144004
:1054D80030478FDFDBF4A73F000000FEFFFFDFC18E
:1054E800000000FEFFFFDF41000000000058BBC0C5
:1054F800000000000058BB4001000000010000004F
:04550800010000009E
:0400000508000000EF
:00000001FF
