:020000040800F2
:10000000C00D0020190800087908000879080008C8
:100010007908000879080008790800080000000045
:100020000000000000000000000000007908000847
:10003000790800080000000079080008B51E0008D3
:10004000790800087908000879080008790800088C
:100050007908000879080008391D0008571D0008B4
:10006000751D0008931D0008B11D000879080008DF
:10007000790800087908000879080008790800085C
:10008000790800087908000879080008790800084C
:10009000790800087908000879080008CF1D0008D1
:1000A000790800087908000879080008790800082C
:1000B000ED2F000879080008790800087908000881
:1000C000790800087908000879080008790800080C
:1000D000790800087908000851020008B5280008CE
:1000E00079080008790800087908000879080008EC
:1000F00079080008790800087908000879080008DC
:1001000079080008790800085541000879080008B6
:1001100079080008790800087908000879080008BB
:1001200079080008790800087908000879080008AB
:10013000790800087908000879080008790800089B
:10014000790800087908000879080008790800088B
:10015000790800087908000879080008790800087B
:10016000790800087908000879080008790800086B
:10017000790800087908000879080008790800085B
:10018000790800087908000880B588B000AF01211F
:10019000012000F0FFFD01214FF4003000F018FEB7
:1001A0000C237B6102237B7602233B760023BB7604
:1001B0000023FB7607F114031946234801F0C6FE1D
:1001C00007220321204801F083FF072202211E4855
:1001D00001F07EFF01214FF4003000F0F9FD1B48D3
:1001E00000F026F94FF416537B6000233B81002377
:1001F0007B810023BB8100233B820C23FB813B1DC1
:100200001946124800F07EF90121104800F034FA36
:10021000012240F225510D4800F05CFA26233B777D
:1002200000237B770023BB770123FB7707F11C03B7
:10023000184603F04DFE0121044800F01DFA00BFEE
:100240002037BD4680BD00BF000002400044004092
:1002500080B500AF40F22551434800F082FA0346D2
:10026000002B7ED0404800F026FA0346DAB23F4B1E
:100270001A703F4B1B78782B08D13C4B1B781A46E1
:100280003C4B1A603A4B00221A7043E0384B1B7803
:10029000792B08D1354B1B781A46374B1A60344BF3
:1002A00000221A7036E0324B1B78582B08D12F4BA6
:1002B0001B781A46314B1A602D4B00221A7029E028
:1002C0002B4B1B78592B08D1284B1B781A462C4BEB
:1002D0001A60274B00221A701CE0254B1B78672BF5
:1002E00007D1224B1A78274B1A70214B00221A7023
:1002F00010E01F4B1B78732B08D11C4B1B781A4640
:10030000214B1A601A4B00221A7003E0174B1A781F
:10031000174B1A701D4B1A68164B1B689A4205D171
:100320001B4B1A68144B1B689A4212D0114B1B6866
:10033000184606F08FF90246164B1A600E4B1B68E2
:10034000184606F087F90246134B1A60134B012238
:100350001A60084B1B680D4A1360074B1B680C4A58
:10036000136000BF80BD00BF004400402D0400208A
:100370002C04002024040020F8030020080400209E
:100380001004002003040020FC0300201C040020B3
:100390001804002070050020B40500206805002026
:1003A00080B500AFFFF7F0FE00BF80BD90B484B011
:1003B00000AF03460A46FB711346BB710023FB6086
:1003C000BB7903F003039B000F2202FA03F3FB60E7
:1003D0001649BB799B08DBB21846144ABB799B08C7
:1003E000DBB2023352F82320FB68DB431A40831C44
:1003F00041F823200D48BB799B08DBB21C460B4A11
:10040000BB799B08DBB2023352F82320F979BB7920
:1004100003F003039B0001FA03F31A43A31C40F803
:10042000232000BF1037BD4690BC70470038014004
:1004300080B582B000AF78607B682C4A934208D1C7
:100440000121102000F01EFD0021102000F01AFDF7
:1004500047E07B68264A93420AD101214FF40030DD
:1004600000F0F2FC00214FF4003000F0EDFC38E029
:100470007B68204A93420AD101214FF4802000F08A
:10048000E3FC00214FF4802000F0DEFC29E07B68D3
:10049000194A93420AD101214FF4002000F0D4FC04
:1004A00000214FF4002000F0CFFC1AE07B68134AD3
:1004B00093420AD101214FF4801000F0C5FC0021C5
:1004C0004FF4801000F0C0FC0BE07B680C4A9342B4
:1004D00007D10121202000F0D5FC0021202000F0D0
:1004E000D1FC00BF0837BD4680BD00BF00100140F1
:1004F0000044004000480040004C004000500040D4
:100500000014014080B58AB000AF786039600023E4
:100510007B6200233B620023FB610023BB617B689D
:100520001B8A9BB27B627B6A23F440537B623B68ED
:10053000DB881A467B6A13437B627B6A9AB27B68CC
:100540001A827B689B899BB27B627B6A23F4B053DF
:1005500023F00C037B623B689A883B681B8913433A
:100560009AB23B685B8913439BB21A467B6A13437A
:100570007B627B6A9AB27B689A817B689B8A9BB21A
:100580007B627B6A23F440737B623B689B891A46DB
:100590007B6A13437B627B6A9AB27B689A8207F11B
:1005A0000803184600F04EFB7B68304A934203D0A4
:1005B0007B682F4A934202D17B693B6201E03B6931
:1005C0003B627B689B899BB21BB2002B0CDA3A6AB8
:1005D00013469B0013449A001A443B681B685B0057
:1005E000B2FBF3F3FB610BE03A6A13469B00134442
:1005F0009A001A443B681B689B00B2FBF3F3FB6153
:10060000FB691C4AA2FB03235B091B017B627B6A1B
:100610001B09642202FB03F3FA69D31ABB617B68EE
:100620009B899BB21BB2002B0CDABB69DB00323317
:10063000104AA2FB03235B0903F007037A6A134302
:100640007B620BE0BB691B0132330A4AA2FB032326
:100650005B0903F00F037A6A13437B627B6A9AB2E9
:100660007B681A8100BF2837BD4680BD001001405D
:10067000001401401F85EB5180B483B000AF786057
:100680000B46FB70FB78002B08D07B689B899BB2E4
:1006900043F400539AB27B689A8107E07B689B8998
:1006A0009BB223F400539AB27B689A8100BF0C3747
:1006B000BD4680BC704780B483B000AF78607B6873
:1006C0009B889BB2C3F308039BB218460C37BD4608
:1006D00080BC704780B487B000AF78600B467B80E9
:1006E00013467B7000233B610023FB600023BB604B
:1006F00000237B617B687B617B88DBB25B09DBB2BB
:100700003B617B8803F01F03FB600122FB6802FA58
:1007100003F3BB603B69012B03D17B690C337B6125
:1007200009E03B69022B03D17B6910337B6102E056
:100730007B6914337B617B78002B06D07B697A69F7
:100740001168BA680A431A6006E07B697A69116821
:10075000BA68D2430A401A6000BF1C37BD4680BC4D
:10076000704780B487B000AF78600B467B80002371
:10077000FB6000237B610023BB600023FB747B884C
:10078000DBB25B09DBB2BB607B8803F01F037B61DC
:1007900001227B6902FA03F37B61BB68012B07D15D
:1007A0007B689B899BB21A467B6913407B6111E091
:1007B000BB68022B07D17B681B8A9BB21A467B69F8
:1007C00013407B6106E07B689B8A9BB21A467B697B
:1007D00013407B617B881B0A9BB2FB600122FB6894
:1007E00002FA03F3FB607B681B889BB21A46FB6826
:1007F0001340FB607B69002B05D0FB68002B02D007
:100800000123FB7401E00023FB74FB7C18461C37BA
:10081000BD4680BC7047000080B582B000AF114B70
:100820007B60114B3B6007E03B681A1D3A607A68B9
:10083000111D796012681A603B680C4A9342F3D329
:100840000B480C494FF000028842B8BF40F8042B17
:10085000FADB01F02BFF00F073F900BF0837BD464B
:1008600080BD00BF806C000800000020F400002064
:10087000F8000020BC05002080B400AFFEE70000B7
:1008800080B584B000AF0121042000F0A1FA00235C
:10089000BB800023FB804FF6FF73BB600023BB814E
:1008A0000023BB733B1D1946054803F06FFC012173
:1008B000034803F0D5FC00BF1037BD4680BD00BF24
:1008C0000008004080B586B000AFFFF7D9FF702365
:1008D000BB800123FB8002233B8240F63303FB6095
:1008E0003B1D1946184803F0DBFC0821164803F0AD
:1008F000C5FE41F26703FB603B1D1946124803F039
:1009000049FD0821104803F0D4FE41F69B03FB602B
:100910003B1D19460C4803F0C5FD08210A4803F0A9
:10092000E5FE42F2CF03FB603B1D1946064803F08B
:100930003FFE0821044803F0F4FE00F007F800BF72
:100940001837BD4680BD00BF0008004080B582B0AA
:1009500000AF0121082000F01DFA02220C212748D7
:1009600001F0B6FB02220D21244801F0B1FB022266
:100970000E21224801F0ACFB02220F211F4801F09A
:10098000A7FB4FF47F433B600023BB710023FB7147
:1009900002233B7103237B713B461946174801F044
:1009A000D5FA0121022000F0F5F94FF470433B60C5
:1009B0000023BB710023FB7101233B7103237B7177
:1009C0003B4619460E4801F0C1FA0121102000F003
:1009D000E1F94FF470433B600023BB710023FB71CE
:1009E00001233B7103237B713B461946054801F007
:1009F000ADFA00BF0837BD4680BD00BF000C024005
:100A0000000402400010024080B584B000AF0346ED
:100A10003960FB713B68002BCCBF01230023FB73C3
:100A20003B68002BB8BF5B423B60FB79013B032B6B
:100A30007AD801A252F823F0490A0008810A000876
:100A4000B90A0008F10A0008FB7B002B0AD04FF41A
:100A50008051384801F020FB4FF40051354801F037
:100A600029FB09E04FF40051324801F015FB4FF427
:100A70008051304801F01EFB2F4A3B68536354E01D
:100A8000FB7B002B0AD04FF480412A4801F004FB85
:100A90004FF40041274801F00DFB09E04FF40041FD
:100AA000244801F0F9FA4FF48041224801F002FB9A
:100AB000214A3B68936338E0FB7B002B0AD04FF45C
:100AC00080511E4801F0E8FA4FF480411B4801F0C4
:100AD000F1FA09E04FF48041184801F0DDFA4FF4D3
:100AE0008051164801F0E6FA134A3B68D3631CE0D4
:100AF000FB7B002B0AD04FF40051104801F0CCFAD8
:100B00004FF400410D4801F0D5FA09E04FF40041DF
:100B10000A4801F0C1FA4FF40051084801F0CAFA3E
:100B2000054A3B68136400E000BF00BF1037BD46B4
:100B300080BD00BF000402400008004000100240D9
:100B400090B585B004AF01F0B1FD01F07BFB01F081
:100B5000D5F903F013FB01F093FB03F05BFA02F00D
:100B600017F8FFF71DFC01F049FE01F0F9FA01F05A
:100B700029FB41F2883001F085F902F0DBF94FF0F2
:100B800000034FF00004CDE902344FF000034FF0B2
:100B90000004CDE900344FF000024FF000034FF0A5
:100BA00000004FF0000102F0B7F8002300220021FE
:100BB000002003F0BFF840F6B83001F063F90221DD
:100BC000024801F069FA01F019FBF8E70008024059
:100BD00080B483B000AF0346FB71054B00221A704E
:100BE000034AFB79137000BF0C37BD4680BC7047C9
:100BF0000238024080B582B000AF00233B60002382
:100C0000FB710023BB71312000F05AF90346BB7120
:100C10003B6801333B603B68B3F5A06F02D0BB7902
:100C2000002BF0D0312000F04BF90346002B02D00E
:100C30000123FB7101E00023FB71FB7918460837A3
:100C4000BD4680BD80B489B000AF78600023BB6131
:100C500000237B610023FB6102233B610023FB60D7
:100C60000223BB60474B9B6803F00C03BB61BB696D
:100C7000042B07D0082B09D0002B3DD17B68424ABA
:100C80001A603DE07B68414A1A6039E03D4B5B6881
:100C90009B0D03F00103FB603A4B5B6803F03F03DD
:100CA000BB60FB68002B0CD0384ABB68B2FBF3F387
:100CB000344A52689209C2F3080202FB03F3FB6153
:100CC0000BE0314ABB68B2FBF3F32E4A526892093B
:100CD000C2F3080202FB03F3FB612A4B5B681B0CA7
:100CE00003F0030301335B003B61FA693B69B2FB2C
:100CF000F3F27B681A6003E07B68234A1A6000BF46
:100D0000204B9B6803F0F003BB61BB691B09BB610F
:100D10001F4ABB6913441B78DBB27B617B681A688E
:100D20007B69DA407B685A60164B9B6803F4E0539A
:100D3000BB61BB699B0ABB61154ABB6913441B7845
:100D4000DBB27B617B685A687B69DA407B689A60BA
:100D50000C4B9B6803F46043BB61BB695B0BBB61DD
:100D60000B4ABB6913441B78DBB27B617B685A6812
:100D70007B69DA407B68DA6000BF2437BD4680BCFF
:100D8000704700BF003802400024F40000127A00CF
:100D90000000002080B483B000AF78600B46FB7089
:100DA000FB78002B06D00949084B1A6B7B6813436C
:100DB0000B6306E00549054B1A6B7B68DB43134068
:100DC0000B6300BF0C37BD4680BC70470038024043
:100DD00080B483B000AF78600B46FB70FB78002BCB
:100DE00006D00949084B1A6C7B6813430B6406E074
:100DF0000549054B1A6C7B68DB4313400B6400BF4D
:100E00000C37BD4680BC70470038024080B483B0C8
:100E100000AF78600B46FB70FB78002B06D00949C9
:100E2000084B5A6C7B6813434B6406E00549054B3D
:100E30005A6C7B68DB4313404B6400BF0C37BD46E4
:100E400080BC70470038024080B483B000AF786047
:100E50000B46FB70FB78002B06D00949084B1A6A39
:100E60007B6813430B6206E00549054B1A6A7B68F1
:100E7000DB4313400B6200BF0C37BD4680BC70479C
:100E80000038024080B483B000AF78600B46FB703E
:100E9000FB78002B06D00949084B5A6A7B6813433C
:100EA0004B6206E00549054B5A6A7B68DB431340F9
:100EB0004B6200BF0C37BD4680BC70470038024013
:100EC00080B487B000AF0346FB710023FB600023B2
:100ED0007B610023FB74FB795B09DBB2FB60FB6881
:100EE000012B03D1124B1B687B6109E0FB68022BCD
:100EF00003D10F4B1B6F7B6102E00D4B5B6F7B617E
:100F0000FB7903F01F03FB607A69FB6822FA03F3A5
:100F100003F00103002B02D00123FB7401E0002346
:100F2000FB74FB7C18461C37BD4680BC704700BF75
:100F30000038024080B483B000AF78600B46FB708D
:100F40007B68FA781A70012318460C37BD4680BCBE
:100F5000704780B485B000AF786039600023FB60D3
:100F60000AE07B685A1C7A603A68511C3960127832
:100F70001A70FB680133FB603B681B78002BF0D1D3
:100F8000FB6818461437BD4680BC704780B586B0F4
:100F900000AFF8607A603B600B46FB7200237B6118
:100FA0007B68013B7B603B68092B1DD93B681D4A70
:100FB000A2FB0323DB08F97A7A68F868FFF7E6FFFB
:100FC00078617B69FA681344FB6010E0FB7A19468C
:100FD000F868FFF7AFFFFB680133FB607B69013303
:100FE0007B617B68013B7B607B68002BEEDC3968B2
:100FF0000C4BA3FB0123DA0813469B0013445B0050
:10100000CA1AD3B23033DBB21946F868FFF792FF41
:1010100002467B6913447B617B6918461837BD46DD
:1010200080BD00BFCDCCCCCC80B586B000AFF86021
:101030007A603B600B46FB7200237B613B68002BB0
:1010400003DA3B685B423B6101E03B683B617B68E4
:10105000013B7B603B69092B1FD93B68002B0CDAF5
:101060003B692E4AA2FB0323DB085B42F97A7A68CC
:10107000F868FFF7D9FF78610AE03B69274AA2FBCD
:101080000323DB08F97A7A68F868FFF7CDFF786107
:101090007B69FA681344FB6025E03B68002B11DA9A
:1010A0007B68013B7B600DE0FB7A1946F868FFF72F
:1010B00041FFFB680133FB607B6901337B617B6827
:1010C000013B7B607B68002BEEDC3B68002B0ADA7F
:1010D0002D21F868FFF72EFF02467B6913447B61E0
:1010E000FB680133FB6039690C4BA3FB0123DA0871
:1010F00013469B0013445B00CA1AD3B23033DBB2F1
:101100001946F868FFF716FF02467B6913447B61B6
:101110007B6918461837BD4680BD00BFCDCCCCCC0E
:1011200080B588B002AFF8607A601A460B46FB7251
:101130001346BB7200237B617B68013B7B603B6A8B
:101140001B09002B20D03B6A1B09BA7AF97A00935D
:1011500013467A68F868FFF7E3FF02467B69134499
:101160007B617B69FA681344FB6010E0FB7A1946E7
:10117000F868FFF7DFFEFB680133FB607B69013332
:101180007B617B68013B7B607B68002BEEDC3B6A0C
:1011900003F00F03092B0BD83B6ADBB203F00F03FC
:1011A000DBB23033DBB21946F868FFF7C3FE19E053
:1011B000BB7A002B0BD03B6ADBB203F00F03DBB230
:1011C0003733DBB21946F868FFF7B4FE0AE03B6A32
:1011D000DBB203F00F03DBB25733DBB21946F8681A
:1011E000FFF7A8FE7B6901337B617B6918461837DE
:1011F000BD4680BD80B58AB002AFF860B9607A6044
:101200003B600023BB6100237B61FB68002B00F087
:10121000FC80FB6800221A70F7E07B681B78252BA6
:101220000BD0FB685A1CFA607A68511C79601278FE
:101230001A707B6901337B61E7E07B6801331B78BF
:10124000252B0BD1FB685A1CFA6025221A707B688B
:1012500002337B607B6901337B61D6E02023FB771F
:101260000023BB777B6801337B607B681B78302B66
:1012700014D13023FB777B6801337B600EE0BB7FAA
:101280001A46920013445B00DAB27B681B78134461
:10129000DBB2303BBB777B6801337B607B681B78BC
:1012A0002F2B03D97B681B78392BE8D9BA7F7B6950
:1012B00013441A46BB689A4205D9BB68DAB27B6907
:1012C000DBB2D31ABB777B681B78583B202B00F22C
:1012D0008E8001A252F823F0A9130008EF13000832
:1012E000EF130008EF130008EF130008EF130008D6
:1012F000EF130008EF130008EF130008EF130008C6
:10130000EF130008D91300085D130008EF1300085D
:10131000EF130008EF130008EF1300085D13000837
:10132000EF130008EF130008EF130008EF13000895
:10133000EF130008EF130008EF130008EF13000885
:10134000EF130008C5130008EF1300087513000819
:10135000EF130008EF1300088D130008B87F3B68F7
:101360001A1D3A601B68F97F0246F868FFF75CFEB9
:10137000B8613FE0B87F3B681A1D3A601B68F97F8F
:101380000246F868FFF702FEB86133E0B87F3B68B9
:101390001A1D3A601B68F97F009300230246F86823
:1013A000FFF7BEFEB86125E0B87F3B681A1D3A60C2
:1013B0001B68F97F009301230246F868FFF7B0FE2F
:1013C000B86117E03B681A1D3A601B681946F86857
:1013D000FFF7BFFDB8610DE03B681A1D3A601B685E
:1013E000DBB21946F868FFF7A5FDB86102E04FF0DF
:1013F000FF3325E07B6801337B60BB69FA681344E7
:10140000FB607A69BB6913447B617B681B78002BA6
:1014100004D07A69BB689A42FFF4FFAE7A69BB6870
:101420009A4203D2FB6800221A7008E0FB68013B75
:10143000FB60FB6800221A707B69013B7B617B6962
:1014400018462037BD4680BD80B584B000AFF86037
:10145000B9607A607B68BA686421F868FFF7CAFEF1
:10146000034618461037BD4680BD0EB480B585B022
:1014700000AF786007F12003BB60BA68F96978684B
:10148000FFF7E2FFF860FB6818461437BD46BDE879
:10149000804003B07047000090B589B000AF78601D
:1014A00001210820FFF776FC01214FF48040FFF76F
:1014B000ADFC00233B770023BB770123FB7703239D
:1014C0007B770123BB6107F1180319461E4800F022
:1014D0003DFD1023BB6107F1180319461A4800F0BF
:1014E00035FD00210320FEF761FF01233B6101234D
:1014F000BB7500233B7510237B7507F1100318465D
:1015000002F042FC06233B7303237B730023BB736F
:101510000123FB7307F10C03184602F0D9FC0B4BB7
:1015200000221A607A684FF000034FF00004C2E90D
:1015300002347A684FF000034FF00004C2E900342F
:1015400000BF2437BD4690BD000C0240440400207B
:1015500090B589B000AF786001210820FFF71AFC30
:1015600001214FF48040FFF751FC00233B7700231B
:10157000BB770123FB7703237B770223BB6107F152
:10158000180319461E4800F0E1FC2023BB6107F157
:10159000180319461A4800F0D9FC01210320FEF770
:1015A00005FF02233B610123BB7500233B7510231C
:1015B0007B7507F11003184602F0E6FB07233B7327
:1015C00003237B730023BB730123FB7307F10C031D
:1015D000184602F07DFC0B4B00221A607A684FF02F
:1015E00000034FF00004C2E902347A684FF00003B0
:1015F0004FF00004C2E9003400BF2437BD4690BD5F
:10160000000C02404004002090B589B000AF786023
:1016100001210820FFF7BEFB01214FF48040FFF7B6
:10162000F5FB00233B770023BB770123FB770323E4
:101630007B770423BB6107F1180319461E4800F0AD
:1016400085FC4023BB6107F1180319461A4800F0D6
:101650007DFC02210320FEF7A9FE04233B61012348
:10166000BB7500233B7510237B7507F110031846EB
:1016700002F08AFB08233B7303237B730023BB73B5
:101680000123FB7307F10C03184602F021FC0B4BFE
:1016900000221A607A684FF000034FF00004C2E99C
:1016A00002347A684FF000034FF00004C2E90034BE
:1016B00000BF2437BD4690BD000C02404804002006
:1016C00090B589B000AF786001210820FFF762FB78
:1016D00001214FF48040FFF799FB00233B77002363
:1016E000BB770123FB7703237B770823BB6107F1DB
:1016F000180319461E4800F029FC8023BB6107F13E
:10170000180319461A4800F021FC03210320FEF7B4
:101710004DFE08233B610123BB7500233B7510235D
:101720007B7507F11003184602F02EFB09233B736B
:1017300003237B730023BB730123FB7307F10C03AB
:10174000184602F0C5FB0B4B00221A607A684FF076
:1017500000034FF00004C2E902347A684FF000033E
:101760004FF00004C2E9003400BF2437BD4690BDED
:10177000000C02403C04002090B589B000AF7860B6
:1017800001210220FFF706FB01214FF48040FFF703
:101790003DFB00233B770023BB770123FB7703232B
:1017A0007B771023BB6107F1180319461E4800F030
:1017B000CDFB0423BB6107F1180319461A4800F05A
:1017C000C5FB04210120FEF7F1FD10233B6101233D
:1017D000BB7500233B7510237B7507F1100318467A
:1017E00002F0D2FA0A233B7303237B730023BB73FB
:1017F0000123FB7307F10C03184602F069FB0B4B46
:1018000000221A607A684FF000034FF00004C2E92A
:1018100002347A684FF000034FF00004C2E900344C
:1018200000BF2437BD4690BD0004024034040020B0
:1018300090B589B000AF786001210220FFF7AAFAC5
:1018400001214FF48040FFF7E1FA00233B770023AA
:10185000BB770123FB7703237B772023BB6107F151
:10186000180319461E4800F071FB0823BB6107F1FD
:10187000180319461A4800F069FB05210120FEF7FC
:1018800095FD20233B610123BB7500233B7510238D
:101890007B7507F11003184602F076FA17233B73A5
:1018A00003237B730023BB730123FB7307F10C033A
:1018B000184602F00DFB0B4B00221A607A684FF0BD
:1018C00000034FF00004C2E902347A684FF00003CD
:1018D0004FF00004C2E9003400BF2437BD4690BD7C
:1018E000000402403804002090B583B000AF786057
:1018F0001A4B1B68184604F0CBFA7B68D3E9003416
:101900001A46234604F076F903460C467A68C2E983
:101910000234124B1B68184604F0BAFA03460C4610
:101920007A68C2E900340D4B1B68002B04DA7B682F
:1019300001221A7401230CE0084B1B68002B04DD04
:101940007B6800221A74002303E07B6802221A7469
:10195000022318460C37BD4690BD00BF440400204A
:1019600090B583B000AF78601A4B1B68184604F03E
:101970008FFA7B68D3E900341A46234604F03AF91B
:1019800003460C467A68C2E90234124B1B681846BB
:1019900004F07EFA03460C467A68C2E900340D4B27
:1019A0001B68002B04DA7B6801221A7401230CE007
:1019B000084B1B68002B04DD7B6800221A7400238F
:1019C00003E07B6802221A74022318460C37BD46D6
:1019D00090BD00BF4004002090B583B000AF786098
:1019E0001A4B1B68184604F053FA7B68D3E900349D
:1019F0001A46234604F0FEF803460C467A68C2E90C
:101A00000234124B1B68184604F042FA03460C4697
:101A10007A68C2E900340D4B1B68002B04DA7B683E
:101A200001221A7401230CE0084B1B68002B04DD13
:101A30007B6800221A74002303E07B6802221A7478
:101A4000022318460C37BD4690BD00BF4804002055
:101A500090B583B000AF78601A4B1B68184604F04D
:101A600017FA7B68D3E900341A46234604F0C2F81B
:101A700003460C467A68C2E90234124B1B681846CA
:101A800004F006FA03460C467A68C2E900340D4BAE
:101A90001B68002B04DA7B6801221A7401230CE016
:101AA000084B1B68002B04DD7B6800221A7400239E
:101AB00003E07B6802221A74022318460C37BD46E5
:101AC00090BD00BF3C04002080B582B000AF012172
:101AD000144800F0C8FA0346FB711021114800F0C9
:101AE000C2FA0346BB71104B1B78FA799A4214D0A4
:101AF0000D4AFB7913700C4B1B78002B0DD1BB7971
:101B0000012B05D1094B1B680133084A136004E01F
:101B1000064B1B68013B054A136000BF0837BD46F2
:101B200080BD00BF000C02401000002044040020D3
:101B300080B582B000AF0221144800F094FA034649
:101B4000FB712021114800F08EFA0346BB71104B47
:101B50001B78FA799A4214D00D4AFB7913700C4B1A
:101B60001B78002B0DD1BB79012B05D1094B1B68CC
:101B70000133084A136004E0064B1B68013B054A29
:101B8000136000BF0837BD4680BD00BF000C024097
:101B9000110000204004002080B582B000AF042175
:101BA000144800F060FA0346FB714021114800F030
:101BB0005AFA0346BB71104B1B78FA799A4214D03B
:101BC0000D4AFB7913700C4B1B78002B0DD1BB79A0
:101BD000012B05D1094B1B680133084A136004E04F
:101BE000064B1B68013B054A136000BF0837BD4622
:101BF00080BD00BF000C02401200002048040020FD
:101C000080B582B000AF0821144800F02CFA0346DA
:101C1000FB718021114800F026FA0346BB71104B7E
:101C20001B78FA799A4214D00D4AFB7913700C4B49
:101C30001B78002B0DD1BB79012B05D1094B1B68FB
:101C40000133084A136004E0064B1B68013B054A58
:101C5000136000BF0837BD4680BD00BF000C0240C6
:101C6000130000203C04002080B582B000AF10219A
:101C7000144800F0F8F90346FB710421114800F004
:101C8000F2F90346BB71104B1B78FA799A4214D0D3
:101C90000D4AFB7913700C4B1B78002B0DD1BB79CF
:101CA000012B05D1094B1B680133084A136004E07E
:101CB000064B1B68013B054A136000BF0837BD4651
:101CC00080BD00BF00040240140000203404002046
:101CD00080B582B000AF2021144800F0C4F903465B
:101CE000FB710821114800F0BEF90346BB71104B8F
:101CF0001B78FA799A4214D00D4AFB7913700C4B79
:101D00001B78002B0DD1BB79012B05D1094B1B682A
:101D10000133084A136004E0064B1B68013B054A87
:101D2000136000BF0837BD4680BD00BF00040240FD
:101D3000150000203804002080B500AF012002F01B
:101D400095F80346002B04D0FFF7BEFE012002F0F9
:101D5000B1F800BF80BD80B500AF022002F086F868
:101D60000346002B04D0FFF7E3FE022002F0A2F8A6
:101D700000BF80BD80B500AF042002F077F80346B5
:101D8000002B04D0FFF708FF042002F093F800BFF7
:101D900080BD80B500AF082002F068F80346002B34
:101DA00004D0FFF72DFF082002F084F800BF80BDAB
:101DB00080B500AF102002F059F80346002B04D084
:101DC000FFF752FF102002F075F800BF80BD80B50C
:101DD00000AF202002F04AF80346002B04D0FFF7A2
:101DE00077FF202002F066F800BF80BD80B483B08A
:101DF00000AF03463960FB7197F90730002B0BDA0F
:101E00000D49FB7903F00F03043B3A68D2B212018B
:101E1000D2B20B441A7609E0084997F907303A68BC
:101E2000D2B21201D2B20B4483F8002300BF0C37A8
:101E3000BD4680BC704700BF00ED00E000E100E05F
:101E400080B582B000AF78607B68B3F1807F01D34A
:101E5000012311E00A4A7B6823F07F43013B536072
:101E60000F214FF0FF30FFF7C1FF054B00229A60B2
:101E7000034B07221A60002318460837BD4680BD71
:101E800010E000E080B483B000AF78607B684FF46E
:101E90007A7202FB03F3064A136000BF044B1B680F
:101EA000002BFBD100BF0C37BD4680BC704700BF84
:101EB000F800002080B400AF0D4B1B6801330C4AC2
:101EC00013600C4B1B68002B04D00A4B1B68013BB2
:101ED000084A1360084B1B68002B04D0064B1B6894
:101EE000013B054A136000BFBD4680BC704700BF80
:101EF000FC00002000010020F800002080B500AFA9
:101F00000F4B1B78002B19D10120FEF761FE00BF9B
:101F1000FEF770FE0346002BFAD00A4B1B680A4AF4
:101F2000A2FB03239B0C1846FFF78AFF0346002BF6
:101F300000D0FEE7024B01221A7000E000BF80BD16
:101F4000040100209000002083DE1B4380B487B092
:101F500000AF7860396000237B6100233B61002380
:101F6000FB6000237B6176E001227B6902FA03F3C8
:101F70003B613B681A683B691340FB60FA683B6948
:101F80009A4265D17B681A687B695B00032101FA7C
:101F900003F3DB431A407B681A607B681A683B686E
:101FA0001B7919467B695B0001FA03F31A437B68CE
:101FB0001A603B681B79012B03D03B681B79022B0D
:101FC0002ED17B689A687B695B00032101FA03F3D9
:101FD000DB431A407B689A607B689A683B685B7950
:101FE00019467B695B0001FA03F31A437B689A6028
:101FF0007B685A687B699BB2194601238B40DB439F
:102000001A407B685A607B685B683A68927911462F
:102010007A6992B201FA02F292B21A437B685A606C
:102020007B68DA687B699BB25B00032101FA03F3EA
:10203000DB431A407B68DA607B68DA683B68DB79EF
:1020400019467B695B0001FA03F31A437B68DA6087
:102050007B6901337B617B690F2B85D900BF1C37FE
:10206000BD4680BC704780B485B000AF78600B4639
:102070007B800023FB737B681A697B881340002BED
:1020800002D00123FB7301E00023FB73FB7B1846A6
:102090001437BD4680BC704780B483B000AF786011
:1020A0000B467B807B687A881A8300BF0C37BD465D
:1020B00080BC704780B483B000AF78600B467B80F3
:1020C0007B687A885A8300BF0C37BD4680BC704756
:1020D00080B485B000AF78600B467B8013467B7080
:1020E0000023FB600023BB607A787B8803F0070342
:1020F0009B0002FA03F3FB607B88DB089BB2184667
:102100007B88DB089BB21A467B68083253F8222092
:102110007B8803F007039B000F2101FA03F3DB43E5
:1021200002EA03017B6800F1080243F822107B8871
:10213000DB089BB21A467B68083253F82220FB6802
:102140001343BB607B88DB089BB21A467B6808326E
:10215000B96843F8221000BF1437BD4680BC7047F1
:1021600080B582B000AF01210220FEF713FE4FF4CC
:1021700070733B6002237B7101233B710023BB71B1
:102180000023FB713B4619460C48FFF7DFFE012197
:102190000120FEF7FFFDC0233B6002237B7101237A
:1021A0003B710023BB710023FB713B461946044879
:1021B000FFF7CCFE00BF0837BD4680BD00040240DB
:1021C0000000024080B582B000AF01210420FEF77C
:1021D000E1FD02233B6002237B7101233B7100235D
:1021E000BB710023FB713B4619460348FFF7AEFE67
:1021F00000BF0837BD4680BD0008024080B500AF73
:10220000012000F007F84FF47A70FFF73BFE00BFA3
:1022100080BD000080B582B000AF0346FB71FB7942
:10222000002B04D002210648FFF736FF03E002210D
:102230000348FFF73FFF00BF0837BD4680BD00BF22
:102240000008024080B500AF00F044F80B4800F0F1
:102250001EFA00F0E5F8282000F016F9062000F03C
:1022600013F90C2000F010F9012000F00DF94CF2E8
:10227000503000F00CFA00BF80BD00BFA086010006
:1022800080B500AF012000F0FFF84CF2503000F0B4
:10229000FEF900BF80BD80B582B000AF03463A6052
:1022A000FB710B46BB71BA79FB791146184600F0F9
:1022B000C9F907E03B681B78184600F054F93B6801
:1022C00001333B603B681B78002BF3D100BF08371C
:1022D000BD4680BD80B584B000AF0023FB7343E0F2
:1022E000FA7B254913469B0013449B000B440C3397
:1022F0001B6801211846FEF74DFDFA7B1E49134667
:102300009B0013449B000B4408331B887B60012314
:102310003B720023BB720123FB7202237B72FA7BA8
:10232000154913469B0013449B000B4404331B6860
:102330003A1D11461846FFF709FEFA7B0E4913466F
:102340009B0013449B000B4410331B78002B04D1DB
:10235000FB7B184600F012F803E0FB7B184600F008
:102360002DF8FB7B0133FB73FB7B052BB8D900BF3A
:102370001037BD4680BD00BF1800002080B483B078
:1023800000AF0346FB71FA790B4913469B001344D7
:102390009B000B4404331968FA79074813469B00E5
:1023A00013449B00034408331B884B8300BF0C3746
:1023B000BD4680BC704700BF1800002080B483B0C9
:1023C00000AF0346FB71FA790B4913469B00134497
:1023D0009B000B4404331968FA79074813469B00A5
:1023E00013449B00034408331B880B8300BF0C3746
:1023F000BD4680BC704700BF1800002080B500AF0C
:102400000120FFF7DBFF4FF47A7000F040F9012064
:10241000FFF7B4FF4FF47A7000F039F900BF80BDC8
:1024200080B500AF0220FFF7C9FF0320FFF7C6FF0A
:102430000420FFF7A3FF0520FFF7A0FFFFF7DEFF53
:102440004CF2503000F023F9FFF7D8FF4CF2503037
:1024500000F01DF9FFF7D2FF4CF2503000F017F9F1
:102460000220FFF78BFF0320FFF7A8FF0420FFF7F0
:1024700085FF0520FFF782FFFFF7C0FF4CF25030C9
:1024800000F005F900BF80BD80B582B000AF034603
:10249000FB710020FFF772FF97F90730002B03DA7A
:1024A0000520FFF78BFF02E00520FFF767FFFB79B0
:1024B00003F04003002B03D00420FFF77FFF02E06E
:1024C0000420FFF75BFFFB7903F02003002B03D010
:1024D0000320FFF773FF02E00320FFF74FFFFB79B4
:1024E00003F01003002B03D00220FFF767FF02E088
:1024F0000220FFF743FFFFF781FFFB7903F008039A
:10250000002B03D00520FFF759FF02E00520FFF75D
:1025100035FFFB7903F00403002B03D00420FFF701
:102520004DFF02E00420FFF729FFFB7903F00203CF
:10253000002B03D00320FFF741FF02E00320FFF749
:102540001DFFFB7903F00103002B03D00220FFF7EE
:1025500035FF02E00220FFF711FFFFF74FFF00BF3A
:102560000837BD4680BD80B582B000AF0346FB7121
:102570000020FFF723FF97F90730002B03DA05202F
:10258000FFF71CFF02E00520FFF7F8FEFB7903F0E0
:102590004003002B03D00420FFF710FF02E00420CB
:1025A000FFF7ECFEFB7903F02003002B03D00320A0
:1025B000FFF704FF02E00320FFF7E0FEFB7903F0E2
:1025C0001003002B03D00220FFF7F8FE02E00220E8
:1025D000FFF7D4FEFFF712FFFB7903F00803002B8F
:1025E00003D00520FFF7EAFE02E00520FFF7C6FE54
:1025F000FB7903F00403002B03D00420FFF7DEFE79
:1026000002E00420FFF7BAFEFB7903F00203002B7F
:1026100003D00320FFF7D2FE02E00320FFF7AEFE57
:10262000FB7903F00103002B03D00220FFF7C6FE65
:1026300002E00220FFF7A2FEFFF7E0FE00BF08372E
:10264000BD4680BD80B584B000AF03460A46FB712D
:102650001346BB71FB790F2B01D90023FB71BB79AA
:10266000012B01D90023BB71BB799B01FB73FA7B62
:10267000FB791343FB73FB7B63F07F03FB73FB7BF3
:102680001846FFF701FF00BF1037BD4680BD80B47C
:1026900083B000AF786000BF7B685A1E7A60002B61
:1026A000FAD100BF0C37BD4680BC704780B500AF83
:1026B000124A124B1B6843F0010313600F4B0022B8
:1026C0009A600E4A0D4B1B6823F0847323F4803309
:1026D00013600A4B0A4A5A60084A084B1B6823F4E5
:1026E00080231360054B0022DA6000F00DF8054BE3
:1026F0004FF000629A6000BF80BD00BF003802400A
:102700001030002400ED00E080B483B000AF00235F
:102710007B6000233B60354A344B1B6843F48033B5
:102720001360324B1B6803F400333B607B6801335A
:102730007B603B68002B03D17B68B3F5A06FF0D1C1
:102740002A4B1B6803F40033002B02D001233B60AB
:1027500001E000233B603B68012B42D1234A234B1D
:102760001B6C43F080531364214A214B1B6843F4D4
:10277000804313601D4A1D4B9B6893601B4A1B4B93
:102780009B6843F400439360184A184B9B6843F4DA
:10279000A0539360154B174A5A60144A134B1B6899
:1027A00043F08073136000BF104B1B6803F000738D
:1027B000002BF9D0104B40F205621A600B4A0B4B0C
:1027C0009B6823F003039360084A084B9B6843F01F
:1027D0000203936000BF054B9B6803F00C03082BBA
:1027E000F9D100BF0C37BD4680BC704700380240AD
:1027F0000070004008544007003C024080B588B09B
:1028000000AF01210220FEF7C5FA01214FF480201C
:10281000FEF7DEFA4FF440637B6102237B760223EE
:102820003B760023BB760123FB7607F114031946A0
:102830001E48FFF78BFB07220A211C48FFF748FCC4
:1028400007220B211948FFF743FC4FF416537B6016
:1028500000233B8100237B810023BB8100233B823B
:102860000C23FB813B1D19461148FDF74BFE01214E
:102870000F48FDF701FF012240F225510C48FDF7FA
:1028800029FF27233B7700237B770023BB77012396
:10289000FB7707F11C03184601F01AFB01210448DD
:1028A000FDF7EAFE00BF2037BD4680BD00040240B0
:1028B0000048004080B500AF40F225518348FDF745
:1028C00050FF0346002B06D08048FDF7F4FE034678
:1028D000DAB27F4B1A707F4B1B78582B07D17C4B99
:1028E0001A787D4B1A707B4B00221A70EBE0794B03
:1028F0001B78772B18D1794B1B789BB21A46920024
:1029000013445B009AB2724B1B789BB213449AB289
:10291000734B1A80734B1B780133DAB2714B1A7008
:102920006C4B00221A70CEE06A4B1B78712B0DD1D4
:10293000674B1A78694B1A706A4B1B780133DAB20D
:10294000684B1A70634B00221A70BCE0614B1B7815
:10295000592B07D15E4B1A78634B1A705D4B0022DE
:102960001A70B0E05B4B1B78722B18D15F4B1B7851
:102970009BB21A46920013445B009AB2544B1B78E8
:102980009BB213449AB25A4B1A805A4B1B780133AC
:10299000DAB2584B1A704F4B00221A7093E04D4B2D
:1029A0001B78652B0DD14A4B1A78504B1A70514B3E
:1029B0001B780133DAB24F4B1A70464B00221A7063
:1029C00081E0444B1B78432B07D1414B1A784A4B8B
:1029D0001A70404B00221A7075E03E4B1B784F2B4B
:1029E00055D13B4B1A78454B1A70434B1B781A460E
:1029F000642303FB02F3414A12781344184603F0A0
:102A000029FE03463E49184603F02CFF03461A46AA
:102A10003C4B1A603B4B1B683B49184603F064FD76
:102A200003461A46394B1B681946104603F05CFDF5
:102A300003461A46334B1A60324B1B684FF00001B5
:102A4000184603F0F9FF0346002B09D02D4B1B68F5
:102A50002F49184603F04AFD03461A46294B1A60CF
:102A6000284B1B682A49184604F004F80346002B3B
:102A700009D0244B1B682649184603F035FD034650
:102A80001A46204B1A60134B00221A701BE0114BA0
:102A90001B784C2B07D10E4B1A781E4B1A700D4B1E
:102AA00000221A700FE00B4B1B78422B07D1084B0A
:102AB0001A78194B1A70074B00221A7003E0044B66
:102AC0001A78044B1A7000BF80BD00BF0048004058
:102AD00051040020050400200104002014040020FB
:102AE0002A04002002040020000400202104002009
:102AF00030040020220400202004002015040020BF
:102B0000000020410C04002000009A42080100202F
:102B10000000B4432E0400200404002080B584B0DB
:102B200000AF01210120FEF753F949F68313BB8062
:102B30000023FB800923BB600023BB810023BB7300
:102B40003B1D19464FF0804001F020FB01214FF062
:102B5000804001F085FB012201214FF0804001F00F
:102B6000FDFD00BF1037BD4680BD80B582B000AF0F
:102B70001C233B7100237B710123BB710123FB717B
:102B80003B1D184601F0A4F900BF0837BD4680BDC3
:102B900080B500AFFFF7C2FFFFF7E7FF0D48FEF774
:102BA0007BFC0D48FEF7D4FC0C48FEF72DFD0C48CD
:102BB000FEF786FD0B48FEF7DFFD0B48FEF738FEFB
:102BC000FDF780FEFDF7C2FE00F010F800F076F988
:102BD00000BF80BDA004002060040020B8040020D5
:102BE00078040020D8040020F004002090B400AF46
:102BF000394A4FF000034FF00004C2E90034374A6D
:102C00004FF000034FF00004C2E90034344A4FF0A3
:102C100000034FF00004C2E90034324A4FF00003D1
:102C20004FF00004C2E900342F4A4FF000034FF088
:102C30000004C2E900342D4A4FF000034FF00004B5
:102C4000C2E900342A4A4FF000034FF00004C2E901
:102C50000034284A4FF000034FF00004C2E900346A
:102C6000254A4FF000034FF00004C2E90034234A24
:102C70004FF000034FF00004C2E90034204A4FF047
:102C800000034FF00004C2E900341E4A4FF0000375
:102C90004FF00004C2E900341B4A4FF000034FF02C
:102CA0000004C2E90034194A4FF000034FF0000459
:102CB000C2E90034164A4FF000034FF00004C2E9A5
:102CC0000034144A4FF000034FF00004C2E900340E
:102CD00000BFBD4690BC7047E0010020E801002025
:102CE000F0010020F801002000020020080200206E
:102CF00010020020180200202002002028020020DC
:102D0000300200203802002040020020A8010020EC
:102D1000B0010020B801002080B584B000AFC7E941
:102D20000201C7E90023D7E90823D7E9020100F02F
:102D300011F8D7E90823D7E9000100F047F8D7E9EF
:102D40000823D7E9060100F07DF800BF1037BD4623
:102D500080BD000090B585B000AFC7E90201C7E9AA
:102D60000023144AD7E90234C2E90034124BD3E9F4
:102D700000341A462346D7E9000103F019FA034646
:102D80000C460E4AC2E900340D4A4FF000034FF0E2
:102D90000004C2E900340B4A4FF000034FF0000476
:102DA000C2E90034084B00221A6000BF1437BD4648
:102DB00090BD00BF48020020C80000206002002033
:102DC0006802002078020020D802002090B585B06B
:102DD00000AFC7E90201C7E90023144AD7E902346A
:102DE000C2E90034124BD3E900341A462346D7E92E
:102DF000000103F0DDF903460C460E4AC2E9003437
:102E00000D4A4FF000034FF00004C2E900340B4AB2
:102E10004FF000034FF00004C2E90034084B0022D9
:102E20001A6000BF1437BD4690BD00BF500200209D
:102E3000C80000208802002090020020A00200208C
:102E4000DC02002090B585B000AFC7E90201C7E9F8
:102E50000023144AD7E90234C2E90034124BD3E903
:102E600000341A462346D7E9000103F0A1F90346CE
:102E70000C460E4AC2E900340D4A4FF000034FF0F1
:102E80000004C2E900340B4A4FF000034FF0000485
:102E9000C2E90034084B00221A6000BF1437BD4657
:102EA00090BD00BF58020020C8000020B0020020E2
:102EB000B8020020C8020020E002002090B400AF59
:102EC000164A4FF000034FF00004C2E90034144AE0
:102ED0004FF000034FF00004C2E90034114A4FF0F4
:102EE00000034FF00004C2E900340F4A4FF0000322
:102EF0004FF00004C2E900340C4A4FF000034FF0D9
:102F00000004C2E900340A4A4FF000034FF0000405
:102F1000C2E9003400BFBD4690BC704708030020E2
:102F20008002002030030020A80200205803002067
:102F3000D002002098B500AFFFF758FEFFF7BEFFA4
:102F4000224B00221A60224A4FF000034FF0000487
:102F5000C2E902341E4A4FF000034FF00004C2E9F8
:102F600000341C4B00221A601B4A4FF000034FF044
:102F70000004C2E90234184A4FF000034FF0000485
:102F8000C2E90034154B00221A60154A4FF00003C5
:102F90004FF00004C2E90234114A4FF000034FF031
:102FA0000004C2E900340F4B00221A600E4A4FF0B1
:102FB00000034FF00004C2E902340B4A4FF0000353
:102FC0004FF00004C2E9003400BF98BD4404002063
:102FD000A0040020400400206004002048040020D9
:102FE000B80400203C0400207804002098B500AF0D
:102FF00001214FF0804001F0D4FB0346002B00F08C
:10300000CF8101214FF0804001F0F4FBA74B1B68FA
:10301000092B0FD1A54B4FF0FF321A60A448FEF7E1
:1030200063FCA448FEF79CFCA348FEF7D5FCA3482C
:10303000FEF70EFD9D4B1B6801339C4A136000F0A8
:10304000BFF900F0CDFC00F057FD9D4B1B68184602
:1030500002F01EFF9B4BD3E900341A46234603F0CF
:103060000DFA0346002B0AD0964BD3E900341846DC
:10307000214603F00DFA0246914B1A6018E0904B7E
:103080001B68184602F004FF8F4BD3E900341A4640
:10309000234603F0D5F90346002B09D08A4BD3E928
:1030A00000341846214603F0F3F90246844B1A60B7
:1030B000864B1B68184602F0EBFE824BD3E90034C6
:1030C0001A46234603F0DAF90346002B0AD07D4B5B
:1030D000D3E900341846214603F0DAF902467B4B67
:1030E0001A6018E0794B1B68184602F0D1FE764B47
:1030F000D3E900341A46234603F0A2F90346002B15
:1031000009D0714BD3E900341846214603F0C0F9C9
:1031100002466E4B1A606E4B1B68184602F0B8FEF2
:10312000684BD3E900341A46234603F0A7F9034657
:10313000002B0AD0634BD3E900341846214603F034
:10314000A7F90246624B1A6018E0614B1B681846EB
:1031500002F09EFE5C4BD3E900341A46234603F08E
:103160006FF90346002B09D0574BD3E900341846BA
:10317000214603F08DF90246554B1A60554B1B68EA
:10318000184602F085FE4F4BD3E900341A46234619
:1031900003F074F90346002B0AD04A4BD3E90034FC
:1031A0001846214603F074F902464A4B1A6018E0AB
:1031B000484B1B68184602F06BFE434BD3E90034C2
:1031C0001A46234603F03CF90346002B09D03E4B38
:1031D000D3E900341846214603F05AF902463D4B24
:1031E0001A603D4BD3E900013C4BD3E900341A4649
:1031F000234602F0FFFC03460C46394AC2E900347C
:10320000374BD3E900014FF00002364B03F018F9B9
:103210000346002B0BD0324BD3E900014FF00002E4
:10322000314B03F02BF90346002B40F095802C4BDB
:10323000D3E900014FF000022A4B03F01FF90346C7
:10324000002B0AD0264BD3E900014FF00002274B98
:1032500003F0F6F80346002B0AD1214BD3E9000115
:103260004FF00002224B03F0EBF80346002B41D055
:10327000134B1B6803F59C530833114A1360134B1F
:103280001B6803F59C530833104A1360104B1B68EE
:1032900003F59C5308330E4A13600E4B1B6803F56D
:1032A0009C5308330B4A136056E000BFE80300202C
:1032B000A004002060040020B8040020780400204E
:1032C00074010020E8000020E000002078010020C8
:1032D0007C0100208001002058020020B80100205D
:1032E0004803002000002440000024C00080664005
:1032F000008066C02B4BD3E900014FF000022A4B3F
:1033000003F09EF80346002B0AD1264BD3E90001B7
:103310004FF00002254B03F0B1F80346002B1BD001
:10332000234B1B68A3F59C53083B214A1360214B98
:103330001B68A3F59C53083B1E4A13601E4B1B6879
:10334000A3F59C53083B1C4A13601C4B1B68A3F558
:103350009C53083B194A1360154B00221A60154B09
:1033600000221A60144B00221A60144B00221A60CB
:103370000F4B1B6819460120FDF746FB0D4B1B68E0
:1033800019460220FDF740FB0B4B1B681946032032
:10339000FDF73AFB094B1B6819460420FDF734FB87
:1033A00000BF98BD48030020000024C00080664094
:1033B00074010020780100207C01002080010020A1
:1033C0002DE9F84300AFB84BD3E90023B4A1D1E90C
:1033D000000102F0EDFE02460B4610461946B34BC3
:1033E000D3E9022302F0BAFD02460B461046194605
:1033F000AF4BD3E9002302F0DBFE02460B4610463A
:103400001946AC4BD3E9002302F0A8FD02460B4657
:10341000A949C1E90023A44BD3E90023A0A1D1E924
:10342000000102F0C5FE02460B4610461946A34BAA
:10343000D3E9022302F092FD02460B4610461946DC
:103440009B4BD3E9002302F0B3FE02460B46104625
:103450001946984BD3E9002302F080FD02460B4643
:103460009749C1E90023904BD3E900238CA1D1E90E
:10347000000102F09DFE02460B4610461946914B94
:10348000D3E9022302F06AFD02460B4610461946B4
:10349000874BD3E9002302F08BFE02460B46104611
:1034A0001946844BD3E9002302F058FD02460B462F
:1034B0008549C1E900237C4BD3E9002378A1D1E9F8
:1034C000000102F075FE02460B46104619467F4B7E
:1034D000D3E9022302F042FD02460B46104619468C
:1034E000734BD3E9002302F063FE02460B461046FD
:1034F0001946704BD3E9002302F030FD02460B461B
:103500007349C1E900236E4BD3E900016A4BD3E94B
:10351000002302F071FB02460B46904683F00049FF
:103520004FF000024FF080434046494602F040FE13
:1035300002460B466749C1E90023654BD3E9000108
:10354000614BD3E9002302F057FB02460B461046BD
:1035500019464FF000024FF0804302F029FE024668
:103560000B465D49C1E90023534BD3E90001584B99
:10357000D3E9002302F040FB02460B46144683F0D9
:1035800000454FF000024FF080432046294602F0EC
:103590000FFE03460C46514AC2E90034484BD3E9BA
:1035A0000001494BD3E900341A46234602F024FBBC
:1035B00003460C46184621464FF000024FF0804368
:1035C00002F0F6FD03460C46454AC2E90034434B7F
:1035D000D3E90001424BD3E900341A46234602F0F6
:1035E0000BFB03460C46184621464FF000023D4BAC
:1035F00002F0B4FC03460C463B4AC2E90034364BA9
:10360000D3E90001334BD3E900341A46234602F0D4
:10361000F3FA03460C46184621464FF00002314BA0
:1036200002F09CFC03460C46304AC2E90034224BAF
:10363000D3E90001224BD3E900341A46234602F0B5
:10364000DBFA03460C46184621461F4BD3E90034EB
:103650001A46234602F0D0FA03460C461846214685
:103660001B4BD3E900341A46234602F0C5FA034641
:103670000C4625461C461E4BD3E900014FF00002C4
:103680001C4B02F06BFC02460B462046294602F01A
:103690008FFD03460C46184AC2E900342EE000BFF5
:1036A000F1D4C853FB211940B00000206004002071
:1036B000C8000020C0000020E0010020A00400207D
:1036C000E801002078040020F0010020B804002068
:1036D000F801002068030020700300207803002018
:1036E000800300200000E03F0002002008020020CC
:1036F000B80000200000104010020020A84BD3E9C1
:103700000001A3A3D3E9002302F028FC03460C46E2
:10371000A44AC2E90034A34BD3E900341846214639
:1037200001F078F8A04BD3E900341A46234602F0A2
:1037300015FC03460C461D4626469A4BD3E9003439
:103740001846214601F0B4F8984BD3E900341A46E4
:10375000234602F003FC03460C461A46234628463D
:10376000314602F047FA03460C46914AC2E900345A
:103770008C4BD3E900341846214601F099F88A4B66
:10378000D3E900341A46234602F0E8FB03460C4610
:103790001D462646834BD3E900341846214601F0E6
:1037A00039F8824BD3E900341A46234602F0D6FB9F
:1037B00003460C461A4623462846314602F01CFAB8
:1037C00003460C467B4AC2E900347B4BD3E9003404
:1037D0007A4AC2E90034764BD3E90001784BD3E949
:1037E00000341A46234602F007FA03460C461846F0
:1037F00021464FF00002734B02F0B0FB03460C462B
:1038000018462146704BD3E900341A46234602F08D
:10381000A5FB03460C46184621466C4BD3E9003401
:103820001A46234602F0E8F903460C46674AC2E905
:103830000034604BD3E90001654BD3E900341A46EC
:10384000234602F0D9F903460C46184621464FF0AC
:1038500000025C4B02F082FB03460C4618462146F0
:10386000594BD3E900341A46234602F077FB03464E
:103870000C4618462146574BD3E900341A462346D6
:1038800002F0BAF903460C46524AC2E900344B4BE7
:10389000D3E90001504BD3E900341A46234602F025
:1038A000ABF903460C46184621464FF00002454B43
:1038B00002F054FB03460C4618462146424BD3E91E
:1038C00000341A46234602F049FB03460C461846CC
:1038D000214631A3D3E9002302F040FB03460C4606
:1038E000184621462E4BD3E900341A46234602F0EF
:1038F00083F903460C462A4AC2E90034284BD3E92F
:1039000000014FF00002354B02F0AEFD0346002BE4
:103910000DD0234BD3E900014FF000022F4B02F0F2
:1039200069F903460C461E4AC2E9003418E01C4BF4
:10393000D3E900014FF000024FF0000302F080FDD8
:103940000346002B0CD0164BD3E900014FF00002C8
:10395000224B02F051F903460C46114AC2E90034E9
:10396000134BD3E90034164AC2E90034114BD3E9B2
:103970000034174AC2E90034104BD3E90034164A28
:10398000C2E9003400BFBDE8F88300BFAFF3008098
:1039900012E7FAA146DF913F775AF01ADCA54C40B6
:1039A000B8010020C0010020000200200802002011
:1039B000180200202002002010020020280200200F
:1039C000300200200000E03FC8000020A8010020D5
:1039D00038020020B0010020400200200080764024
:1039E00098B500AF344BD3E90001344BD3E9003430
:1039F0001A46234602F0FEF803460C46304AC2E956
:103A000000342F4BD3E900014FF000022D4B02F0A0
:103A1000A5FA03460C462C4AC2E900342A4BD3E9E6
:103A200000342A4AC2E90034294BD3E90001294B6A
:103A3000D3E900341A46234602F0DCF803460C466C
:103A4000254AC2E90034244BD3E900014FF00002BB
:103A50001C4B02F083FA03460C46204AC2E90034AC
:103A60001E4BD3E900341E4AC2E900341D4BD3E992
:103A700000011D4BD3E900341A46234602F0BAF880
:103A800003460C46194AC2E90034184BD3E9000139
:103A90004FF000024FF0000302F060FA03460C46BC
:103AA000134AC2E90034124BD3E90034114AC2E987
:103AB000003400BF98BD00BF48020020A8010020CC
:103AC000F802002000409F4000030020F002002088
:103AD00050020020B0010020200300202803002015
:103AE0001803002058020020B801002048030020DD
:103AF0005003002040030020F8B500AF7A4BD3E913
:103B000000341846214600F085FE784BD3E9003496
:103B10001A46234602F022FA03460C461D46264664
:103B2000714BD3E900341846214600F0C1FE704BBA
:103B3000D3E900341A46234602F010FA03460C4635
:103B40001A4623462846314602F056F803460C46EC
:103B5000684AC2E90034644BD3E900341846214670
:103B600000F058FE624BD3E900341A46234602F0B7
:103B7000F5F903460C461D4626465B4BD3E9003457
:103B80001846214600F094FE584BD3E900341A46FB
:103B9000234602F0E3F903460C461A46234628461C
:103BA000314602F027F803460C46534AC2E9003476
:103BB000524BD3E90034524AC2E900344D4BD3E9A9
:103BC00000341A4623464FF000004FF0000102F087
:103BD00011F803460C4618462146474BD3E90034FA
:103BE0001A46234602F006F803460C46454AC2E947
:103BF0000034404BD3E900013F4BD3E900341A466F
:103C0000234601F0F7FF03460C463F4AC2E9003461
:103C1000384BD3E90001384BD3E900341A46234628
:103C200001F0EAFF03460C46384AC2E90034314B42
:103C3000D3E900341A4623464FF000004FF000014C
:103C400001F0D8FF03460C46184621462A4BD3E91B
:103C500000341A46234601F0CFFF03460C462C4A97
:103C6000C2E90034274BD3E900342A4AC2E90034C0
:103C7000254BD3E90034284AC2E90034234BD3E969
:103C80000034264AC2E90034214BD3E90034244AE7
:103C9000C2E90034204BD3E900341846214602F033
:103CA000F7FB02461F4B1A601A4BD3E90034184643
:103CB000214602F0EDFB02461B4B1A60184BD3E97C
:103CC00000341846214602F0E3FB0246174B1A6007
:103CD000124BD3E900341846214602F0D9FB0246C4
:103CE000134B1A6000BFF8BDC0010020F002002095
:103CF00018030020880300209003002040030020C8
:103D000098030020A0030020A8030020B003002097
:103D1000B8030020C0030020C8030020D003002007
:103D2000D803002074010020780100207C010020CD
:103D30008001002080B485B000AF7B600346FB812A
:103D40000B46BB8113467B810A4B00221A600A4A4C
:103D5000FB891380094ABB891380094A7B89138038
:103D60007B681AB2074B1A8000BF1437BD4680BC6F
:103D7000704700BFE00300206C0100206E010020AE
:103D8000700100207201002080B485B000AF78601F
:103D90000023FB60344BFB607B689B79002B4FD08A
:103DA0003149314B1A687B681B68DB4313400B6059
:103DB0002D492D4B5A687B681B68DB4313404B60D1
:103DC0007B681B791A46FB681344FB60FB68FA6842
:103DD00011687A6812680A431A602349224B9A686C
:103DE0007B681B68DB4313408B601F491E4BDA68FE
:103DF0007B681B68DB431340CB607B685B79102BCF
:103E00000ED11949184B9A687B681B6813438B6065
:103E10001549154BDA687B681B681343CB601DE0BE
:103E2000114BFB607B685B791A46FB681344FB60AF
:103E3000FB68FA6811687A6812680A431A600DE034
:103E40007B681B791A46FB681344FB60FB68FA68C1
:103E500011687A681268D2430A401A6000BF1437AA
:103E6000BD4680BC704700BF003C014080B485B0B7
:103E700000AF78600023FB730023BB600C4B1A6813
:103E80007B681340BB600A4B5A697B681340002B68
:103E900005D0BB68002B02D00123FB7301E0002397
:103EA000FB73FB7B18461437BD4680BC704700BFD0
:103EB000003C014080B483B000AF7860034A7B6867
:103EC000536100BF0C37BD4680BC7047003C0140C9
:103ED00080B485B000AF78600023FB730023BB7310
:103EE0000F237B737B68DB78002B39D0274BDB6893
:103EF000DB431B0ADBB203F00703FB73FB7BC3F15D
:103F00000403BB737A7BFB7B42FA03F37B737B680E
:103F10005B781A46BB7B02FA03F3FB737B689A78E3
:103F20007B7B1340DAB2FB7B1343FB73FB7B1B01F0
:103F3000FB73174A7B681B781344FA7B83F80023D2
:103F4000134A7B681B785B09DBB218467B681B78D9
:103F500003F01F03012101FA03F342F820300FE0C0
:103F60000B497B681B785B09DBB218467B681B78C2
:103F700003F01F0301229A4000F1200341F823209F
:103F800000BF1437BD4680BC704700BF00ED00E0A5
:103F900000E100E080B582B002AFFEF771F9164B88
:103FA0001B68184601F086FF144B1B781A46144B09
:103FB0001B780193009202460B4612491248FDF706
:103FC00054FA114A00210020FEF765F90F4B1B78C7
:103FD0001A460A4B1B781946094B1B7800930B466F
:103FE0000B490948FDF741FA074A01210020FEF775
:103FF00052F900BFBD4680BD0C0400200004002023
:1040000001040020886A0008100500200304002035
:10401000986A000880B584B000AF01210420FCF745
:10402000B9FE0223BB6000233B7303237B73002391
:10403000BB730223FB7307F1080319462548FDF7FC
:1040400085FF0423BB6000233B7303237B730023A2
:10405000BB730223FB7307F1080319461D48FDF7E4
:1040600075FF0823BB6000233B7303237B7300238E
:10407000BB730223FB7307F1080319461548FDF7CC
:1040800065FF1023BB6000233B7303237B73002376
:10409000BB730223FB7307F1080319460D48FDF7B4
:1040A00055FF01210820FCF775FE4FF4C0633B600B
:1040B00000233B710023BB710223FB7103237B713F
:1040C0003B4619460448FDF741FF00BF1037BD4687
:1040D00080BD00BF00080240000C024080B584B0E3
:1040E00000AF01210820FCF773FE4AF20F43BB80AA
:1040F0000023FB8040F2E733BB600023BB81002339
:10410000BB733B1D1946084800F040F801210648E2
:1041100000F0A6F801220121034800F01FFB00BFB8
:104120001037BD4680BD00BF000C004080B582B096
:1041300000AF32233B7100237B710023BB7101234D
:10414000FB713B1D1846FFF7C3FE00BF0837BD4695
:1041500080BD000080B500AF0121074800F021FBC1
:104160000346002B05D00121034800F043FBFFF775
:1041700011FF00BF80BD00BF000C004080B500AF44
:10418000FFF7ACFFFFF7D2FF00BF80BD80B485B062
:1041900000AF786039600023FB817B681B88FB815E
:1041A0007B68284A934213D07B68274A93420FD0FA
:1041B0007B68B3F1804F0BD07B68244A934207D0D1
:1041C0007B68234A934203D07B68224A934208D1FA
:1041D000FB8923F07003FB813B685A88FB891343FA
:1041E000FB817B681C4A93420CD07B681B4A93423C
:1041F00008D0FB8923F44073FB813B681A89FB8953
:104200001343FB817B68FA891A803B685A687B6894
:10421000DA623B681A887B681A857B68094A934290
:1042200003D07B68084A934204D13B689B7A9AB2D8
:104230007B681A867B6801229A8200BF1437BD46CC
:1042400080BC7047000001400004014000040040B1
:1042500000080040000C0040001000400014004026
:1042600080B483B000AF78600B46FB70FB78002B06
:1042700008D07B681B889BB243F001039AB27B682D
:104280001A8007E07B681B889BB223F001039AB277
:104290007B681A8000BF0C37BD4680BC70470000A9
:1042A00080B485B000AF7860396000237B81002343
:1042B000FB810023BB817B681B8C9BB223F0010335
:1042C0009AB27B681A847B681B8CFB817B689B8815
:1042D000BB817B681B8B7B817B8923F070037B8197
:1042E0007B8923F003037B813B681A887B89134316
:1042F0007B81FB8923F00203FB813B689A89FB8960
:104300001343FB813B685A88FB891343FB817B681D
:104310001E4A934203D07B681D4A934223D1FB89F6
:1043200023F00803FB813B68DA89FB891343FB8197
:10433000FB8923F00403FB813B689A88FB891343C4
:10434000FB81BB8923F48073BB81BB8923F4007399
:10435000BB813B681A8ABB891343BB813B685A8A7D
:10436000BB891343BB817B68BA899A807B687A8951
:104370001A833B689A687B685A637B68FA891A8457
:1043800000BF1437BD4680BC704700BF000001402D
:104390000004014080B485B000AF7860396000232C
:1043A0007B810023FB810023BB817B681B8C9BB23C
:1043B00023F010039AB27B681A847B681B8CFB8104
:1043C0007B689B88BB817B681B8B7B817B8923F40B
:1043D000E0437B817B8923F440737B813B681B88AE
:1043E0001B029AB27B8913437B81FB8923F0200354
:1043F000FB813B689B891B019AB2FB891343FB81BC
:104400003B685B881B019AB2FB891343FB817B6885
:10441000224A934203D07B68214A93422BD1FB89E5
:1044200023F08003FB813B68DB891B019AB2FB8987
:104430001343FB81FB8923F04003FB813B689B888E
:104440001B019AB2FB891343FB81BB8923F4806370
:10445000BB81BB8923F40063BB813B681B8A9B0043
:104460009AB2BB891343BB813B685B8A9B009AB2BB
:10447000BB891343BB817B68BA899A807B687A8940
:104480001A833B689A687B689A637B68FA891A8406
:1044900000BF1437BD4680BC704700BF000001401C
:1044A0000004014080B485B000AF7860396000231B
:1044B0007B810023FB810023BB817B681B8C9BB22B
:1044C00023F480739AB27B681A847B681B8CFB810F
:1044D0007B689B88BB817B689B8B7B817B8923F07E
:1044E00070037B817B8923F003037B813B681A88FF
:1044F0007B8913437B81FB8923F40073FB813B6839
:104500009B891B029AB2FB891343FB813B685B8842
:104510001B029AB2FB891343FB817B68224A9342B8
:1045200003D07B68214A93422BD1FB8923F400639B
:10453000FB813B68DB891B029AB2FB891343FB8139
:10454000FB8923F48063FB813B689B881B029AB242
:10455000FB891343FB81BB8923F48053BB81BB8957
:1045600023F40053BB813B681B8A1B019AB2BB89B1
:104570001343BB813B685B8A1B019AB2BB8913431F
:10458000BB817B68BA899A807B687A899A833B6809
:104590009A687B68DA637B68FA891A8400BF1437EB
:1045A000BD4680BC704700BF0000014000040140D0
:1045B00080B485B000AF786039600023BB810023F0
:1045C0007B810023FB817B681B8C9BB223F480538F
:1045D0009AB27B681A847B681B8C7B817B689B8882
:1045E000FB817B689B8BBB81BB8923F4E043BB8150
:1045F000BB8923F44073BB813B681B881B029AB2C2
:10460000BB891343BB817B8923F400537B813B68C7
:104610009B891B039AB27B8913437B813B685B8830
:104620001B039AB27B8913437B817B68114A9342B7
:1046300003D07B68104A93420AD1FB8923F480435C
:10464000FB813B681B8A9B019AB2FB891343FB8168
:104650007B68FA899A807B68BA899A833B689A68F2
:104660007B681A647B687A891A8400BF1437BD4658
:1046700080BC7047000001400004014080B485B058
:1046800000AF78600B467B800023FB817B681B8B2F
:10469000FB81FB8923F00803FB81FA897B881343A4
:1046A000FB817B68FA891A8300BF1437BD4680BC42
:1046B000704780B485B000AF78600B467B800023E4
:1046C000FB817B681B8BFB81FB8923F40063FB81EF
:1046D0007B881B029AB2FB891343FB817B68FA89B2
:1046E0001A8300BF1437BD4680BC704780B485B0C4
:1046F00000AF78600B467B800023FB817B689B8B3F
:10470000FB81FB8923F00803FB81FA897B88134333
:10471000FB817B68FA899A8300BF1437BD4680BC51
:10472000704780B485B000AF78600B467B80002373
:10473000FB817B689B8BFB81FB8923F40063FB81FE
:104740007B881B029AB2FB891343FB817B68FA8941
:104750009A8300BF1437BD4680BC704780B483B0D5
:1047600000AF78600B467B8013467B707B78002B14
:1047700008D07B689B899AB27B8813439AB27B6886
:104780009A8109E07B689B899AB27B88DB439BB264
:1047900013409AB27B689A8100BF0C37BD4680BC3B
:1047A000704780B485B000AF78600B467B800023F3
:1047B000FB730023BB8100237B817B681B8A9AB239
:1047C0007B881340BB817B689B899AB27B881340AE
:1047D0007B81BB89002B05D07B89002B02D0012374
:1047E000FB7301E00023FB73FB7B18461437BD46C7
:1047F00080BC704780B483B000AF78600B467B808C
:104800007B88DB439AB27B681A8200BF0C37BD46B7
:1048100080BC704730B5224A21F00043934287B0F4
:104820001BDD204A934205DD02460B4601F0E2F90A
:1048300007B030BD02AA00F07FF800F00303012B9F
:104840001AD0022B0FD01BB30124DDE90423DDE9CC
:104850000201009401F000F8EAE70022002300F0D2
:104860008FFA07B030BDDDE90423DDE9020100F075
:1048700087FA01F10041DBE7DDE904450093DDE95A
:10488000020122462B4600F0E7FF01F10041CFE78D
:10489000DDE90423DDE9020100F072FAC8E700BF98
:1048A000FB21E93FFFFFEF7F21F00041704700BF90
:1048B00030B51F4A21F00043934287B01BDD1D4AEB
:1048C000934205DD02460B4601F094F907B030BD76
:1048D00002AA00F031F800F003000128DDE904230A
:1048E0001AD002280FD0E0B1DDE9020100F048FA49
:1048F00001F10041EAE7002300930022002300F0C9
:10490000ABFF07B030BD0124DDE90201009400F0E7
:10491000A3FF01F10041D9E7DDE9020100F030FA1F
:10492000D4E70124DDE90201009400F095FFCDE712
:10493000FB21E93FFFFFEF7F2DE9F04F9A4E21F079
:104940000047B74291B040F38E809246974A974213
:104950000C4626DC00298AA3D3E9002340F3B48166
:1049600001F048F9924B9F4204460D4600F09080BA
:1049700085A3D3E9002301F03DF902460B46CAE9BD
:1049800000232046294601F035F97FA3D3E900230F
:1049900001F030F90125CAE90201284611B0BDE84D
:1049A000F08F844A974240F39080834A974265DCB7
:1049B0003D15A5F21645A7EB055319461F460646B9
:1049C00001F066FD01F064FA8046894602460B4616
:1049D00030463946CDE90A8901F00CF90022774BBF
:1049E00001F0BCFA8946804601F052FD01F050FA10
:1049F00002460B4606460F4640464946CDE90C673F
:104A000001F0F8F800226D4B01F0A8FA0022002313
:104A1000CDE90E0101F00AFD002800F073810023AA
:104A200030463946002201F001FD002814BF012361
:104A30000223634A019202212A4600910AA85146A4
:104A400000F0C2FA002C054614DADAF80420DAF88D
:104A50000C3002F1004203F100434542CAF8042041
:104A6000CAF80C3006E0C2E9000100250024C2E9C2
:104A700002450025284611B0BDE8F08F02460B46DE
:104A800001F0B8F80025CAE90201CAE90001F1E71E
:104A90003FA3D3E9002301F0ADF83FA3D3E90023FE
:104AA0000D46044601F0A6F802460B46CAE900236B
:104AB0002946204601F09EF837A3D3E9002301F0F0
:104AC00099F80125CAE90201D4E7FFF7EDFE34A306
:104AD000D3E900238046894601F040FA0022394B91
:104AE00001F08AF801F0D4FC054601F0D1F924A3C5
:104AF000D3E90023CDE9040101F030FA02460B4668
:104B00004046494601F076F81FA3D3E900238046CA
:104B10008946DDE9040101F021FA1F2DCDE90201EA
:104B200054DC294B6A1E53F822309F424ED0024675
:104B30000B464046494601F05DF802460B46CAE97D
:104B4000002383460E465A4633464046494601F006
:104B500051F8DDE9022301F04DF8002C02460B4626
:104B6000CAE9022386DA5B4606F1004601F10041FC
:104B70008AE84800CAF80C10CAF808006D4279E7C4
:104B800000004054FB21F93F3163621A61B4D03D0B
:104B90000000601A61B4D03D7370032E8A19A33BE4
:104BA00083C8C96D305FE43FFB21E93F7BD90240F8
:104BB000FB21F93FFB213941FFFFEF7F00007041EE
:104BC000286B00080000E03FA86A0008DDE9022326
:104BD0004046494601F00EF83A15C1F30A53D31A7C
:104BE000102B83460E460992CAE90001ABDD58A39B
:104BF000D3E90023DDE9040101F0B0F906460F46D0
:104C000002460B464046494600F0F4FFCDE9060156
:104C100002460B464046494600F0ECFF32463B4612
:104C200000F0E8FF4CA3D3E9002306460F46DDE978
:104C3000040101F093F932463B4600F0DBFFDDE969
:104C40000689CDE9020102460B464046494600F07E
:104C5000D1FF0B46C1F30A570E460999CF1B0246F6
:104C6000312F8346CAE900236CDD3DA3D3E900233D
:104C7000DDE9040101F072F906460F4602460B46D3
:104C800040464946CDE9068900F0B4FF02460B468E
:104C900080468946DDE9060100F0ACFF32463B461E
:104CA00000F0A8FF30A3D3E9002306460F46DDE954
:104CB000040101F053F932463B4600F09BFF0246E7
:104CC0000B46CDE9022334E700F096FF2A4B9F42C2
:104CD00004460D4618D026A3D3E9002300F08CFF2C
:104CE00002460B46CAE900232946204600F082FF0F
:104CF0001FA3D3E9002300F07FFF4FF0FF35CAE97F
:104D00000201B7E6032394E611A3D3E9002300F0E0
:104D100073FF11A3D3E900230D46044600F06CFF96
:104D200002460B46CAE900232946204600F062FFEE
:104D300009A3D3E9002300F05FFF4FF0FF35CAE974
:104D4000020197E6DDE90689FDE600BFAFF30080CA
:104D50000000601A61B4D03D7370032E8A19A33B22
:104D60000000002E8A19A33BC14920259A837B3974
:104D70003163621A61B4D03DFB21F93F00000000AD
:104D80002DE9F04F21F00046B6F1795F85B00C4671
:104D900092469B4605466BDA01F07AFB002800F04C
:104DA000E8802A4623462846214601F0D7F874A316
:104DB000D3E900238046894601F0D0F872A3D3E9F5
:104DC000002300F019FF42464B4601F0C7F870A3DC
:104DD000D3E9002300F00EFF42464B4601F0BEF837
:104DE0006DA3D3E9002300F007FF42464B4601F0D4
:104DF000B5F86BA3D3E9002300F0FCFE42464B4616
:104E000001F0ACF868A3D3E9002300F0F5FE4246B8
:104E10004B4601F0A3F8CDE900010022644B404667
:104E2000494601F09BF8DDE9002306460F4640465F
:104E3000494601F093F85246804689465B4628462B
:104E4000214601F08BF802460B464046494600F0E9
:104E5000D1FE02460B463046394600F0CBFE0246F4
:104E60000B460020534900F0C5FE05B0BDE8F08FA9
:104E700002460B4601F072F841A3D3E900238046B5
:104E8000894601F06BF840A3D3E9002300F0B4FE9B
:104E900042464B4601F062F83DA3D3E9002300F0FF
:104EA000A9FE42464B4601F059F83BA3D3E9002343
:104EB00000F0A2FE42464B4601F050F838A3D3E979
:104EC000002300F097FE42464B4601F047F836A318
:104ED000D3E9002300F090FE4B46424601F03EF835
:104EE000354B9E42CDE9000197DD344B9E424FF099
:104EF000000238DCA6F5001300202E4916461F4696
:104F000000F078FECDE902010022294B40464946D7
:104F100001F024F832463B4600F06CFEDDE9002348
:104F200006460F464046494601F018F8524680466C
:104F300089465B462846214601F010F802460B469A
:104F40004046494600F056FE02460B46304639467A
:104F500000F050FE02460B46DDE9020100F04AFE79
:104F600005B0BDE8F08F164B164FCDE902230026A1
:104F7000CAE71049002005B0BDE8F08FAFF300800C
:104F8000D43888BEE9FAA8BDC4B1B4BD9EEE213EB6
:104F9000AD529C804F7E923E9015CB19A001FA3EF7
:104FA0007751C1166CC1563F4C5555555555A53FC7
:104FB0000000E03F0000F03F3233D33F0000E93F04
:104FC0000000E73F0000D23F2DE9F04FADF5197D1D
:104FD0009C4CA29E9C4D54F8264005942646D41E17
:104FE00085FB0475E417C4EBA50424EAE4741D46AC
:104FF0000893631CA3EB8303013D02EBC3030493FB
:105000002B4609940295651BF418039006911AD457
:105010002C4401340DF1780800260027DDF88C922D
:1050200008E059F8250000F033FF0135A542E8E912
:10503000020108D0002DF4DA013530463946A54288
:10504000E8E90201F6D1059B002B2EDB089B4FEA15
:10505000C309039BA9F10808984420AB9944059B18
:1050600070AA02EBC30B0DF5DC7A029B002BC0F299
:105070000F83039B4D46A3F108040026002775E922
:105080000223F4E9020100F069FF02460B463046B4
:10509000394600F0B1FD444506460F46EFD1EAE936
:1050A0000267DA4509F10809DFD10598089A0090EE
:1050B00000F18043013B9B000CAC191F234402F11B
:1050C00000520B93039B013A21440A9103EBC20B5C
:1050D000009A98A901EBC203002A53E92845134618
:1050E0002BDD01EBC308A8F1A8080DF12C090DF583
:1050F000DC7A0022554B2046294600F02FFF01F0B4
:10510000C7F900F0C5FE0022514B06460F4600F0DD
:1051100025FF02460B462046294600F06BFD01F0B4
:10512000B7F978E8022349F8040F3946304600F011
:1051300063FDD04504460D46DBD1DDF810902046D6
:1051400029464A4600F0CCFC00224FF07F5304462B
:105150000D4600F003FF00F037FC00223D4B00F04D
:10516000FDFE02460B462046294600F043FD0D4653
:10517000044601F08DF9804600F08AFE0B46024697
:105180002946204600F036FD4B46002B06460F46CA
:1051900040F3F780009A0CA9013AC9F1180351F8BD
:1051A000225045FA03F101FA03F30CA8EB1A40F878
:1051B0002230C9F11705884443FA05F5002D63DD57
:1051C000009B002B08F1010840F381820C9C002C0D
:1051D00000F01883012000230CAAC4F1807442F867
:1051E0002340009A824219DD0CAA0CAC52F8201020
:1051F0006FF07F42511A44F820100099023399420F
:105200000CDD1046009A0CA901EB830301EB82012F
:105210001A68821A43F8042B8B42F9D1049B002BA5
:105220001ADD049B012B4FF0010440F05882009BD3
:105230005A1E0CAB0CA953F82230C3F3160341F8E5
:10524000223058E2706C0008ABAAAA2A0000703E17
:105250000000704100002040022D15D132463B462F
:105260000020974900F0C6FC06460F46049A944970
:10527000002000F035FC02460B463046394600F06F
:10528000B9FC022506460F46002200233046394667
:1052900001F0CCF8002800F05282009A059B501EC5
:1052A00083420FDC02F18043013B0CAA0B9C02EB12
:1052B0008303002253F80419A34242EA0102F9D100
:1052C000002A6FD1059B0CAA013B52F82330002B1A
:1052D00040F033820A9A012352F80419013300295D
:1052E000FAD0009AD31802F1010A9A4507933DDCDF
:1052F000009B0899099A0B4407990AEB0208994602
:1053000020AB08F1804803EBC9098B18A39A08F178
:10531000FF3802EB880870AA02EBCA0AA39A02EBD4
:105320008303009358F8040F00F0B2FD029B002B9A
:10533000E9E802011DDB039B4D46A3F108040026AA
:10534000002775E90223F4E9020100F007FE024696
:105350000B463046394600F04FFC5C4506460F468A
:10536000EFD1009B9845EAE80267DBD1079B0093E9
:10537000AEE6009B002600279845EAE80267D1D1F7
:10538000F4E706D1009B0CAA013B52F82350ED151F
:1053900014E700224B4B01F067F8002840F08281AF
:1053A000054671E70CA9029551F820300499CDF813
:1053B0001C8018390246009004916BB900F18043BB
:1053C000013B0CA800EB830353F80409013A183998
:1053D0000028F9D000920491049A3949002000F085
:1053E0007FFB009B002B04460D46C0F20382DA00CF
:1053F00070A901EB020B04920CAA02EB8306DFF802
:10540000C8900BF1080704364FF0000856F8040D59
:1054100000F03EFD22462B4600F0A0FD4B4667E91A
:10542000020142462046294600F098FD0CAB9E4200
:1054300004460D46EAD10DF5907ACDF80CA0DDF8C2
:1054400014A04FF00009BAF1000FC0F23D81DFF85F
:105450007C805D4618A1D1E90001002600270024C8
:1054600003E04C4510DCF8E80201F5E8022300F007
:1054700075FD02460B463046394600F0BDFB01344F
:10548000A24506460F46ECDA039B03EBC903ABF1DA
:10549000080BC3E900676EAB5B4509F10109D2D186
:1054A000A29BDDF80CA0032B00F28B80DFE813F049
:1054B000D10090009000100000000040FB21F93F57
:1054C0000000F03F0000E03F0000703E386C000834
:1054D000009B002B40F3A481049B0AEB0308D8E94E
:1054E0000067D34658E9029A32463B464846514641
:1054F00000F082FB04460D4602460B4648465146E4
:1055000000F078FB32463B4600F076FBC8E900012C
:1055100068E90245C34526462F46E3D1009B012B8F
:10552000DA4640F37D81049B5B44D3E900679846EB
:1055300099460DF5947B59E90234324618462146C6
:105540003B46CDE9000100F057FB04460D460246FC
:105550000B46DDE9000100F04DFB32463B4600F012
:105560004BFBC9E9000169E90245CB4526462F46B8
:10557000E1D1002308F108081D464CAC1846294625
:1055800078E9022300F038FB444503460D46F5D187
:10559000029A002A00F02081DAF80440DAF80C20A0
:1055A000069FDAF80010DAF808003B6105F10045C3
:1055B00004F1004402F100427D617C60FA603960D0
:1055C000B860079B03F007000DF5197DBDE8F08F6B
:1055D000049C00260834544433463046194674E986
:1055E000022300F009FB544506460B46F5D1029A0A
:1055F00030461946002A00F0DA80069803F100448C
:10560000324644600660DAE9000100F0F3FA0B4626
:105610000099002902460EDD012410461946FAE9D8
:10562000022300F0E9FA0B4600990134A142024638
:10563000F3DA029909B103F100431946069B1046BB
:10564000C3E90201079B03F007000DF5197DBDE8D2
:10565000F08F049C00220834544413461046194627
:1056600074E9022300F0C8FAA24502460B46F5D1C0
:10567000029909B103F100431946069B1046C3E99C
:105680000001079B03F007000DF5197DBDE8F08FC1
:1056900000260027EAE90267DA4509F108097FF4E4
:1056A000E4AC02E5009B002B08F10108C8BF02250D
:1056B0003FF78CAD32463B460020634900F09AFA32
:1056C000022506460F46DFE500260027DCE6049BA0
:1056D000002B26DD0024049B012B3FF4A8AD022BF8
:1056E00009D1009B5A1E0CAB0CA953F82230C3F30E
:1056F000150341F82230022D7FF4C6AD32463B46F9
:105700000020514900F076FA06460F46002C3FF47F
:10571000BBADABE500990133994278D1049B002BD6
:10572000D9DC022D7FF4B0AD32463B46002046491D
:1057300000F060FA06460F46A6E50123D1E539469A
:10574000049F02957A423046CDF81C8000F0C8F9DB
:1057500000223E4B04460D4600F086FE002862D033
:1057600000223B4B2046294600F0F8FB00F090FE5B
:10577000064600F08DFB0022344B00F0EFFB0246A2
:105780000B462046294600F035FA00F081FE0099CC
:105790000B4601331A4600933B46183304930B46DD
:1057A0000CA941F82300134641F8236014E6069B38
:1057B0003246C3E900010B46DAE9000100F01AFAAB
:1057C0000B460099002902463FF726AF1946069B73
:1057D0001046C3E9020135E718462946DAE90023F5
:1057E000DAE90245069FC7E90401C7E90023C7E9D2
:1057F0000245E6E6A29B032B3FF6E3AEDFE803F0AB
:10580000211C1C0E009B012B88DD0CAA012352F8E1
:10581000044F002C3FF47EAF581CDDE40DF5907A68
:1058200000231D46B4E62946204600F031FE009ACA
:105830000CA941F82200CFE5002633460DF5907AF9
:10584000D5E60022134613E70000F03F0000704148
:105850000000703E000000002DE9F04F21F00046EE
:10586000B6F1795F85B00C4690469946054604DA54
:1058700000F00EFE002800F085802A4623462846C8
:10588000214600F06BFB06460F4602460B462846B3
:10589000214600F063FB3EA3D3E9002382468B46FA
:1058A0003046394600F05AFB3BA3D3E9002300F011
:1058B000A1F932463B4600F051FB39A3D3E900235E
:1058C00000F09AF932463B4600F048FB36A3D3E994
:1058D000002300F08FF932463B4600F03FFB34A333
:1058E000D3E9002300F088F90E9BCDE900019BB3BA
:1058F0000022334B4046494600F030FBDDE90023EF
:10590000CDE902015046594600F028FB02460B46FD
:10591000DDE9020100F06EF932463B4600F01EFB65
:1059200042464B4600F066F923A3D3E9002306461E
:105930000F465046594600F011FB02460B463046D2
:10594000394600F059F902460B462846214600F038
:1059500051F905B0BDE8F08F02460B463046394696
:1059600000F0FCFA14A3D3E9002300F043F95246F7
:105970005B4600F0F3FA2A46234600F03DF905B0F5
:10598000BDE8F08F2846214605B0BDE8F08F00BF86
:105990007CD5CF5A3AD9E53DEB9C2B8AE6E55A3EB9
:1059A0007DFEB157E31DC73ED561C119A0012A3F55
:1059B000A6F810111111813F495555555555C53F50
:1059C0000000E03F00000000C1F30A522DE9F84357
:1059D000A2F2FF36132E0B460D46044688460746B4
:1059E0001DDC002E40DB3C4A42FA06F901EA0902BE
:1059F0000243864618D036A3D3E9002300F0FCF812
:105A00000022002300F03AFD20B1002D42DB28EAFD
:105A1000090500273C4629462046BDE8F883332E79
:105A200006DDB6F5806F2FD019462046BDE8F88315
:105A3000A2F213424FF0FF3929FA02F910EA090FD6
:105A4000F2D023A3D3E9002300F0D6F800220023EC
:105A500000F014FD0028DDD0002D21DB454627EAAB
:105A600009073C462946D7E719A3D3E9002300F0EC
:105A7000C3F80022002300F001FD0028CAD0002D49
:105A800019DB00273D46C5E702460B4600F0B4F897
:105A90000446CAE74FF4801343FA06F6B044B6E76B
:105AA000142E10D00123C6F1340603FA06F6371976
:105AB00028BF9844D2E725F00042084B224318BF84
:105AC0001D460027A6E705F10108C7E7AFF30080F0
:105AD0009C7500883CE4377EFFFF0F000000F0BF9C
