:020000040800F2
:10000000F80D0020010900086109000861090008D5
:10001000610900086109000861090008000000008A
:10002000000000000000000000000000610900085E
:100030006109000800000000610900086120000853
:1000400061090008610900086109000861090008E8
:100050006109000861090008E51E0008031F000887
:10006000211F00083F1F00085D1F000861090008EC
:1000700061090008610900086109000861090008B8
:1000800061090008610900086109000861090008A8
:100090006109000861090008610900087B1F000868
:1000A0006109000861090008610900086109000888
:1000B00005300008610900086109000861090008AD
:1000C0006109000861090008610900086109000868
:1000D000610900086109000851020008512900085F
:1000E0006109000861090008610900086109000848
:1000F0006109000861090008610900086109000838
:100100006109000861090008C94700086109000881
:100110006109000861090008610900086109000817
:100120006109000861090008610900086109000807
:1001300061090008610900086109000861090008F7
:1001400061090008610900086109000861090008E7
:1001500061090008610900086109000861090008D7
:1001600061090008610900086109000861090008C7
:1001700061090008610900086109000861090008B7
:10018000610900086109000880B588B000AF01214D
:10019000012000F05DFE01214FF4003000F076FEFA
:1001A0000C237B6102237B7602233B760023BB7604
:1001B0000023FB7607F114031946234801F09CFF46
:1001C00007220321204802F059F8072202211E4885
:1001D00002F054F801214FF4003000F057FE1B48A4
:1001E00000F08AF94FF416537B6000233B81002313
:1001F0007B810023BB8100233B820C23FB813B1DC1
:100200001946124800F0E2F90121104800F098FA6E
:10021000012240F225510D4800F0D1FA26233B7708
:1002200000237B770023BB770123FB7707F11C03B7
:10023000184604F037F90121044800F081FA00BFA4
:100240002037BD4680BD00BF000002400044004092
:1002500098B500AF40F22551754800F0F7FA034613
:10026000002B00F0E280724800F09AFA0346DAB2FE
:10027000704B1A70704B1B78612B08D16D4B1B783B
:100280001A466E4B1A606C4B00221A7010E06A4BD3
:100290001B78622B08D1674B1B781A46684B1A6093
:1002A000654B00221A7003E0624B1A78624B1A7099
:1002B0000C215F4800F063FA624BD3E90034184622
:1002C000214606F0D1FE0346DBB25F4AA2FB0323C0
:1002D0005B09DBB29BB21946554800F050FA0D217C
:1002E000534800F04CFA574BD3E9003418462146E6
:1002F00006F0BAFE0346DBB2534AA2FB03125209D0
:10030000642101FB02F29B1ADBB29BB219464848FA
:1003100000F035FA0E21464800F031FA4B4BD3E994
:1003200000341846214606F09FFE0346DBB2464ADB
:10033000A2FB03235B09DBB29BB219463C4800F0E9
:100340001EFA0F213A4800F01AFA404BD3E9003464
:100350001846214606F088FE0346DBB23A4AA2FB65
:1003600003125209642101FB02F29B1ADBB29BB219
:1003700019462F4800F003FA10212D4800F0FFF92C
:10038000334BD3E900341846214606F06DFE034690
:10039000DBB22D4AA2FB03235B09DBB29BB21946F9
:1003A000234800F0ECF91121214800F0E8F9284B2E
:1003B000D3E900341846214606F056FE0346DBB268
:1003C000214AA2FB03125209642101FB02F29B1A8B
:1003D000DBB29BB21946164800F0D1F91D4B1A68E2
:1003E000164B1B689A4205D11B4B1A68144B1B68AD
:1003F0009A4212D0114B1B68184606F00FFF0246B6
:10040000164B1A600E4B1B68184606F007FF024693
:10041000134B1A60134B01221A60084B1B680D4ADC
:100420001360074B1B680C4A136000BF98BD00BFE8
:100430000044004068040020600400204C040020B8
:1004400010040020B00100201F85EB51B8010020EE
:10045000C00100204404002040040020AC0500201E
:10046000EC050020A405002080B500AFFFF78CFE4E
:1004700000BF80BD90B484B000AF03460A46FB7154
:100480001346BB710023FB60BB7903F003039B00A1
:100490000F2202FA03F3FB601649BB799B08DBB21B
:1004A0001846144ABB799B08DBB2023352F823206A
:1004B000FB68DB431A40831C41F823200D48BB79BD
:1004C0009B08DBB21C460B4ABB799B08DBB20233AC
:1004D00052F82320F979BB7903F003039B0001FA5A
:1004E00003F31A43A31C40F8232000BF1037BD4676
:1004F00090BC70470038014080B582B000AF786092
:100500007B682C4A934208D10121102000F018FD8D
:100510000021102000F014FD47E07B68264A93423A
:100520000AD101214FF4003000F0ECFC00214FF41F
:10053000003000F0E7FC38E07B68204A93420AD1A3
:1005400001214FF4802000F0DDFC00214FF48020D9
:1005500000F0D8FC29E07B68194A93420AD10121B6
:100560004FF4002000F0CEFC00214FF4002000F0FA
:10057000C9FC1AE07B68134A93420AD101214FF467
:10058000801000F0BFFC00214FF4801000F0BAFC96
:100590000BE07B680C4A934207D10121202000F038
:1005A000CFFC0021202000F0CBFC00BF0837BD4667
:1005B00080BD00BF001001400044004000480040E2
:1005C000004C0040005000400014014080B58AB04B
:1005D00000AF7860396000237B6200233B62002318
:1005E000FB610023BB617B681B8A9BB27B627B6AD9
:1005F00023F440537B623B68DB881A467B6A1343D3
:100600007B627B6A9AB27B681A827B689B899BB209
:100610007B627B6A23F4B05323F00C037B623B685C
:100620009A883B681B8913439AB23B685B891343E2
:100630009BB21A467B6A13437B627B6A9AB27B68E1
:100640009A817B689B8A9BB27B627B6A23F44073AE
:100650007B623B689B891A467B6A13437B627B6A99
:100660009AB27B689A8207F10803184600F048FBAB
:100670007B68304A934203D07B682F4A934202D171
:100680007B693B6201E03B693B627B689B899BB273
:100690001BB2002B0CDA3A6A13469B0013449A00F3
:1006A0001A443B681B685B00B2FBF3F3FB610BE091
:1006B0003A6A13469B0013449A001A443B681B682D
:1006C0009B00B2FBF3F3FB61FB691C4AA2FB032313
:1006D0005B091B017B627B6A1B09642202FB03F33B
:1006E000FA69D31ABB617B689B899BB21BB2002B52
:1006F0000CDABB69DB003233104AA2FB03235B092F
:1007000003F007037A6A13437B620BE0BB691B01AA
:1007100032330A4AA2FB03235B0903F00F037A6A10
:1007200013437B627B6A9AB27B681A8100BF2837C9
:10073000BD4680BD00100140001401401F85EB51F3
:1007400080B483B000AF78600B46FB70FB78002B61
:1007500008D07B689B899BB243F400539AB27B68B4
:100760009A8107E07B689B899BB223F400539AB27D
:100770007B689A8100BF0C37BD4680BC704780B44F
:1007800083B000AF78600B467B807B88C3F308039F
:100790009AB27B689A8000BF0C37BD4680BC704718
:1007A00080B483B000AF78607B689B889BB2C3F352
:1007B00008039BB218460C37BD4680BC704780B416
:1007C00087B000AF78600B467B8013467B700023B8
:1007D0003B610023FB600023BB6000237B617B68DF
:1007E0007B617B88DBB25B09DBB23B617B8803F01A
:1007F0001F03FB600122FB6802FA03F3BB603B6945
:10080000012B03D17B690C337B6109E03B69022B2F
:1008100003D17B6910337B6102E07B6914337B6118
:100820007B78002B06D07B697A691168BA680A4325
:100830001A6006E07B697A691168BA68D2430A4097
:100840001A6000BF1C37BD4680BC704780B487B0BB
:1008500000AF78600B467B800023FB6000237B6148
:100860000023BB600023FB747B88DBB25B09DBB237
:10087000BB607B8803F01F037B6101227B6902FA66
:1008800003F37B61BB68012B07D17B689B899BB21B
:100890001A467B6913407B6111E0BB68022B07D1CC
:1008A0007B681B8A9BB21A467B6913407B6106E01A
:1008B0007B689B8A9BB21A467B6913407B617B886D
:1008C0001B0A9BB2FB600122FB6802FA03F3FB6088
:1008D0007B681B889BB21A46FB681340FB607B69F0
:1008E000002B05D0FB68002B02D00123FB7401E034
:1008F0000023FB74FB7C18461C37BD4680BC704748
:1009000080B582B000AF114B7B60114B3B6007E0BC
:100910003B681A1D3A607A68111D796012681A6086
:100920003B680C4A9342F3D30B480C494FF000024A
:100930008842B8BF40F8042BFADB01F0E5FE00F076
:1009400073F900BF0837BD4680BD00BF8878000836
:1009500000000020FC00002000010020F405002021
:1009600080B400AFFEE7000080B584B000AF012185
:10097000042000F08BFA0023BB800023FB804FF69D
:10098000FF73BB600023BB810023BB733B1D194673
:10099000054803F02DFF0121034803F093FF00BF3A
:1009A0001037BD4680BD00BF0008004080B586B04E
:1009B00000AFFFF7D9FF7023BB800123FB80022328
:1009C0003B8240F63303FB603B1D1946184803F099
:1009D00099FF0821164804F083F941F26703FB6090
:1009E0003B1D1946124804F007F80821104804F08E
:1009F00092F941F69B03FB603B1D19460C4804F03D
:100A000083F808210A4804F0A3F942F2CF03FB60FF
:100A10003B1D1946064804F0FDF80821044804F07F
:100A2000B2F900F007F800BF1837BD4680BD00BF1F
:100A30000008004080B582B000AF0121082000F01E
:100A400007FA02220C21274801F018FC02220D218E
:100A5000244801F013FC02220E21224801F00EFC72
:100A600002220F211F4801F009FC4FF47F433B6035
:100A70000023BB710023FB7102233B7103237B71B5
:100A80003B461946174801F037FB0121022000F0D0
:100A9000DFF94FF470433B600023BB710023FB710F
:100AA00001233B7103237B713B4619460E4801F03D
:100AB00023FB0121102000F0CBF94FF470433B6081
:100AC0000023BB710023FB7101233B7103237B7166
:100AD0003B461946054801F00FFB00BF0837BD46ED
:100AE00080BD00BF000C0240000402400010024024
:100AF00080B584B000AF03463960FB713B68002BC2
:100B0000CCBF01230023FB733B68002BB8BF5B42C3
:100B10003B60FB79013B032B7AD801A252F823F00A
:100B2000310B0008690B0008A10B0008D90B000865
:100B3000FB7B002B0AD04FF48051384801F082FB38
:100B40004FF40051354801F08BFB09E04FF40051A0
:100B5000324801F077FB4FF48051304801F080FBC0
:100B60002F4A3B68536354E0FB7B002B0AD04FF4C1
:100B700080412A4801F066FB4FF40041274801F00C
:100B80006FFB09E04FF40041244801F05BFB4FF498
:100B90008041224801F064FB214A3B68936338E0BE
:100BA000FB7B002B0AD04FF480511E4801F04AFB1A
:100BB0004FF480411B4801F053FB09E04FF48041A2
:100BC000184801F03FFB4FF48051164801F048FBF4
:100BD000134A3B68D3631CE0FB7B002B0AD04FF425
:100BE0000051104801F02EFB4FF400410D4801F078
:100BF00037FB09E04FF400410A4801F023FB4FF4B2
:100C00000051084801F02CFB054A3B68136400E0E2
:100C100000BF00BF1037BD4680BD00BF00040240CA
:100C2000000800400010024080B500AF01F06CFDEC
:100C300001F03AFAFFF718FC01F01CFE01F066FB28
:100C400003F0D2FC01F094FB02F080F80E4B01227D
:100C50001A7003F06FFB41F2883001F0E9F901F0FE
:100C6000FBFD02F073F9084B00221A704FF47A7002
:100C700001F0DEF9044B01221A7003F05BFB01F076
:100C800093FB03F067FDFCE76104002080B483B0B0
:100C900000AF0346FB71054B00221A70034AFB7933
:100CA000137000BF0C37BD4680BC7047023802404D
:100CB00080B582B000AF00233B600023FB710023AE
:100CC000BB71312000F05AF90346BB713B68013318
:100CD0003B603B68B3F5A06F02D0BB79002BF0D02E
:100CE000312000F04BF90346002B02D00123FB71A9
:100CF00001E00023FB71FB7918460837BD4680BD33
:100D000080B489B000AF78600023BB6100237B61B1
:100D10000023FB6102233B610023FB600223BB60D5
:100D2000474B9B6803F00C03BB61BB69042B07D0E6
:100D3000082B09D0002B3DD17B68424A1A603DE068
:100D40007B68414A1A6039E03D4B5B689B0D03F0BC
:100D50000103FB603A4B5B6803F03F03BB60FB6839
:100D6000002B0CD0384ABB68B2FBF3F3344A52680C
:100D70009209C2F3080202FB03F3FB610BE0314A64
:100D8000BB68B2FBF3F32E4A52689209C2F3080221
:100D900002FB03F3FB612A4B5B681B0C03F00303AC
:100DA00001335B003B61FA693B69B2FBF3F27B689C
:100DB0001A6003E07B68234A1A6000BF204B9B68DF
:100DC00003F0F003BB61BB691B09BB611F4ABB6930
:100DD00013441B78DBB27B617B681A687B69DA405D
:100DE0007B685A60164B9B6803F4E053BB61BB6998
:100DF0009B0ABB61154ABB6913441B78DBB27B615C
:100E00007B685A687B69DA407B689A600C4B9B6808
:100E100003F46043BB61BB695B0BBB610B4ABB69FD
:100E200013441B78DBB27B617B685A687B69DA40CC
:100E30007B68DA6000BF2437BD4680BC704700BFC6
:100E4000003802400024F40000127A000000002064
:100E500080B483B000AF78600B46FB70FB78002B4A
:100E600006D00949084B1A6B7B6813430B6306E0F5
:100E70000549054B1A6B7B68DB4313400B6300BFCE
:100E80000C37BD4680BC70470038024080B483B048
:100E900000AF78600B46FB70FB78002B06D0094949
:100EA000084B1A6C7B6813430B6406E00549054B3D
:100EB0001A6C7B68DB4313400B6400BF0C37BD46E4
:100EC00080BC70470038024080B483B000AF7860C7
:100ED0000B46FB70FB78002B06D00949084B5A6C77
:100EE0007B6813434B6406E00549054B5A6C7B68ED
:100EF000DB4313404B6400BF0C37BD4680BC7047DA
:100F00000038024080B483B000AF78600B46FB70BD
:100F1000FB78002B06D00949084B1A6A7B681343FB
:100F20000B6206E00549054B1A6A7B68DB431340F8
:100F30000B6200BF0C37BD4680BC704700380240D2
:100F400080B483B000AF78600B46FB70FB78002B59
:100F500006D00949084B5A6A7B6813434B6206E086
:100F60000549054B5A6A7B68DB4313404B6200BF5F
:100F70000C37BD4680BC70470038024080B487B053
:100F800000AF0346FB710023FB6000237B6100235D
:100F9000FB74FB795B09DBB2FB60FB68012B03D1BF
:100FA000124B1B687B6109E0FB68022B03D10F4BDE
:100FB0001B6F7B6102E00D4B5B6F7B61FB7903F084
:100FC0001F03FB607A69FB6822FA03F303F0010355
:100FD000002B02D00123FB7401E00023FB74FB7C97
:100FE00018461C37BD4680BC704700BF0038024021
:100FF00080B483B000AF78600B46FB707B68FA78F2
:101000001A70012318460C37BD4680BC704780B467
:1010100085B000AF786039600023FB600AE07B6830
:101020005A1C7A603A68511C396012781A70FB6851
:101030000133FB603B681B78002BF0D1FB6818463E
:101040001437BD4680BC704780B586B000AFF860ED
:101050007A603B600B46FB7200237B617B68013B3F
:101060007B603B68092B1DD93B681D4AA2FB03230B
:10107000DB08F97A7A68F868FFF7E6FF78617B6940
:10108000FA681344FB6010E0FB7A1946F868FFF732
:10109000AFFFFB680133FB607B6901337B617B68D9
:1010A000013B7B607B68002BEEDC39680C4BA3FBBB
:1010B0000123DA0813469B0013445B00CA1AD3B21B
:1010C0003033DBB21946F868FFF792FF02467B69BE
:1010D00013447B617B6918461837BD4680BD00BF4D
:1010E000CDCCCCCC80B586B000AFF8607A603B60E8
:1010F0000B46FB7200237B613B68002B03DA3B68E5
:101100005B423B6101E03B683B617B68013B7B608C
:101110003B69092B1FD93B68002B0CDA3B692E4A2F
:10112000A2FB0323DB085B42F97A7A68F868FFF7D1
:10113000D9FF78610AE03B69274AA2FB0323DB0859
:10114000F97A7A68F868FFF7CDFF78617B69FA6809
:101150001344FB6025E03B68002B11DA7B68013B00
:101160007B600DE0FB7A1946F868FFF741FFFB68EA
:101170000133FB607B6901337B617B68013B7B60F2
:101180007B68002BEEDC3B68002B0ADA2D21F86827
:10119000FFF72EFF02467B6913447B61FB68013336
:1011A000FB6039690C4BA3FB0123DA0813469B0053
:1011B00013445B00CA1AD3B23033DBB21946F86865
:1011C000FFF716FF02467B6913447B617B69184673
:1011D0001837BD4680BD00BFCDCCCCCC80B588B023
:1011E00002AFF8607A601A460B46FB721346BB7278
:1011F00000237B617B68013B7B603B6A1B09002B02
:1012000020D03B6A1B09BA7AF97A009313467A68B0
:10121000F868FFF7E3FF02467B6913447B617B6953
:10122000FA681344FB6010E0FB7A1946F868FFF790
:10123000DFFEFB680133FB607B6901337B617B6808
:10124000013B7B607B68002BEEDC3B6A03F00F0305
:10125000092B0BD83B6ADBB203F00F03DBB2303350
:10126000DBB21946F868FFF7C3FE19E0BB7A002B22
:101270000BD03B6ADBB203F00F03DBB23733DBB2D8
:101280001946F868FFF7B4FE0AE03B6ADBB203F0E8
:101290000F03DBB25733DBB21946F868FFF7A8FE3D
:1012A0007B6901337B617B6918461837BD4680BD79
:1012B00080B58AB002AFF860B9607A603B60002305
:1012C000BB6100237B61FB68002B00F0FC80FB68A6
:1012D00000221A70F7E07B681B78252B0BD0FB6887
:1012E0005A1CFA607A68511C796012781A707B690E
:1012F00001337B61E7E07B6801331B78252B0BD141
:10130000FB685A1CFA6025221A707B6802337B60E6
:101310007B6901337B61D6E02023FB770023BB7719
:101320007B6801337B607B681B78302B14D13023C2
:10133000FB777B6801337B600EE0BB7F1A4692002F
:1013400013445B00DAB27B681B781344DBB2303B9A
:10135000BB777B6801337B607B681B782F2B03D9BD
:101360007B681B78392BE8D9BA7F7B6913441A460E
:10137000BB689A4205D9BB68DAB27B69DBB2D31A83
:10138000BB777B681B78583B202B00F28E8001A234
:1013900052F823F065140008AB140008AB140008E1
:1013A000AB140008AB140008AB140008AB14000821
:1013B000AB140008AB140008AB140008AB14000811
:1013C0009514000819140008AB140008AB140008A9
:1013D000AB140008AB14000819140008AB14000883
:1013E000AB140008AB140008AB140008AB140008E1
:1013F000AB140008AB140008AB140008AB140008D1
:1014000081140008AB14000831140008AB14000864
:10141000AB14000849140008B87F3B681A1D3A60F5
:101420001B68F97F0246F868FFF75CFEB8613FE091
:10143000B87F3B681A1D3A601B68F97F0246F8685E
:10144000FFF702FEB86133E0B87F3B681A1D3A60CF
:101450001B68F97F009300230246F868FFF7BEFE81
:10146000B86125E0B87F3B681A1D3A601B68F97FB8
:10147000009301230246F868FFF7B0FEB86117E059
:101480003B681A1D3A601B681946F868FFF7BFFDF4
:10149000B8610DE03B681A1D3A601B68DBB2194663
:1014A000F868FFF7A5FDB86102E04FF0FF3325E0D3
:1014B0007B6801337B60BB69FA681344FB607A691F
:1014C000BB6913447B617B681B78002B04D07A696D
:1014D000BB689A42FFF4FFAE7A69BB689A4203D2B6
:1014E000FB6800221A7008E0FB68013BFB60FB68A8
:1014F00000221A707B69013B7B617B6918462037AB
:10150000BD4680BD80B584B000AFF860B9607A6038
:101510007B68BA686421F868FFF7CAFE034618467C
:101520001037BD4680BD0EB480B585B000AF786081
:1015300007F12003BB60BA68F9697868FFF7E2FF3A
:10154000F860FB6818461437BD46BDE8804003B01C
:101550007047000090B589B000AF78600121082085
:10156000FFF776FC01214FF48040FFF7ADFC00232C
:101570003B770023BB770123FB7703237B77012392
:10158000BB6107F1180319461E4800F0B5FD102392
:10159000BB6107F1180319461A4800F0ADFD0021A0
:1015A0000320FEF767FF01233B610123BB75002386
:1015B0003B7510237B7507F11003184602F0CEFE31
:1015C00006233B7303237B730023BB730123FB734D
:1015D00007F10C03184602F065FF0B4B00221A605E
:1015E0007A684FF000034FF00004C2E902347A68D1
:1015F0004FF000034FF00004C2E9003400BF24376D
:10160000BD4690BD000C02408404002090B589B016
:1016100000AF786001210820FFF71AFC01214FF488
:101620008040FFF751FC00233B770023BB77012369
:10163000FB7703237B770223BB6107F1180319466D
:101640001E4800F059FD2023BB6107F1180319461D
:101650001A4800F051FD01210320FEF70BFF022381
:101660003B610123BB7500233B7510237B7507F19C
:101670001003184602F072FE07233B7303237B73AB
:101680000023BB730123FB7307F10C03184602F020
:1016900009FF0B4B00221A607A684FF000034FF0ED
:1016A0000004C2E902347A684FF000034FF00004EE
:1016B000C2E9003400BF2437BD4690BD000C024093
:1016C0008004002090B589B000AF78600121082027
:1016D000FFF7BEFB01214FF48040FFF7F5FB00232D
:1016E0003B770023BB770123FB7703237B7704231E
:1016F000BB6107F1180319461E4800F0FDFC4023AA
:10170000BB6107F1180319461A4800F0F5FC0221E5
:101710000320FEF7AFFE04233B610123BB750023CA
:101720003B7510237B7507F11003184602F016FE77
:1017300008233B7303237B730023BB730123FB73D9
:1017400007F10C03184602F0ADFE0B4B00221A60A5
:101750007A684FF000034FF00004C2E902347A685F
:101760004FF000034FF00004C2E9003400BF2437FB
:10177000BD4690BD000C02408804002090B589B0A1
:1017800000AF786001210820FFF762FB01214FF4D0
:101790008040FFF799FB00233B770023BB770123B1
:1017A000FB7703237B770823BB6107F118031946F6
:1017B0001E4800F0A1FC8023BB6107F11803194605
:1017C0001A4800F099FC03210320FEF753FE08237A
:1017D0003B610123BB7500233B7510237B7507F12B
:1017E0001003184602F0BAFD09233B7303237B73F1
:1017F0000023BB730123FB7307F10C03184602F0AF
:1018000051FE0B4B00221A607A684FF000034FF034
:101810000004C2E902347A684FF000034FF000047C
:10182000C2E9003400BF2437BD4690BD000C024021
:101830007C04002090B589B000AF786001210220BF
:10184000FFF706FB01214FF48040FFF73DFB00232B
:101850003B770023BB770123FB7703237B771023A0
:10186000BB6107F1180319461E4800F045FC04232C
:10187000BB6107F1180319461A4800F03DFC04212A
:101880000120FEF7F7FD10233B610123BB75002308
:101890003B7510237B7507F11003184602F05EFDBF
:1018A0000A233B7303237B730023BB730123FB7366
:1018B00007F10C03184602F0F5FD0B4B00221A60ED
:1018C0007A684FF000034FF00004C2E902347A68EE
:1018D0004FF000034FF00004C2E9003400BF24378A
:1018E000BD4690BD000402407404002090B589B04C
:1018F00000AF786001210220FFF7AAFA01214FF41E
:101900008040FFF7E1FA00233B770023BB770123F8
:10191000FB7703237B772023BB6107F1180319466C
:101920001E4800F0E9FB0823BB6107F118031946C4
:101930001A4800F0E1FB05210120FEF79BFD202362
:101940003B610123BB7500233B7510237B7507F1B9
:101950001003184602F002FD17233B7303237B7329
:101960000023BB730123FB7307F10C03184602F03D
:1019700099FD0B4B00221A607A684FF000034FF07C
:101980000004C2E902347A684FF000034FF000040B
:10199000C2E9003400BF2437BD4690BD00040240B8
:1019A0007804002090B583B000AF78601A4B1B68B4
:1019B000184605F031F87B68D3E900341A4623460F
:1019C00004F0DCFE03460C467A68C2E90234124B8E
:1019D0001B68184605F020F803460C467A68C2E9F1
:1019E00000340D4B1B68002B04DA7B6801221A744B
:1019F00001230CE0084B1B68002B04DD7B680022F0
:101A00001A74002303E07B6802221A74022318462A
:101A10000C37BD4690BD00BF8404002090B583B054
:101A200000AF78601A4B1B68184604F0F5FF7B681E
:101A3000D3E900341A46234604F0A0FE03460C46C0
:101A40007A68C2E90234124B1B68184604F0E4FFBE
:101A500003460C467A68C2E900340D4B1B68002B24
:101A600004DA7B6801221A7401230CE0084B1B681E
:101A7000002B04DD7B6800221A74002303E07B68DE
:101A800002221A74022318460C37BD4690BD00BFCF
:101A90008004002090B583B000AF78601A4B1B68BB
:101AA000184604F0B9FF7B68D3E900341A46234690
:101AB00004F064FE03460C467A68C2E90234124B15
:101AC0001B68184604F0A8FF03460C467A68C2E972
:101AD00000340D4B1B68002B04DA7B6801221A745A
:101AE00001230CE0084B1B68002B04DD7B680022FF
:101AF0001A74002303E07B6802221A74022318463A
:101B00000C37BD4690BD00BF8804002090B583B05F
:101B100000AF78601A4B1B68184604F07DFF7B68A5
:101B2000D3E900341A46234604F028FE03460C4647
:101B30007A68C2E90234124B1B68184604F06CFF45
:101B400003460C467A68C2E900340D4B1B68002B33
:101B500004DA7B6801221A7401230CE0084B1B682D
:101B6000002B04DD7B6800221A74002303E07B68ED
:101B700002221A74022318460C37BD4690BD00BFDE
:101B80007C04002090B583B000AF78601A4B1B68CE
:101B9000184604F041FF7B68D3E900341A46234617
:101BA00004F0ECFD03460C467A68C2E90234124B9D
:101BB0001B68184604F030FF03460C467A68C2E9F9
:101BC00000340D4B1B68002B04DA7B6801221A7469
:101BD00001230CE0084B1B68002B04DD7B6800220E
:101BE0001A74002303E07B6802221A740223184649
:101BF0000C37BD4690BD00BF7404002090B583B083
:101C000000AF78601A4B1B68184604F005FF7B682C
:101C1000D3E900341A46234604F0B0FD03460C46CF
:101C20007A68C2E90234124B1B68184604F0F4FECD
:101C300003460C467A68C2E900340D4B1B68002B42
:101C400004DA7B6801221A7401230CE0084B1B683C
:101C5000002B04DD7B6800221A74002303E07B68FC
:101C600002221A74022318460C37BD4690BD00BFED
:101C70007804002080B582B000AF0121144800F044
:101C8000C8FA0346FB711021114800F0C2FA03465E
:101C9000BB71104B1B78FA799A4214D00D4AFB792C
:101CA00013700C4B1B78002B0DD1BB79012B05D188
:101CB000094B1B680133084A136004E0064B1B689C
:101CC000013B054A136000BF0837BD4680BD00BF19
:101CD000000C0240100000208404002080B582B077
:101CE00000AF0221144800F094FA0346FB71202152
:101CF000114800F08EFA0346BB71104B1B78FA793D
:101D00009A4214D00D4AFB7913700C4B1B78002BB0
:101D10000DD1BB79012B05D1094B1B680133084A52
:101D2000136004E0064B1B68013B054A136000BFCB
:101D30000837BD4680BD00BF000C024011000020E6
:101D40008004002080B582B000AF0421144800F068
:101D500060FA0346FB714021114800F05AFA03462D
:101D6000BB71104B1B78FA799A4214D00D4AFB795B
:101D700013700C4B1B78002B0DD1BB79012B05D1B7
:101D8000094B1B680133084A136004E0064B1B68CB
:101D9000013B054A136000BF0837BD4680BD00BF48
:101DA000000C0240120000208804002080B582B0A0
:101DB00000AF0821144800F02CFA0346FB71802183
:101DC000114800F026FA0346BB71104B1B78FA79D4
:101DD0009A4214D00D4AFB7913700C4B1B78002BE0
:101DE0000DD1BB79012B05D1094B1B680133084A82
:101DF000136004E0064B1B68013B054A136000BFFB
:101E00000837BD4680BD00BF000C02401300002013
:101E10007C04002080B582B000AF1021144800F08F
:101E2000F8F90346FB710421114800F0F2F903466A
:101E3000BB71104B1B78FA799A4214D00D4AFB798A
:101E400013700C4B1B78002B0DD1BB79012B05D1E6
:101E5000094B1B680133084A136004E0064B1B68FA
:101E6000013B054A136000BF0837BD4680BD00BF77
:101E700000040240140000207404002080B582B0E9
:101E800000AF2021144800F0C4F90346FB7108217B
:101E9000114800F0BEF90346BB71104B1B78FA796C
:101EA0009A4214D00D4AFB7913700C4B1B78002B0F
:101EB0000DD1BB79012B05D1094B1B680133084AB1
:101EC000136004E0064B1B68013B054A136000BF2A
:101ED0000837BD4680BD00BF000402401500002049
:101EE0007804002080B500AF012002F0A9FA034673
:101EF000002B04D0FFF7BEFE012002F0C5FA00BFA0
:101F000080BD80B500AF022002F09AFA0346002B94
:101F100004D0FFF7E3FE022002F0B6FA00BF80BD56
:101F200080B500AF042002F08BFA0346002B04D0EA
:101F3000FFF708FF042002F0A7FA00BF80BD80B5BC
:101F400000AF082002F07CFA0346002B04D0FFF714
:101F50002DFF082002F098FA00BF80BD80B500AFC9
:101F6000102002F06DFA0346002B04D0FFF752FF59
:101F7000102002F089FA00BF80BD80B500AF20209C
:101F800002F05EFA0346002B04D0FFF777FF202013
:101F900002F07AFA00BF80BD80B483B000AF034680
:101FA0003960FB7197F90730002B0BDA0D49FB798B
:101FB00003F00F03043B3A68D2B21201D2B20B44D1
:101FC0001A7609E0084997F907303A68D2B2120147
:101FD000D2B20B4483F8002300BF0C37BD4680BC4F
:101FE000704700BF00ED00E000E100E080B582B086
:101FF00000AF78607B68B3F1807F01D3012311E0EB
:102000000A4A7B6823F07F43013B53600F214FF066
:10201000FF30FFF7C1FF054B00229A60034B0722F8
:102020001A60002318460837BD4680BD10E000E066
:1020300080B483B000AF78607B684FF47A7202FBA3
:1020400003F3064A136000BF044B1B68002BFBD14F
:1020500000BF0C37BD4680BC704700BF00010020A8
:1020600080B400AF0D4B1B6801330C4A13600C4B5E
:102070001B68002B04D00A4B1B68013B084A136005
:10208000084B1B68002B04D0064B1B68013B054A1C
:10209000136000BFBD4680BC704700BF0401002034
:1020A000080100200001002080B500AF0F4B1B7815
:1020B000002B19D10120FEF7E9FD00BFFEF7F8FD66
:1020C0000346002BFAD00A4B1B680A4AA2FB0323E3
:1020D0009B0C1846FFF78AFF0346002B00D0FEE753
:1020E000024B01221A7000E000BF80BD0C010020ED
:1020F0009000002083DE1B4380B487B000AF78607F
:10210000396000237B6100233B610023FB600023D7
:102110007B6176E001227B6902FA03F33B613B6855
:102120001A683B691340FB60FA683B699A4265D1C3
:102130007B681A687B695B00032101FA03F3DB43C8
:102140001A407B681A607B681A683B681B791946DD
:102150007B695B0001FA03F31A437B681A603B68F2
:102160001B79012B03D03B681B79022B2ED17B6896
:102170009A687B695B00032101FA03F3DB431A4091
:102180007B689A607B689A683B685B7919467B69D3
:102190005B0001FA03F31A437B689A607B685A6814
:1021A0007B699BB2194601238B40DB431A407B6855
:1021B0005A607B685B683A68927911467A6992B294
:1021C00001FA02F292B21A437B685A607B68DA68BD
:1021D0007B699BB25B00032101FA03F3DB431A40E6
:1021E0007B68DA607B68DA683B68DB7919467B6973
:1021F0005B0001FA03F31A437B68DA607B69013301
:102200007B617B690F2B85D900BF1C37BD4680BC25
:10221000704780B485B000AF78600B467B800023A8
:10222000FB737B681A697B881340002B02D0012363
:10223000FB7301E00023FB73FB7B18461437BD469C
:1022400080BC704780B483B000AF78600B467B8061
:102250007B687A881A8300BF0C37BD4680BC704704
:1022600080B483B000AF78600B467B807B687A884F
:102270005A8300BF0C37BD4680BC704780B485B020
:1022800000AF78600B467B8013467B700023FB60B9
:102290000023BB607A787B8803F007039B0002FA77
:1022A00003F3FB607B88DB089BB218467B88DB0866
:1022B0009BB21A467B68083253F822207B8803F0D1
:1022C00007039B000F2101FA03F3DB4302EA03013A
:1022D0007B6800F1080243F822107B88DB089BB280
:1022E0001A467B68083253F82220FB681343BB6010
:1022F0007B88DB089BB21A467B680832B96843F8D2
:10230000221000BF1437BD4680BC704780B582B034
:1023100000AF01210220FEF79BFD4FF470733B607C
:1023200002237B7101233B710023BB710023FB71EE
:102330003B4619460C48FFF7DFFE01210120FEF75E
:1023400087FDC0233B6002237B7101233B71002387
:10235000BB710023FB713B4619460448FFF7CCFED6
:1023600000BF0837BD4680BD0004024000000240A7
:1023700080B582B000AF01210420FEF769FD022381
:102380003B6002237B7101233B710023BB7100235F
:10239000FB713B4619460348FFF7AEFE00BF083706
:1023A000BD4680BD0008024080B500AF40210D4809
:1023B000FFF756FF80210B48FFF744FF40210A48F2
:1023C000FFF740FF4FF400710648FFF749FF4FF455
:1023D00080710448FFF736FF80210348FFF732FF82
:1023E00000BF80BD000402400000024080B500AF85
:1023F000012000F077F84CF2503000F076F900BF81
:1024000080BD80B582B000AF03463A60FB710B46D9
:10241000BB71BA79FB791146184600F041F907E023
:102420003B681B78184600F0CCF83B6801333B60F2
:102430003B681B78002BF3D100BF0837BD4680BD39
:1024400080B483B000AF0346FB71FA790B491346A1
:102450009B0013449B000B4404331968FA79074826
:1024600013469B0013449B00034408331B884B8393
:1024700000BF0C37BD4680BC704700BF180000206D
:1024800080B483B000AF0346FB71FA790B49134661
:102490009B0013449B000B4404331968FA790748E6
:1024A00013469B0013449B00034408331B880B8393
:1024B00000BF0C37BD4680BC704700BF180000202D
:1024C00080B500AF0120FFF7DBFF4FF47A7000F01A
:1024D0000CF90120FFF7B4FF4FF47A7000F005F912
:1024E00000BF80BD80B582B000AF0346FB71002005
:1024F000FFF7A6FF97F90730002B03DA0520FFF757
:10250000BFFF02E00520FFF79BFFFB7903F04003CC
:10251000002B03D00420FFF7B3FF02E00420FFF7F5
:102520008FFFFB7903F02003002B03D00320FFF77C
:10253000A7FF02E00320FFF783FFFB7903F01003FE
:10254000002B03D00220FFF79BFF02E00220FFF7E1
:1025500077FFFFF7B5FFFB7903F00803002B03D0EB
:102560000520FFF78DFF02E00520FFF769FFFB79EB
:1025700003F00403002B03D00420FFF781FF02E0E7
:102580000420FFF75DFFFB7903F00203002B03D06B
:102590000320FFF775FF02E00320FFF751FFFB79EF
:1025A00003F00103002B03D00220FFF769FF02E0D4
:1025B0000220FFF745FFFFF783FF00BF0837BD4646
:1025C00080BD80B582B000AF0346FB710020FFF7ED
:1025D00057FF97F90730002B03DA0520FFF750FF6C
:1025E00002E00520FFF72CFFFB7903F04003002BEE
:1025F00003D00420FFF744FF02E00420FFF720FF90
:10260000FB7903F02003002B03D00320FFF738FFF2
:1026100002E00320FFF714FFFB7903F01003002B07
:1026200003D00220FFF72CFF02E00220FFF708FF93
:10263000FFF746FFFB7903F00803002B03D00520CA
:10264000FFF71EFF02E00520FFF7FAFEFB7903F01B
:102650000403002B03D00420FFF712FF02E0042044
:10266000FFF7EEFEFB7903F00203002B03D00320FB
:10267000FFF706FF02E00320FFF7E2FEFB7903F01D
:102680000103002B03D00220FFF7FAFE02E0022034
:10269000FFF7D6FEFFF714FF00BF0837BD4680BD29
:1026A00080B584B000AF03460A46FB711346BB7188
:1026B000FB790F2B01D90023FB71BB79012B01D9C9
:1026C0000023BB71BB799B01FB73FA7BFB7913433E
:1026D000FB73FB7B63F07F03FB73FB7B1846FFF709
:1026E00001FF00BF1037BD4680BD80B483B000AF8E
:1026F000786000BF7B685A1E7A60002BFAD100BF59
:102700000C37BD4680BC704780B500AF124A124BF3
:102710001B6843F0010313600F4B00229A600E4ABE
:102720000D4B1B6823F0847323F4803313600A4B32
:102730000A4A5A60084A084B1B6823F48023136036
:10274000054B0022DA6000F00DF8054B4FF00062F7
:102750009A6000BF80BD00BF0038024010300024E6
:1027600000ED00E080B483B000AF00237B60002365
:102770003B60354A344B1B6843F480331360324B63
:102780001B6803F400333B607B6801337B603B686C
:10279000002B03D17B68B3F5A06FF0D12A4B1B68E7
:1027A00003F40033002B02D001233B6001E000233F
:1027B0003B603B68012B42D1234A234B1B6C43F007
:1027C00080531364214A214B1B6843F480431360F8
:1027D0001D4A1D4B9B6893601B4A1B4B9B6843F42F
:1027E00000439360184A184B9B6843F4A0539360CE
:1027F000154B174A5A60144A134B1B6843F08073F9
:10280000136000BF104B1B6803F00073002BF9D05E
:10281000104B40F205621A600B4A0B4B9B6823F089
:1028200003039360084A084B9B6843F002039360DC
:1028300000BF054B9B6803F00C03082BF9D100BFC8
:102840000C37BD4680BC7047003802400070004025
:1028500008544007003C024080B400AF034B1B68A3
:10286000034A136000BFBD4680BC70472C040020A3
:102870001001002080B588B000AF2F4B00221A70E5
:102880002E4B00221A702E4B00221A7001210220BA
:10289000FEF7DEFA01214FF48020FEF7F7FA4FF43D
:1028A00040637B6102237B7602233B760023BB7669
:1028B0000123FB7607F1140319462248FFF71CFC9D
:1028C00007220A211F48FFF7D9FC07220B211D48C8
:1028D000FFF7D4FC4FF416537B6000233B810023A9
:1028E0007B810023BB8100233B820C23FB813B1DAA
:1028F00019461548FDF76AFE01211348FDF720FF30
:10290000012240F225511048FDF759FF27233B775C
:1029100000237B770023BB770123FB7707F11C03A0
:10292000184601F0BFFD01210748FDF709FF00BF70
:102930002037BD4680BD00BF340400206A0400205B
:102940006104002000040240004800400000000034
:1029500098B500AF40F225519648FDF777FF034642
:10296000002B06D09348FDF71BFF0346DAB2924BCB
:102970001A70924B1B78432B07D18F4B1A78904BD0
:102980001A708E4B00221A708FE18C4B1B784F2BE4
:1029900050D1894B1A788B4B1A70894B1B781A4689
:1029A000642303FB02F3874A12781344184604F0A9
:1029B00035FC03468449184604F038FD03461A46A0
:1029C000824B1A60814B1A68814B1B68194610466E
:1029D00004F06EFB03461A467C4B1A607B4B1B6867
:1029E0004FF00001184604F00BFE0346002B0AD0FE
:1029F000764B1B687749184604F05CFB03461A4681
:102A0000724B1A6012E0714B1B687249184604F051
:102A100015FE0346002B09D06C4B1B686D49184608
:102A200004F046FB03461A46684B1A60634B0022CB
:102A30001A703AE1614B1B78772B18D1664B1B78E3
:102A40009BB21A46920013445B009AB25A4B1B7811
:102A50009BB213449AB2614B1A80614B1B780133CD
:102A6000DAB25F4B1A70554B00221A701DE1534BBE
:102A70001B78712B0DD1504B1A78574B1A70584B4D
:102A80001B780133DAB2564B1A704C4B00221A7085
:102A90000BE14A4B1B78722B18D1524B1B789BB21F
:102AA0001A46920013445B009AB2434B1B789BB2C8
:102AB00013449AB24C4B1A804C4B1B780133DAB258
:102AC0004A4B1A703D4B00221A70EEE03B4B1B78CC
:102AD000652B0DD1384B1A78424B1A70434B1B783B
:102AE0000133DAB2414B1A70344B00221A70DCE029
:102AF000324B1B78312B03D0304B1B78322B11D14A
:102B00002E4B1A783A4B1A702C4B00221A70384B05
:102B10001A78384B1B789A4240F0C780364B012216
:102B20001A70C2E0254B1B78772B0DD1304B1A78E9
:102B3000304B1B789A4207D142F2107001F08AFBA9
:102B40001E4B00221A70B0E01C4B1B78612B0DD17C
:102B5000274B1A78274B1B789A4207D142F2107004
:102B600001F0CCFB154B00221A709EE0134B1B7832
:102B7000732B0DD11E4B1A781E4B1B789A4207D12E
:102B800042F2107001F09EFB0C4B00221A708CE098
:102B90000A4B1B78642B31D1154B1A78154B1B78D7
:102BA0009A422BD142F2107001F070FB034B0022CD
:102BB0001A707AE0004800408C04002021040020B4
:102BC0004804002036040020000020412C0400208E
:102BD000100100200000B4433504002058040020F8
:102BE0001A04002049040020700400204A04002038
:102BF000340400206A04002061040020304B1B785C
:102C0000712B0BD12F4B1A782F4B1B789A4205D181
:102C100001F090FB2A4B00221A7046E0284B1B78EB
:102C2000332B11D1274B1A78274B1B789A420BD1A3
:102C300000F08CF9254A1EA4D4E90034C2E900341E
:102C40001F4B00221A7030E01D4B1B78342B11D122
:102C50001C4B1A781C4B1B789A420BD100F076F96A
:102C60001A4A15A4D4E90034C2E90034144B0022F6
:102C70001A701AE0124B1B78352B11D1114B1A78B0
:102C8000114B1B789A420BD100F060F90F4A4FF0BC
:102C900000030F4CC2E90034094B00221A7004E013
:102CA0000C4B1A78064B1A70FFE700BF98BD00BFA7
:102CB0000000000000907A400000000000306140F9
:102CC00021040020340400206A040020B801002000
:102CD00000404F408C04002080B584B000AF01213B
:102CE0000120FEF7D3F849F68313BB800023FB8055
:102CF0000923BB600023BB810023BB733B1D194626
:102D00004FF0804001F074FD01214FF0804001F050
:102D1000D9FD012201214FF0804002F051F800BF9F
:102D20001037BD4680BD80B582B000AF1C233B711B
:102D300000237B710123BB710123FB713B1D1846EE
:102D400001F0B0FB00BF0837BD4680BD80B500AFC5
:102D5000FFF7C2FFFFF7E7FF0D48FEF7FBFB0D484B
:102D6000FEF754FC0C48FEF7ADFC0C48FEF706FDE0
:102D70000B48FEF75FFD0B48FEF7B8FDFDF716FEAA
:102D8000FDF758FE00F010F800F0A4F800BF80BD79
:102D9000E0040020A0040020F8040020B804002073
:102DA000180500203005002090B400AF394A4FF0DC
:102DB00000034FF00004C2E90034374A4FF000032B
:102DC0004FF00004C2E90034344A4FF000034FF0E2
:102DD0000004C2E90034324A4FF000034FF000040F
:102DE000C2E900342F4A4FF000034FF00004C2E95B
:102DF00000342D4A4FF000034FF00004C2E90034C4
:102E00002A4A4FF000034FF00004C2E90034284A78
:102E10004FF000034FF00004C2E90034254A4FF0A0
:102E200000034FF00004C2E90034234A4FF00003CE
:102E30004FF00004C2E90034204A4FF000034FF085
:102E40000004C2E900341E4A4FF000034FF00004B2
:102E5000C2E900341B4A4FF000034FF00004C2E9FE
:102E60000034194A4FF000034FF00004C2E9003467
:102E7000164A4FF000034FF00004C2E90034144A30
:102E80004FF000034FF00004C2E9003400BFBD461C
:102E900090BC7047E8010020F0010020F8010020FC
:102EA000000200201802002020020020280200203A
:102EB000300200203802002040020020480200209A
:102EC0005002002058020020B0010020B80100206C
:102ED000C001002090B400AF164A4FF000034FF03D
:102EE0000004C2E90034144A4FF000034FF000041C
:102EF000C2E90034114A4FF000034FF00004C2E968
:102F000000340F4A4FF000034FF00004C2E90034D0
:102F10000C4A4FF000034FF00004C2E900340A4AA3
:102F20004FF000034FF00004C2E9003400BFBD467B
:102F300090BC704720030020980200204803002026
:102F4000C002002070030020E802002098B500AF06
:102F5000FFF72AFFFFF7BEFF224B00221A60224A2A
:102F60004FF000034FF00004C2E902341E4A4FF054
:102F700000034FF00004C2E900341C4B00221A6029
:102F80001B4A4FF000034FF00004C2E90234184A14
:102F90004FF000034FF00004C2E90034154B00224B
:102FA0001A60154A4FF000034FF00004C2E90234E2
:102FB000114A4FF000034FF00004C2E900340F4BF8
:102FC00000221A600E4A4FF000034FF00004C2E9DD
:102FD00002340B4A4FF000034FF00004C2E9003402
:102FE00000BF98BD84040020E0040020800400207D
:102FF000A004002088040020F80400207C040020A5
:10300000B804002098B500AF01214FF0804001F0D6
:10301000FAFE0346002B00F0C58101214FF08040ED
:1030200001F01AFFA34B1B68092B0FD1A14B4FF0E6
:10303000FF321A60A048FEF7B5FCA048FEF7EEFC90
:103040009F48FEF727FD9F48FEF760FD994B1B68E0
:103050000133984A13609C48FEF794FD9B48FEF7A5
:10306000CDFD9B4B00221A60994B1B68012B02D1AE
:1030700000F0AEF905E000F027FC00F041FF00F0A1
:10308000CBFF944B1B68184603F0C6FC924BD3E968
:1030900000341A46234603F0B5FF0346002B0AD03E
:1030A0008D4BD3E900341846214603F0B5FF0246A4
:1030B000884B1A6018E0874B1B68184603F0ACFC7D
:1030C000864BD3E900341A46234603F07DFF0346BE
:1030D000002B09D0814BD3E900341846214603F078
:1030E0009BFF02467B4B1A607D4B1B68184603F022
:1030F00093FC794BD3E900341A46234603F082FF50
:103100000346002B0AD0744BD3E9003418462146FD
:1031100003F082FF0246724B1A6018E0704B1B6886
:10312000184603F079FC6D4BD3E900341A46234668
:1031300003F04AFF0346002B09D0684BD3E9003463
:103140001846214603F068FF0246654B1A60654B3E
:103150001B68184603F060FC5F4BD3E900341A4645
:10316000234603F04FFF0346002B0AD05A4BD3E906
:1031700000341846214603F04FFF0246594B1A60AF
:1031800018E0584B1B68184603F046FC534BD3E934
:1031900000341A46234603F017FF0346002B09D0DC
:1031A0004E4BD3E900341846214603F035FF024662
:1031B0004C4B1A604C4B1B68184603F02DFC464BD9
:1031C000D3E900341A46234603F01CFF0346002BC4
:1031D0000AD0414BD3E900341846214603F01CFFC6
:1031E0000246414B1A6018E03F4B1B68184603F03B
:1031F00013FC3A4BD3E900341A46234603F0E4FEAD
:103200000346002B09D0354BD3E90034184621463C
:1032100003F002FF0246344B1A60344BD3E900013D
:10322000334BD3E900341A46234603F0A7FA03468A
:103230000C46304AC2E900342E4BD3E900014FF06E
:1032400000022D4B03F0DEFE0346002B0AD0294B73
:10325000D3E900014FF00002284B03F0B5FE03460E
:10326000002B0AD1234BD3E900014FF00002244B7D
:1032700003F0AAFE0346002B46D0164B1A68214BDA
:103280001B681344134A1360154B1A681D4B1B68C7
:103290001344134A1360134B1A681A4B1B681344E8
:1032A000104A1360104B1A68164B1B6813440E4AE1
:1032B00013605BE000040020E0040020A004002074
:1032C000F8040020B8040020180500203005002074
:1032D0005C0400207C010020D0000020C8000020F9
:1032E000800100208401002088010020700200205D
:1032F000C00100206003002000001C4000806640E8
:10330000008066C0A8000020274BD3E900014FF0E1
:103310000002264B03F058FE0346002B0AD1224B35
:10332000D3E900014FF00002214B03F06BFE03468E
:10333000002B1BD01F4B1A681F4B1B68D31A1D4A4A
:1033400013601E4B1A681C4B1B68D31A1B4A136070
:103350001B4B1A68184B1B68D31A194A1360194B78
:103360001A68154B1B68D31A164A1360164B1B7844
:10337000002B17D10F4B1B6819460120FDF7B8FB36
:103380000E4B1B6819460220FDF7B2FB0C4B1B6865
:1033900019460320FDF7ACFB0A4B1B6819460420B5
:1033A000FDF7A6FB00BF98BD6003002000001CC015
:1033B000008066407C010020A800002080010020E1
:1033C000840100208801002061040020000000002A
:1033D0002DE9B04F82B000AF9D4B1B88C3F5A073A1
:1033E0009C4A13609C4B1B88C3F1F0039B4A1360FB
:1033F000984B1B68002B04D1984B1B68002B00F0E6
:103400003182944B1B68002B0BD1944B1B68002B13
:1034100007D193494FF000024FF00003C1E90023A8
:1034200024E08E4B1B68184603F0F6FAC7E900014A
:10343000884B1B68184603F0EFFA02460B46D7E9A3
:10344000000101F0A7FD4FF00002864B03F04AFB9C
:1034500002460B461046194673A3D3E9002303F036
:103460006BFC02460B467E49C1E90023794B1B6881
:10347000002B11DA794B1B68002B0DDA784BD3E95E
:1034800000014FF00002784B03F07AF902460B4638
:103490007349C1E9002314E06E4B1B68002B10DD5B
:1034A0006E4B1B68002B0CDA6D4BD3E900014FF01B
:1034B00000026D4B03F064F902460B466849C1E90E
:1034C0000023674BD3E900014FF00002674B03F084
:1034D00099FD0346002B0DD0614BD3E900014FF05D
:1034E0000002624B03F04AF902460B465C49C1E90F
:1034F00000230CE05A4BD3E900014DA3D3E900238C
:1035000003F03EF902460B465549C1E90023584BEA
:1035100001221A60574B01221A604E4B1B68002B88
:1035200007DA4C4B1B685B424A4A1360504B00223F
:103530001A604A4B1B68002B07DA484B1B685B423A
:10354000464A13604B4B00221A60424B1B68772B94
:1035500007DC49494FF000024FF00003C1E90023A6
:103560004BE03C4B1B688C2B06DC43494FF00002C0
:10357000424BC1E9002340E0364B1B68A22B06DC1E
:103580003D494FF000023E4BC1E9002335E0314B8D
:103590001B68AE2B06DC38494FF00002394BC1E9FD
:1035A00000232AE02B4B1B68BE2B06DC32494FF070
:1035B0000002354BC1E900231FE0264B1B68C22BDC
:1035C00006DC2D491CA3D3E90023C1E9002314E044
:1035D000204B1B68C82B06DC274919A3D3E900231D
:1035E000C1E9002309E01B4B1B68CC2B05DC2249F9
:1035F00015A3D3E90023C1E90023184B1B68772BDF
:1036000007DC22494FF000024FF00003C1E900231C
:103610007FE0124B1B688C2B3ADC1C494FF00002F8
:10362000164BC1E9002374E0F1D4C853FB210940D3
:103630000000000000E07040000000000020624038
:103640000000000000A0644000000000002067406F
:1036500058040020D004002070040020DC04002066
:103660004001002000806640008076400080564087
:10367000D8000020DC00002028010020004050403D
:103680000040554000405A4000405F40300100205B
:103690007D4B1B68A22B06DC7C494FF000027C4B63
:1036A000C1E9002335E0784B1B68AE2B06DC774977
:1036B0004FF00002774BC1E900232AE0724B1B68F0
:1036C000BE2B06DC71494FF00002734BC1E90023A9
:1036D0001FE06D4B1B68C22B06DC6C4964A3D3E969
:1036E0000023C1E9002314E0674B1B68C82B06DCEC
:1036F000664961A3D3E90023C1E9002309E0624BD5
:103700001B68CC2B05DC61495DA3D3E90023C1E92B
:103710000023624B1B68002B08D1614BD3E90023C7
:10372000904683F000495E4BC3E900895D4B1B68FE
:10373000002B08D1554BD3E90023144683F00045F4
:10374000524BC3E90045564BD3E900014FF000024C
:10375000554B03F043FC0346002B0CD04B4BD3E9F5
:1037600000014FF00002504B03F038FC0346002BE1
:1037700001D0FEF719FE4D4BD3E900344C4AC2E9A3
:103780000034474BD3E90001404BD3E900341A46DB
:10379000234602F0F3FF03460C461846214603F089
:1037A0003BFC0246434B1A603D4BD3E900349A463A
:1037B00084F0004B354BD3E900341A46234650467B
:1037C000594602F0DBFF03460C461846214603F03B
:1037D00023FC0246384B1A602C4BD3E90001304BD6
:1037E000D3E900341A46234602F0C8FF03460C46CC
:1037F0001846214603F010FC0246304B1A60284B55
:10380000D3E90001214BD3E900341A46234602F0E4
:10381000B7FF03460C461846214603F0FDFB02465F
:10382000274B1A60234B1B684FF4FA6202FB03F329
:10383000204A1360204B1B684FF4FA6202FB03F32B
:103840001D4A13601D4B1B684FF4FA6202FB03F321
:103850001A4A13601A4B1B684FF4FA6202FB03F317
:10386000174A136000BF0837BD46BDE8B08F00BFE0
:1038700000000000002062400000000000A0644042
:103880000000000000206740DC0400203001002020
:103890000040554000405A4000405F40D8000020A2
:1038A00028010020DC0000200040504040010020A2
:1038B000700200207C010020800100208401002093
:1038C00088010020000000002DE9B04F00AFB44B8C
:1038D000D3E90023B0A1D1E9000103F02DFA02469B
:1038E0000B4610461946AF4BD3E9022303F0FAF812
:1038F00002460B4610461946AB4BD3E9002303F0B2
:103900001BFA02460B4610461946A84BD3E9002382
:1039100003F0E8F802460B46A549C1E90023A04B95
:10392000D3E900239CA1D1E9000103F005FA024686
:103930000B46104619469F4BD3E9022303F0D2F8F9
:1039400002460B4610461946974BD3E9002303F075
:10395000F3F902460B4610461946944BD3E900236F
:1039600003F0C0F802460B469349C1E900238C4B93
:10397000D3E9002388A1D1E9000103F0DDF9024673
:103980000B46104619468D4BD3E9022303F0AAF8E3
:1039900002460B4610461946834BD3E9002303F039
:1039A000CBF902460B4610461946804BD3E900235B
:1039B00003F098F802460B468149C1E90023784B91
:1039C000D3E9002374A1D1E9000103F0B5F902465F
:1039D0000B46104619467B4BD3E9022303F082F8CD
:1039E00002460B46104619466F4BD3E9002303F0FD
:1039F000A3F902460B46104619466C4BD3E9002347
:103A000003F070F802460B466F49C1E900236A4B88
:103A1000D3E90001664BD3E9002302F0B1FE024670
:103A20000B46924683F0004B4FF000024FF080436C
:103A30005046594603F080F902460B466349C1E9F6
:103A40000023614BD3E900015D4BD3E9002302F071
:103A500097FE02460B46104619464FF000024FF003
:103A6000804303F069F902460B465949C1E9002336
:103A70004F4BD3E90001544BD3E9002302F080FE01
:103A800002460B46904683F000494FF000024FF08B
:103A900080434046494603F04FF902460B464D49E4
:103AA000C1E90023444BD3E90001454BD3E900238E
:103AB00002F066FE02460B46104619464FF0000221
:103AC0004FF0804303F038F902460B464249C1E902
:103AD0000023404BD3E900013F4BD3E9002302F020
:103AE0004FFE02460B46104619464FF000023B4B74
:103AF00002F0F8FF02460B463949C1E90023344B76
:103B0000D3E90001314BD3E9002302F039FE02462C
:103B10000B46104619464FF00002304B02F0E2FF10
:103B200002460B462F49C1E90023214BD3E900018E
:103B3000214BD3E9002302F023FE02460B46104638
:103B400019461F4BD3E9002302F01AFE02460B462A
:103B5000104619461C4BD3E9002302F011FE024621
:103B60000B4690469946204BD3E900014FF00002E6
:103B70001E4B02F0B7FF02460B464046494603F093
:103B8000DBF802460B461A49C1E90023194BD3E979
:103B9000000131E0AFF30080F1D4C853FB2119409C
:103BA000E0000020A0040020B0000020F000002071
:103BB000E8010020E0040020F0010020B80400200B
:103BC000F8010020F80400200002002080030020FB
:103BD0008803002090030020980300200000E03FAD
:103BE0001802002020020020E80000200000104001
:103BF00028020020C0010020ABA3D3E9002302F07B
:103C000071FF02460B46AC49C1E90023AA4BD3E938
:103C100000231046194601F02FF9A84BD3E90023E1
:103C200002F060FF02460B4690469946A24BD3E94C
:103C300000231046194601F069F9A14BD3E900238E
:103C400002F050FF02460B464046494602F096FD00
:103C500002460B469B49C1E90023974BD3E9002359
:103C60001046194601F052F9944BD3E9002302F0B3
:103C700039FF02460B46904699468F4BD3E9002305
:103C80001046194601F0F8F88D4BD3E9002302F0F5
:103C900029FF02460B464046494602F071FD0246A6
:103CA0000B468949C1E90023884BD3E900238849A1
:103CB000C1E90023834BD3E90001864BD3E90023FC
:103CC00002F05EFD02460B46104619464FF0000218
:103CD000814B02F007FF02460B46104619467F4B08
:103CE000D3E9002302F0FEFE02460B4610461946B9
:103CF0007B4BD3E9002302F043FD02460B46784993
:103D0000C1E90023704BD3E90001764BD3E90023CE
:103D100002F036FD02460B46104619464FF00002EF
:103D20006D4B02F0DFFE02460B46104619466B4B08
:103D3000D3E9002302F0D6FE02460B461046194690
:103D4000694BD3E9002302F01BFD02460B4666498E
:103D5000C1E900235E4BD3E90001644BD3E90023A2
:103D600002F00EFD02460B46104619464FF00002C7
:103D7000594B02F0B7FE02460B4610461946574B08
:103D8000D3E9002302F0AEFE02460B461046194668
:103D900047A3D3E9002302F0A5FE02460B461046D6
:103DA0001946534BD3E9002302F0EAFC02460B46C6
:103DB0004F49C1E900234E4BD3E900014FF0000207
:103DC0004C4B03F015F90346002B0DD0484BD3E9BB
:103DD00000014FF00002474B02F0D0FC02460B46B8
:103DE0004349C1E9002318E0414BD3E900014FF0FA
:103DF00000024FF0000303F0E7F80346002B0CD05D
:103E00003B4BD3E900014FF000023A4B02F0B8FC03
:103E100002460B463649C1E90023374B1B6818465A
:103E200002F00CFE02460B463449C1E90023334B35
:103E3000D3E900014FF000022E4B02F09FFC024636
:103E40000B462E49C1E900232C4BD3E900014FF06A
:103E500000024FF0000303F0B7F80346002B08D030
:103E6000264BD3E90023144683F00045234BC3E9D6
:103E70000045224BD3E900341D4AC2E90034114BFE
:103E8000D3E90034134AC2E900340F4BD3E90034BC
:103E9000144AC2E900340E4BD3E90034134AC2E994
:103EA000003400BFBDE8B08F12E7FAA146DF913FB2
:103EB000775AF01ADCA54C40C801002018020020F7
:103EC00020020020300200203802002028020020BA
:103ED00040020020480200200000E03FB000002027
:103EE000B001002050020020B8010020580200203C
:103EF000C0010020008076402C040020980400209F
:103F000098B500AF344BD3E90001344BD3E900340A
:103F10001A46234602F032FC03460C46304AC2E9F8
:103F200000342F4BD3E900014FF000022D4B02F07B
:103F3000D9FD03460C462C4AC2E900342A4BD3E98A
:103F400000342A4AC2E90034294BD3E90001294B45
:103F5000D3E900341A46234602F010FC03460C460F
:103F6000254AC2E90034244BD3E900014FF0000296
:103F70001C4B02F0B7FD03460C46204AC2E9003450
:103F80001E4BD3E900341E4AC2E900341D4BD3E96D
:103F900000011D4BD3E900341A46234602F0EEFB24
:103FA00003460C46194AC2E90034184BD3E9000114
:103FB0004FF000024FF0000302F094FD03460C4660
:103FC000134AC2E90034124BD3E90034114AC2E962
:103FD000003400BF98BD00BF60020020B001002087
:103FE0001003002000409F40180300200803002019
:103FF00068020020B80100203803002040030020A0
:104000003003002070020020C00100206003002067
:104010006803002058030020F8B500AF7A4BD3E9BD
:1040200000341846214600F027FF784BD3E90034CE
:104030001A46234602F056FD03460C461D46264608
:10404000714BD3E900341846214600F05FFF704BF6
:10405000D3E900341A46234602F044FD03460C46D9
:104060001A4623462846314602F08AFB03460C4690
:10407000684AC2E90034644BD3E90034184621464B
:1040800000F0FAFE624BD3E900341A46234602F0F0
:1040900029FD03460C461D4626465B4BD3E90034FA
:1040A0001846214600F032FF584BD3E900341A4637
:1040B000234602F017FD03460C461A4623462846BF
:1040C000314602F05BFB03460C46534AC2E900341A
:1040D000524BD3E90034524AC2E900344D4BD3E984
:1040E00000341A4623464FF000004FF0000102F062
:1040F00045FB03460C4618462146474BD3E900349E
:104100001A46234602F03AFB03460C46454AC2E9EA
:104110000034404BD3E900013F4BD3E900341A4649
:10412000234602F02BFB03460C463F4AC2E900340B
:10413000384BD3E90001384BD3E900341A46234603
:1041400002F01EFB03460C46384AC2E90034314BEC
:10415000D3E900341A4623464FF000004FF0000127
:1041600002F00CFB03460C46184621462A4BD3E9C5
:1041700000341A46234602F003FB03460C462C4A41
:10418000C2E90034274BD3E900342A4AC2E900349B
:10419000254BD3E90034284AC2E90034234BD3E944
:1041A0000034264AC2E90034214BD3E90034244AC2
:1041B000C2E90034204BD3E900341846214602F00E
:1041C0002BFF02461F4B1A601A4BD3E900341846E6
:1041D000214602F021FF02461B4B1A60184BD3E91F
:1041E00000341846214602F017FF0246174B1A60AA
:1041F000124BD3E900341846214602F00DFF024667
:10420000134B1A6000BFF8BDC8010020080300204E
:1042100030030020A0030020A80300205803002042
:10422000B0030020B8030020C0030020C803002012
:10423000D0030020D8030020E0030020E803002082
:10424000F00300207C010020800100208401002078
:104250008801002080B582B000AF78607B685B4247
:1042600019460120FCF744FC7B685B42194602209A
:10427000FCF73EFC79680320FCF73AFC79680420DF
:10428000FCF736FC00BF0837BD4680BD80B582B064
:1042900000AF786079680120FCF72AFC7968022079
:1042A000FCF726FC7B685B4219460320FCF720FCE8
:1042B0007B685B4219460420FCF71AFC00BF0837F4
:1042C000BD4680BD80B582B000AF786079680120BE
:1042D000FCF70EFC7B685B4219460220FCF708FCE9
:1042E0007B685B4219460320FCF702FC79680420D6
:1042F000FCF7FEFB00BF0837BD4680BD80B582B02D
:1043000000AF78607B685B4219460120FCF7F0FB48
:1043100079680220FCF7ECFB79680320FCF7E8FBE6
:104320007B685B4219460420FCF7E2FB00BF0837BC
:10433000BD4680BD80B500AF00210120FCF7D8FB51
:1043400000210220FCF7D4FB00210320FCF7D0FB66
:1043500000210420FCF7CCFB00BF80BD80B485B0F9
:1043600000AF78600023FB60344BFB607B689B7977
:10437000002B4FD03149314B1A687B681B68DB43F7
:1043800013400B602D492D4B5A687B681B68DB433B
:1043900013404B607B681B791A46FB681344FB6033
:1043A000FB68FA6811687A6812680A431A60234940
:1043B000224B9A687B681B68DB4313408B601F4964
:1043C0001E4BDA687B681B68DB431340CB607B685D
:1043D0005B79102B0ED11949184B9A687B681B68C2
:1043E00013438B601549154BDA687B681B681343D0
:1043F000CB601DE0114BFB607B685B791A46FB6864
:104400001344FB60FB68FA6811687A6812680A4313
:104410001A600DE07B681B791A46FB681344FB6049
:10442000FB68FA6811687A681268D2430A401A6019
:1044300000BF1437BD4680BC704700BF003C014040
:1044400080B485B000AF78600023FB730023BB60AD
:104450000C4B1A687B681340BB600A4B5A697B6837
:104460001340002B05D0BB68002B02D00123FB7347
:1044700001E00023FB73FB7B18461437BD4680BC6C
:10448000704700BF003C014080B483B000AF78604B
:10449000034A7B68536100BF0C37BD4680BC704740
:1044A000003C014080B485B000AF78600023FB730E
:1044B0000023BB730F237B737B68DB78002B39D021
:1044C000274BDB68DB431B0ADBB203F00703FB73FC
:1044D000FB7BC3F10403BB737A7BFB7B42FA03F3E0
:1044E0007B737B685B781A46BB7B02FA03F3FB7332
:1044F0007B689A787B7B1340DAB2FB7B1343FB73B8
:10450000FB7B1B01FB73174A7B681B781344FA7B08
:1045100083F80023134A7B681B785B09DBB21846DB
:104520007B681B7803F01F03012101FA03F342F8B3
:1045300020300FE00B497B681B785B09DBB2184623
:104540007B681B7803F01F0301229A4000F12003CF
:1045500041F8232000BF1437BD4680BC704700BF20
:1045600000ED00E000E100E080B582B002AFFDF7B1
:104570003DFF164B1B68184602F060FA144B1B787F
:104580001A46144B1B780193009202460B461249BF
:104590001248FCF7C8FF114A00210020FDF731FF47
:1045A0000F4B1B781A460A4B1B781946094B1B7890
:1045B00000930B460B490948FCF7B5FF074A012158
:1045C0000020FDF71EFF00BFBD4680BD2C0400206B
:1045D000180400201904002050760008500500201F
:1045E0001B0400206076000880B584B000AF012174
:1045F0000420FCF72DFC0423BB6000233B73032342
:104600007B730023BB730223FB7307F10803194676
:104610004E48FDF771FD0823BB6000233B73032365
:104620007B730023BB730223FB7307F10803194656
:104630004648FDF761FD1023BB6000233B73032355
:104640007B730023BB730223FB7307F10803194636
:104650003E48FDF751FD2023BB6000233B7303233D
:104660007B730023BB730223FB7307F10803194616
:104670003648FDF741FD4023BB6000233B73032315
:104680007B730023BB730223FB7307F108031946F6
:104690002E48FDF731FD8023BB6000233B730323CD
:1046A0007B730023BB730223FB7307F108031946D6
:1046B0002648FDF721FD4FF48073BB6000233B7358
:1046C00003237B730023BB730223FB7307F10803EF
:1046D00019461E48FDF710FD4FF40073BB60002320
:1046E0003B7303237B730023BB730223FB7307F12C
:1046F000080319461548FDF7FFFC4FF48063BB60C3
:1047000000233B7303237B730023BB730223FB73E0
:1047100007F1080319460D48FDF7EEFC01210820BA
:10472000FCF796FB4FF4C0633B6000233B71002312
:10473000BB710223FB7103237B713B46194604487E
:10474000FDF7DAFC00BF1037BD4680BD000802400F
:10475000000C024080B500AF20211548FDF759FD3F
:1047600003461A46134B1A6004211148FDF751FD08
:1047700003461A46104B1A6010210D48FDF749FDFB
:1047800003461A460D4B1A6008210948FDF741FD02
:1047900003461A460A4B1A6040210548FDF739FDC9
:1047A00003461A46074B1A6000BF184680BD00BF7B
:1047B000000802403C0400203804002024040020AB
:1047C000540400206404002080B500AF0121074894
:1047D00000F019FB0346002B05D00121034800F02F
:1047E0003BFBFFF7C1FE00BF80BD00BF000C0040D7
:1047F00080B485B000AF786039600023FB817B68AE
:104800001B88FB817B68284A934213D07B68274A28
:1048100093420FD07B68B3F1804F0BD07B68244A62
:10482000934207D07B68234A934203D07B68224A95
:10483000934208D1FB8923F07003FB813B685A88BF
:10484000FB891343FB817B681C4A93420CD07B6835
:104850001B4A934208D0FB8923F44073FB813B68D9
:104860001A89FB891343FB817B68FA891A803B68AC
:104870005A687B68DA623B681A887B681A857B68AD
:10488000094A934203D07B68084A934204D13B68AB
:104890009B7A9AB27B681A867B6801229A8200BF53
:1048A0001437BD4680BC7047000001400004014041
:1048B0000004004000080040000C004000100040D0
:1048C0000014004080B483B000AF78600B46FB70EA
:1048D000FB78002B08D07B681B889BB243F0010358
:1048E0009AB27B681A8007E07B681B889BB223F032
:1048F00001039AB27B681A8000BF0C37BD4680BCAA
:104900007047000080B485B000AF78603960002344
:104910007B810023FB810023BB817B681B8C9BB2C6
:1049200023F001039AB27B681A847B681B8CFB819D
:104930007B689B88BB817B681B8B7B817B8923F099
:1049400070037B817B8923F003037B813B681A889A
:104950007B8913437B81FB8923F00203FB813B6846
:104960009A89FB891343FB813B685A88FB8913436F
:10497000FB817B681E4A934203D07B681D4A9342A9
:1049800023D1FB8923F00803FB813B68DA89FB898B
:104990001343FB81FB8923F00403FB813B689A8866
:1049A000FB891343FB81BB8923F48073BB81BB89E3
:1049B00023F40073BB813B681A8ABB891343BB8114
:1049C0003B685A8ABB891343BB817B68BA899A804A
:1049D0007B687A891A833B689A687B685A637B682C
:1049E000FA891A8400BF1437BD4680BC704700BFE7
:1049F000000001400004014080B485B000AF786041
:104A0000396000237B810023FB810023BB817B680D
:104A10001B8C9BB223F010039AB27B681A847B68CC
:104A20001B8CFB817B689B88BB817B681B8B7B819C
:104A30007B8923F4E0437B817B8923F440737B8172
:104A40003B681B881B029AB27B8913437B81FB89DD
:104A500023F02003FB813B689B891B019AB2FB89F1
:104A60001343FB813B685B881B019AB2FB891343AC
:104A7000FB817B68224A934203D07B68214A9342A0
:104A80002BD1FB8923F08003FB813B68DB891B0171
:104A90009AB2FB891343FB81FB8923F04003FB811E
:104AA0003B689B881B019AB2FB891343FB81BB893E
:104AB00023F48063BB81BB8923F40063BB813B6823
:104AC0001B8A9B009AB2BB891343BB813B685B8AFC
:104AD0009B009AB2BB891343BB817B68BA899A80D9
:104AE0007B687A891A833B689A687B689A637B68DB
:104AF000FA891A8400BF1437BD4680BC704700BFD6
:104B0000000001400004014080B485B000AF78602F
:104B1000396000237B810023FB810023BB817B68FC
:104B20001B8C9BB223F480739AB27B681A847B68D7
:104B30001B8CFB817B689B88BB817B689B8B7B810B
:104B40007B8923F070037B817B8923F003037B81C6
:104B50003B681A887B8913437B81FB8923F40073AC
:104B6000FB813B689B891B029AB2FB891343FB8143
:104B70003B685B881B029AB2FB891343FB817B680D
:104B8000224A934203D07B68214A93422BD1FB896E
:104B900023F40063FB813B68DB891B029AB2FB892B
:104BA0001343FB81FB8923F48063FB813B689B8873
:104BB0001B029AB2FB891343FB81BB8923F4805308
:104BC000BB81BB8923F40053BB813B681B8A1B015B
:104BD0009AB2BB891343BB813B685B8A1B019AB2C3
:104BE000BB891343BB817B68BA899A807B687A89C9
:104BF0009A833B689A687B68DA637B68FA891A84CF
:104C000000BF1437BD4680BC704700BF00000140A4
:104C10000004014080B485B000AF786039600023A3
:104C2000BB8100237B810023FB817B681B8C9BB2B3
:104C300023F480539AB27B681A847B681B8C7B8137
:104C40007B689B88FB817B689B8BBB81BB8923F442
:104C5000E043BB81BB8923F44073BB813B681B8865
:104C60001B029AB2BB891343BB817B8923F4005397
:104C70007B813B689B891B039AB27B8913437B81B1
:104C80003B685B881B039AB27B8913437B817B68FB
:104C9000114A934203D07B68104A93420AD1FB89A0
:104CA00023F48043FB813B681B8A9B019AB2FB89FA
:104CB0001343FB817B68FA899A807B68BA899A835F
:104CC0003B689A687B681A647B687A891A8400BF9B
:104CD0001437BD4680BC704700000140000401400D
:104CE00080B485B000AF78600B467B800023FB81E9
:104CF0007B681B8BFB81FB8923F00803FB81FA890E
:104D00007B881343FB817B68FA891A8300BF1437C1
:104D1000BD4680BC704780B485B000AF78600B465C
:104D20007B800023FB817B681B8BFB81FB8923F449
:104D30000063FB817B881B029AB2FB891343FB81D2
:104D40007B68FA891A8300BF1437BD4680BC704760
:104D500080B485B000AF78600B467B800023FB8178
:104D60007B689B8BFB81FB8923F00803FB81FA891D
:104D70007B881343FB817B68FA899A8300BF1437D1
:104D8000BD4680BC704780B485B000AF78600B46EC
:104D90007B800023FB817B689B8BFB81FB8923F459
:104DA0000063FB817B881B029AB2FB891343FB8162
:104DB0007B68FA899A8300BF1437BD4680BC704770
:104DC00080B483B000AF78600B467B8013467B7065
:104DD0007B78002B08D07B689B899AB27B88134331
:104DE0009AB27B689A8109E07B689B899AB27B883A
:104DF000DB439BB213409AB27B689A8100BF0C37A9
:104E0000BD4680BC704780B485B000AF78600B466B
:104E10007B800023FB730023BB8100237B817B68A5
:104E20001B8A9AB27B881340BB817B689B899AB2AC
:104E30007B8813407B81BB89002B05D07B89002BAD
:104E400002D00123FB7301E00023FB73FB7B1846B8
:104E50001437BD4680BC704780B483B000AF786023
:104E60000B467B807B88DB439AB27B681A8200BF4B
:104E70000C37BD4680BC704730B5224A21F0004354
:104E8000934287B01BDD204A934205DD02460B4664
:104E900001F074FC07B030BD02AA00F069F900F01F
:104EA0000303012B1AD0022B0FD01BB30124DDE921
:104EB0000423DDE90201009401F0EAF8EAE70022A8
:104EC000002300F079FB07B030BDDDE90423DDE904
:104ED000020100F071FB01F10041DBE7DDE904456F
:104EE0000093DDE9020122462B4601F0D1F801F1E1
:104EF0000041CFE7DDE90423DDE9020100F05CFBBE
:104F0000C8E700BFFB21E93FFFFFEF7F30B51F4A35
:104F100021F00043934287B01BDD1D4A934205DD1B
:104F200002460B4601F02AFC07B030BD02AA00F091
:104F30001FF900F003000128DDE904231AD002283C
:104F40000FD0E0B1DDE9020100F036FB01F10041D4
:104F5000EAE7002300930022002301F099F807B04C
:104F600030BD0124DDE90201009401F091F801F166
:104F70000041D9E7DDE9020100F01EFBD4E701247E
:104F8000DDE90201009401F083F8CDE7FB21E93F60
:104F9000FFFFEF7F00F000B82DE9F84F54421443B3
:104FA00023F00049704E49EAD474B44286460F4655
:104FB00040D84442044321F0004B4BEAD474B4423D
:104FC0008A4637D803F1404404F5801414434AD08C
:104FD0009C1704F0020444EAD17450EA0B0131D06A
:104FE00052EA090137D0B14552D0B34533D0ABEBCB
:104FF00009094FEA2959B9F13C0F3BDC002B66DB6C
:105000007046394601F098FE01F09CFA01F0F8F87C
:10501000012C58D0022C48D0002C5ED040A3D3E9FC
:10502000002301F0ABFB40A3D3E9002301F0A6FB72
:10503000BDE8F88F1046194672463B4601F0A0FBCA
:10504000BDE8F88F022C19D0032C10D138A1D1E97A
:105050000001BDE8F88FBAF1000F14DB36A1D1E9E9
:105060000001BDE8F88FBDE8F84F01F0C9B8394636
:10507000BDE8F88F30A1D1E90001C9E72AA1D1E943
:105080000001BDE8F88F2EA1D1E90001BDE8F88F3D
:10509000CB4524D0022CF1D0032CD7D0012C4FF0DB
:1050A000000027D00021BDE8F88F1DA3D3E900231D
:1050B00001F064FB02460B461BA1D1E9000101F09F
:1050C0005DFBBDE8F88F01F10041BDE8F88F19F1F3
:1050D0003C0F95DA002000219AE7BDE8F88F022CFA
:1050E00016D0032C0FD0012C08D017A1D1E9000154
:1050F000BDE8F88F4FF00041BDE8F88F14A1D1E969
:105100000001BDE8F88F14A1D1E90001BDE8F88FD6
:1051100013A1D1E90001BDE8F88F00BFAFF3008013
:10512000075C143326A6A13C182D4454FB210940EA
:10513000182D4454FB2109C0182D4454FB21F93F7C
:10514000182D4454FB21F9BF182D4454FB21E93F8D
:10515000182D4454FB21E9BFD221337F7CD902C0F2
:10516000D221337F7CD902400000F07F0000000094
:105170002DE9F04F9A4E21F00047B74291B040F32D
:105180008E809246974A97420C4626DC00298AA3D5
:10519000D3E9002340F3B48101F0F0FA924B9F422F
:1051A00004460D4600F0908085A3D3E9002301F06A
:1051B000E5FA02460B46CAE900232046294601F0DB
:1051C000DDFA7FA3D3E9002301F0D8FA0125CAE96B
:1051D0000201284611B0BDE8F08F844A974240F39F
:1051E0009080834A974265DC3D15A5F21645A7EBF2
:1051F000055319461F46064601F00EFF01F00CFC50
:105200008046894602460B4630463946CDE90A8932
:1052100001F0B4FA0022774B01F064FC8946804625
:1052200001F0FAFE01F0F8FB02460B4606460F4677
:1052300040464946CDE90C6701F0A0FA00226D4BCB
:1052400001F050FC00220023CDE90E0101F0B2FE76
:10525000002800F07381002330463946002201F017
:10526000A9FE002814BF01230223634A01920221F0
:105270002A4600910AA8514600F0C2FA002C0546C1
:1052800014DADAF80420DAF80C3002F1004203F103
:1052900000434542CAF80420CAF80C3006E0C2E9CF
:1052A000000100250024C2E902450025284611B06E
:1052B000BDE8F08F02460B4601F060FA0025CAE90E
:1052C0000201CAE90001F1E73FA3D3E9002301F09D
:1052D00055FA3FA3D3E900230D46044601F04EFAE8
:1052E00002460B46CAE900232946204601F046FA49
:1052F00037A3D3E9002301F041FA0125CAE90201ED
:10530000D4E701F01FF934A3D3E90023804689468E
:1053100001F0E8FB0022394B01F032FA01F07CFE8B
:10532000054601F079FB24A3D3E90023CDE904016C
:1053300001F0D8FB02460B464046494601F01EFAF2
:105340001FA3D3E9002380468946DDE9040101F06B
:10535000C9FB1F2DCDE9020154DC294B6A1E53F80D
:1053600022309F424ED002460B464046494601F04D
:1053700005FA02460B46CAE9002383460E465A4602
:1053800033464046494601F0F9F9DDE9022301F0D0
:10539000F5F9002C02460B46CAE9022386DA5B4681
:1053A00006F1004601F100418AE84800CAF80C10F5
:1053B000CAF808006D4279E700004054FB21F93F2C
:1053C0003163621A61B4D03D0000601A61B4D03D0F
:1053D0007370032E8A19A33B83C8C96D305FE43F05
:1053E000FB21E93F7BD90240FB21F93FFB213941F9
:1053F000FFFFEF7F00007041F07600080000E03F03
:1054000070760008DDE902234046494601F0B6F90E
:105410003A15C1F30A53D31A102B83460E4609924C
:10542000CAE90001ABDD58A3D3E90023DDE904019B
:1054300001F058FB06460F4602460B4640464946D9
:1054400001F09CF9CDE9060102460B46404649466B
:1054500001F094F932463B4601F090F94CA3D3E9B0
:10546000002306460F46DDE9040101F03BFB32460E
:105470003B4601F083F9DDE90689CDE902010246E8
:105480000B464046494601F079F90B46C1F30A57ED
:105490000E460999CF1B0246312F8346CAE90023E5
:1054A0006CDD3DA3D3E90023DDE9040101F01AFB23
:1054B00006460F4602460B4640464946CDE9068958
:1054C00001F05CF902460B4680468946DDE906019B
:1054D00001F054F932463B4601F050F930A3D3E9CC
:1054E000002306460F46DDE9040101F0FBFA3246CF
:1054F0003B4601F043F902460B46CDE9022334E76F
:1055000001F03EF92A4B9F4204460D4618D026A3CF
:10551000D3E9002301F034F902460B46CAE900231F
:105520002946204601F02AF91FA3D3E9002301F000
:1055300027F94FF0FF35CAE90201B7E6032394E6E5
:1055400011A3D3E9002301F01BF911A3D3E9002330
:105550000D46044601F014F902460B46CAE9002341
:105560002946204601F00AF909A3D3E9002301F0F6
:1055700007F94FF0FF35CAE9020197E6DDE9068930
:10558000FDE600BFAFF300800000601A61B4D03DBB
:105590007370032E8A19A33B0000002E8A19A33BC7
:1055A000C14920259A837B393163621A61B4D03DA9
:1055B000FB21F93F000000002DE9F04F21F00046EB
:1055C000B6F1795F85B00C4692469B4605466BDA8C
:1055D00001F022FD002800F0E8802A4623462846F4
:1055E000214601F07FFA74A3D3E90023804689465F
:1055F00001F078FA72A3D3E9002301F0C1F8424622
:105600004B4601F06FFA70A3D3E9002301F0B6F81E
:1056100042464B4601F066FA6DA3D3E9002301F040
:10562000AFF842464B4601F05DFA6BA3D3E9002385
:1056300001F0A4F842464B4601F054FA68A3D3E9BE
:10564000002301F09DF842464B4601F04BFACDE9AC
:1056500000010022644B4046494601F043FADDE96F
:10566000002306460F464046494601F03BFA5246A3
:10567000804689465B462846214601F033FA0246B9
:105680000B464046494601F079F802460B46304643
:10569000394601F073F802460B460020534901F0E9
:1056A0006DF805B0BDE8F08F02460B4601F01AFA1E
:1056B00041A3D3E900238046894601F013FA40A3B1
:1056C000D3E9002301F05CF842464B4601F00AFAA8
:1056D0003DA3D3E9002301F051F842464B4601F0C7
:1056E00001FA3BA3D3E9002301F04AF842464B46B6
:1056F00001F0F8F938A3D3E9002301F03FF842465E
:105700004B4601F0EFF936A3D3E9002301F038F856
:105710004B46424601F0E6F9354B9E42CDE9000189
:1057200097DD344B9E424FF0000238DCA6F50013A3
:1057300000202E4916461F4601F020F8CDE902014F
:105740000022294B4046494601F0CCF932463B46FF
:1057500001F014F8DDE9002306460F4640464946AD
:1057600001F0C0F95246804689465B4628462146EC
:1057700001F0B8F902460B464046494600F0FEFFEC
:1057800002460B463046394600F0F8FF02460B460B
:10579000DDE9020100F0F2FF05B0BDE8F08F164B25
:1057A000164FCDE902230026CAE71049002005B0B4
:1057B000BDE8F08FAFF30080D43888BEE9FAA8BD09
:1057C000C4B1B4BD9EEE213EAD529C804F7E923E50
:1057D0009015CB19A001FA3E7751C1166CC1563F06
:1057E0004C5555555555A53F0000E03F0000F03F92
:1057F0003233D33F0000E93F0000E73F0000D23FD3
:105800002DE9F04FADF5197D9C4CA29E9C4D54F8AE
:10581000264005942646D41E85FB0475E417C4EB88
:10582000A50424EAE4741D460893631CA3EB8303D8
:10583000013D02EBC30304932B4609940295651BBB
:10584000F418039006911AD42C4401340DF1780811
:1058500000260027DDF88C9208E059F8250001F0B9
:10586000DBF80135A542E8E9020108D0002DF4DAA1
:10587000013530463946A542E8E90201F6D1059BDB
:10588000002B2EDB089B4FEAC309039BA9F10808F4
:10589000984420AB9944059B70AA02EBC30B0DF50D
:1058A000DC7A029B002BC0F20F83039B4D46A3F1D1
:1058B00008040026002775E90223F4E9020101F03B
:1058C00011F902460B463046394600F059FF44456F
:1058D00006460F46EFD1EAE90267DA4509F1080901
:1058E000DFD10598089A009000F18043013B9B00AE
:1058F0000CAC191F234402F100520B93039B013A95
:1059000021440A9103EBC20B009A98A901EBC20350
:10591000002A53E9284513462BDD01EBC308A8F103
:10592000A8080DF12C090DF5DC7A0022554B204614
:10593000294601F0D7F801F06FFB01F06DF8002265
:10594000514B06460F4601F0CDF802460B46204665
:10595000294600F013FF01F05FFB78E8022349F8C5
:10596000040F3946304600F00BFFD04504460D4683
:10597000DBD1DDF81090204629464A4600F074FE3F
:1059800000224FF07F5304460D4601F0ABF800F0C3
:10599000DFFD00223D4B01F0A5F802460B462046F4
:1059A000294600F0EBFE0D46044601F035FB80462B
:1059B00001F032F80B4602462946204600F0DEFE92
:1059C0004B46002B06460F4640F3F780009A0CA981
:1059D000013AC9F1180351F8225045FA03F101FACE
:1059E00003F30CA8EB1A40F82230C9F117058844DC
:1059F00043FA05F5002D63DD009B002B08F101083B
:105A000040F381820C9C002C00F0188301200023BD
:105A10000CAAC4F1807442F82340009A824219DD36
:105A20000CAA0CAC52F820106FF07F42511A44F8C7
:105A300020100099023399420CDD1046009A0CA9FF
:105A400001EB830301EB82011A68821A43F8042BED
:105A50008B42F9D1049B002B1ADD049B012B4FF0E4
:105A6000010440F05882009B5A1E0CAB0CA953F85D
:105A70002230C3F3160341F8223058E23878000888
:105A8000ABAAAA2A0000703E00007041000020402E
:105A9000022D15D132463B460020974900F06EFE9C
:105AA00006460F46049A9449002000F0DDFD0246A8
:105AB0000B463046394600F061FE022506460F4689
:105AC000002200233046394601F074FA002800F025
:105AD0005282009A059B501E83420FDC02F18043E4
