:020000040800F2
:10000000B80D0020190800087908000879080008D0
:100010007908000879080008790800080000000045
:100020000000000000000000000000007908000847
:100030007908000800000000790800089D1E0008EB
:10004000790800087908000879080008790800088C
:100050007908000879080008211D00083F1D0008E4
:100060005D1D00087B1D0008991D00087908000827
:10007000790800087908000879080008790800085C
:10008000790800087908000879080008790800084C
:10009000790800087908000879080008B71D0008E9
:1000A000790800087908000879080008790800082C
:1000B0008D2F0008790800087908000879080008E1
:1000C000790800087908000879080008790800080C
:1000D000790800087908000851020008552800082E
:1000E00079080008790800087908000879080008EC
:1000F00079080008790800087908000879080008DC
:100100007908000879080008ED450008790800081A
:1001100079080008790800087908000879080008BB
:1001200079080008790800087908000879080008AB
:10013000790800087908000879080008790800089B
:10014000790800087908000879080008790800088B
:10015000790800087908000879080008790800087B
:10016000790800087908000879080008790800086B
:10017000790800087908000879080008790800085B
:10018000790800087908000880B588B000AF01211F
:10019000012000F0F3FD01214FF4003000F00CFECF
:1001A0000C237B6102237B7602233B760023BB7604
:1001B0000023FB7607F114031946234801F0BAFE29
:1001C00007220321204801F077FF072202211E4861
:1001D00001F072FF01214FF4003000F0EDFD1B48EB
:1001E00000F026F94FF416537B6000233B81002377
:1001F0007B810023BB8100233B820C23FB813B1DC1
:100200001946124800F07EF90121104800F034FA36
:10021000012240F225510D4800F05CFA26233B777D
:1002200000237B770023BB770123FB7707F11C03B7
:10023000184604F0B3F80121044800F01DFA00BF8D
:100240002037BD4680BD00BF000002400044004092
:1002500080B500AF40F22551434800F082FA0346D2
:10026000002B7ED0404800F026FA0346DAB23F4B1E
:100270001A703F4B1B78782B08D13C4B1B781A46E1
:100280003C4B1A603A4B00221A7043E0384B1B7803
:10029000792B08D1354B1B781A46374B1A60344BF3
:1002A00000221A7036E0324B1B78582B08D12F4BA6
:1002B0001B781A46314B1A602D4B00221A7029E028
:1002C0002B4B1B78592B08D1284B1B781A462C4BEB
:1002D0001A60274B00221A701CE0254B1B78672BF5
:1002E00007D1224B1A78274B1A70214B00221A7023
:1002F00010E01F4B1B78732B08D11C4B1B781A4640
:10030000214B1A601A4B00221A7003E0174B1A781F
:10031000174B1A701D4B1A68164B1B689A4205D171
:100320001B4B1A68144B1B689A4212D0114B1B6866
:10033000184606F06FFE0246164B1A600E4B1B68FD
:10034000184606F067FE0246134B1A60134B012253
:100350001A60084B1B680D4A1360074B1B680C4A58
:10036000136000BF80BD00BF00440040F5030020C3
:10037000F4030020EC030020C0030020D003002081
:10038000D8030020CB030020C4030020E403002096
:10039000E00300206C050020AC050020640500206F
:1003A00080B500AFFFF7F0FE00BF80BD90B484B011
:1003B00000AF03460A46FB711346BB710023FB6086
:1003C000BB7903F003039B000F2202FA03F3FB60E7
:1003D0001649BB799B08DBB21846144ABB799B08C7
:1003E000DBB2023352F82320FB68DB431A40831C44
:1003F00041F823200D48BB799B08DBB21C460B4A11
:10040000BB799B08DBB2023352F82320F979BB7920
:1004100003F003039B0001FA03F31A43A31C40F803
:10042000232000BF1037BD4690BC70470038014004
:1004300080B582B000AF78607B682C4A934208D1C7
:100440000121102000F012FD0021102000F00EFD0F
:1004500047E07B68264A93420AD101214FF40030DD
:1004600000F0E6FC00214FF4003000F0E1FC38E041
:100470007B68204A93420AD101214FF4802000F08A
:10048000D7FC00214FF4802000F0D2FC29E07B68EB
:10049000194A93420AD101214FF4002000F0C8FC10
:1004A00000214FF4002000F0C3FC1AE07B68134ADF
:1004B00093420AD101214FF4801000F0B9FC0021D1
:1004C0004FF4801000F0B4FC0BE07B680C4A9342C0
:1004D00007D10121202000F0C9FC0021202000F0DC
:1004E000C5FC00BF0837BD4680BD00BF00100140FD
:1004F0000044004000480040004C004000500040D4
:100500000014014080B58AB000AF786039600023E4
:100510007B6200233B620023FB610023BB617B689D
:100520001B8A9BB27B627B6A23F440537B623B68ED
:10053000DB881A467B6A13437B627B6A9AB27B68CC
:100540001A827B689B899BB27B627B6A23F4B053DF
:1005500023F00C037B623B689A883B681B8913433A
:100560009AB23B685B8913439BB21A467B6A13437A
:100570007B627B6A9AB27B689A817B689B8A9BB21A
:100580007B627B6A23F440737B623B689B891A46DB
:100590007B6A13437B627B6A9AB27B689A8207F11B
:1005A0000803184600F042FB7B68304A934203D0B0
:1005B0007B682F4A934202D17B693B6201E03B6931
:1005C0003B627B689B899BB21BB2002B0CDA3A6AB8
:1005D00013469B0013449A001A443B681B685B0057
:1005E000B2FBF3F3FB610BE03A6A13469B00134442
:1005F0009A001A443B681B689B00B2FBF3F3FB6153
:10060000FB691C4AA2FB03235B091B017B627B6A1B
:100610001B09642202FB03F3FA69D31ABB617B68EE
:100620009B899BB21BB2002B0CDABB69DB00323317
:10063000104AA2FB03235B0903F007037A6A134302
:100640007B620BE0BB691B0132330A4AA2FB032326
:100650005B0903F00F037A6A13437B627B6A9AB2E9
:100660007B681A8100BF2837BD4680BD001001405D
:10067000001401401F85EB5180B483B000AF786057
:100680000B46FB70FB78002B08D07B689B899BB2E4
:1006900043F400539AB27B689A8107E07B689B8998
:1006A0009BB223F400539AB27B689A8100BF0C3747
:1006B000BD4680BC704780B483B000AF78607B6873
:1006C0009B889BB2C3F308039BB218460C37BD4608
:1006D00080BC704780B487B000AF78600B467B80E9
:1006E00013467B7000233B610023FB600023BB604B
:1006F00000237B617B687B617B88DBB25B09DBB2BB
:100700003B617B8803F01F03FB600122FB6802FA58
:1007100003F3BB603B69012B03D17B690C337B6125
:1007200009E03B69022B03D17B6910337B6102E056
:100730007B6914337B617B78002B06D07B697A69F7
:100740001168BA680A431A6006E07B697A69116821
:10075000BA68D2430A401A6000BF1C37BD4680BC4D
:10076000704780B487B000AF78600B467B80002371
:10077000FB6000237B610023BB600023FB747B884C
:10078000DBB25B09DBB2BB607B8803F01F037B61DC
:1007900001227B6902FA03F37B61BB68012B07D15D
:1007A0007B689B899BB21A467B6913407B6111E091
:1007B000BB68022B07D17B681B8A9BB21A467B69F8
:1007C00013407B6106E07B689B8A9BB21A467B697B
:1007D00013407B617B881B0A9BB2FB600122FB6894
:1007E00002FA03F3FB607B681B889BB21A46FB6826
:1007F0001340FB607B69002B05D0FB68002B02D007
:100800000123FB7401E00023FB74FB7C18461C37BA
:10081000BD4680BC7047000080B582B000AF114B70
:100820007B60114B3B6007E03B681A1D3A607A68B9
:10083000111D796012681A603B680C4A9342F3D329
:100840000B480C494FF000028842B8BF40F8042B17
:10085000FADB01F0FBFE00F073F900BF0837BD467C
:1008600080BD00BF8076000800000020F40000205A
:10087000F8000020B405002080B400AFFEE70000BF
:1008800080B584B000AF0121042000F095FA002368
:10089000BB800023FB804FF6FF73BB600023BB814E
:1008A0000023BB733B1D1946054803F0BBFE012125
:1008B000034803F021FF00BF1037BD4680BD00BFD5
:1008C0000008004080B586B000AFFFF7D9FF702365
:1008D000BB800123FB8002233B8240F63303FB6095
:1008E0003B1D1946184803F027FF0821164804F05D
:1008F00011F941F26703FB603B1D1946124803F0F2
:1009000095FF0821104804F020F941F69B03FB6095
:100910003B1D19460C4804F011F808210A4804F060
:1009200031F942F2CF03FB603B1D1946064804F043
:100930008BF80821044804F040F900F007F800BFE4
:100940001837BD4680BD00BF0008004080B582B0AA
:1009500000AF0121082000F011FA02220C212748E3
:1009600001F0AAFB02220D21244801F0A5FB02227E
:100970000E21224801F0A0FB02220F211F4801F0A6
:100980009BFB4FF47F433B600023BB710023FB7153
:1009900002233B7103237B713B461946174801F044
:1009A000C9FA0121022000F0E9F94FF470433B60DD
:1009B0000023BB710023FB7101233B7103237B7177
:1009C0003B4619460E4801F0B5FA0121102000F00F
:1009D000D5F94FF470433B600023BB710023FB71DA
:1009E00001233B7103237B713B461946054801F007
:1009F000A1FA00BF0837BD4680BD00BF000C024011
:100A0000000402400010024080B584B000AF0346ED
:100A10003960FB713B68002BCCBF01230023FB73C3
:100A20003B68002BB8BF5B423B60FB79013B032B6B
:100A30007AD801A252F823F0490A0008810A000876
:100A4000B90A0008F10A0008FB7B002B0AD04FF41A
:100A50008051384801F014FB4FF40051354801F043
:100A60001DFB09E04FF40051324801F009FB4FF43F
:100A70008051304801F012FB2F4A3B68536354E029
:100A8000FB7B002B0AD04FF480412A4801F0F8FA92
:100A90004FF40041274801F001FB09E04FF4004109
:100AA000244801F0EDFA4FF48041224801F0F6FAB3
:100AB000214A3B68936338E0FB7B002B0AD04FF45C
:100AC00080511E4801F0DCFA4FF480411B4801F0D0
:100AD000E5FA09E04FF48041184801F0D1FA4FF4EB
:100AE0008051164801F0DAFA134A3B68D3631CE0E0
:100AF000FB7B002B0AD04FF40051104801F0C0FAE4
:100B00004FF400410D4801F0C9FA09E04FF40041EB
:100B10000A4801F0B5FA4FF40051084801F0BEFA56
:100B2000054A3B68136400E000BF00BF1037BD46B4
:100B300080BD00BF000402400008004000100240D9
:100B400090B585B004AF01F081FD01F04BFB01F0E1
:100B5000C9F903F05FFD01F063FB03F0C1FC01F094
:100B6000E7FFFFF71DFC01F019FE01F0EDFA01F0BF
:100B70001BFB41F2883001F079F902F0ABF94FF03C
:100B800000034FF00004CDE902344FF000034FF0B2
:100B90000004CDE900344FF000024FF000034FF0A5
:100BA00000004FF0000102F087F840F6B83001F085
:100BB0005DF902F0D5FBFCE780B483B000AF0346DB
:100BC000FB71054B00221A70034AFB79137000BFBA
:100BD0000C37BD4680BC70470238024080B582B0F9
:100BE00000AF00233B600023FB710023BB71312069
:100BF00000F05AF90346BB713B6801333B603B6828
:100C0000B3F5A06F02D0BB79002BF0D0312000F0FB
:100C10004BF90346002B02D00123FB7101E00023B6
:100C2000FB71FB7918460837BD4680BD80B489B09A
:100C300000AF78600023BB6100237B610023FB6170
:100C400002233B610023FB600223BB60474B9B6890
:100C500003F00C03BB61BB69042B07D0082B09D040
:100C6000002B3DD17B68424A1A603DE07B68414AD7
:100C70001A6039E03D4B5B689B0D03F00103FB609C
:100C80003A4B5B6803F03F03BB60FB68002B0CD062
:100C9000384ABB68B2FBF3F3344A52689209C2F394
:100CA000080202FB03F3FB610BE0314ABB68B2FBB5
:100CB000F3F32E4A52689209C2F3080202FB03F3CF
:100CC000FB612A4B5B681B0C03F0030301335B00E1
:100CD0003B61FA693B69B2FBF3F27B681A6003E09F
:100CE0007B68234A1A6000BF204B9B6803F0F00327
:100CF000BB61BB691B09BB611F4ABB6913441B78FD
:100D0000DBB27B617B681A687B69DA407B685A607A
:100D1000164B9B6803F4E053BB61BB699B0ABB6144
:100D2000154ABB6913441B78DBB27B617B685A6848
:100D30007B69DA407B689A600C4B9B6803F46043E4
:100D4000BB61BB695B0BBB610B4ABB6913441B787E
:100D5000DBB27B617B685A687B69DA407B68DA606A
:100D600000BF2437BD4680BC704700BF003802403A
:100D70000024F40000127A000000002080B483B048
:100D800000AF78600B46FB70FB78002B06D009495A
:100D9000084B1A6B7B6813430B6306E00549054B50
:100DA0001A6B7B68DB4313400B6300BF0C37BD46F7
:100DB00080BC70470038024080B483B000AF7860D8
:100DC0000B46FB70FB78002B06D00949084B1A6CC8
:100DD0007B6813430B6406E00549054B1A6C7B687E
:100DE000DB4313400B6400BF0C37BD4680BC70472B
:100DF0000038024080B483B000AF78600B46FB70CF
:100E0000FB78002B06D00949084B5A6C7B681343CA
:100E10004B6406E00549054B5A6C7B68DB43134085
:100E20004B6400BF0C37BD4680BC704700380240A1
:100E300080B483B000AF78600B46FB70FB78002B6A
:100E400006D00949084B1A6A7B6813430B6206E017
:100E50000549054B1A6A7B68DB4313400B6200BFF0
:100E60000C37BD4680BC70470038024080B483B068
:100E700000AF78600B46FB70FB78002B06D0094969
:100E8000084B5A6A7B6813434B6206E00549054BE1
:100E90005A6A7B68DB4313404B6200BF0C37BD4688
:100EA00080BC70470038024080B487B000AF034672
:100EB000FB710023FB6000237B610023FB74FB7943
:100EC0005B09DBB2FB60FB68012B03D1124B1B6893
:100ED0007B6109E0FB68022B03D10F4B1B6F7B6129
:100EE00002E00D4B5B6F7B61FB7903F01F03FB603E
:100EF0007A69FB6822FA03F303F00103002B02D0A6
:100F00000123FB7401E00023FB74FB7C18461C37B3
:100F1000BD4680BC704700BF0038024080B483B03B
:100F200000AF78600B46FB707B68FA781A7001237B
:100F300018460C37BD4680BC704780B485B000AF02
:100F4000786039600023FB600AE07B685A1C7A6095
:100F50003A68511C396012781A70FB680133FB60E3
:100F60003B681B78002BF0D1FB6818461437BD4650
:100F700080BC704780B586B000AFF8607A603B6097
:100F80000B46FB7200237B617B68013B7B603B6807
:100F9000092B1DD93B681D4AA2FB0323DB08F97A04
:100FA0007A68F868FFF7E6FF78617B69FA681344AE
:100FB000FB6010E0FB7A1946F868FFF7AFFFFB68AB
:100FC0000133FB607B6901337B617B68013B7B60A4
:100FD0007B68002BEEDC39680C4BA3FB0123DA089D
:100FE00013469B0013445B00CA1AD3B23033DBB202
:100FF0001946F868FFF792FF02467B6913447B614C
:101000007B6918461837BD4680BD00BFCDCCCCCC1F
:1010100080B586B000AFF8607A603B600B46FB722B
:1010200000237B613B68002B03DA3B685B423B613A
:1010300001E03B683B617B68013B7B603B69092BBE
:101040001FD93B68002B0CDA3B692E4AA2FB032315
:10105000DB085B42F97A7A68F868FFF7D9FF7861B4
:101060000AE03B69274AA2FB0323DB08F97A7A6886
:10107000F868FFF7CDFF78617B69FA681344FB607D
:1010800025E03B68002B11DA7B68013B7B600DE0BB
:10109000FB7A1946F868FFF741FFFB680133FB60F4
:1010A0007B6901337B617B68013B7B607B68002B44
:1010B000EEDC3B68002B0ADA2D21F868FFF72EFFE3
:1010C00002467B6913447B61FB680133FB6039692D
:1010D0000C4BA3FB0123DA0813469B0013445B006F
:1010E000CA1AD3B23033DBB21946F868FFF716FFDD
:1010F00002467B6913447B617B6918461837BD46FD
:1011000080BD00BFCDCCCCCC80B588B002AFF8603C
:101110007A601A460B46FB721346BB7200237B6152
:101120007B68013B7B603B6A1B09002B20D03B6A3C
:101130001B09BA7AF97A009313467A68F868FFF7C0
:10114000E3FF02467B6913447B617B69FA681344C1
:10115000FB6010E0FB7A1946F868FFF7DFFEFB68DA
:101160000133FB607B6901337B617B68013B7B6002
:101170007B68002BEEDC3B6A03F00F03092B0BD8D6
:101180003B6ADBB203F00F03DBB23033DBB219464C
:10119000F868FFF7C3FE19E0BB7A002B0BD03B6A5F
:1011A000DBB203F00F03DBB23733DBB21946F8686A
:1011B000FFF7B4FE0AE03B6ADBB203F00F03DBB2D9
:1011C0005733DBB21946F868FFF7A8FE7B69013395
:1011D0007B617B6918461837BD4680BD80B58AB0F3
:1011E00002AFF860B9607A603B600023BB61002306
:1011F0007B61FB68002B00F0FC80FB6800221A700A
:10120000F7E07B681B78252B0BD0FB685A1CFA6033
:101210007A68511C796012781A707B6901337B619E
:10122000E7E07B6801331B78252B0BD1FB685A1C48
:10123000FA6025221A707B6802337B607B69013378
:101240007B61D6E02023FB770023BB777B680133EB
:101250007B607B681B78302B14D13023FB777B6855
:1012600001337B600EE0BB7F1A46920013445B00A3
:10127000DAB27B681B781344DBB2303BBB777B6808
:1012800001337B607B681B782F2B03D97B681B782D
:10129000392BE8D9BA7F7B6913441A46BB689A4256
:1012A00005D9BB68DAB27B69DBB2D31ABB777B683E
:1012B0001B78583B202B00F28E8001A252F823F0BD
:1012C00091130008D7130008D7130008D71300089C
:1012D000D7130008D7130008D7130008D713000846
:1012E000D7130008D7130008D7130008C11300084C
:1012F00045130008D7130008D7130008D7130008B8
:10130000D713000845130008D7130008D7130008A7
:10131000D7130008D7130008D7130008D713000805
:10132000D7130008D7130008D7130008AD1300081F
:10133000D71300085D130008D7130008D71300085F
:1013400075130008B87F3B681A1D3A601B68F97F67
:101350000246F868FFF75CFEB8613FE0B87F3B6883
:101360001A1D3A601B68F97F0246F868FFF702FE13
:10137000B86133E0B87F3B681A1D3A601B68F97F9B
:10138000009300230246F868FFF7BEFEB86125E02F
:10139000B87F3B681A1D3A601B68F97F00930123F0
:1013A0000246F868FFF7B0FEB86117E03B681A1D07
:1013B0003A601B681946F868FFF7BFFDB8610DE099
:1013C0003B681A1D3A601B68DBB21946F868FFF7E4
:1013D000A5FDB86102E04FF0FF3325E07B680133E3
:1013E0007B60BB69FA681344FB607A69BB6913448C
:1013F0007B617B681B78002B04D07A69BB689A42BA
:10140000FFF4FFAE7A69BB689A4203D2FB68002200
:101410001A7008E0FB68013BFB60FB6800221A7051
:101420007B69013B7B617B6918462037BD4680BDE7
:1014300080B584B000AFF860B9607A607B68BA6844
:101440006421F868FFF7CAFE034618461037BD4608
:1014500080BD0EB480B585B000AF786007F1200381
:10146000BB60BA68F9697868FFF7E2FFF860FB686B
:1014700018461437BD46BDE8804003B070470000F1
:1014800090B589B000AF786001210820FFF776FCA5
:1014900001214FF48040FFF7ADFC00233B77002390
:1014A000BB770123FB7703237B770123BB6107F124
:1014B000180319461E4800F03DFD1023BB6107F1DB
:1014C000180319461A4800F035FD00210320FEF7E5
:1014D0006DFF01233B610123BB7500233B75102386
:1014E0007B7507F11003184602F0B4FE06233B7328
:1014F00003237B730023BB730123FB7307F10C03EE
:10150000184602F04BFF0B4B00221A607A684FF02E
:1015100000034FF00004C2E902347A684FF0000380
:101520004FF00004C2E9003400BF2437BD4690BD2F
:10153000000C02400C04002090B589B000AF786028
:1015400001210820FFF71AFC01214FF48040FFF72A
:1015500051FC00233B770023BB770123FB77032358
:101560007B770223BB6107F1180319461E4800F080
:10157000E1FC2023BB6107F1180319461A4800F06B
:10158000D9FC01210320FEF711FF02233B61012357
:10159000BB7500233B7510237B7507F110031846BC
:1015A00002F058FE07233B7303237B730023BB73B6
:1015B0000123FB7307F10C03184602F0EFFE0B4BFF
:1015C00000221A607A684FF000034FF00004C2E96D
:1015D00002347A684FF000034FF00004C2E900348F
:1015E00000BF2437BD4690BD000C02400804002017
:1015F00090B589B000AF786001210820FFF7BEFBED
:1016000001214FF48040FFF7F5FB00233B770023D7
:10161000BB770123FB7703237B770423BB6107F1AF
:10162000180319461E4800F085FC4023BB6107F1F2
:10163000180319461A4800F07DFC02210320FEF72A
:10164000B5FE04233B610123BB7500233B751023CA
:101650007B7507F11003184602F0FCFD08233B736D
:1016600003237B730023BB730123FB7307F10C037C
:10167000184602F093FE0B4B00221A607A684FF076
:1016800000034FF00004C2E902347A684FF000030F
:101690004FF00004C2E9003400BF2437BD4690BDBE
:1016A000000C02401004002090B589B000AF7860B3
:1016B00001210820FFF762FB01214FF48040FFF772
:1016C00099FB00233B770023BB770123FB770323A0
:1016D0007B770823BB6107F1180319461E4800F009
:1016E00029FC8023BB6107F1180319461A4800F052
:1016F00021FC03210320FEF759FE08233B6101234F
:10170000BB7500233B7510237B7507F1100318464A
:1017100002F0A0FD09233B7303237B730023BB73FB
:101720000123FB7307F10C03184602F037FE0B4B45
:1017300000221A607A684FF000034FF00004C2E9FB
:1017400002347A684FF000034FF00004C2E900341D
:1017500000BF2437BD4690BD000C024004040020A9
:1017600090B589B000AF786001210220FFF706FB39
:1017700001214FF48040FFF73DFB00233B7700231E
:10178000BB770123FB7703237B771023BB6107F132
:10179000180319461E4800F0CDFB0423BB6107F176
:1017A000180319461A4800F0C5FB04210120FEF772
:1017B000FDFD10233B610123BB7500233B75102306
:1017C0007B7507F11003184602F044FD0A233B73B2
:1017D00003237B730023BB730123FB7307F10C030B
:1017E000184602F0DBFD0B4B00221A607A684FF0BE
:1017F00000034FF00004C2E902347A684FF000039E
:101800004FF00004C2E9003400BF2437BD4690BD4C
:1018100000040240FC03002090B589B000AF78605E
:1018200001210220FFF7AAFA01214FF48040FFF7BF
:10183000E1FA00233B770023BB770123FB770323E7
:101840007B772023BB6107F1180319461E4800F07F
:1018500071FB0823BB6107F1180319461A4800F011
:1018600069FB05210120FEF7A1FD20233B61012337
:10187000BB7500233B7510237B7507F110031846D9
:1018800002F0E8FC17233B7303237B730023BB7335
:101890000123FB7307F10C03184602F07FFD0B4B8D
:1018A00000221A607A684FF000034FF00004C2E98A
:1018B00002347A684FF000034FF00004C2E90034AC
:1018C00000BF2437BD4690BD000402400004002044
:1018D00090B583B000AF78601A4B1B68184604F0CF
:1018E000B7FF7B68D3E900341A46234604F062FE52
:1018F00003460C467A68C2E90234124B1B6818464C
:1019000004F0A6FF03460C467A68C2E900340D4B8A
:101910001B68002B04DA7B6801221A7401230CE097
:10192000084B1B68002B04DD7B6800221A7400231F
:1019300003E07B6802221A74022318460C37BD4666
:1019400090BD00BF0C04002090B583B000AF78605C
:101950001A4B1B68184604F07BFF7B68D3E9003400
:101960001A46234604F026FE03460C467A68C2E96E
:101970000234124B1B68184604F06AFF03460C46FB
:101980007A68C2E900340D4B1B68002B04DA7B68CF
:1019900001221A7401230CE0084B1B68002B04DDA4
:1019A0007B6800221A74002303E07B6802221A7409
:1019B000022318460C37BD4690BD00BF0804002026
:1019C00090B583B000AF78601A4B1B68184604F0DE
:1019D0003FFF7B68D3E900341A46234604F0EAFD52
:1019E00003460C467A68C2E90234124B1B6818465B
:1019F00004F02EFF03460C467A68C2E900340D4B12
:101A00001B68002B04DA7B6801221A7401230CE0A6
:101A1000084B1B68002B04DD7B6800221A7400232E
:101A200003E07B6802221A74022318460C37BD4675
:101A300090BD00BF1004002090B583B000AF786067
:101A40001A4B1B68184604F003FF7B68D3E9003487
:101A50001A46234604F0AEFD03460C467A68C2E9F6
:101A60000234124B1B68184604F0F2FE03460C4683
:101A70007A68C2E900340D4B1B68002B04DA7B68DE
:101A800001221A7401230CE0084B1B68002B04DDB3
:101A90007B6800221A74002303E07B6802221A7418
:101AA000022318460C37BD4690BD00BF0404002039
:101AB00080B582B000AF0121144800F0C8FA034697
:101AC000FB711021114800F0C2FA0346BB71104BA4
:101AD0001B78FA799A4214D00D4AFB7913700C4B9B
:101AE0001B78002B0DD1BB79012B05D1094B1B684D
:101AF0000133084A136004E0064B1B68013B054AAA
:101B0000136000BF0837BD4680BD00BF000C024017
:101B1000100000200C04002080B582B000AF02212C
:101B2000144800F094FA0346FB712021114800F09C
:101B30008EFA0346BB71104B1B78FA799A4214D087
:101B40000D4AFB7913700C4B1B78002B0DD1BB7920
:101B5000012B05D1094B1B680133084A136004E0CF
:101B6000064B1B68013B054A136000BF0837BD46A2
:101B700080BD00BF000C02401100002008040020BE
:101B800080B582B000AF0421144800F060FA03462B
:101B9000FB714021114800F05AFA0346BB71104B0B
:101BA0001B78FA799A4214D00D4AFB7913700C4BCA
:101BB0001B78002B0DD1BB79012B05D1094B1B687C
:101BC0000133084A136004E0064B1B68013B054AD9
:101BD000136000BF0837BD4680BD00BF000C024047
:101BE000120000201004002080B582B000AF082150
:101BF000144800F02CFA0346FB718021114800F0D4
:101C000026FA0346BB71104B1B78FA799A4214D01E
:101C10000D4AFB7913700C4B1B78002B0DD1BB794F
:101C2000012B05D1094B1B680133084A136004E0FE
:101C3000064B1B68013B054A136000BF0837BD46D1
:101C400080BD00BF000C02401300002004040020EF
:101C500080B582B000AF1021144800F0F8F90346B7
:101C6000FB710421114800F0F2F90346BB71104BDF
:101C70001B78FA799A4214D00D4AFB7913700C4BF9
:101C80001B78002B0DD1BB79012B05D1094B1B68AB
:101C90000133084A136004E0064B1B68013B054A08
:101CA000136000BF0837BD4680BD00BF000402407E
:101CB00014000020FC03002080B582B000AF20217A
:101CC000144800F0C4F90346FB710821114800F0E4
:101CD000BEF90346BB71104B1B78FA799A4214D0B7
:101CE0000D4AFB7913700C4B1B78002B0DD1BB797F
:101CF000012B05D1094B1B680133084A136004E02E
:101D0000064B1B68013B054A136000BF0837BD4600
:101D100080BD00BF00040240150000200004002028
:101D200080B500AF012002F007FB0346002B04D072
:101D3000FFF7BEFE012002F023FB00BF80BD80B58F
:101D400000AF022002F0F8FA0346002B04D0FFF7A0
:101D5000E3FE022002F014FB00BF80BD80B500AF9F
:101D6000042002F0E9FA0346002B04D0FFF708FF35
:101D7000042002F005FB00BF80BD80B500AF082045
:101D800002F0DAFA0346002B04D0FFF72DFF0820FB
:101D900002F0F6FA00BF80BD80B500AF102002F05F
:101DA000CBFA0346002B04D0FFF752FF102002F0BD
:101DB000E7FA00BF80BD80B500AF202002F0BCFA7A
:101DC0000346002B04D0FFF777FF202002F0D8FA5B
:101DD00000BF80BD80B483B000AF03463960FB71A3
:101DE00097F90730002B0BDA0D49FB7903F00F034D
:101DF000043B3A68D2B21201D2B20B441A7609E01F
:101E0000084997F907303A68D2B21201D2B20B44AE
:101E100083F8002300BF0C37BD4680BC704700BF6D
:101E200000ED00E000E100E080B582B000AF786036
:101E30007B68B3F1807F01D3012311E00A4A7B68FC
:101E400023F07F43013B53600F214FF0FF30FFF73A
:101E5000C1FF054B00229A60034B07221A60002342
:101E600018460837BD4680BD10E000E080B483B05E
:101E700000AF78607B684FF47A7202FB03F3064A86
:101E8000136000BF044B1B68002BFBD100BF0C3755
:101E9000BD4680BC704700BFF800002080B400AF92
:101EA0000D4B1B6801330C4A13600C4B1B68002B55
:101EB00004D00A4B1B68013B084A1360084B1B689F
:101EC000002B04D0064B1B68013B054A136000BF82
:101ED000BD4680BC704700BFFC0000200001002010
:101EE000F800002080B500AF0F4B1B78002B19D1F4
:101EF0000120FEF761FE00BFFEF770FE0346002BD7
:101F0000FAD00A4B1B680A4AA2FB03239B0C184613
:101F1000FFF78AFF0346002B00D0FEE7024B0122A9
:101F20001A7000E000BF80BD040100209000002076
:101F300083DE1B4380B487B000AF78603960002334
:101F40007B6100233B610023FB6000237B6176E023
:101F500001227B6902FA03F33B613B681A683B6923
:101F60001340FB60FA683B699A4265D17B681A6846
:101F70007B695B00032101FA03F3DB431A407B68B2
:101F80001A607B681A683B681B7919467B695B009D
:101F900001FA03F31A437B681A603B681B79012B33
:101FA00003D03B681B79022B2ED17B689A687B6932
:101FB0005B00032101FA03F3DB431A407B689A605C
:101FC0007B689A683B685B7919467B695B0001FA1C
:101FD00003F31A437B689A607B685A687B699BB2FB
:101FE000194601238B40DB431A407B685A607B68AB
:101FF0005B683A68927911467A6992B201FA02F204
:1020000092B21A437B685A607B68DA687B699BB23C
:102010005B00032101FA03F3DB431A407B68DA60BB
:102020007B68DA683B68DB7919467B695B0001FAFB
:1020300003F31A437B68DA607B6901337B617B6958
:102040000F2B85D900BF1C37BD4680BC704780B4BC
:1020500085B000AF78600B467B800023FB737B6804
:102060001A697B881340002B02D00123FB7301E027
:102070000023FB73FB7B18461437BD4680BC7047BA
:1020800080B483B000AF78600B467B807B687A8831
:102090001A8300BF0C37BD4680BC704780B483B044
:1020A00000AF78600B467B807B687A885A8300BFDC
:1020B0000C37BD4680BC704780B485B000AF7860F7
:1020C0000B467B8013467B700023FB600023BB60C4
:1020D0007A787B8803F007039B0002FA03F3FB6026
:1020E0007B88DB089BB218467B88DB089BB21A46CC
:1020F0007B68083253F822207B8803F007039B009B
:102100000F2101FA03F3DB4302EA03017B6800F1CC
:10211000080243F822107B88DB089BB21A467B68D2
:10212000083253F82220FB681343BB607B88DB082E
:102130009BB21A467B680832B96843F8221000BF88
:102140001437BD4680BC704780B582B000AF012116
:102150000220FEF713FE4FF44C733B6002237B71A9
:1021600001233B710023BB710023FB713B461946E1
:102170000C48FFF7DFFE01210120FEF7FFFDC02321
:102180003B6002237B7101233B710023BB71002361
:10219000FB713B4619460348FFF7CCFE00BF0837EA
:1021A000BD4680BD0004024080B582B000AF012171
:1021B0001020FEF7E3FD4FF400633B6002237B71C8
:1021C00001233B710023BB710023FB713B46194681
:1021D0000348FFF7AFFE00BF0837BD4680BD00BF14
:1021E0000010024080B500AF00F044F80B4800F04A
:1021F0001EFA00F0E5F8282000F016F9062000F09D
:1022000013F90C2000F010F9012000F00DF94CF248
:10221000503000F00CFA00BF80BD00BFA086010066
:1022200080B500AF012000F0FFF84CF2503000F014
:10223000FEF900BF80BD80B582B000AF03463A60B2
:10224000FB710B46BB71BA79FB791146184600F059
:10225000C9F907E03B681B78184600F054F93B6861
:1022600001333B603B681B78002BF3D100BF08377C
:10227000BD4680BD80B584B000AF0023FB7343E052
:10228000FA7B254913469B0013449B000B440C33F7
:102290001B6801211846FEF771FDFA7B1E491346A3
:1022A0009B0013449B000B4408331B887B60012375
:1022B0003B720023BB720123FB7202237B72FA7B09
:1022C000154913469B0013449B000B4404331B68C1
:1022D0003A1D11461846FFF72DFEFA7B0E491346AC
:1022E0009B0013449B000B4410331B78002B04D13C
:1022F000FB7B184600F012F803E0FB7B184600F069
:102300002DF8FB7B0133FB73FB7B052BB8D900BF9A
:102310001037BD4680BD00BF1800002080B483B0D8
:1023200000AF0346FB71FA790B4913469B00134437
:102330009B000B4404331968FA79074813469B0045
:1023400013449B00034408331B884B8300BF0C37A6
:10235000BD4680BC704700BF1800002080B483B029
:1023600000AF0346FB71FA790B4913469B001344F7
:102370009B000B4404331968FA79074813469B0005
:1023800013449B00034408331B880B8300BF0C37A6
:10239000BD4680BC704700BF1800002080B500AF6C
:1023A0000120FFF7DBFF4FF47A7000F040F90120C5
:1023B000FFF7B4FF4FF47A7000F039F900BF80BD29
:1023C00080B500AF0220FFF7C9FF0320FFF7C6FF6B
:1023D0000420FFF7A3FF0520FFF7A0FFFFF7DEFFB4
:1023E0004CF2503000F023F9FFF7D8FF4CF2503098
:1023F00000F01DF9FFF7D2FF4CF2503000F017F952
:102400000220FFF78BFF0320FFF7A8FF0420FFF750
:1024100085FF0520FFF782FFFFF7C0FF4CF2503029
:1024200000F005F900BF80BD80B582B000AF034663
:10243000FB710020FFF772FF97F90730002B03DADA
:102440000520FFF78BFF02E00520FFF767FFFB7910
:1024500003F04003002B03D00420FFF77FFF02E0CE
:102460000420FFF75BFFFB7903F02003002B03D070
:102470000320FFF773FF02E00320FFF74FFFFB7914
:1024800003F01003002B03D00220FFF767FF02E0E8
:102490000220FFF743FFFFF781FFFB7903F00803FA
:1024A000002B03D00520FFF759FF02E00520FFF7BE
:1024B00035FFFB7903F00403002B03D00420FFF762
:1024C0004DFF02E00420FFF729FFFB7903F0020330
:1024D000002B03D00320FFF741FF02E00320FFF7AA
:1024E0001DFFFB7903F00103002B03D00220FFF74F
:1024F00035FF02E00220FFF711FFFFF74FFF00BF9B
:102500000837BD4680BD80B582B000AF0346FB7181
:102510000020FFF723FF97F90730002B03DA05208F
:10252000FFF71CFF02E00520FFF7F8FEFB7903F040
:102530004003002B03D00420FFF710FF02E004202B
:10254000FFF7ECFEFB7903F02003002B03D0032000
:10255000FFF704FF02E00320FFF7E0FEFB7903F042
:102560001003002B03D00220FFF7F8FE02E0022048
:10257000FFF7D4FEFFF712FFFB7903F00803002BEF
:1025800003D00520FFF7EAFE02E00520FFF7C6FEB4
:10259000FB7903F00403002B03D00420FFF7DEFED9
:1025A00002E00420FFF7BAFEFB7903F00203002BE0
:1025B00003D00320FFF7D2FE02E00320FFF7AEFEB8
:1025C000FB7903F00103002B03D00220FFF7C6FEC6
:1025D00002E00220FFF7A2FEFFF7E0FE00BF08378F
:1025E000BD4680BD80B584B000AF03460A46FB718E
:1025F0001346BB71FB790F2B01D90023FB71BB790B
:10260000012B01D90023BB71BB799B01FB73FA7BC2
:10261000FB791343FB73FB7B63F07F03FB73FB7B53
:102620001846FFF701FF00BF1037BD4680BD80B4DC
:1026300083B000AF786000BF7B685A1E7A60002BC1
:10264000FAD100BF0C37BD4680BC704780B500AFE3
:10265000124A124B1B6843F0010313600F4B002218
:102660009A600E4A0D4B1B6823F0847323F4803369
:1026700013600A4B0A4A5A60084A084B1B6823F445
:1026800080231360054B0022DA6000F00DF8054B43
:102690004FF000629A6000BF80BD00BF003802406A
:1026A0001030002400ED00E080B483B000AF0023C0
:1026B0007B6000233B60354A344B1B6843F4803316
:1026C0001360324B1B6803F400333B607B680133BB
:1026D0007B603B68002B03D17B68B3F5A06FF0D122
:1026E0002A4B1B6803F40033002B02D001233B600C
:1026F00001E000233B603B68012B42D1234A234B7E
:102700001B6C43F080531364214A214B1B6843F434
:10271000804313601D4A1D4B9B6893601B4A1B4BF3
:102720009B6843F400439360184A184B9B6843F43A
:10273000A0539360154B174A5A60144A134B1B68F9
:1027400043F08073136000BF104B1B6803F00073ED
:10275000002BF9D0104B40F205621A600B4A0B4B6C
:102760009B6823F003039360084A084B9B6843F07F
:102770000203936000BF054B9B6803F00C03082B1A
:10278000F9D100BF0C37BD4680BC7047003802400D
:102790000070004008544007003C024080B588B0FB
:1027A00000AF01210220FEF7E9FA01214FF4802059
:1027B000FEF702FB4FF440637B6102237B7602232A
:1027C0003B760023BB760123FB7607F11403194601
:1027D0001E48FFF7AFFB07220A211C48FFF76CFCDD
:1027E00007220B211948FFF767FC4FF416537B6053
:1027F00000233B8100237B810023BB8100233B829C
:102800000C23FB813B1D19461148FDF77BFE01217E
:102810000F48FDF731FF012240F225510C48FDF72A
:1028200059FF27233B7700237B770023BB770123C6
:10283000FB7707F11C03184601F0B0FD01210448A5
:10284000FDF71AFF00BF2037BD4680BD00040240DF
:102850000048004080B500AF40F225518348FDF7A5
:1028600080FF0346002B06D08048FDF724FF034677
:10287000DAB27F4B1A707F4B1B78582B07D17C4BF9
:102880001A787D4B1A707B4B00221A70EBE0794B63
:102890001B78772B18D1794B1B789BB21A46920084
:1028A00013445B009AB2724B1B789BB213449AB2EA
:1028B000734B1A80734B1B780133DAB2714B1A7069
:1028C0006C4B00221A70CEE06A4B1B78712B0DD135
:1028D000674B1A78694B1A706A4B1B780133DAB26E
:1028E000684B1A70634B00221A70BCE0614B1B7876
:1028F000592B07D15E4B1A78634B1A705D4B00223F
:102900001A70B0E05B4B1B78722B18D15F4B1B78B1
:102910009BB21A46920013445B009AB2544B1B7848
:102920009BB213449AB25A4B1A805A4B1B7801330C
:10293000DAB2584B1A704F4B00221A7093E04D4B8D
:102940001B78652B0DD14A4B1A78504B1A70514B9E
:102950001B780133DAB24F4B1A70464B00221A70C3
:1029600081E0444B1B78432B07D1414B1A784A4BEB
:102970001A70404B00221A7075E03E4B1B784F2BAB
:1029800055D13B4B1A78454B1A70434B1B781A466E
:10299000642303FB02F3414A12781344184604F0FF
:1029A00039FB03463E49184604F03CFC03461A46F0
:1029B0003C4B1A603B4B1B683B49184604F074FAC9
:1029C00003461A46394B1B681946104604F06CFA48
:1029D00003461A46334B1A60324B1B684FF0000116
:1029E000184604F009FD0346002B09D02D4B1B6847
:1029F0002F49184604F05AFA03461A46294B1A6022
:102A0000284B1B682A49184604F014FD0346002B86
:102A100009D0244B1B682649184604F045FA0346A2
:102A20001A46204B1A60134B00221A701BE0114B00
:102A30001B784C2B07D10E4B1A781E4B1A700D4B7E
:102A400000221A700FE00B4B1B78422B07D1084B6A
:102A50001A78194B1A70074B00221A7003E0044BC6
:102A60001A78044B1A7000BF80BD00BF00480040B8
:102A700019040020CD030020C9030020DC0300203E
:102A8000F2030020CA030020C8030020E90300204D
:102A9000F8030020EA030020E8030020DD03002003
:102AA00000002041D403002000009A4208010020C9
:102AB0000000B443F6030020CC03002080B584B0AE
:102AC00000AF01210120FEF777F949F68313BB809F
:102AD0000023FB800923BB600023BB810023BB7361
:102AE0003B1D19464FF0804001F09CFD01214FF045
:102AF000804001F001FE012201214FF0804002F0F0
:102B000079F800BF1037BD4680BD80B582B000AFF8
:102B10001C233B7100237B710123BB710123FB71DB
:102B20003B1D184601F03AFC00BF0837BD4680BD8A
:102B300080B500AFFFF7C2FFFFF7E7FF0D48FEF7D4
:102B40009FFC0D48FEF7F8FC0C48FEF751FD0C48C1
:102B5000FEF7AAFD0B48FEF703FE0B48FEF75CFEEE
:102B6000FDF7B0FEFDF7F2FE00F010F800F076F988
:102B700000BF80BD8804002030040020A004002095
:102B800050040020C8040020F004002090B400AFDE
:102B9000394A4FF000034FF00004C2E90034374ACD
:102BA0004FF000034FF00004C2E90034344A4FF004
:102BB00000034FF00004C2E90034324A4FF0000332
:102BC0004FF00004C2E900342F4A4FF000034FF0E9
:102BD0000004C2E900342D4A4FF000034FF0000416
:102BE000C2E900342A4A4FF000034FF00004C2E962
:102BF0000034284A4FF000034FF00004C2E90034CB
:102C0000254A4FF000034FF00004C2E90034234A84
:102C10004FF000034FF00004C2E90034204A4FF0A7
:102C200000034FF00004C2E900341E4A4FF00003D5
:102C30004FF00004C2E900341B4A4FF000034FF08C
:102C40000004C2E90034194A4FF000034FF00004B9
:102C5000C2E90034164A4FF000034FF00004C2E905
:102C60000034144A4FF000034FF00004C2E900346E
:102C700000BFBD4690BC7047A8010020B0010020F5
:102C8000B8010020C0010020C8010020D0010020B0
:102C9000D8010020E0010020E8010020F001002020
:102CA000F80100200002002008020020700100202E
:102CB000780100208001002080B584B000AFC7E912
:102CC0000201C7E90023D7E90823D7E9020100F090
:102CD00011F8D7E90823D7E9000100F047F8D7E950
:102CE0000823D7E9060100F07DF800BF1037BD4684
:102CF00080BD000090B585B000AFC7E90201C7E90B
:102D00000023144AD7E90234C2E90034124BD3E954
:102D100000341A462346D7E9000103F029FF034691
:102D20000C460E4AC2E900340D4A4FF000034FF042
:102D30000004C2E900340B4A4FF000034FF00004D6
:102D4000C2E90034084B00221A6000BF1437BD46A8
:102D500090BD00BF10020020C0000020280200200B
:102D60003002002040020020A002002090B585B073
:102D700000AFC7E90201C7E90023144AD7E90234CA
:102D8000C2E90034124BD3E900341A462346D7E98E
:102D9000000103F0EDFE03460C460E4AC2E9003482
:102DA0000D4A4FF000034FF00004C2E900340B4A13
:102DB0004FF000034FF00004C2E90034084B00223A
:102DC0001A6000BF1437BD4690BD00BF1802002036
:102DD000C00000205002002058020020680200209D
:102DE000A402002090B585B000AFC7E90201C7E991
:102DF0000023144AD7E90234C2E90034124BD3E964
:102E000000341A462346D7E9000103F0B1FE034619
:102E10000C460E4AC2E900340D4A4FF000034FF051
:102E20000004C2E900340B4A4FF000034FF00004E5
:102E3000C2E90034084B00221A6000BF1437BD46B7
:102E400090BD00BF20020020C000002078020020BA
:102E50008002002090020020A802002090B400AF61
:102E6000164A4FF000034FF00004C2E90034144A40
:102E70004FF000034FF00004C2E90034114A4FF054
:102E800000034FF00004C2E900340F4A4FF0000382
:102E90004FF00004C2E900340C4A4FF000034FF039
:102EA0000004C2E900340A4A4FF000034FF0000466
:102EB000C2E9003400BFBD4690BC7047D00200207C
:102EC00048020020F80200207002002020030020A9
:102ED0009802002098B500AFFFF758FEFFF7BEFF3D
:102EE000224B00221A60224A4FF000034FF00004E8
:102EF000C2E902341E4A4FF000034FF00004C2E959
:102F000000341C4B00221A601B4A4FF000034FF0A4
:102F10000004C2E90234184A4FF000034FF00004E5
:102F2000C2E90034154B00221A60154A4FF0000325
:102F30004FF00004C2E90234114A4FF000034FF091
:102F40000004C2E900340F4B00221A600E4A4FF011
:102F500000034FF00004C2E902340B4A4FF00003B3
:102F60004FF00004C2E9003400BF98BD0C040020FB
:102F700088040020080400203004002010040020F1
:102F8000A0040020040400205004002098B500AFE5
:102F900001214FF0804001F050FE0346002B00F06D
:102FA000CA8101214FF0804001F070FEA84B1B68E0
:102FB000092B0FD1A64B4FF0FF321A60A548FEF740
:102FC00087FCA548FEF7C0FCA448FEF7F9FCA4481E
:102FD000FEF732FD9E4B1B6801339D4A136000F0E3
:102FE0007FFC00F08DFF01F017F89E4B1B68184620
:102FF00003F02EFC9C4BD3E900341A46234603F021
:103000001DFF0346002B0AD0974BD3E90034184626
:10301000214603F01DFF0246924B1A6018E0914BC7
:103020001B68184603F014FC904BD3E900341A4691
:10303000234603F0E5FE0346002B09D08B4BD3E972
:1030400000341846214603F003FF0246854B1A6000
:10305000874B1B68184603F0FBFB834BD3E9003416
:103060001A46234603F0EAFE0346002B0AD07E4BA5
:10307000D3E900341846214603F0EAFE02467C4BB1
:103080001A6018E07A4B1B68184603F0E1FB774B97
:10309000D3E900341A46234603F0B2FE0346002B60
:1030A00009D0724BD3E900341846214603F0D0FE14
:1030B00002466F4B1A606F4B1B68184603F0C8FB43
:1030C000694BD3E900341A46234603F0B7FE0346A2
:1030D000002B0AD0644BD3E900341846214603F094
:1030E000B7FE0246634B1A6018E0624B1B68184635
:1030F00003F0AEFB5D4BD3E900341A46234603F0E0
:103100007FFE0346002B09D0584BD3E90034184604
:10311000214603F09DFE0246564B1A60564B1B6833
:10312000184603F095FB504BD3E900341A4623466A
:1031300003F084FE0346002B0AD04B4BD3E9003446
:103140001846214603F084FE02464B4B1A6018E0F5
:10315000494B1B68184603F07BFB444BD3E9003412
:103160001A46234603F04CFE0346002B09D03F4B82
:10317000D3E900341846214603F06AFE02463E4B6E
:103180001A603E4BD3E900013D4BD3E900341A46A7
:10319000234603F00FFA03460C463A4AC2E90034CC
:1031A000384BD3E900014FF00002374B03F028FE03
:1031B0000346002B0BD0334BD3E900014FF0000244
:1031C000324B03F03BFE0346002B40F09C802D4B1E
:1031D000D3E900014FF000022B4B03F02FFE034612
:1031E000002B0AD0274BD3E900014FF00002284BF7
:1031F00003F006FE0346002B0AD1224BD3E900015F
:103200004FF00002234B03F0FBFD0346002B45D09B
:10321000144B1B6803F59C530833124A1360144B7C
:103220001B6803F59C530833114A1360114B1B684C
:1032300003F59C5308330F4A13600F4B1B6803F5CB
:103240009C5308330C4A1360134B00221A605AE057
:10325000B00300208804002030040020A0040020D7
:103260005004002044010020E0000020D80000208D
:10327000480100204C0100205001002020020020C5
:10328000800100201003002000002440000024C022
:1032900000806640008066C0AC030020274BD3E965
:1032A00000014FF00002264B03F0AAFD0346002B5D
:1032B0000AD1224BD3E900014FF00002214B03F069
:1032C000BDFD0346002B1ED01F4B1B68A3F59C536E
:1032D000083B1D4A13601D4B1B68A3F59C53083B1C
:1032E0001A4A13601A4B1B68A3F59C53083B184AF3
:1032F0001360184B1B68A3F59C53083B154A1360D9
:10330000154B01221A60104B1B6819460120FDF76E
:103310007BFB0E4B1B6819460220FDF775FB0C4B1F
:103320001B6819460320FDF76FFB0A4B1B68194603
:103330000420FDF769FB00BF98BD00BF100300200B
:10334000000024C0008066404401002048010020A5
:103350004C01002050010020AC03002000000000C0
:103360002DE9F04F85B004AF9D4B1B88C3F5A073CA
:103370009C4A13609C4B1B88C3F1F0039B4A13606B
:10338000984B1B68002B03D0984B1B68002B17D160
:10339000974BD3E90056974BD3E90089964BD3E975
:1033A00000344FF000014FF00002CDE90212CDE9E8
:1033B000003442464B4628463146FFF77DFC5EE22C
:1033C000884B1B68002B0AD1884B1B68002B06D149
:1033D0008A494FF000028A4BC1E9002324E0834B65
:1033E0001B68184603F034FA82468B467D4B1B68F7
:1033F000184603F02DFA02460B465046594601F096
:103400008BFE4FF000027F4B03F088FA02460B461A
:10341000104619466EA3D3E9002303F0A9FB024628
:103420000B467649C1E900236E4B1B68002B11DA6D
:103430006E4B1B68002B0DDA704BD3E900014FF087
:103440000002714B03F0B8F802460B466B49C1E924
:10345000002314E0634B1B68002B10DD634B1B68DB
:10346000002B0CDA654BD3E900014FF00002664BEC
:1034700003F0A2F802460B466049C1E900235F4B06
:10348000D3E900014FF000025D4B03F0D7FC034687
:10349000002B0DD0594BD3E900014FF00002584BDF
:1034A00003F088F802460B465449C1E900230CE0BA
:1034B000524BD3E9000148A3D3E9002303F07CF881
:1034C00002460B464D49C1E900234C4BD3E90001AC
:1034D000494BD3E9002303F06FF802460B464749F6
:1034E000C1E90023454BD3E900014FF00002464BF0
:1034F00003F0A4FC0346002B0CD0404BD3E90001A1
:103500004FF00002404B03F055F802460B463B4992
:10351000C1E90023394BD3E900233C49C1E9002329
:103520003B4B01221A603B4B01221A602D4B1B685A
:10353000002B07DA2B4B1B685B422A4A1360344B83
:1035400000221A60294B1B68002B07DA274B1B68E7
:103550005B42264A13602F4B00221A60214B1B68E6
:10356000632B07DC2C494FF000024FF00003C1E948
:1035700000237BE01B4B1B688C2B06DC26494FF09D
:103580000002264BC1E9002370E0164B1B68A22BFA
:1035900006DC21494FF00002214BC1E9002365E020
:1035A000104B1B68AE2B06DC1B494FF000021D4B75
:1035B000C1E900235AE00B4B1B68BE2B36DC1649D1
:1035C0004FF00002184BC1E900234FE0AFF3008039
:1035D000F1D4C853FB2109400000000000E0704016
:1035E000F203002068040020F80300207804002083
:1035F000700100207801002080010020B804002024
:1036000000805640008066400080764080040020A4
:10361000EC000020F0000020E004002000405040BA
:103620000040554000405A4000405F409C4B1B68A2
:10363000C22B06DC9B4994A3D3E90023C1E90023F4
:1036400014E0974B1B68C82B06DC964990A3D3E97E
:103650000023C1E9002309E0914B1B68CC2B05DC5A
:1036600090498DA3D3E90023C1E900238E4B1B6849
:10367000632B07DC8D494FF000024FF00003C1E9D6
:1036800000234BE0884B1B688C2B06DC87494FF0EE
:103690000002874BC1E9002340E0834B1B68A22B4B
:1036A00006DC82494FF00002824BC1E9002335E07D
:1036B0007D4B1B68AE2B06DC7C494FF000027E4B35
:1036C000C1E900232AE0784B1B68BE2B06DC774952
:1036D0004FF00002794BC1E900231FE0724B1B68D9
:1036E000C22B06DC714968A3D3E90023C1E900239A
:1036F00014E06D4B1B68C82B06DC6C4964A3D3E94E
:103700000023C1E9002309E0674B1B68CC2B05DCD3
:10371000664961A3D3E90023C1E90023684B1B6814
:10372000002B08D15F4BD3E90023904683F000497A
:103730005C4BC3E90089634B1B68002B08D15B4BD2
:10374000D3E90023144683F00045584BC3E90045F4
:103750005D4BD3E900341846214601F04BFC514B38
:10376000D3E900341A46234603F0D8F803460C4642
:103770001D462646544BD3E900341846214601F035
:1037800087FC4A4BD3E900341A46234603F0C6F8B7
:1037900003460C461A4623462846314602F00CFFE3
:1037A00003460C4618462146484BD3E900341A46D6
:1037B000234602F001FF03460C461846214603F05B
:1037C00047FB0246424B1A603F4BD3E90034184690
:1037D000214601F00FFC354BD3E900341A4623464D
:1037E00003F09CF803460C461D462646364BD3E9AB
:1037F00000341846214601F04BFC2A4BD3E9003433
:103800001A46234603F08AF803460C461A46234616
:103810002846314602F0CEFE03460C4618462146A5
:103820002C4BD3E900341A46234602F0C5FE03466A
:103830000C461846214603F00BFB0246264B1A6045
:10384000234B1B68184603F003F805460E46224B2F
:103850001B68184602F0FCFF804689461F4BD3E9DF
:1038600000344FF000014FF00002CDE90212CDE923
:10387000003442464B4628463146FFF71DFA0437CE
:10388000BD46BDE8F08F00BF000000000020624090
:103890000000000000A0644000000000002067401D
:1038A00068040020E00400207804002020040020A8
:1038B000004050400040554000405A4000405F40AA
:1038C000EC000020F00000208801002070010020A2
:1038D000700400207801002048040020B804002073
:1038E0002DE9F84300AFB84BD3E90023B4A1D1E9E7
:1038F000000103F03DF902460B4610461946B34B52
:10390000D3E9022303F00AF802460B461046194693
:10391000AF4BD3E9002303F02BF902460B461046C8
:103920001946AC4BD3E9002302F0F8FF02460B46E0
:10393000A949C1E90023A44BD3E90023A0A1D1E9FF
:10394000000103F015F902460B4610461946A34B39
:10395000D3E9022302F0E2FF02460B461046194665
:103960009B4BD3E9002303F003F902460B461046B4
:103970001946984BD3E9002302F0D0FF02460B46CC
:103980009749C1E90023904BD3E900238CA1D1E9E9
:10399000000103F0EDF802460B4610461946914B24
:1039A000D3E9022302F0BAFF02460B46104619463D
:1039B000874BD3E9002303F0DBF802460B461046A1
:1039C0001946844BD3E9002302F0A8FF02460B46B8
:1039D0008549C1E900237C4BD3E9002378A1D1E9D3
:1039E000000103F0C5F802460B46104619467F4B0E
:1039F000D3E9022302F092FF02460B461046194615
:103A0000734BD3E9002303F0B3F802460B4610468C
:103A10001946704BD3E9002302F080FF02460B46A3
:103A20007349C1E900236E4BD3E900016A4BD3E926
:103A3000002302F0C1FD02460B46904683F0004988
:103A40004FF000024FF080434046494603F090F8A3
:103A500002460B466749C1E90023654BD3E90001E3
:103A6000614BD3E9002302F0A7FD02460B46104646
:103A700019464FF000024FF0804303F079F80246F8
:103A80000B465D49C1E90023534BD3E90001584B74
:103A9000D3E9002302F090FD02460B46144683F062
:103AA00000454FF000024FF080432046294603F0C6
:103AB0005FF803460C46514AC2E90034484BD3E94B
:103AC0000001494BD3E900341A46234602F074FD45
:103AD00003460C46184621464FF000024FF0804343
:103AE00003F046F803460C46454AC2E90034434B0E
:103AF000D3E90001424BD3E900341A46234602F0D1
:103B00005BFD03460C46184621464FF000023D4B34
:103B100002F004FF03460C463B4AC2E90034364B30
:103B2000D3E90001334BD3E900341A46234602F0AF
:103B300043FD03460C46184621464FF00002314B28
:103B400002F0ECFE03460C46304AC2E90034224B38
:103B5000D3E90001224BD3E900341A46234602F090
:103B60002BFD03460C46184621461F4BD3E9003473
:103B70001A46234602F020FD03460C46184621460D
:103B80001B4BD3E900341A46234602F015FD0346C9
:103B90000C4625461C461E4BD3E900014FF000029F
:103BA0001C4B02F0BBFE02460B462046294602F0A3
:103BB000DFFF03460C46184AC2E900342EE000BF7E
:103BC000F1D4C853FB211940A80000203004002084
:103BD000C0000020B8000020A801002088040020B8
:103BE000B001002050040020B8010020A0040020F3
:103BF000C0010020300300203803002040030020D3
:103C0000480300200000E03FC8010020D001002050
:103C1000B000002000001040D8010020A84BD3E9DC
:103C20000001A3A3D3E9002302F078FE03460C466B
:103C3000A44AC2E90034A34BD3E900341846214614
:103C400001F0D8F9A04BD3E900341A46234602F01C
:103C500065FE03460C461D4626469A4BD3E90034C2
:103C60001846214601F014FA984BD3E900341A465D
:103C7000234602F053FE03460C461A4623462846C6
:103C8000314602F097FC03460C46914AC2E90034E3
:103C90008C4BD3E900341846214601F0F9F98A4BE0
:103CA000D3E900341A46234602F038FE03460C4698
:103CB0001D462646834BD3E900341846214601F0C1
:103CC00099F9824BD3E900341A46234602F026FEC6
:103CD00003460C461A4623462846314602F06CFC41
:103CE00003460C467B4AC2E900347B4BD3E90034DF
:103CF0007A4AC2E90034764BD3E90001784BD3E924
:103D000000341A46234602F057FC03460C46184678
:103D100021464FF00002734B02F000FE03460C46B2
:103D200018462146704BD3E900341A46234602F068
:103D3000F5FD03460C46184621466C4BD3E900348A
:103D40001A46234602F038FC03460C46674AC2E98D
:103D50000034604BD3E90001654BD3E900341A46C7
:103D6000234602F029FC03460C46184621464FF034
:103D700000025C4B02F0D2FD03460C461846214679
:103D8000594BD3E900341A46234602F0C7FD0346D7
:103D90000C4618462146574BD3E900341A462346B1
:103DA00002F00AFC03460C46524AC2E900344B4B6F
:103DB000D3E90001504BD3E900341A46234602F000
:103DC000FBFB03460C46184621464FF00002454BCC
:103DD00002F0A4FD03460C4618462146424BD3E9A7
:103DE00000341A46234602F099FD03460C46184655
:103DF000214631A3D3E9002302F090FD03460C468F
:103E0000184621462E4BD3E900341A46234602F0C9
:103E1000D3FB03460C462A4AC2E90034284BD3E9B7
:103E200000014FF00002354B02F0FEFF0346002B6D
:103E30000DD0234BD3E900014FF000022F4B02F0CD
:103E4000B9FB03460C461E4AC2E9003418E01C4B7D
:103E5000D3E900014FF000024FF0000302F0D0FF61
:103E60000346002B0CD0164BD3E900014FF00002A3
:103E7000224B02F0A1FB03460C46114AC2E9003472
:103E8000134BD3E90034164AC2E90034114BD3E98D
:103E90000034174AC2E90034104BD3E90034164A03
:103EA000C2E9003400BFBDE8F88300BFAFF3008073
:103EB00012E7FAA146DF913F775AF01ADCA54C4091
:103EC0008001002088010020C8010020D0010020CE
:103ED000E0010020E8010020D8010020F0010020CE
:103EE000F80100200000E03FC00000207001002029
:103EF00000020020780100200802002000807640A7
:103F000098B500AF344BD3E90001344BD3E900340A
:103F10001A46234602F04EFB03460C46304AC2E9DD
:103F200000342F4BD3E900014FF000022D4B02F07B
:103F3000F5FC03460C462C4AC2E900342A4BD3E96F
:103F400000342A4AC2E90034294BD3E90001294B45
:103F5000D3E900341A46234602F02CFB03460C46F4
:103F6000254AC2E90034244BD3E900014FF0000296
:103F70001C4B02F0D3FC03460C46204AC2E9003435
:103F80001E4BD3E900341E4AC2E900341D4BD3E96D
:103F900000011D4BD3E900341A46234602F00AFB08
:103FA00003460C46194AC2E90034184BD3E9000114
:103FB0004FF000024FF0000302F0B0FC03460C4645
:103FC000134AC2E90034124BD3E90034114AC2E962
:103FD000003400BF98BD00BF100200207001002017
:103FE000C002002000409F40C8020020B80200200C
:103FF0001802002078010020E8020020F0020020D2
:10400000E002002020020020800100201003002098
:104010001803002008030020F8B500AF7A4BD3E95D
:1040200000341846214600F0E5FF784BD3E9003410
:104030001A46234602F072FC03460C461D462646ED
:10404000714BD3E900341846214601F021F8704B3A
:10405000D3E900341A46234602F060FC03460C46BE
:104060001A4623462846314602F0A6FA03460C4675
:10407000684AC2E90034644BD3E90034184621464B
:1040800000F0B8FF624BD3E900341A46234602F031
:1040900045FC03460C461D4626465B4BD3E90034DF
:1040A0001846214600F0F4FF584BD3E900341A4675
:1040B000234602F033FC03460C461A4623462846A4
:1040C000314602F077FA03460C46534AC2E90034FF
:1040D000524BD3E90034524AC2E900344D4BD3E984
:1040E00000341A4623464FF000004FF0000102F062
:1040F00061FA03460C4618462146474BD3E9003483
:104100001A46234602F056FA03460C46454AC2E9CF
:104110000034404BD3E900013F4BD3E900341A4649
:10412000234602F047FA03460C463F4AC2E90034F0
:10413000384BD3E90001384BD3E900341A46234603
:1041400002F03AFA03460C46384AC2E90034314BD1
:10415000D3E900341A4623464FF000004FF0000127
:1041600002F028FA03460C46184621462A4BD3E9AA
:1041700000341A46234602F01FFA03460C462C4A26
:10418000C2E90034274BD3E900342A4AC2E900349B
:10419000254BD3E90034284AC2E90034234BD3E944
:1041A0000034264AC2E90034214BD3E90034244AC2
:1041B000C2E90034204BD3E900341846214602F00E
:1041C00047FE02461F4B1A601A4BD3E900341846CB
:1041D000214602F03DFE02461B4B1A60184BD3E904
:1041E00000341846214602F033FE0246174B1A608F
:1041F000124BD3E900341846214602F029FE02464C
:10420000134B1A6000BFF8BD88010020B8020020DF
:10421000E002002050030020580300200803002083
:104220006003002068030020700300207803002052
:1042300080030020880300209003002098030020C2
:10424000A003002044010020480100204C01002070
:104250005001002080B485B000AF78600023FB607F
:10426000344BFB607B689B79002B4FD03149314B3D
:104270001A687B681B68DB4313400B602D492D4B8C
:104280005A687B681B68DB4313404B607B681B7973
:104290001A46FB681344FB60FB68FA6811687A6889
:1042A00012680A431A602349224B9A687B681B688C
:1042B000DB4313408B601F491E4BDA687B681B6829
:1042C000DB431340CB607B685B79102B0ED119491F
:1042D000184B9A687B681B6813438B601549154B14
:1042E000DA687B681B681343CB601DE0114BFB60F1
:1042F0007B685B791A46FB681344FB60FB68FA68CD
:1043000011687A6812680A431A600DE07B681B79AD
:104310001A46FB681344FB60FB68FA6811687A6808
:104320001268D2430A401A6000BF1437BD4680BCF1
:10433000704700BF003C014080B485B000AF78609A
:104340000023FB730023BB600C4B1A687B6813408F
:10435000BB600A4B5A697B681340002B05D0BB68D1
:10436000002B02D00123FB7301E00023FB73FB7BD6
:1043700018461437BD4680BC704700BF003C014062
:1043800080B483B000AF7860034A7B68536100BF9C
:104390000C37BD4680BC7047003C014080B485B0FE
:1043A00000AF78600023FB730023BB730F237B7384
:1043B0007B68DB78002B39D0274BDB68DB431B0A9B
:1043C000DBB203F00703FB73FB7BC3F10403BB7396
:1043D0007A7BFB7B42FA03F37B737B685B781A463C
:1043E000BB7B02FA03F3FB737B689A787B7B1340F9
:1043F000DAB2FB7B1343FB73FB7B1B01FB73174A96
:104400007B681B781344FA7B83F80023134A7B688C
:104410001B785B09DBB218467B681B7803F01F032F
:10442000012101FA03F342F820300FE00B497B68C9
:104430001B785B09DBB218467B681B7803F01F030F
:1044400001229A4000F1200341F8232000BF1437D5
:10445000BD4680BC704700BF00ED00E000E100E019
:1044600080B582B002AFFDF7DBFE164B1B68184625
:1044700002F000FA144B1B781A46144B1B78019378
:10448000009202460B4612491248FCF7E2FF114A1D
:1044900000210020FDF7CFFE0F4B1B781A460A4B78
:1044A0001B781946094B1B7800930B460B490948AA
:1044B000FCF7CFFF074A01210020FDF7BCFE00BF3B
:1044C000BD4680BDD4030020C8030020C9030020DE
:1044D0004874000810050020CB0300205874000821
:1044E00080B582B000AF01210420FCF747FC022315
:1044F0003B6000233B7103237B710023BB710223CC
:10450000FB713B4619461A48FDF714FD04233B6036
:1045100000233B7103237B710023BB710223FB71DA
:104520003B4619461248FDF705FD08233B60002372
:104530003B7103237B710023BB710223FB713B465C
:1045400019460B48FDF7F6FC10233B6000233B7136
:1045500003237B710023BB710223FB713B46194689
:104560000348FDF7E7FC00BF0837BD4680BD00BF2C
:104570000008024080B584B000AF01210820FCF79C
:104580001BFC4AF20F43BB800023FB8040F2E73361
:10459000BB600023BB810023BB733B1D1946084849
:1045A00000F040F80121064800F0A6F801220121A0
:1045B000034800F01FFB00BF1037BD4680BD00BFA1
:1045C000000C004080B582B000AF32233B71002365
:1045D0007B710023BB710123FB713B1D1846FFF764
:1045E000DDFE00BF0837BD4680BD000080B500AFCE
:1045F0000121074800F021FB0346002B05D00121D3
:10460000034800F043FBFFF72BFF00BF80BD00BF56
:10461000000C004080B500AFFFF7ACFFFFF7D2FF02
:1046200000BF80BD80B485B000AF786039600023E2
:10463000FB817B681B88FB817B68284A934213D0EF
:104640007B68274A93420FD07B68B3F1804F0BD031
:104650007B68244A934207D07B68234A934203D065
:104660007B68224A934208D1FB8923F07003FB81C7
:104670003B685A88FB891343FB817B681C4A934241
:104680000CD07B681B4A934208D0FB8923F440730B
:10469000FB813B681A89FB891343FB817B68FA899C
:1046A0001A803B685A687B68DA623B681A887B68C4
:1046B0001A857B68094A934203D07B68084A934273
:1046C00004D13B689B7A9AB27B681A867B68012288
:1046D0009A8200BF1437BD4680BC7047000001407D
:1046E000000401400004004000080040000C0040AD
:1046F000001000400014004080B483B000AF786028
:104700000B46FB70FB78002B08D07B681B889BB2A4
:1047100043F001039AB27B681A8007E07B681B882C
:104720009BB223F001039AB27B681A8000BF0C375A
:10473000BD4680BC7047000080B485B000AF786093
:10474000396000237B810023FB810023BB817B68D0
:104750001B8C9BB223F001039AB27B681A847B689E
:104760001B8CFB817B689B88BB817B681B8B7B815F
:104770007B8923F070037B817B8923F003037B819A
:104780003B681A887B8913437B81FB8923F00203F2
:10479000FB813B689A89FB891343FB813B685A88FC
:1047A000FB891343FB817B681E4A934203D07B68DD
:1047B0001D4A934223D1FB8923F00803FB813B6808
:1047C000DA89FB891343FB81FB8923F00403FB8116
:1047D0003B689A88FB891343FB81BB8923F4807370
:1047E000BB81BB8923F40073BB813B681A8ABB89F8
:1047F0001343BB813B685A8ABB891343BB817B68E7
:10480000BA899A807B687A891A833B689A687B6840
:104810005A637B68FA891A8400BF1437BD4680BC8E
:10482000704700BF000001400004014080B485B023
:1048300000AF7860396000237B810023FB81002377
:10484000BB817B681B8C9BB223F010039AB27B6800
:104850001A847B681B8CFB817B689B88BB817B688F
:104860001B8B7B817B8923F4E0437B817B8923F451
:1048700040737B813B681B881B029AB27B89134380
:104880007B81FB8923F02003FB813B689B891B0113
:104890009AB2FB891343FB813B685B881B019AB288
:1048A000FB891343FB817B68224A934203D07B68D8
:1048B000214A93422BD1FB8923F08003FB813B6883
:1048C000DB891B019AB2FB891343FB81FB8923F02F
:1048D0004003FB813B689B881B019AB2FB89134311
:1048E000FB81BB8923F48063BB81BB8923F4006314
:1048F000BB813B681B8A9B009AB2BB891343BB8177
:104900003B685B8A9B009AB2BB891343BB817B687F
:10491000BA899A807B687A891A833B689A687B682F
:104920009A637B68FA891A8400BF1437BD4680BC3D
:10493000704700BF000001400004014080B485B012
:1049400000AF7860396000237B810023FB81002366
:10495000BB817B681B8C9BB223F480739AB27B680B
:104960001A847B681B8CFB817B689B88BB817B687E
:104970009B8B7B817B8923F070037B817B8923F078
:1049800003037B813B681A887B8913437B81FB8906
:1049900023F40073FB813B689B891B029AB2FB895D
:1049A0001343FB813B685B881B029AB2FB8913436C
:1049B000FB817B68224A934203D07B68214A934261
:1049C0002BD1FB8923F40063FB813B68DB891B024D
:1049D0009AB2FB891343FB81FB8923F48063FB813B
:1049E0003B689B881B029AB2FB891343FB81BB89FE
:1049F00023F48053BB81BB8923F40053BB813B6804
:104A00001B8A1B019AB2BB891343BB813B685B8A3B
:104A10001B019AB2BB891343BB817B68BA899A8018
:104A20007B687A899A833B689A687B68DA637B68DB
:104A3000FA891A8400BF1437BD4680BC704700BF96
:104A4000000001400004014080B485B000AF7860F0
:104A500039600023BB8100237B810023FB817B68BD
:104A60001B8C9BB223F480539AB27B681A847B68B8
:104A70001B8C7B817B689B88FB817B689B8BBB81CC
:104A8000BB8923F4E043BB81BB8923F44073BB8122
:104A90003B681B881B029AB2BB891343BB817B898D
:104AA00023F400537B813B689B891B039AB27B896B
:104AB00013437B813B685B881B039AB27B8913435A
:104AC0007B817B68114A934203D07B68104A9342F2
:104AD0000AD1FB8923F48043FB813B681B8A9B013D
:104AE0009AB2FB891343FB817B68FA899A807B68C1
:104AF000BA899A833B689A687B681A647B687A896A
:104B00001A8400BF1437BD4680BC704700000140C6
:104B10000004014080B485B000AF78600B467B8014
:104B20000023FB817B681B8BFB81FB8923F008033F
:104B3000FB81FA897B881343FB817B68FA891A839E
:104B400000BF1437BD4680BC704780B485B000AF4D
:104B500078600B467B800023FB817B681B8BFB818D
:104B6000FB8923F40063FB817B881B029AB2FB89DB
:104B70001343FB817B68FA891A8300BF1437BD4653
:104B800080BC704780B485B000AF78600B467B80F6
:104B90000023FB817B689B8BFB81FB8923F008034F
:104BA000FB81FA897B881343FB817B68FA899A83AE
:104BB00000BF1437BD4680BC704780B485B000AFDD
:104BC00078600B467B800023FB817B689B8BFB819D
:104BD000FB8923F40063FB817B881B029AB2FB896B
:104BE0001343FB817B68FA899A8300BF1437BD4663
:104BF00080BC704780B483B000AF78600B467B8088
:104C000013467B707B78002B08D07B689B899AB217
:104C10007B8813439AB27B689A8109E07B689B8901
:104C20009AB27B88DB439BB213409AB27B689A812D
:104C300000BF0C37BD4680BC704780B485B000AF64
:104C400078600B467B800023FB730023BB8100232D
:104C50007B817B681B8A9AB27B881340BB817B680F
:104C60009B899AB27B8813407B81BB89002B05D03E
:104C70007B89002B02D00123FB7301E00023FB732F
:104C8000FB7B18461437BD4680BC704780B483B0A8
:104C900000AF78600B467B807B88DB439AB27B68F1
:104CA0001A8200BF0C37BD4680BC70470000000070
:104CB0002DE9F84FC24B21F000469E420D468A4630
:104CC000044610DDBF4B9E4200F3B58000F0B0807B
:104CD000BD4BBE49BE4CBAF1000FD8BF0B462046B3
:104CE0001946BDE8F88FBB4B9E4200F3C180A3F18B
:104CF000DE739E4240F3AB804FF0FF3B22462B46D3
:104D00002046294601F00AFE02460B4680468946A7
:104D100001F004FE92A3D3E9002306460F4601F0FA
:104D2000FDFD91A3D3E9002301F046FC32463B464A
:104D300001F0F4FD8EA3D3E9002301F03DFC3246DF
:104D40003B4601F0EBFD8CA3D3E9002301F034FCDA
:104D500032463B4601F0E2FD89A3D3E9002301F08E
:104D60002BFC32463B4601F0D9FD87A3D3E9002353
:104D700001F022FC42464B4601F0D0FD84A3D3E96A
:104D80000023804689463046394601F0C7FD82A39C
:104D9000D3E9002301F00EFC32463B4601F0BEFD94
:104DA0007FA3D3E9002301F005FC32463B4601F026
:104DB000B5FD7DA3D3E9002301F0FCFB32463B4661
:104DC00001F0ACFD7AA3D3E9002301F0F3FB3246F6
:104DD0003B4601F0A3FDBBF1FF3F02460B466ED000
:104DE0004046494601F0E8FB22462B4601F096FD7D
:104DF000794E7A4B4FEACB0B5E449B44DBE90023B0
:104E000001F0D8FB22462B4601F0D4FB0B460246AC
:104E1000D6E9000101F0CEFBBAF1000F04460B46C3
:104E2000BFF65DAF01F1004320461946BDE8F88F9B
:104E300000283FF44DAF22462B462046294601F07C
:104E4000BBFB04460B4620461946BDE8F88F5AA323
:104E5000D3E9002301F0B0FB0022614B01F0EEFF2B
:104E600000283FF449AF2B4620461946BDE8F88F8D
:104E700000F00AF95B4B9E4204460D4630DCA3F578
:104E800050239E4255DC02460B4601F095FB002262
:104E9000534B01F08FFB002206460F464FF0804334
:104EA0002046294601F088FB02460B46304639462B
:104EB00001F05EFE4FF0000B04460D461EE7404633
:104EC000494601F079FB22462B4601F027FD0B46AF
:104ED00002462946204601F06DFB04460B46FEE6DD
:104EE000414B9E421ADC0022404B01F063FB002242
:104EF00006460F463D4B2046294601F00FFD002295
:104F0000374B01F059FB02460B463046394601F05B
:104F10002FFE4FF0020B04460D46EFE602460B460D
:104F20000020334901F024FE4FF0030B04460D46E8
:104F3000E4E600222A4B01F03DFB002206460F4624
:104F4000274B2046294601F037FB02460B463046E8
:104F5000394601F00DFE4FF0010B04460D46CDE63B
:104F600011DA22E33AAD903FEB0D76244B7BA93F5B
:104F7000513DD0A0660DB13F6E204CC5CD45B73F29
:104F8000FF8300922449C23F0D5555555555D53FD5
:104F90002F6C6A2C44B4A2BF9AFDDE522DDEAD3FC9
:104FA0006D9A74AFF2B0B33F711623FEC671BC3F69
:104FB000C4EB98999999C93F9C7500883CE4377E69
:104FC000FFFF0F440000F07FFB21F93FFB21F9BFF9
:104FD000182D4454FFFFDB3F6874000888740008F4
:104FE0000000F03FFFFFF23FFF7F03400000F83F6B
:104FF0000000F0BF30B5224A21F00043934287B051
:105000001BDD204A934205DD02460B4601F0D2FA31
:1050100007B030BD02AA00F06FF900F00303012BC6
:105020001AD0022B0FD01BB30124DDE90423DDE9E4
:105030000201009401F0F0F8EAE70022002300F0FA
:105040007FFB07B030BDDDE90423DDE9020100F09C
:1050500077FB01F10041DBE7DDE904450093DDE981
:10506000020122462B4601F0D7F801F10041CFE7BB
:10507000DDE90423DDE9020100F062FBC8E700BFBF
:10508000FB21E93FFFFFEF7F21F00041704700BFA8
:1050900030B51F4A21F00043934287B01BDD1D4A03
:1050A000934205DD02460B4601F084FA07B030BD9D
:1050B00002AA00F021F900F003000128DDE9042331
:1050C0001AD002280FD0E0B1DDE9020100F038FB70
:1050D00001F10041EAE7002300930022002301F0E0
:1050E0009BF807B030BD0124DDE90201009401F016
:1050F00093F801F10041D9E7DDE9020100F020FB5E
:10510000D4E70124DDE90201009401F085F8CDE740
:10511000FB21E93FFFFFEF7F00F002B80000000035
:105120002DE9F84F5442144323F00049704E49EAE8
:10513000D474B44286460F4640D84442044321F01A
:10514000004B4BEAD474B4428A4637D803F140444A
:1051500004F5801414434AD09C1704F0020444EA76
:10516000D17450EA0B0131D052EA090137D0B14570
:1051700052D0B34533D0ABEB09094FEA2959B9F105
:105180003C0F3BDC002B66DB7046394601F0F0FC3F
:10519000FFF77AFFFFF78CFD012C58D0022C48D086
:1051A000002C5ED040A3D3E9002301F003FA40A312
:1051B000D3E9002301F0FEF9BDE8F88F1046194647
:1051C00072463B4601F0F8F9BDE8F88F022C19D081
:1051D000032C10D138A1D1E90001BDE8F88FBAF154
:1051E000000F14DB36A1D1E90001BDE8F88FBDE85E
:1051F000F84FFFF75DBD3946BDE8F88F30A1D1E922
:105200000001C9E72AA1D1E90001BDE8F88F2EA16C
:10521000D1E90001BDE8F88FCB4524D0022CF1D0B4
:10522000032CD7D0012C4FF0000027D00021BDE87F
:10523000F88F1DA3D3E9002301F0BCF902460B4609
:105240001BA1D1E9000101F0B5F9BDE8F88F01F12A
:105250000041BDE8F88F19F13C0F95DA00200021DC
:105260009AE7BDE8F88F022C16D0032C0FD0012C42
:1052700008D017A1D1E90001BDE8F88F4FF0004137
:10528000BDE8F88F14A1D1E90001BDE8F88F14A1A1
:10529000D1E90001BDE8F88F13A1D1E90001BDE813
:1052A000F88F00BFAFF30080075C143326A6A13C43
:1052B000182D4454FB210940182D4454FB2109C0EA
:1052C000182D4454FB21F93F182D4454FB21F9BFFC
:1052D000182D4454FB21E93F182D4454FB21E9BF0C
:1052E000D221337F7CD902C0D221337F7CD90240C6
:1052F0000000F07F000000002DE9F04F9A4E21F0F1
:105300000047B74291B040F38E809246974A974249
:105310000C4626DC00298AA3D3E9002340F3B4819C
:1053200001F048F9924B9F4204460D4600F09080F0
:1053300085A3D3E9002301F03DF902460B46CAE9F3
:1053400000232046294601F035F97FA3D3E9002345
:1053500001F030F90125CAE90201284611B0BDE883
:10536000F08F844A974240F39080834A974265DCED
:105370003D15A5F21645A7EB055319461F460646EF
:1053800001F066FD01F064FA8046894602460B464C
:1053900030463946CDE90A8901F00CF90022774BF5
:1053A00001F0BCFA8946804601F052FD01F050FA46
:1053B00002460B4606460F4640464946CDE90C6775
:1053C00001F0F8F800226D4B01F0A8FA002200234A
:1053D000CDE90E0101F00AFD002800F073810023E1
:1053E00030463946002201F001FD002814BF012398
:1053F0000223634A019202212A4600910AA85146DB
:1054000000F0C2FA002C054614DADAF80420DAF8C3
:105410000C3002F1004203F100434542CAF8042077
:10542000CAF80C3006E0C2E9000100250024C2E9F8
:1054300002450025284611B0BDE8F08F02460B4614
:1054400001F0B8F80025CAE90201CAE90001F1E754
:105450003FA3D3E9002301F0ADF83FA3D3E9002334
:105460000D46044601F0A6F802460B46CAE90023A1
:105470002946204601F09EF837A3D3E9002301F026
:1054800099F80125CAE90201D4E7FFF7FDFD34A32D
:10549000D3E900238046894601F040FA0022394BC7
:1054A00001F08AF801F0D4FC054601F0D1F924A3FB
:1054B000D3E90023CDE9040101F030FA02460B469E
:1054C0004046494601F076F81FA3D3E90023804601
:1054D0008946DDE9040101F021FA1F2DCDE9020121
:1054E00054DC294B6A1E53F822309F424ED00246AC
:1054F0000B464046494601F05DF802460B46CAE9B4
:10550000002383460E465A4633464046494601F03C
:1055100051F8DDE9022301F04DF8002C02460B465C
:10552000CAE9022386DA5B4606F1004601F1004132
:105530008AE84800CAF80C10CAF808006D4279E7FA
:1055400000004054FB21F93F3163621A61B4D03D41
:105550000000601A61B4D03D7370032E8A19A33B1A
:1055600083C8C96D305FE43FFB21E93F7BD902402E
:10557000FB21F93FFB213941FFFFEF7F0000704124
:10558000287500080000E03FA8740008DDE9022348
:105590004046494601F00EF83A15C1F30A53D31AB2
:1055A000102B83460E460992CAE90001ABDD58A3D1
:1055B000D3E90023DDE9040101F0B0F906460F4606
:1055C00002460B464046494600F0F4FFCDE906018D
:1055D00002460B464046494600F0ECFF32463B4649
:1055E00000F0E8FF4CA3D3E9002306460F46DDE9AF
:1055F000040101F093F932463B4600F0DBFFDDE9A0
:105600000689CDE9020102460B464046494600F0B4
:10561000D1FF0B46C1F30A570E460999CF1B02462C
:10562000312F8346CAE900236CDD3DA3D3E9002373
:10563000DDE9040101F072F906460F4602460B4609
:1056400040464946CDE9068900F0B4FF02460B46C4
:1056500080468946DDE9060100F0ACFF32463B4654
:1056600000F0A8FF30A3D3E9002306460F46DDE98A
:10567000040101F053F932463B4600F09BFF02461D
:105680000B46CDE9022334E700F096FF2A4B9F42F8
:1056900004460D4618D026A3D3E9002300F08CFF62
:1056A00002460B46CAE900232946204600F082FF45
:1056B0001FA3D3E9002300F07FFF4FF0FF35CAE9B5
:1056C0000201B7E6032394E611A3D3E9002300F017
:1056D00073FF11A3D3E900230D46044600F06CFFCD
:1056E00002460B46CAE900232946204600F062FF25
:1056F00009A3D3E9002300F05FFF4FF0FF35CAE9AB
:10570000020197E6DDE90689FDE600BFAFF3008000
:105710000000601A61B4D03D7370032E8A19A33B58
:105720000000002E8A19A33BC14920259A837B39AA
:105730003163621A61B4D03DFB21F93F00000000E3
:105740002DE9F04F21F00046B6F1795F85B00C46A7
:1057500092469B4605466BDA01F07AFB002800F082
:10576000E8802A4623462846214601F0D7F874A34C
:10577000D3E900238046894601F0D0F872A3D3E92B
:10578000002300F019FF42464B4601F0C7F870A312
:10579000D3E9002300F00EFF42464B4601F0BEF86D
:1057A0006DA3D3E9002300F007FF42464B4601F00A
:1057B000B5F86BA3D3E9002300F0FCFE42464B464C
:1057C00001F0ACF868A3D3E9002300F0F5FE4246EF
:1057D0004B4601F0A3F8CDE900010022644B40469E
:1057E000494601F09BF8DDE9002306460F46404696
:1057F000494601F093F85246804689465B46284662
:10580000214601F08BF802460B464046494600F01F
:10581000D1FE02460B463046394600F0CBFE02462A
:105820000B460020534900F0C5FE05B0BDE8F08FDF
:1058300002460B4601F072F841A3D3E900238046EB
:10584000894601F06BF840A3D3E9002300F0B4FED1
:1058500042464B4601F062F83DA3D3E9002300F035
:10586000A9FE42464B4601F059F83BA3D3E9002379
:1058700000F0A2FE42464B4601F050F838A3D3E9AF
:10588000002300F097FE42464B4601F047F836A34E
:10589000D3E9002300F090FE4B46424601F03EF86B
:1058A000354B9E42CDE9000197DD344B9E424FF0CF
:1058B000000238DCA6F5001300202E4916461F46CC
:1058C00000F078FECDE902010022294B404649460E
:1058D00001F024F832463B4600F06CFEDDE900237F
:1058E00006460F464046494601F018F852468046A3
:1058F00089465B462846214601F010F802460B46D1
:105900004046494600F056FE02460B4630463946B0
:1059100000F050FE02460B46DDE9020100F04AFEAF
:1059200005B0BDE8F08F164B164FCDE902230026D7
:10593000CAE71049002005B0BDE8F08FAFF3008042
:10594000D43888BEE9FAA8BDC4B1B4BD9EEE213EEC
:10595000AD529C804F7E923E9015CB19A001FA3E2D
:105960007751C1166CC1563F4C5555555555A53FFD
:105970000000E03F0000F03F3233D33F0000E93F3A
:105980000000E73F0000D23F2DE9F04FADF5197D53
:105990009C4CA29E9C4D54F8264005942646D41E4D
:1059A00085FB0475E417C4EBA50424EAE4741D46E2
:1059B0000893631CA3EB8303013D02EBC303049331
:1059C0002B4609940295651BF418039006911AD48E
:1059D0002C4401340DF1780800260027DDF88C9264
:1059E00008E059F8250000F033FF0135A542E8E949
:1059F000020108D0002DF4DA013530463946A542BF
:105A0000E8E90201F6D1059B002B2EDB089B4FEA4B
:105A1000C309039BA9F10808984420AB9944059B4E
:105A200070AA02EBC30B0DF5DC7A029B002BC0F2CF
:105A30000F83039B4D46A3F108040026002775E958
:105A40000223F4E9020100F069FF02460B463046EA
:105A5000394600F0B1FD444506460F46EFD1EAE96C
:105A60000267DA4509F10809DFD10598089A009024
:105A700000F18043013B9B000CAC191F234402F151
:105A800000520B93039B013A21440A9103EBC20B92
:105A9000009A98A901EBC203002A53E9284513464E
:105AA0002BDD01EBC308A8F1A8080DF12C090DF5B9
:105AB000DC7A0022554B2046294600F02FFF01F0EA
:105AC000C7F900F0C5FE0022514B06460F4600F014
:105AD00025FF02460B462046294600F06BFD01F0EB
