:020000040800F2
:10000000E80D002071060008D1060008D10600089E
:10001000D1060008D1060008D10600080000000043
:10002000000000000000000000000000D1060008F1
:10003000D106000800000000D1060008411C00089D
:10004000D1060008D1060008D1060008D106000834
:10005000D1060008D1060008C51A0008E31A0008F6
:10006000011B00081F1B00083D1B0008D1060008EB
:10007000D1060008D1060008D1060008D106000804
:10008000D1060008D1060008D1060008D1060008F4
:10009000D1060008D1060008D10600085B1B000845
:1000A000D1060008D1060008D1060008D1060008D4
:1000B000912D0008D1060008D1060008D1060008DD
:1000C000D1060008D1060008D1060008D1060008B4
:1000D000D1060008D1060008890100083D26000865
:1000E000D1060008D1060008D1060008D106000894
:1000F000D1060008D1060008D1060008D106000884
:10010000D1060008D1060008E53E0008D106000827
:10011000D1060008D1060008D1060008D106000863
:10012000D1060008D1060008D1060008D106000853
:10013000D1060008D1060008D1060008D106000843
:10014000D1060008D1060008D1060008D106000833
:10015000D1060008D1060008D1060008D106000823
:10016000D1060008D1060008D1060008D106000813
:10017000D1060008D1060008D1060008D106000803
:10018000D1060008D106000880B500AF40F2255125
:10019000434800F012FA0346002B7ED0404800F09E
:1001A000B6F90346DAB23F4B1A703F4B1B78782BF7
:1001B00008D13C4B1B781A463C4B1A603A4B002244
:1001C0001A7043E0384B1B78792B08D1354B1B78DC
:1001D0001A46374B1A60344B00221A7036E0324B05
:1001E0001B78582B08D12F4B1B781A46314B1A60BD
:1001F0002D4B00221A7029E02B4B1B78592B08D16C
:10020000284B1B781A462C4B1A60274B00221A7079
:100210001CE0254B1B78672B07D1224B1A78274B04
:100220001A70214B00221A7010E01F4B1B78732BA1
:1002300008D11C4B1B781A46214B1A601A4B00221E
:100240001A7003E0174B1A78174B1A701D4B1A6877
:10025000164B1B689A4205D11B4B1A68144B1B683E
:100260009A4212D0114B1B68184606F0BBF80246A2
:10027000164B1A600E4B1B68184606F0B3F8024680
:10028000134B1A60134B01221A60084B1B680D4A6E
:100290001360074B1B680C4A136000BF80BD00BF92
:1002A000004400403D0400203C04002034040020B1
:1002B000080400201804002020040020130400205B
:1002C0000C0400202C0400202804002094050020A9
:1002D000E00500208C05002090B484B000AF0346F8
:1002E0000A46FB711346BB710023FB60BB7903F028
:1002F00003039B000F2202FA03F3FB601649BB794C
:100300009B08DBB21846144ABB799B08DBB2023368
:1003100052F82320FB68DB431A40831C41F823205A
:100320000D48BB799B08DBB21C460B4ABB799B0886
:10033000DBB2023352F82320F979BB7903F00303CF
:100340009B0001FA03F31A43A31C40F8232000BFCB
:100350001037BD4690BC70470038014080B58AB068
:1003600000AF7860396000237B6200233B6200238A
:10037000FB610023BB617B681B8A9BB27B627B6A4B
:1003800023F440537B623B68DB881A467B6A134345
:100390007B627B6A9AB27B681A827B689B899BB27C
:1003A0007B627B6A23F4B05323F00C037B623B68CF
:1003B0009A883B681B8913439AB23B685B89134355
:1003C0009BB21A467B6A13437B627B6A9AB27B6854
:1003D0009A817B689B8A9BB27B627B6A23F4407321
:1003E0007B623B689B891A467B6A13437B627B6A0C
:1003F0009AB27B689A8207F10803184600F0ACFABB
:100400007B68304A934203D07B682F4A934202D1E3
:100410007B693B6201E03B693B627B689B899BB2E5
:100420001BB2002B0CDA3A6A13469B0013449A0065
:100430001A443B681B685B00B2FBF3F3FB610BE003
:100440003A6A13469B0013449A001A443B681B689F
:100450009B00B2FBF3F3FB61FB691C4AA2FB032385
:100460005B091B017B627B6A1B09642202FB03F3AD
:10047000FA69D31ABB617B689B899BB21BB2002BC4
:100480000CDABB69DB003233104AA2FB03235B09A1
:1004900003F007037A6A13437B620BE0BB691B011D
:1004A00032330A4AA2FB03235B0903F00F037A6A83
:1004B00013437B627B6A9AB27B681A8100BF28373C
:1004C000BD4680BD00100140001401401F85EB5166
:1004D00080B483B000AF78600B46FB70FB78002BD4
:1004E00008D07B689B899BB243F400539AB27B6827
:1004F0009A8107E07B689B899BB223F400539AB2F0
:100500007B689A8100BF0C37BD4680BC704780B4C1
:1005100083B000AF78607B689B889BB2C3F308030D
:100520009BB218460C37BD4680BC704780B487B07C
:1005300000AF78600B467B8013467B7000233B61E5
:100540000023FB600023BB6000237B617B687B6131
:100550007B88DBB25B09DBB23B617B8803F01F0366
:10056000FB600122FB6802FA03F3BB603B69012BCD
:1005700003D17B690C337B6109E03B69022B03D11A
:100580007B6910337B6102E07B6914337B617B788C
:10059000002B06D07B697A691168BA680A431A6031
:1005A00006E07B697A691168BA68D2430A401A602A
:1005B00000BF1C37BD4680BC704780B487B000AF19
:1005C00078600B467B800023FB6000237B61002367
:1005D000BB600023FB747B88DBB25B09DBB2BB60D2
:1005E0007B8803F01F037B6101227B6902FA03F31E
:1005F0007B61BB68012B07D17B689B899BB21A4644
:100600007B6913407B6111E0BB68022B07D17B68DB
:100610001B8A9BB21A467B6913407B6106E07B68AC
:100620009B8A9BB21A467B6913407B617B881B0ABD
:100630009BB2FB600122FB6802FA03F3FB607B685C
:100640001B889BB21A46FB681340FB607B69002B3A
:1006500005D0FB68002B02D00123FB7401E00023CE
:10066000FB74FB7C18461C37BD4680BC70470000FD
:1006700080B582B000AF114B7B60114B3B6007E04F
:100680003B681A1D3A607A68111D796012681A6019
:100690003B680C4A9342F3D30B480C494FF00002DD
:1006A0008842B8BF40F8042BFADB01F0C3FE00F02B
:1006B000D7F800BF0837BD4680BD00BF106A0008EC
:1006C00000000020F4000020F8000020E8050020D1
:1006D00080B400AFFEE7000080B584B000AF012118
:1006E000042000F0FFF90023BB800023FB804FF6BD
:1006F000FF73BB600023BB810023BB733B1D194606
:10070000054803F00BFC0121034803F071FC00BF16
:100710001037BD4680BD00BF0008004080B586B0E0
:1007200000AFFFF7D9FF7023BB800123FB800223BA
:100730003B8240F63303FB603B1D1946184803F02B
:1007400077FC0821164803F061FE41F26703FB6065
:100750003B1D1946124803F0E5FC0821104803F040
:1007600070FE41F69B03FB603B1D19460C4803F0ED
:1007700061FD08210A4803F081FE42F2CF03FB60CD
:100780003B1D1946064803F0DBFD0821044803F031
:1007900090FE00F007F800BF1837BD4680BD00BFCF
:1007A0000008004080B582B000AF0121082000F0B1
:1007B0007BF902220C21274801F050FB02220D2177
:1007C000244801F04BFB02220E21224801F046FB97
:1007D00002220F211F4801F041FB4FF47F433B6091
:1007E0000023BB710023FB7102233B7103237B7148
:1007F0003B461946174801F06FFA0121022000F02C
:1008000053F94FF470433B600023BB710023FB712D
:1008100001233B7103237B713B4619460E4801F0CF
:100820005BFA0121102000F03FF94FF470433B6068
:100830000023BB710023FB7101233B7103237B71F8
:100840003B461946054801F047FA00BF0837BD4648
:1008500080BD00BF000C02400004024000100240B6
:1008600090B585B004AF01F0E5FD01F0AFFB01F0FC
:100870000BFA03F04BFB01F0C7FB03F083FA02F025
:1008800059F801F07FFE01F031FB01F061FB41F20C
:10089000883001F0BDF902F01FFA02F003F84FF0C2
:1008A00000034FF00004CDE902344FF000034FF095
:1008B0000004CDE900344FF000024FF000034FF088
:1008C00000004FF0000102F0F9F80023002200219F
:1008D000002003F0E7F84FF47A7001F099F901F085
:1008E00053FBFCE780B483B000AF0346FB71054BBC
:1008F00000221A70034AFB79137000BF0C37BD4603
:1009000080BC70470238024080B582B000AF00233F
:100910003B600023FB710023BB71312000F01EF906
:100920000346BB713B6801333B603B68B3F5A06F86
:1009300002D0BB79002BF0D0312000F00FF9034634
:10094000002B02D00123FB7101E00023FB71FB7936
:1009500018460837BD4680BD80B489B000AF7860C6
:100960000023BB6100237B610023FB6102233B6109
:100970000023FB600223BB60474B9B6803F00C0322
:10098000BB61BB69042B07D0082B09D0002B3DD1DC
:100990007B68424A1A603DE07B68414A1A6039E050
:1009A0003D4B5B689B0D03F00103FB603A4B5B68BA
:1009B00003F03F03BB60FB68002B0CD0384ABB68D8
:1009C000B2FBF3F3344A52689209C2F3080202FB05
:1009D00003F3FB610BE0314ABB68B2FBF3F32E4A31
:1009E00052689209C2F3080202FB03F3FB612A4B2F
:1009F0005B681B0C03F0030301335B003B61FA6986
:100A00003B69B2FBF3F27B681A6003E07B68234A20
:100A10001A6000BF204B9B6803F0F003BB61BB6909
:100A20001B09BB611F4ABB6913441B78DBB27B61A6
:100A30007B681A687B69DA407B685A60164B9B6852
:100A400003F4E053BB61BB699B0ABB61154ABB69F8
:100A500013441B78DBB27B617B685A687B69DA40A0
:100A60007B689A600C4B9B6803F46043BB61BB6975
:100A70005B0BBB610B4ABB6913441B78DBB27B6128
:100A80007B685A687B69DA407B68DA6000BF24378C
:100A9000BD4680BC704700BF003802400024F4000F
:100AA00000127A000000002080B483B000AF7860AC
:100AB0000B46FB70FB78002B06D00949084B1A6BDC
:100AC0007B6813430B6306E00549054B1A6B7B6893
:100AD000DB4313400B6300BF0C37BD4680BC70473F
:100AE0000038024080B483B000AF78600B46FB70E2
:100AF000FB78002B06D00949084B1A6C7B6813431E
:100B00000B6406E00549054B1A6C7B68DB43134018
:100B10000B6400BF0C37BD4680BC704700380240F4
:100B200080B483B000AF78600B46FB70FB78002B7D
:100B300006D00949084B5A6C7B6813434B6406E0A6
:100B40000549054B5A6C7B68DB4313404B6400BF7F
:100B50000C37BD4680BC70470038024080B487B077
:100B600000AF0346FB710023FB6000237B61002381
:100B7000FB74FB795B09DBB2FB60FB68012B03D1E3
:100B8000124B1B687B6109E0FB68022B03D10F4B02
:100B90001B6F7B6102E00D4B5B6F7B61FB7903F0A8
:100BA0001F03FB607A69FB6822FA03F303F0010379
:100BB000002B02D00123FB7401E00023FB74FB7CBB
:100BC00018461C37BD4680BC704700BF0038024045
:100BD00080B483B000AF78600B46FB707B68FA7816
:100BE0001A70012318460C37BD4680BC704780B48C
:100BF00085B000AF786039600023FB600AE07B6855
:100C00005A1C7A603A68511C396012781A70FB6875
:100C10000133FB603B681B78002BF0D1FB68184662
:100C20001437BD4680BC704780B586B000AFF86011
:100C30007A603B600B46FB7200237B617B68013B63
:100C40007B603B68092B1DD93B681D4AA2FB03232F
:100C5000DB08F97A7A68F868FFF7E6FF78617B6964
:100C6000FA681344FB6010E0FB7A1946F868FFF756
:100C7000AFFFFB680133FB607B6901337B617B68FD
:100C8000013B7B607B68002BEEDC39680C4BA3FBDF
:100C90000123DA0813469B0013445B00CA1AD3B23F
:100CA0003033DBB21946F868FFF792FF02467B69E2
:100CB00013447B617B6918461837BD4680BD00BF71
:100CC000CDCCCCCC80B586B000AFF8607A603B600C
:100CD0000B46FB7200237B613B68002B03DA3B6809
:100CE0005B423B6101E03B683B617B68013B7B60B1
:100CF0003B69092B1FD93B68002B0CDA3B692E4A54
:100D0000A2FB0323DB085B42F97A7A68F868FFF7F5
:100D1000D9FF78610AE03B69274AA2FB0323DB087D
:100D2000F97A7A68F868FFF7CDFF78617B69FA682D
:100D30001344FB6025E03B68002B11DA7B68013B24
:100D40007B600DE0FB7A1946F868FFF741FFFB680E
:100D50000133FB607B6901337B617B68013B7B6016
:100D60007B68002BEEDC3B68002B0ADA2D21F8684B
:100D7000FFF72EFF02467B6913447B61FB6801335A
:100D8000FB6039690C4BA3FB0123DA0813469B0077
:100D900013445B00CA1AD3B23033DBB21946F86889
:100DA000FFF716FF02467B6913447B617B69184697
:100DB0001837BD4680BD00BFCDCCCCCC80B588B047
:100DC00002AFF8607A601A460B46FB721346BB729C
:100DD00000237B617B68013B7B603B6A1B09002B26
:100DE00020D03B6A1B09BA7AF97A009313467A68D5
:100DF000F868FFF7E3FF02467B6913447B617B6978
:100E0000FA681344FB6010E0FB7A1946F868FFF7B4
:100E1000DFFEFB680133FB607B6901337B617B682C
:100E2000013B7B607B68002BEEDC3B6A03F00F0329
:100E3000092B0BD83B6ADBB203F00F03DBB2303374
:100E4000DBB21946F868FFF7C3FE19E0BB7A002B46
:100E50000BD03B6ADBB203F00F03DBB23733DBB2FC
:100E60001946F868FFF7B4FE0AE03B6ADBB203F00C
:100E70000F03DBB25733DBB21946F868FFF7A8FE61
:100E80007B6901337B617B6918461837BD4680BD9D
:100E900080B58AB002AFF860B9607A603B60002329
:100EA000BB6100237B61FB68002B00F0FC80FB68CA
:100EB00000221A70F7E07B681B78252B0BD0FB68AB
:100EC0005A1CFA607A68511C796012781A707B6932
:100ED00001337B61E7E07B6801331B78252B0BD165
:100EE000FB685A1CFA6025221A707B6802337B600B
:100EF0007B6901337B61D6E02023FB770023BB773E
:100F00007B6801337B607B681B78302B14D13023E6
:100F1000FB777B6801337B600EE0BB7F1A46920053
:100F200013445B00DAB27B681B781344DBB2303BBE
:100F3000BB777B6801337B607B681B782F2B03D9E1
:100F40007B681B78392BE8D9BA7F7B6913441A4632
:100F5000BB689A4205D9BB68DAB27B69DBB2D31AA7
:100F6000BB777B681B78583B202B00F28E8001A258
:100F700052F823F0451000088B1000088B10000871
:100F80008B1000088B1000088B1000088B100008D5
:100F90008B1000088B1000088B1000088B100008C5
:100FA00075100008F90F00088B1000088B1000085E
:100FB0008B1000088B100008F90F00088B10000838
:100FC0008B1000088B1000088B1000088B10000895
:100FD0008B1000088B1000088B1000088B10000885
:100FE000611000088B100008111000088B10000819
:100FF0008B10000829100008B87F3B681A1D3A6062
:101000001B68F97F0246F868FFF75CFEB8613FE0B5
:10101000B87F3B681A1D3A601B68F97F0246F86882
:10102000FFF702FEB86133E0B87F3B681A1D3A60F3
:101030001B68F97F009300230246F868FFF7BEFEA5
:10104000B86125E0B87F3B681A1D3A601B68F97FDC
:10105000009301230246F868FFF7B0FEB86117E07D
:101060003B681A1D3A601B681946F868FFF7BFFD18
:10107000B8610DE03B681A1D3A601B68DBB2194687
:10108000F868FFF7A5FDB86102E04FF0FF3325E0F7
:101090007B6801337B60BB69FA681344FB607A6943
:1010A000BB6913447B617B681B78002B04D07A6991
:1010B000BB689A42FFF4FFAE7A69BB689A4203D2DA
:1010C000FB6800221A7008E0FB68013BFB60FB68CC
:1010D00000221A707B69013B7B617B6918462037CF
:1010E000BD4680BD80B584B000AFF860B9607A605D
:1010F0007B68BA686421F868FFF7CAFE03461846A1
:101100001037BD4680BD0EB480B585B000AF7860A5
:1011100007F12003BB60BA68F9697868FFF7E2FF5E
:10112000F860FB6818461437BD46BDE8804003B040
:101130007047000090B589B000AF786001210820A9
:10114000FFF7B2FC01214FF48040FFF7E9FC0023D8
:101150003B770023BB770123FB7703237B770123B6
:10116000BB6107F1180319461E4800F0B5FD1023B6
:10117000BB6107F1180319461A4800F0ADFD0021C4
:101180000320FFF7A9F801233B610123BB7500236E
:101190003B7510237B7507F11003184602F0ACFC79
:1011A00006233B7303237B730023BB730123FB7371
:1011B00007F10C03184602F043FD0B4B00221A60A6
:1011C0007A684FF000034FF00004C2E902347A68F5
:1011D0004FF000034FF00004C2E9003400BF243791
:1011E000BD4690BD000C02405404002090B589B06B
:1011F00000AF786001210820FFF756FC01214FF471
:101200008040FFF78DFC00233B770023BB77012351
:10121000FB7703237B770223BB6107F11803194691
:101220001E4800F059FD2023BB6107F11803194641
:101230001A4800F051FD01210320FFF74DF8022369
:101240003B610123BB7500233B7510237B7507F1C0
:101250001003184602F050FC07233B7303237B73F3
:101260000023BB730123FB7307F10C03184602F044
:10127000E7FC0B4B00221A607A684FF000034FF036
:101280000004C2E902347A684FF000034FF0000412
:10129000C2E9003400BF2437BD4690BD000C0240B7
:1012A0005004002090B589B000AF7860012108207B
:1012B000FFF7FAFB01214FF48040FFF731FC0023D8
:1012C0003B770023BB770123FB7703237B77042342
:1012D000BB6107F1180319461E4800F0FDFC4023CE
:1012E000BB6107F1180319461A4800F0F5FC02210A
:1012F0000320FEF7F1FF04233B610123BB750023AC
:101300003B7510237B7507F11003184602F0F4FBC0
:1013100008233B7303237B730023BB730123FB73FD
:1013200007F10C03184602F08BFC0B4B00221A60ED
:101330007A684FF000034FF00004C2E902347A6883
:101340004FF000034FF00004C2E9003400BF24371F
:10135000BD4690BD000C02405804002090B589B0F5
:1013600000AF786001210820FFF79EFB01214FF4B8
:101370008040FFF7D5FB00233B770023BB77012399
:10138000FB7703237B770823BB6107F1180319461A
:101390001E4800F0A1FC8023BB6107F11803194629
:1013A0001A4800F099FC03210320FEF795FF08235B
:1013B0003B610123BB7500233B7510237B7507F14F
:1013C0001003184602F098FB09233B7303237B7339
:1013D0000023BB730123FB7307F10C03184602F0D3
:1013E0002FFC0B4B00221A607A684FF000034FF07D
:1013F0000004C2E902347A684FF000034FF00004A1
:10140000C2E9003400BF2437BD4690BD000C024045
:101410004C04002090B589B000AF78600121022013
:10142000FFF742FB01214FF48040FFF779FB0023D7
:101430003B770023BB770123FB7703237B771023C4
:10144000BB6107F1180319461E4800F045FC042350
:10145000BB6107F1180319461A4800F03DFC04214E
:101460000120FEF739FF10233B610123BB750023E8
:101470003B7510237B7507F11003184602F03CFB07
:101480000A233B7303237B730023BB730123FB738A
:1014900007F10C03184602F0D3FB0B4B00221A6035
:1014A0007A684FF000034FF00004C2E902347A6812
:1014B0004FF000034FF00004C2E9003400BF2437AE
:1014C000BD4690BD000402404404002090B589B0A0
:1014D00000AF786001210220FFF7E6FA01214FF406
:1014E0008040FFF71DFB00233B770023BB770123E0
:1014F000FB7703237B772023BB6107F11803194691
:101500001E4800F0E9FB0823BB6107F118031946E8
:101510001A4800F0E1FB05210120FEF7DDFE202343
:101520003B610123BB7500233B7510237B7507F1DD
:101530001003184602F0E0FA17233B7303237B7372
:101540000023BB730123FB7307F10C03184602F061
:1015500077FB0B4B00221A607A684FF000034FF0C4
:101560000004C2E902347A684FF000034FF000042F
:10157000C2E9003400BF2437BD4690BD00040240DC
:101580004804002090B583B000AF78601A4B1B6808
:10159000184604F045FB7B68D3E900341A4623461D
:1015A00004F0F0F903460C467A68C2E90234124BA3
:1015B0001B68184604F034FB03460C467A68C2E9FF
:1015C00000340D4B1B68002B04DA7B6801221A746F
:1015D00001230CE0084B1B68002B04DD7B68002214
:1015E0001A74002303E07B6802221A74022318464F
:1015F0000C37BD4690BD00BF5404002090B583B0A9
:1016000000AF78601A4B1B68184604F009FB7B6832
:10161000D3E900341A46234604F0B4F903460C46D5
:101620007A68C2E90234124B1B68184604F0F8FAD3
:1016300003460C467A68C2E900340D4B1B68002B48
:1016400004DA7B6801221A7401230CE0084B1B6842
:10165000002B04DD7B6800221A74002303E07B6802
:1016600002221A74022318460C37BD4690BD00BFF3
:101670005004002090B583B000AF78601A4B1B680F
:10168000184604F0CDFA7B68D3E900341A462346A5
:1016900004F078F903460C467A68C2E90234124B2A
:1016A0001B68184604F0BCFA03460C467A68C2E987
:1016B00000340D4B1B68002B04DA7B6801221A747E
:1016C00001230CE0084B1B68002B04DD7B68002223
:1016D0001A74002303E07B6802221A74022318465E
:1016E0000C37BD4690BD00BF5804002090B583B0B4
:1016F00000AF78601A4B1B68184604F091FA7B68BB
:10170000D3E900341A46234604F03CF903460C465C
:101710007A68C2E90234124B1B68184604F080FA5A
:1017200003460C467A68C2E900340D4B1B68002B57
:1017300004DA7B6801221A7401230CE0084B1B6851
:10174000002B04DD7B6800221A74002303E07B6811
:1017500002221A74022318460C37BD4690BD00BF02
:101760004C04002090B583B000AF78601A4B1B6822
:10177000184604F055FA7B68D3E900341A4623462C
:1017800004F000F903460C467A68C2E90234124BB1
:101790001B68184604F044FA03460C467A68C2E90E
:1017A00000340D4B1B68002B04DA7B6801221A748D
:1017B00001230CE0084B1B68002B04DD7B68002232
:1017C0001A74002303E07B6802221A74022318466D
:1017D0000C37BD4690BD00BF4404002090B583B0D7
:1017E00000AF78601A4B1B68184604F019FA7B6842
:1017F000D3E900341A46234604F0C4F803460C46E5
:101800007A68C2E90234124B1B68184604F008FAE1
:1018100003460C467A68C2E900340D4B1B68002B66
:1018200004DA7B6801221A7401230CE0084B1B6860
:10183000002B04DD7B6800221A74002303E07B6820
:1018400002221A74022318460C37BD4690BD00BF11
:101850004804002080B582B000AF0121144800F098
:10186000C8FA0346FB711021114800F0C2FA034682
:10187000BB71104B1B78FA799A4214D00D4AFB7950
:1018800013700C4B1B78002B0DD1BB79012B05D1AC
:10189000094B1B680133084A136004E0064B1B68C0
:1018A000013B054A136000BF0837BD4680BD00BF3D
:1018B000000C0240100000205404002080B582B0CB
:1018C00000AF0221144800F094FA0346FB71202176
:1018D000114800F08EFA0346BB71104B1B78FA7961
:1018E0009A4214D00D4AFB7913700C4B1B78002BD5
:1018F0000DD1BB79012B05D1094B1B680133084A77
:10190000136004E0064B1B68013B054A136000BFEF
:101910000837BD4680BD00BF000C0240110000200A
:101920005004002080B582B000AF0421144800F0BC
:1019300060FA0346FB714021114800F05AFA034651
:10194000BB71104B1B78FA799A4214D00D4AFB797F
:1019500013700C4B1B78002B0DD1BB79012B05D1DB
:10196000094B1B680133084A136004E0064B1B68EF
:10197000013B054A136000BF0837BD4680BD00BF6C
:10198000000C0240120000205804002080B582B0F4
:1019900000AF0821144800F02CFA0346FB718021A7
:1019A000114800F026FA0346BB71104B1B78FA79F8
:1019B0009A4214D00D4AFB7913700C4B1B78002B04
:1019C0000DD1BB79012B05D1094B1B680133084AA6
:1019D000136004E0064B1B68013B054A136000BF1F
:1019E0000837BD4680BD00BF000C02401300002038
:1019F0004C04002080B582B000AF1021144800F0E4
:101A0000F8F90346FB710421114800F0F2F903468E
:101A1000BB71104B1B78FA799A4214D00D4AFB79AE
:101A200013700C4B1B78002B0DD1BB79012B05D10A
:101A3000094B1B680133084A136004E0064B1B681E
:101A4000013B054A136000BF0837BD4680BD00BF9B
:101A500000040240140000204404002080B582B03D
:101A600000AF2021144800F0C4F90346FB7108219F
:101A7000114800F0BEF90346BB71104B1B78FA7990
:101A80009A4214D00D4AFB7913700C4B1B78002B33
:101A90000DD1BB79012B05D1094B1B680133084AD5
:101AA000136004E0064B1B68013B054A136000BF4E
:101AB0000837BD4680BD00BF00040240150000206D
:101AC0004804002080B500AF012002F087F80346EB
:101AD000002B04D0FFF7BEFE012002F0A3F800BFE8
:101AE00080BD80B500AF022002F078F80346002BDD
:101AF00004D0FFF7E3FE022002F094F800BF80BD9F
:101B000080B500AF042002F069F80346002B04D032
:101B1000FFF708FF042002F085F800BF80BD80B504
:101B200000AF082002F05AF80346002B04D0FFF75C
:101B30002DFF082002F076F800BF80BD80B500AF11
:101B4000102002F04BF80346002B04D0FFF752FFA1
:101B5000102002F067F800BF80BD80B500AF2020E4
:101B600002F03CF80346002B04D0FFF777FF20205B
:101B700002F058F800BF80BD80B483B000AF0346C8
:101B80003960FB7197F90730002B0BDA0D49FB79AF
:101B900003F00F03043B3A68D2B21201D2B20B44F5
:101BA0001A7609E0084997F907303A68D2B212016B
:101BB000D2B20B4483F8002300BF0C37BD4680BC73
:101BC000704700BF00ED00E000E100E080B582B0AA
:101BD00000AF78607B68B3F1807F01D3012311E00F
:101BE0000A4A7B6823F07F43013B53600F214FF08B
:101BF000FF30FFF7C1FF054B00229A60034B07221D
:101C00001A60002318460837BD4680BD10E000E08A
:101C100080B483B000AF78607B684FF47A7202FBC7
:101C200003F3064A136000BF044B1B68002BFBD173
:101C300000BF0C37BD4680BC704700BFF8000020D5
:101C400080B400AF0D4B1B6801330C4A13600C4B82
:101C50001B68002B04D00A4B1B68013B084A136029
:101C6000084B1B68002B04D0064B1B68013B054A40
:101C7000136000BFBD4680BC704700BFFC00002061
:101C800000010020F800002080B500AF0F4B1B784A
:101C9000002B19D10120FEF725FE00BFFEF734FE10
:101CA0000346002BFAD00A4B1B680A4AA2FB032307
:101CB0009B0C1846FFF78AFF0346002B00D0FEE777
:101CC000024B01221A7000E000BF80BD0401002019
:101CD0009000002083DE1B4380B487B000AF7860A3
:101CE000396000237B6100233B610023FB600023FC
:101CF0007B6176E001227B6902FA03F33B613B687A
:101D00001A683B691340FB60FA683B699A4265D1E7
:101D10007B681A687B695B00032101FA03F3DB43EC
:101D20001A407B681A607B681A683B681B79194601
:101D30007B695B0001FA03F31A437B681A603B6816
:101D40001B79012B03D03B681B79022B2ED17B68BA
:101D50009A687B695B00032101FA03F3DB431A40B5
:101D60007B689A607B689A683B685B7919467B69F7
:101D70005B0001FA03F31A437B689A607B685A6838
:101D80007B699BB2194601238B40DB431A407B6879
:101D90005A607B685B683A68927911467A6992B2B8
:101DA00001FA02F292B21A437B685A607B68DA68E1
:101DB0007B699BB25B00032101FA03F3DB431A400A
:101DC0007B68DA607B68DA683B68DB7919467B6997
:101DD0005B0001FA03F31A437B68DA607B69013325
:101DE0007B617B690F2B85D900BF1C37BD4680BC4A
:101DF000704780B485B000AF78600B467B800023CD
:101E0000FB737B681A697B881340002B02D0012387
:101E1000FB7301E00023FB73FB7B18461437BD46C0
:101E200080BC704780B483B000AF78600B467B8085
:101E30007B687A881A8300BF0C37BD4680BC704728
:101E400080B483B000AF78600B467B807B687A8873
:101E50005A8300BF0C37BD4680BC704780B485B044
:101E600000AF78600B467B8013467B700023FB60DD
:101E70000023BB607A787B8803F007039B0002FA9B
:101E800003F3FB607B88DB089BB218467B88DB088A
:101E90009BB21A467B68083253F822207B8803F0F5
:101EA00007039B000F2101FA03F3DB4302EA03015E
:101EB0007B6800F1080243F822107B88DB089BB2A4
:101EC0001A467B68083253F82220FB681343BB6034
:101ED0007B88DB089BB21A467B680832B96843F8F6
:101EE000221000BF1437BD4680BC704780B582B059
:101EF00000AF01210220FEF7D7FD4FF470733B6065
:101F000002237B7101233B710023BB710023FB7112
:101F10003B4619460C48FFF7DFFE01210120FEF782
:101F2000C3FDC0233B6002237B7101233B7100236F
:101F3000BB710023FB713B4619460448FFF7CCFEFA
:101F400000BF0837BD4680BD0004024000000240CB
:101F500080B582B000AF01210420FEF7A5FD022369
:101F60003B6002237B7101233B710023BB71002383
:101F7000FB713B4619460348FFF7AEFE00BF08372A
:101F8000BD4680BD0008024080B500AF40210D482D
:101F9000FFF756FF80210B48FFF744FF40210A4816
:101FA000FFF740FF4FF400710648FFF749FF4FF479
:101FB00080710448FFF736FF80210348FFF732FFA6
:101FC00000BF80BD000402400000024080B500AFA9
:101FD00000F044F80B4800F01EFA00F0E5F8282065
:101FE00000F016F9062000F013F90C2000F010F9AB
:101FF000012000F00DF94CF2503000F00CFA00BF57
:1020000080BD00BFA086010080B500AF012000F0B8
:10201000FFF84CF2503000F0FEF900BF80BD80B5F3
:1020200082B000AF03463A60FB710B46BB71BA79D0
:10203000FB791146184600F0C9F907E03B681B78A8
:10204000184600F054F93B6801333B603B681B784D
:10205000002BF3D100BF0837BD4680BD80B584B0EA
:1020600000AF0023FB7343E0FA7B254913469B0036
:1020700013449B000B440C331B6801211846FEF7E8
:1020800013FDFA7B1E4913469B0013449B000B442F
:1020900008331B887B6001233B720023BB72012342
:1020A000FB7202237B72FA7B154913469B00134493
:1020B0009B000B4404331B683A1D11461846FFF77A
:1020C0000BFEFA7B0E4913469B0013449B000B4406
:1020D00010331B78002B04D1FB7B184600F012F85C
:1020E00003E0FB7B184600F02DF8FB7B0133FB730C
:1020F000FB7B052BB8D900BF1037BD4680BD00BFA4
:102100001800002080B483B000AF0346FB71FA7959
:102110000B4913469B0013449B000B44043319687E
:10212000FA79074813469B0013449B000344083385
:102130001B884B8300BF0C37BD4680BC704700BF77
:102140001800002080B483B000AF0346FB71FA7919
:102150000B4913469B0013449B000B44043319683E
:10216000FA79074813469B0013449B000344083345
:102170001B880B8300BF0C37BD4680BC704700BF77
:102180001800002080B500AF0120FFF7DBFF4FF4FF
:102190007A7000F040F90120FFF7B4FF4FF47A7035
:1021A00000F039F900BF80BD80B500AF0220FFF715
:1021B000C9FF0320FFF7C6FF0420FFF7A3FF052098
:1021C000FFF7A0FFFFF7DEFF4CF2503000F023F9DD
:1021D000FFF7D8FF4CF2503000F01DF9FFF7D2FFA7
:1021E0004CF2503000F017F90220FFF78BFF03206C
:1021F000FFF7A8FF0420FFF785FF0520FFF782FF08
:10220000FFF7C0FF4CF2503000F005F900BF80BD71
:1022100080B582B000AF0346FB710020FFF772FF6C
:1022200097F90730002B03DA0520FFF78BFF02E058
:102230000520FFF767FFFB7903F04003002B03D075
:102240000420FFF77FFF02E00420FFF75BFFFB792C
:1022500003F02003002B03D00320FFF773FF02E0FD
:102260000320FFF74FFFFB7903F01003002B03D08F
:102270000220FFF767FF02E00220FFF743FFFFF7AE
:1022800081FFFB7903F00803002B03D00520FFF743
:1022900059FF02E00520FFF735FFFB7903F0040347
:1022A000002B03D00420FFF74DFF02E00420FFF7CE
:1022B00029FFFB7903F00203002B03D00320FFF773
:1022C00041FF02E00320FFF71DFFFB7903F001034C
:1022D000002B03D00220FFF735FF02E00220FFF7BA
:1022E00011FFFFF74FFF00BF0837BD4680BD80B527
:1022F00082B000AF0346FB710020FFF723FF97F980
:102300000730002B03DA0520FFF71CFF02E0052051
:10231000FFF7F8FEFB7903F04003002B03D0042005
:10232000FFF710FF02E00420FFF7ECFEFB7903F05B
:102330002003002B03D00320FFF704FF02E003205B
:10234000FFF7E0FEFB7903F01003002B03D002201F
:10235000FFF7F8FE02E00220FFF7D4FEFFF712FFBE
:10236000FB7903F00803002B03D00520FFF7EAFEFA
:1023700002E00520FFF7C6FEFB7903F00403002B03
:1023800003D00420FFF7DEFE02E00420FFF7BAFED0
:10239000FB7903F00203002B03D00320FFF7D2FEEA
:1023A00002E00320FFF7AEFEFB7903F00103002BF0
:1023B00003D00220FFF7C6FE02E00220FFF7A2FED4
:1023C000FFF7E0FE00BF0837BD4680BD80B584B092
:1023D00000AF03460A46FB711346BB71FB790F2B16
:1023E00001D90023FB71BB79012B01D90023BB71FB
:1023F000BB799B01FB73FA7BFB791343FB73FB7B7C
:1024000063F07F03FB73FB7B1846FFF701FF00BF00
:102410001037BD4680BD80B483B000AF786000BF88
:102420007B685A1E7A60002BFAD100BF0C37BD467C
:1024300080BC704780B500AF124A124B1B6843F056
:10244000010313600F4B00229A600E4A0D4B1B686C
:1024500023F0847323F4803313600A4B0A4A5A60D2
:10246000084A084B1B6823F480231360054B0022A5
:10247000DA6000F00DF8054B4FF000629A6000BF83
:1024800080BD00BF003802401030002400ED00E0A5
:1024900080B483B000AF00237B6000233B60354AEB
:1024A000344B1B6843F480331360324B1B6803F4D6
:1024B00000333B607B6801337B603B68002B03D1BA
:1024C0007B68B3F5A06FF0D12A4B1B6803F400338F
:1024D000002B02D001233B6001E000233B603B68FE
:1024E000012B42D1234A234B1B6C43F080531364CE
:1024F000214A214B1B6843F4804313601D4A1D4B46
:102500009B6893601B4A1B4B9B6843F4004393609A
:10251000184A184B9B6843F4A0539360154B174A15
:102520005A60144A134B1B6843F08073136000BF5A
:10253000104B1B6803F00073002BF9D0104B40F2D6
:1025400005621A600B4A0B4B9B6823F003039360F0
:10255000084A084B9B6843F00203936000BF054B99
:102560009B6803F00C03082BF9D100BF0C37BD4664
:1025700080BC70470038024000700040085440079B
:10258000003C024080B588B000AF01210220FEF778
:102590008BFA01214FF48020FEF7A4FA4FF4406338
:1025A0007B6102237B7602233B760023BB760123EB
:1025B000FB7607F1140319461E48FFF78DFB07222F
:1025C0000A211C48FFF74AFC07220B211948FFF794
:1025D00045FC4FF416537B6000233B8100237B8135
:1025E0000023BB8100233B820C23FB813B1D19464A
:1025F0001148FDF7B3FE01210F48FDF769FF0122E5
:1026000040F225510C48FDF791FF27233B7700232B
:102610007B770023BB770123FB7707F11C03184668
:1026200001F00EFB01210448FDF752FF00BF2037E7
:10263000BD4680BD000402400048004080B500AFA8
:1026400040F225518348FDF7B8FF0346002B06D022
:102650008048FDF75CFF0346DAB27F4B1A707F4B70
:102660001B78582B07D17C4B1A787D4B1A707B4B0B
:1026700000221A70EBE0794B1B78772B18D1794B3D
:102680001B789BB21A46920013445B009AB2724BBD
:102690001B789BB213449AB2734B1A80734B1B780E
:1026A0000133DAB2714B1A706C4B00221A70CEE013
:1026B0006A4B1B78712B0DD1674B1A78694B1A70D6
:1026C0006A4B1B780133DAB2684B1A70634B0022F5
:1026D0001A70BCE0614B1B78592B07D15E4B1A78FE
:1026E000634B1A705D4B00221A70B0E05B4B1B7895
:1026F000722B18D15F4B1B789BB21A469200134481
:102700005B009AB2544B1B789BB213449AB25A4B5B
:102710001A805A4B1B780133DAB2584B1A704F4B60
:1027200000221A7093E04D4B1B78652B0DD14A4B5C
:102730001A78504B1A70514B1B780133DAB24F4B59
:102740001A70464B00221A7081E0444B1B78432BD1
:1027500007D1414B1A784A4B1A70404B00221A702D
:1027600075E03E4B1B784F2B55D13B4B1A78454BB0
:102770001A70434B1B781A46642303FB02F3414A49
:1027800012781344184603F02DFE03463E491846BE
:1027900003F030FF03461A463C4B1A603B4B1B6864
:1027A0003B49184603F068FD03461A46394B1B683F
:1027B0001946104603F060FD03461A46334B1A6073
:1027C000324B1B684FF00001184603F0FDFF034633
:1027D000002B09D02D4B1B682F49184603F04EFDE6
:1027E00003461A46294B1A60284B1B682A4918468B
:1027F00004F008F80346002B09D0244B1B68264937
:10280000184603F039FD03461A46204B1A60134B55
:1028100000221A701BE0114B1B784C2B07D10E4B7A
:102820001A781E4B1A700D4B00221A700FE00B4BDA
:102830001B78422B07D1084B1A78194B1A70074B9B
:1028400000221A7003E0044B1A78044B1A7000BF80
:1028500080BD00BF00480040610400201504002036
:1028600011040020240400203A0400201204002057
:102870001004002031040020400400203204002015
:102880003004002025040020000020411C0400200A
:1028900000003A43080100200000B4433E04002039
:1028A0001404002080B400AF034B1B68034A13607C
:1028B00000BFBD4680BC70471C04002008010020FA
:1028C00080B584B000AF01210120FEF70BF949F675
:1028D0008313BB800023FB800923BB600023BB81E3
:1028E0000023BB733B1D19464FF0804001F016FBDF
:1028F00001214FF0804001F07BFB012201214FF0CC
:10290000804001F0F3FD00BF1037BD4680BD80B5AB
:1029100082B000AF1C233B7100237B710123BB718C
:102920000123FB713B1D184601F08AF900BF0837EF
:10293000BD4680BD80B500AFFFF7C2FFFFF7E7FFE0
:102940000D48FEF7F7FB0D48FEF750FC0C48FEF76C
:10295000A9FC0C48FEF702FD0B48FEF75BFD0B4897
:10296000FEF7B4FDFDF7DAFEFDF71CFF00F010F8EE
:1029700000F076F900BF80BDB80400207804002084
:10298000D004002090040020F0040020080500205E
:1029900090B400AF394A4FF000034FF00004C2E991
:1029A0000034374A4FF000034FF00004C2E900340E
:1029B000344A4FF000034FF00004C2E90034324AB9
:1029C0004FF000034FF00004C2E900342F4A4FF0EB
:1029D00000034FF00004C2E900342D4A4FF0000319
:1029E0004FF00004C2E900342A4A4FF000034FF0D0
:1029F0000004C2E90034284A4FF000034FF00004FD
:102A0000C2E90034254A4FF000034FF00004C2E948
:102A10000034234A4FF000034FF00004C2E90034B1
:102A2000204A4FF000034FF00004C2E900341E4A70
:102A30004FF000034FF00004C2E900341B4A4FF08E
:102A400000034FF00004C2E90034194A4FF00003BC
:102A50004FF00004C2E90034164A4FF000034FF073
:102A60000004C2E90034144A4FF000034FF00004A0
:102A7000C2E9003400BFBD4690BC7047E0010020B1
:102A8000E8010020F0010020F801002010020020E1
:102A9000180200202002002028020020300200201E
:102AA000380200204002002048020020500200208E
:102AB000A8010020B0010020B801002080B584B03A
:102AC00000AFC7E90201C7E90023D7E90823D7E926
:102AD000020100F011F8D7E90823D7E9000100F05E
:102AE00047F8D7E90823D7E9060100F07DF800BFD1
:102AF0001037BD4680BD000090B585B000AFC7E976
:102B00000201C7E90023144AD7E90234C2E90034BC
:102B1000124BD3E900341A462346D7E9000103F0EB
:102B20000FFA03460C460E4AC2E900340D4A4FF034
:102B300000034FF00004C2E900340B4A4FF00003D9
:102B40004FF00004C2E90034084B00221A6000BFB5
:102B50001437BD4690BD00BF58020020C8000020B9
:102B6000700200207802002088020020E802002085
:102B700090B585B000AFC7E90201C7E90023144A48
:102B8000D7E90234C2E90034124BD3E900341A46C3
:102B90002346D7E9000103F0D3F903460C460E4A59
:102BA000C2E900340D4A4FF000034FF00004C2E9BF
:102BB00000340B4A4FF000034FF00004C2E9003428
:102BC000084B00221A6000BF1437BD4690BD00BFFD
:102BD00060020020C800002098020020A00200200F
:102BE000B0020020EC02002090B585B000AFC7E92C
:102BF0000201C7E90023144AD7E90234C2E90034CC
:102C0000124BD3E900341A462346D7E9000103F0FA
:102C100097F903460C460E4AC2E900340D4A4FF0BC
:102C200000034FF00004C2E900340B4A4FF00003E8
:102C30004FF00004C2E90034084B00221A6000BFC4
:102C40001437BD4690BD00BF68020020C8000020B8
:102C5000C0020020C8020020D8020020F00200209C
:102C600090B400AF164A4FF000034FF00004C2E9E1
:102C70000034144A4FF000034FF00004C2E900345E
:102C8000114A4FF000034FF00004C2E900340F4A2C
:102C90004FF000034FF00004C2E900340C4A4FF03B
:102CA00000034FF00004C2E900340A4A4FF0000369
:102CB0004FF00004C2E9003400BFBD4690BC70472D
:102CC000180300209002002040030020B8020020DA
:102CD00068030020E002002098B500AFFFF758FE1F
:102CE000FFF7BEFF224B00221A60224A4FF000037A
:102CF0004FF00004C2E902341E4A4FF000034FF0C7
:102D00000004C2E900341C4B00221A601B4A4FF039
:102D100000034FF00004C2E90234184A4FF00003E8
:102D20004FF00004C2E90034154B00221A60154A26
:102D30004FF000034FF00004C2E90234114A4FF093
:102D400000034FF00004C2E900340F4B00221A6068
:102D50000E4A4FF000034FF00004C2E902340B4A60
:102D60004FF000034FF00004C2E9003400BF98BDEB
:102D700054040020B80400205004002078040020EF
:102D800058040020D00400204C04002090040020AF
:102D900098B500AF01214FF0804001F0CAFB034617
:102DA000002B00F0A78101214FF0804001F0EAFBE9
:102DB0009E4B1B68092B0FD19C4B4FF0FF321A60C2
:102DC0009B48FEF7DFFB9B48FEF718FC9A48FEF78E
:102DD00051FC9A48FEF78AFC944B1B680133934AD6
:102DE00013609748FEF7BEFC9648FEF7F7FC00F02C
:102DF00093F900F0ADFC00F037FD934B1B681846CB
:102E000002F00EFF914BD3E900341A46234603F03B
:102E1000FDF90346002B0AD08C4BD3E90034184649
:102E2000214603F0FDF90246874B1A6018E0864BF5
:102E30001B68184602F0F4FE854BD3E900341A46AD
:102E4000234603F0C5F90346002B09D0804BD3E994
:102E500000341846214603F0E3F902467A4B1A6023
:102E60007C4B1B68184602F0DBFE784BD3E900343C
:102E70001A46234603F0CAF90346002B0AD0734BC7
:102E8000D3E900341846214603F0CAF90246714BD3
:102E90001A6018E06F4B1B68184602F0C1FE6C4BBD
:102EA000D3E900341A46234603F092F90346002B77
:102EB00009D0674BD3E900341846214603F0B0F936
:102EC0000246644B1A60644B1B68184602F0A8FE69
:102ED0005E4BD3E900341A46234603F097F90346C4
:102EE000002B0AD0594BD3E900341846214603F091
:102EF00097F90246584B1A6018E0574B1B68184662
:102F000002F08EFE524BD3E900341A46234603F0FA
:102F10005FF90346002B09D04D4BD3E90034184626
:102F2000214603F07DF902464B4B1A604B4B1B6860
:102F3000184602F075FE454BD3E900341A46234685
:102F400003F064F90346002B0AD0404BD3E9003468
:102F50001846214603F064F90246404B1A6018E017
:102F60003E4B1B68184602F05BFE394BD3E9003438
:102F70001A46234603F02CF90346002B09D0344BA4
:102F8000D3E900341846214603F04AF90246334B90
:102F90001A60334BD3E90001324BD3E900341A46AF
:102FA000234602F0EFFC03460C462F4AC2E90034E8
:102FB0002D4BD3E900014FF000022C4B03F026F912
:102FC0000346002B0AD0284BD3E900014FF0000242
:102FD000274B03F0FDF80346002B0AD1224BD3E91F
:102FE00000014FF00002234B03F0F2F80346002BE0
:102FF00042D0154B1B6803F59C530833124A1360EB
:10300000144B1B6803F59C530833124A1360124B90
:103010001B6803F59C5308330F4A13600F4B1B6862
:1030200003F59C5308330D4A136057E0F803002062
:10303000B804002078040020D00400209004002070
:10304000F00400200805002074010020E8000020A2
:10305000E0000020780100207C0100208001002099
:1030600068020020B8010020580300200000104032
:1030700000806640008066C01F4BD3E900014FF01E
:1030800000021E4B03F0A4F80346002B0AD11A4B92
:10309000D3E900014FF00002194B03F0B7F80346E3
:1030A000002B1BD0174B1B68A3F59C53083B154AFC
:1030B0001360154B1B68A3F59C53083B124A136021
:1030C000124B1B68A3F59C53083B104A1360104B2E
:1030D0001B68A3F59C53083B0D4A1360094B002263
:1030E0001A60094B00221A60084B00221A60084B34
:1030F00000221A6000BF98BD58030020000010C0D5
:103100000080664074010020780100207C010020CE
:1031100080010020000000002DE9B04F00AFB44B4B
:10312000D3E90023B0A1D1E9000102F009FF024672
:103130000B4610461946AF4BD3E9022302F0D6FDE9
:1031400002460B4610461946AB4BD3E9002302F06A
:10315000F7FE02460B4610461946A84BD3E900235A
:1031600002F0C4FD02460B46A549C1E90023A04B6D
:10317000D3E900239CA1D1E9000102F0E1FE02465F
:103180000B46104619469F4BD3E9022302F0AEFDD1
:1031900002460B4610461946974BD3E9002302F02E
:1031A000CFFE02460B4610461946944BD3E9002346
:1031B00002F09CFD02460B469349C1E900238C4B6B
:1031C000D3E9002388A1D1E9000102F0B9FE02464B
:1031D0000B46104619468D4BD3E9022302F086FDBB
:1031E00002460B4610461946834BD3E9002302F0F2
:1031F000A7FE02460B4610461946804BD3E9002332
:1032000002F074FD02460B468149C1E90023784B68
:10321000D3E9002374A1D1E9000102F091FE024636
:103220000B46104619467B4BD3E9022302F05EFDA4
:1032300002460B46104619466F4BD3E9002302F0B5
:103240007FFE02460B46104619466C4BD3E900231D
:1032500002F04CFD02460B466F49C1E900236A4B60
:10326000D3E90001664BD3E9002302F08DFB02464F
:103270000B46924683F0004B4FF000024FF0804324
:103280005046594602F05CFE02460B466349C1E9CE
:103290000023614BD3E900015D4BD3E9002302F029
:1032A00073FB02460B46104619464FF000024FF0E2
:1032B000804302F045FE02460B465949C1E900230E
:1032C0004F4BD3E90001544BD3E9002302F05CFBE0
:1032D00002460B46904683F000494FF000024FF043
:1032E00080434046494602F02BFE02460B464D49BC
:1032F000C1E90023444BD3E90001454BD3E9002346
:1033000002F042FB02460B46104619464FF00002FF
:103310004FF0804302F014FE02460B464249C1E9D9
:103320000023404BD3E900013F4BD3E9002302F0D7
:103330002BFB02460B46104619464FF000023B4B52
:1033400002F0D4FC02460B463949C1E90023344B54
:10335000D3E90001314BD3E9002302F015FB02460B
:103360000B46104619464FF00002304B02F0BEFCEF
:1033700002460B462F49C1E90023214BD3E9000146
:10338000214BD3E9002302F0FFFA02460B46104618
:1033900019461F4BD3E9002302F0F6FA02460B460A
:1033A000104619461C4BD3E9002302F0EDFA024601
:1033B0000B4690469946204BD3E900014FF000029E
:1033C0001E4B02F093FC02460B464046494602F073
:1033D000B7FD02460B461A49C1E90023194BD3E950
:1033E000000131E0AFF30080F1D4C853FB21194054
:1033F000B000002078040020C8000020C000002099
:10340000E0010020B8040020E80100209004002022
:10341000F0010020D0040020F801002078030020F3
:103420008003002088030020900300200000E03F7C
:103430001002002018020020B800002000001040F8
:1034400020020020B8010020ABA3D3E9002302F042
:103450004DFC02460B46AC49C1E90023AA4BD3E917
:1034600000231046194601F09DF8A84BD3E900232C
:1034700002F03CFC02460B4690469946A24BD3E92B
:1034800000231046194601F0D7F8A14BD3E90023D9
:1034900002F02CFC02460B464046494602F072FA06
:1034A00002460B469B49C1E90023974BD3E9002311
:1034B0001046194601F0C0F8944BD3E9002302F0FE
:1034C00015FC02460B46904699468F4BD3E90023E4
:1034D0001046194601F066F88D4BD3E9002302F03F
:1034E00005FC02460B464046494602F04DFA0246AC
:1034F0000B468949C1E90023884BD3E90023884959
:10350000C1E90023834BD3E90001864BD3E90023B3
:1035100002F03AFA02460B46104619464FF00002F6
:10352000814B02F0E3FB02460B46104619467F4BE7
:10353000D3E9002302F0DAFB02460B461046194697
:103540007B4BD3E9002302F01FFA02460B46784971
:10355000C1E90023704BD3E90001764BD3E9002386
:1035600002F012FA02460B46104619464FF00002CE
:103570006D4B02F0BBFB02460B46104619466B4BE7
:10358000D3E9002302F0B2FB02460B46104619466F
:10359000694BD3E9002302F0F7F902460B4666496E
:1035A000C1E900235E4BD3E90001644BD3E900235A
:1035B00002F0EAF902460B46104619464FF00002A7
:1035C000594B02F093FB02460B4610461946574BE7
:1035D000D3E9002302F08AFB02460B461046194647
:1035E00047A3D3E9002302F081FB02460B461046B5
:1035F0001946534BD3E9002302F0C6F902460B46A5
:103600004F49C1E900234E4BD3E900014FF00002BE
:103610004C4B02F0F1FD0346002B0DD0484BD3E993
:1036200000014FF00002474B02F0ACF902460B4696
:103630004349C1E9002318E0414BD3E900014FF0B1
:1036400000024FF0000302F0C3FD0346002B0CD034
:103650003B4BD3E900014FF000023A4B02F094F9E2
:1036600002460B463649C1E90023374B1B68184612
:1036700002F0E8FA02460B463449C1E90023334B15
:10368000D3E900014FF000022E4B02F07BF9024615
:103690000B462E49C1E900232C4BD3E900014FF022
:1036A00000024FF0000302F093FD0346002B08D008
:1036B000264BD3E90023144683F00045234BC3E98E
:1036C0000045224BD3E900341D4AC2E90034114BB6
:1036D000D3E90034134AC2E900340F4BD3E9003474
:1036E000144AC2E900340E4BD3E90034134AC2E94C
:1036F000003400BFBDE8B08F12E7FAA146DF913F6A
:10370000775AF01ADCA54C40C001002010020020BE
:103710001802002028020020300200202002002091
:1037200038020020400200200000E03FC8000020D6
:10373000A801002048020020B00100205002002013
:10374000B8010020008076401C0400207004002096
:1037500098B500AF344BD3E90001344BD3E90034C2
:103760001A46234602F00EF903460C46304AC2E9D7
:1037700000342F4BD3E900014FF000022D4B02F033
:10378000B5FA03460C462C4AC2E900342A4BD3E969
:1037900000342A4AC2E90034294BD3E90001294BFD
:1037A000D3E900341A46234602F0ECF803460C46EF
:1037B000254AC2E90034244BD3E900014FF000024E
:1037C0001C4B02F093FA03460C46204AC2E900342F
:1037D0001E4BD3E900341E4AC2E900341D4BD3E925
:1037E00000011D4BD3E900341A46234602F0CAF803
:1037F00003460C46194AC2E90034184BD3E90001CC
:103800004FF000024FF0000302F070FA03460C463E
:10381000134AC2E90034124BD3E90034114AC2E919
:10382000003400BF98BD00BF58020020A80100204E
:103830000803002000409F401003002000030020E8
:1038400060020020B0010020300300203803002077
:103850002803002068020020B8010020580300203F
:103860006003002050030020F8B500AF7A4BD3E985
:1038700000341846214600F095FE784BD3E9003419
:103880001A46234602F032FA03460C461D462646E7
:10389000714BD3E900341846214600F0CDFE704B41
:1038A000D3E900341A46234602F020FA03460C46B8
:1038B0001A4623462846314602F066F803460C466F
:1038C000684AC2E90034644BD3E900341846214603
:1038D00000F068FE624BD3E900341A46234602F03A
:1038E00005FA03460C461D4626465B4BD3E90034D9
:1038F0001846214600F0A0FE584BD3E900341A4682
:10390000234602F0F3F903460C461A46234628469E
:10391000314602F037F803460C46534AC2E90034F8
:10392000524BD3E90034524AC2E900344D4BD3E93B
:1039300000341A4623464FF000004FF0000102F019
:1039400021F803460C4618462146474BD3E900347C
:103950001A46234602F016F803460C46454AC2E9C9
:103960000034404BD3E900013F4BD3E900341A4601
:10397000234602F007F803460C463F4AC2E90034EA
:10398000384BD3E90001384BD3E900341A462346BB
:1039900001F0FAFF03460C46384AC2E90034314BC5
:1039A000D3E900341A4623464FF000004FF00001DF
:1039B00001F0E8FF03460C46184621462A4BD3E99E
:1039C00000341A46234601F0DFFF03460C462C4A1A
:1039D000C2E90034274BD3E900342A4AC2E9003453
:1039E000254BD3E90034284AC2E90034234BD3E9FC
:1039F0000034264AC2E90034214BD3E90034244A7A
:103A0000C2E90034204BD3E900341846214602F0C5
:103A100007FC02461F4B1A601A4BD3E900341846C4
:103A2000214602F0FDFB02461B4B1A60184BD3E9FE
:103A300000341846214602F0F3FB0246174B1A6089
:103A4000124BD3E900341846214602F0E9FB024646
:103A5000134B1A6000BFF8BDC00100200003002016
:103A60002803002098030020A0030020500300201A
:103A7000A8030020B0030020B8030020C0030020EA
:103A8000C8030020D0030020D8030020E00300205A
:103A9000E803002074010020780100207C01002050
:103AA0008001002080B485B000AF7B600346FB81BD
:103AB0000B46BB8113467B810A4B00221A600A4ADF
:103AC000FB891380094ABB891380094A7B891380CB
:103AD0007B681AB2074B1A8000BF1437BD4680BC02
:103AE000704700BFF00300206C0100206E01002031
:103AF000700100207201002080B485B000AF7860B2
:103B00000023FB60344BFB607B689B79002B4FD01C
:103B10003149314B1A687B681B68DB4313400B60EB
:103B20002D492D4B5A687B681B68DB4313404B6063
:103B30007B681B791A46FB681344FB60FB68FA68D4
:103B400011687A6812680A431A602349224B9A68FE
:103B50007B681B68DB4313408B601F491E4BDA6890
:103B60007B681B68DB431340CB607B685B79102B61
:103B70000ED11949184B9A687B681B6813438B60F8
:103B80001549154BDA687B681B681343CB601DE051
:103B9000114BFB607B685B791A46FB681344FB6042
:103BA000FB68FA6811687A6812680A431A600DE0C7
:103BB0007B681B791A46FB681344FB60FB68FA6854
:103BC00011687A681268D2430A401A6000BF14373D
:103BD000BD4680BC704700BF003C014080B485B04A
:103BE00000AF78600023FB730023BB600C4B1A68A6
:103BF0007B681340BB600A4B5A697B681340002BFB
:103C000005D0BB68002B02D00123FB7301E0002329
:103C1000FB73FB7B18461437BD4680BC704700BF62
:103C2000003C014080B483B000AF7860034A7B68F9
:103C3000536100BF0C37BD4680BC7047003C01405B
:103C400080B485B000AF78600023FB730023BB73A2
:103C50000F237B737B68DB78002B39D0274BDB6825
:103C6000DB431B0ADBB203F00703FB73FB7BC3F1EF
:103C70000403BB737A7BFB7B42FA03F37B737B68A1
:103C80005B781A46BB7B02FA03F3FB737B689A7876
:103C90007B7B1340DAB2FB7B1343FB73FB7B1B0183
:103CA000FB73174A7B681B781344FA7B83F8002365
:103CB000134A7B681B785B09DBB218467B681B786C
:103CC00003F01F03012101FA03F342F820300FE053
:103CD0000B497B681B785B09DBB218467B681B7855
:103CE00003F01F0301229A4000F1200341F8232032
:103CF00000BF1437BD4680BC704700BF00ED00E038
:103D000000E100E080B582B002AFFEF77DF9164B0E
:103D10001B68184601F096FF144B1B781A46144B8B
:103D20001B780193009202460B4612491248FDF798
:103D3000EAF9114A00210020FEF771F90F4B1B78B8
:103D40001A460A4B1B781946094B1B7800930B4601
:103D50000B490948FDF7D7F9074A01210020FEF772
:103D60005EF900BFBD4680BD1C0400201004002089
:103D70001104002018680008280500201304002002
:103D80002868000880B584B000AF01210420FCF74A
:103D90008BFE0423BB6000233B7303237B73002350
:103DA000BB730223FB7307F1080319462D48FDF787
:103DB00093FF0823BB6000233B7303237B73002323
:103DC000BB730223FB7307F1080319462548FDF76F
:103DD00083FF1023BB6000233B7303237B7300230B
:103DE000BB730223FB7307F1080319461D48FDF757
:103DF00073FF2023BB6000233B7303237B730023EB
:103E0000BB730223FB7307F1080319461548FDF73E
:103E100063FF4023BB6000233B7303237B730023BA
:103E2000BB730223FB7307F1080319460D48FDF726
:103E300053FF01210820FCF737FE4FF4C0633B60BD
:103E400000233B710023BB710223FB7103237B71B1
:103E50003B4619460448FDF73FFF00BF1037BD46FB
:103E600080BD00BF00080240000C024080B584B055
:103E700000AF01210820FCF735FE4AF20F43BB805A
:103E80000023FB8040F2E733BB600023BB810023AB
:103E9000BB733B1D1946084800F040F80121064855
:103EA00000F0A6F801220121034800F01FFB00BF2B
:103EB0001037BD4680BD00BF000C004080B582B009
:103EC00000AF32233B7100237B710023BB710123C0
:103ED000FB713B1D1846FFF7B3FE00BF0837BD4618
:103EE00080BD000080B500AF0121074800F021FB34
:103EF0000346002B05D00121034800F043FBFFF7E8
:103F000001FF00BF80BD00BF000C004080B500AFC6
:103F1000FFF7ACFFFFF7D2FF00BF80BD80B485B0D4
:103F200000AF786039600023FB817B681B88FB81D0
:103F30007B68284A934213D07B68274A93420FD06C
:103F40007B68B3F1804F0BD07B68244A934207D043
:103F50007B68234A934203D07B68224A934208D16C
:103F6000FB8923F07003FB813B685A88FB8913436C
:103F7000FB817B681C4A93420CD07B681B4A9342AE
:103F800008D0FB8923F44073FB813B681A89FB89C5
:103F90001343FB817B68FA891A803B685A687B6807
:103FA000DA623B681A887B681A857B68094A934203
:103FB00003D07B68084A934204D13B689B7A9AB24B
:103FC0007B681A867B6801229A8200BF1437BD463F
:103FD00080BC704700000140000401400004004024
:103FE00000080040000C0040001000400014004099
:103FF00080B483B000AF78600B46FB70FB78002B79
:1040000008D07B681B889BB243F001039AB27B689F
:104010001A8007E07B681B889BB223F001039AB2E9
:104020007B681A8000BF0C37BD4680BC704700001B
:1040300080B485B000AF7860396000237B810023B5
:10404000FB810023BB817B681B8C9BB223F00103A7
:104050009AB27B681A847B681B8CFB817B689B8887
:10406000BB817B681B8B7B817B8923F070037B8109
:104070007B8923F003037B813B681A887B89134388
:104080007B81FB8923F00203FB813B689A89FB89D2
:104090001343FB813B685A88FB891343FB817B6890
:1040A0001E4A934203D07B681D4A934223D1FB8969
:1040B00023F00803FB813B68DA89FB891343FB810A
:1040C000FB8923F00403FB813B689A88FB89134337
:1040D000FB81BB8923F48073BB81BB8923F400730C
:1040E000BB813B681A8ABB891343BB813B685A8AF0
:1040F000BB891343BB817B68BA899A807B687A89C4
:104100001A833B689A687B685A637B68FA891A84C9
:1041100000BF1437BD4680BC704700BF000001409F
:104120000004014080B485B000AF7860396000239E
:104130007B810023FB810023BB817B681B8C9BB2AE
:1041400023F010039AB27B681A847B681B8CFB8176
:104150007B689B88BB817B681B8B7B817B8923F47D
:10416000E0437B817B8923F440737B813B681B8820
:104170001B029AB27B8913437B81FB8923F02003C6
:10418000FB813B689B891B019AB2FB891343FB812E
:104190003B685B881B019AB2FB891343FB817B68F8
:1041A000224A934203D07B68214A93422BD1FB8958
:1041B00023F08003FB813B68DB891B019AB2FB89FA
:1041C0001343FB81FB8923F04003FB813B689B8801
:1041D0001B019AB2FB891343FB81BB8923F48063E3
:1041E000BB81BB8923F40063BB813B681B8A9B00B6
:1041F0009AB2BB891343BB813B685B8A9B009AB22E
:10420000BB891343BB817B68BA899A807B687A89B2
:104210001A833B689A687B689A637B68FA891A8478
:1042200000BF1437BD4680BC704700BF000001408E
:104230000004014080B485B000AF7860396000238D
:104240007B810023FB810023BB817B681B8C9BB29D
:1042500023F480739AB27B681A847B681B8CFB8181
:104260007B689B88BB817B689B8B7B817B8923F0F0
:1042700070037B817B8923F003037B813B681A8871
:104280007B8913437B81FB8923F40073FB813B68AB
:104290009B891B029AB2FB891343FB813B685B88B5
:1042A0001B029AB2FB891343FB817B68224A93422B
:1042B00003D07B68214A93422BD1FB8923F400630E
:1042C000FB813B68DB891B029AB2FB891343FB81AC
:1042D000FB8923F48063FB813B689B881B029AB2B5
:1042E000FB891343FB81BB8923F48053BB81BB89CA
:1042F00023F40053BB813B681B8A1B019AB2BB8924
:104300001343BB813B685B8A1B019AB2BB89134391
:10431000BB817B68BA899A807B687A899A833B687B
:104320009A687B68DA637B68FA891A8400BF14375D
:10433000BD4680BC704700BF000001400004014042
:1043400080B485B000AF786039600023BB81002362
:104350007B810023FB817B681B8C9BB223F4805301
:104360009AB27B681A847B681B8C7B817B689B88F4
:10437000FB817B689B8BBB81BB8923F4E043BB81C2
:10438000BB8923F44073BB813B681B881B029AB234
:10439000BB891343BB817B8923F400537B813B683A
:1043A0009B891B039AB27B8913437B813B685B88A3
:1043B0001B039AB27B8913437B817B68114A93422A
:1043C00003D07B68104A93420AD1FB8923F48043CF
:1043D000FB813B681B8A9B019AB2FB891343FB81DB
:1043E0007B68FA899A807B68BA899A833B689A6865
:1043F0007B681A647B687A891A8400BF1437BD46CB
:1044000080BC7047000001400004014080B485B0CA
:1044100000AF78600B467B800023FB817B681B8BA1
:10442000FB81FB8923F00803FB81FA897B88134316
:10443000FB817B68FA891A8300BF1437BD4680BCB4
:10444000704780B485B000AF78600B467B80002356
:10445000FB817B681B8BFB81FB8923F40063FB8161
:104460007B881B029AB2FB891343FB817B68FA8924
:104470001A8300BF1437BD4680BC704780B485B036
:1044800000AF78600B467B800023FB817B689B8BB1
:10449000FB81FB8923F00803FB81FA897B881343A6
:1044A000FB817B68FA899A8300BF1437BD4680BCC4
:1044B000704780B485B000AF78600B467B800023E6
:1044C000FB817B689B8BFB81FB8923F40063FB8171
:1044D0007B881B029AB2FB891343FB817B68FA89B4
:1044E0009A8300BF1437BD4680BC704780B483B048
:1044F00000AF78600B467B8013467B707B78002B87
:1045000008D07B689B899AB27B8813439AB27B68F8
:104510009A8109E07B689B899AB27B88DB439BB2D6
:1045200013409AB27B689A8100BF0C37BD4680BCAD
:10453000704780B485B000AF78600B467B80002365
:10454000FB730023BB8100237B817B681B8A9AB2AB
:104550007B881340BB817B689B899AB27B88134020
:104560007B81BB89002B05D07B89002B02D00123E6
:10457000FB7301E00023FB73FB7B18461437BD4639
:1045800080BC704780B483B000AF78600B467B80FE
:104590007B88DB439AB27B681A8200BF0C37BD462A
:1045A00080BC704730B5224A21F00043934287B067
:1045B0001BDD204A934205DD02460B4601F0E2F97D
:1045C00007B030BD02AA00F07BF800F00303012B16
:1045D0001AD0022B0FD01BB30124DDE90423DDE93F
:1045E0000201009400F0FCFFEAE70022002300F043
:1045F0008BFA07B030BDDDE90423DDE9020100F0EC
:1046000083FA01F10041DBE7DDE904450093DDE9D0
:10461000020122462B4600F0E3FF01F10041CFE703
:10462000DDE90423DDE9020100F06EFAC8E700BF0E
:10463000FB21E93FFFFFEF7F30B51F4A21F0004328
:10464000934287B01BDD1D4A934205DD02460B46AF
:1046500001F098F907B030BD02AA00F031F800F07F
:1046600003000128DDE904231AD002280FD0E0B1AD
:10467000DDE9020100F048FA01F10041EAE7002318
:1046800000930022002300F0ABFF07B030BD0124EF
:10469000DDE90201009400F0A3FF01F10041D9E738
:1046A000DDE9020100F030FAD4E70124DDE902017E
:1046B000009400F095FFCDE7FB21E93FFFFFEF7F7E
:1046C0002DE9F04F9A4E21F00047B74291B040F3E8
:1046D0008E809246974A97420C4626DC00298AA390
:1046E000D3E9002340F3B48101F04CF9924B9F428F
:1046F00004460D4600F0908085A3D3E9002301F025
:1047000041F902460B46CAE900232046294601F03A
:1047100039F97FA3D3E9002301F034F90125CAE96F
:104720000201284611B0BDE8F08F844A974240F359
:104730009080834A974265DC3D15A5F21645A7EBAC
:10474000055319461F46064601F06AFD01F068FA56
:104750008046894602460B4630463946CDE90A89ED
:1047600001F010F90022774B01F0C0FA894680462B
:1047700001F056FD01F054FA02460B4606460F467C
:1047800040464946CDE90C6701F0FCF800226D4B2C
:1047900001F0ACFA00220023CDE90E0101F00EFD7C
:1047A000002800F07381002330463946002201F0D2
:1047B00005FD002814BF01230223634A0192022150
:1047C0002A4600910AA8514600F0C2FA002C05467C
:1047D00014DADAF80420DAF80C3002F1004203F1BE
:1047E00000434542CAF80420CAF80C3006E0C2E98A
:1047F000000100250024C2E902450025284611B029
:10480000BDE8F08F02460B4601F0BCF80025CAE96E
:104810000201CAE90001F1E73FA3D3E9002301F057
:10482000B1F83FA3D3E900230D46044601F0AAF8EE
:1048300002460B46CAE900232946204601F0A2F8A9
:1048400037A3D3E9002301F09DF80125CAE902014D
:10485000D4E700F07BFF34A3D3E9002380468946E8
:1048600001F044FA0022394B01F08EF801F0D8FC37
:10487000054601F0D5F924A3D3E90023CDE90401CD
:1048800001F034FA02460B464046494601F07AF8F8
:104890001FA3D3E9002380468946DDE9040101F026
:1048A00025FA1F2DCDE9020154DC294B6A1E53F86D
:1048B00022309F424ED002460B464046494601F008
:1048C00061F802460B46CAE9002383460E465A4663
:1048D00033464046494601F055F8DDE9022301F030
:1048E00051F8002C02460B46CAE9022386DA5B46E1
:1048F00006F1004601F100418AE84800CAF80C10B0
:10490000CAF808006D4279E700004054FB21F93FE6
:104910003163621A61B4D03D0000601A61B4D03DC9
:104920007370032E8A19A33B83C8C96D305FE43FBF
:10493000FB21E93F7BD90240FB21F93FFB213941B3
:10494000FFFFEF7F00007041B86800080000E03F03
:1049500038680008DDE902234046494601F012F8B4
:104960003A15C1F30A53D31A102B83460E46099207
:10497000CAE90001ABDD58A3D3E90023DDE9040156
:1049800001F0B4F906460F4602460B46404649463A
:1049900000F0F8FFCDE9060102460B4640464946C5
:1049A00000F0F0FF32463B4600F0ECFF4CA3D3E9A9
:1049B000002306460F46DDE9040101F097F932466F
:1049C0003B4600F0DFFFDDE90689CDE90201024642
:1049D0000B464046494600F0D5FF0B46C1F30A5747
:1049E0000E460999CF1B0246312F8346CAE90023A0
:1049F0006CDD3DA3D3E90023DDE9040101F076F984
:104A000006460F4602460B4640464946CDE9068912
:104A100000F0B8FF02460B4680468946DDE90601F4
:104A200000F0B0FF32463B4600F0ACFF30A3D3E9C4
:104A3000002306460F46DDE9040101F057F932462E
:104A40003B4600F09FFF02460B46CDE9022334E7C8
:104A500000F09AFF2A4B9F4204460D4618D026A329
:104A6000D3E9002300F090FF02460B46CAE9002379
:104A70002946204600F086FF1FA3D3E9002300F05B
:104A800083FF4FF0FF35CAE90201B7E6032394E63E
:104A900011A3D3E9002300F077FF11A3D3E900238A
:104AA0000D46044600F070FF02460B46CAE900239B
:104AB0002946204600F066FF09A3D3E9002300F051
:104AC00063FF4FF0FF35CAE9020197E6DDE9068989
:104AD000FDE600BFAFF300800000601A61B4D03D76
:104AE0007370032E8A19A33B0000002E8A19A33B82
:104AF000C14920259A837B393163621A61B4D03D64
:104B0000FB21F93F000000002DE9F04F21F00046A5
:104B1000B6F1795F85B00C4692469B4605466BDA46
:104B200001F07EFB002800F0E8802A462346284654
:104B3000214601F0DBF874A3D3E9002380468946BF
:104B400001F0D4F872A3D3E9002300F01DFF424620
:104B50004B4601F0CBF870A3D3E9002300F012FF1D
:104B600042464B4601F0C2F86DA3D3E9002300F0A2
:104B70000BFF42464B4601F0B9F86BA3D3E9002383
:104B800000F000FF42464B4601F0B0F868A3D3E9BD
:104B9000002300F0F9FE42464B4601F0A7F8CDE9AC
:104BA00000010022644B4046494601F09FF8DDE9D0
:104BB000002306460F464046494601F097F8524604
:104BC000804689465B462846214601F08FF802461A
:104BD0000B464046494600F0D5FE02460B4630469D
:104BE000394600F0CFFE02460B460020534900F044
:104BF000C9FE05B0BDE8F08F02460B4601F076F81D
:104C000041A3D3E900238046894601F06FF840A311
:104C1000D3E9002300F0B8FE42464B4601F066F8A7
:104C20003DA3D3E9002300F0ADFE42464B4601F020
:104C30005DF83BA3D3E9002300F0A6FE42464B46B5
:104C400001F054F838A3D3E9002300F09BFE42465C
:104C50004B4601F04BF836A3D3E9002300F094FE55
:104C60004B46424601F042F8354B9E42CDE90001E9
:104C700097DD344B9E424FF0000238DCA6F500135E
:104C800000202E4916461F4600F07CFECDE90201A9
:104C90000022294B4046494601F028F832463B465F
:104CA00000F070FEDDE9002306460F464046494607
:104CB00001F01CF85246804689465B46284621464C
:104CC00001F014F802460B464046494600F05AFEF1
:104CD00002460B463046394600F054FE02460B466B
:104CE000DDE9020100F04EFE05B0BDE8F08F164B85
:104CF000164FCDE902230026CAE71049002005B06F
:104D0000BDE8F08FAFF30080D43888BEE9FAA8BDC3
:104D1000C4B1B4BD9EEE213EAD529C804F7E923E0A
:104D20009015CB19A001FA3E7751C1166CC1563FC0
:104D30004C5555555555A53F0000E03F0000F03F4C
:104D40003233D33F0000E93F0000E73F0000D23F8D
:104D50002DE9F04FADF5197D9C4CA29E9C4D54F869
:104D6000264005942646D41E85FB0475E417C4EB43
:104D7000A50424EAE4741D460893631CA3EB830393
:104D8000013D02EBC30304932B4609940295651B76
:104D9000F418039006911AD42C4401340DF17808CC
:104DA00000260027DDF88C9208E059F8250000F075
:104DB00037FF0135A542E8E9020108D0002DF4DAF9
:104DC000013530463946A542E8E90201F6D1059B96
:104DD000002B2EDB089B4FEAC309039BA9F10808AF
:104DE000984420AB9944059B70AA02EBC30B0DF5C8
:104DF000DC7A029B002BC0F20F83039B4D46A3F18C
:104E000008040026002775E90223F4E9020100F0F6
:104E10006DFF02460B463046394600F0B5FD44456D
:104E200006460F46EFD1EAE90267DA4509F10809BB
:104E3000DFD10598089A009000F18043013B9B0068
:104E40000CAC191F234402F100520B93039B013A4F
:104E500021440A9103EBC20B009A98A901EBC2030B
:104E6000002A53E9284513462BDD01EBC308A8F1BE
:104E7000A8080DF12C090DF5DC7A0022554B2046CF
:104E8000294600F033FF01F0CBF900F0C9FE002203
:104E9000514B06460F4600F029FF02460B462046BE
:104EA000294600F06FFD01F0BBF978E8022349F8CC
:104EB000040F3946304600F067FDD04504460D46E4
:104EC000DBD1DDF81090204629464A4600F0D0FCA0
:104ED00000224FF07F5304460D4600F007FF00F01C
:104EE0003BFC00223D4B00F001FF02460B462046F2
:104EF000294600F047FD0D46044601F091F9804631
:104F000000F08EFE0B4602462946204600F03AFD90
:104F10004B46002B06460F4640F3F780009A0CA93B
:104F2000013AC9F1180351F8225045FA03F101FA88
:104F300003F30CA8EB1A40F82230C9F11705884496
:104F400043FA05F5002D63DD009B002B08F10108F5
:104F500040F381820C9C002C00F018830120002378
:104F60000CAAC4F1807442F82340009A824219DDF1
:104F70000CAA0CAC52F820106FF07F42511A44F882
:104F800020100099023399420CDD1046009A0CA9BA
:104F900001EB830301EB82011A68821A43F8042BA8
:104FA0008B42F9D1049B002B1ADD049B012B4FF09F
:104FB000010440F05882009B5A1E0CAB0CA953F818
:104FC0002230C3F3160341F8223058E2006A000889
:104FD000ABAAAA2A0000703E0000704100002040E9
:104FE000022D15D132463B460020974900F0CAFCFD
:104FF00006460F46049A9449002000F039FC024608
:105000000B463046394600F0BDFC022506460F46E9
:10501000002200233046394601F0D0F8002800F085
:105020005282009A059B501E83420FDC02F180439E
:10503000013B0CAA0B9C02EB8303002253F80419DA
:10504000A34242EA0102F9D1002A6FD1059B0CAAC2
:10505000013B52F82330002B40F033820A9A01239F
:1050600052F8041901330029FAD0009AD31802F13A
:10507000010A9A4507933DDC009B0899099A0B4465
:1050800007990AEB0208994620AB08F1804803EB28
:10509000C9098B18A39A08F1FF3802EB880870AA97
:1050A00002EBCA0AA39A02EB8303009358F8040F99
:1050B00000F0B6FD029B002BE9E802011DDB039B1B
:1050C0004D46A3F108040026002775E90223F4E900
:1050D000020100F00BFE02460B463046394600F056
:1050E00053FC5C4506460F46EFD1009B9845EAE825
:1050F0000267DBD1079B0093AEE6009B00260027EA
:105100009845EAE80267D1D1F4E706D1009B0CAAE2
:10511000013B52F82350ED1514E700224B4B01F0F0
:105120006BF8002840F08281054671E70CA90295D2
:1051300051F820300499CDF81C80183902460090AF
:1051400004916BB900F18043013B0CA800EB830391
:1051500053F80409013A18390028F9D00092049153
:10516000049A3949002000F083FB009B002B044681
:105170000D46C0F20382DA0070A901EB020B049223
:105180000CAA02EB8306DFF8C8900BF1080704367F
:105190004FF0000856F8040D00F042FD22462B4661
:1051A00000F0A4FD4B4667E902014246204629462D
:1051B00000F09CFD0CAB9E4204460D46EAD10DF575
:1051C000907ACDF80CA0DDF814A04FF00009BAF1E8
:1051D000000FC0F23D81DFF87C805D4618A1D1E967
:1051E000000100260027002403E04C4510DCF8E80D
:1051F0000201F5E8022300F079FD02460B46304635
:10520000394600F0C1FB0134A24506460F46ECDAF0
:10521000039B03EBC903ABF1080BC3E900676EAB5B
:105220005B4509F10109D2D1A29BDDF80CA0032B4B
:1052300000F28B80DFE813F0D100900090001000A6
:1052400000000040FB21F93F0000F03F0000E03F7C
:105250000000703EC8690008009B002B40F3A48149
:10526000049B0AEB0308D8E90067D34658E9029A81
:1052700032463B464846514600F086FB04460D4602
:1052800002460B464846514600F07CFB32463B4600
:1052900000F07AFBC8E9000168E90245C3452646EB
:1052A0002F46E3D1009B012BDA4640F37D81049B1E
:1052B0005B44D3E90067984699460DF5947B59E91C
:1052C00002343246184621463B46CDE9000100F043
:1052D0005BFB04460D4602460B46DDE9000100F08B
:1052E00051FB32463B4600F04FFBC9E9000169E93A
:1052F0000245CB4526462F46E1D1002308F1080898
:105300001D464CAC1846294678E9022300F03CFBC8
:10531000444503460D46F5D1029A002A00F020814B
:10532000DAF80440DAF80C20069FDAF80010DAF810
:1053300008003B6105F1004504F1004402F1004220
:105340007D617C60FA603960B860079B03F00700FC
:105350000DF5197DBDE8F08F049C002608345444F7
:1053600033463046194674E9022300F00DFB5445DC
:1053700006460B46F5D1029A30461946002A00F03F
:10538000DA80069803F10044324644600660DAE9A8
:10539000000100F0F7FA0B460099002902460EDDE5
:1053A000012410461946FAE9022300F0EDFA0B46F3
:1053B00000990134A1420246F3DA029909B103F1DE
:1053C00000431946069B1046C3E90201079B03F000
:1053D00007000DF5197DBDE8F08F049C002208340C
:1053E000544413461046194674E9022300F0CCFADF
:1053F000A24502460B46F5D1029909B103F10043DB
:105400001946069B1046C3E90001079B03F00700FD
:105410000DF5197DBDE8F08F00260027EAE9026747
:10542000DA4509F108097FF4E4AC02E5009B002BA2
:1054300008F10108C8BF02253FF78CAD32463B4654
:105440000020634900F09EFA022506460F46DFE57C
:1054500000260027DCE6049B002B26DD0024049BAD
:10546000012B3FF4A8AD022B09D1009B5A1E0CABB7
:105470000CA953F82230C3F3150341F82230022D52
:105480007FF4C6AD32463B460020514900F07AFA1F
:1054900006460F46002C3FF4BBADABE50099013347
:1054A000994278D1049B002BD9DC022D7FF4B0AD5A
:1054B00032463B460020464900F064FA06460F4655
:1054C000A6E50123D1E53946049F02957A4230468C
:1054D000CDF81C8000F0CCF900223E4B04460D466E
:1054E00000F08AFE002862D000223B4B204629466D
:1054F00000F0FCFB00F094FE064600F091FB002259
:10550000344B00F0F3FB02460B462046294600F0E0
:1055100039FA00F085FE00990B4601331A460093D4
:105520003B46183304930B460CA941F8230013465D
:1055300041F8236014E6069B3246C3E900010B469E
:10554000DAE9000100F01EFA0B4600990029024634
:105550003FF726AF1946069B1046C3E9020135E71F
:1055600018462946DAE90023DAE90245069FC7E929
:105570000401C7E90023C7E90245E6E6A29B032B25
:105580003FF6E3AEDFE803F0211C1C0E009B012B6D
:1055900088DD0CAA012352F8044F002C3FF47EAFA3
:1055A000581CDDE40DF5907A00231D46B4E629462B
:1055B000204600F035FE009A0CA941F82200CFE504
:1055C000002633460DF5907AD5E60022134613E700
:1055D0000000F03F000070410000703E000000003D
:1055E0002DE9F04F21F00046B6F1795F85B00C4609
:1055F00090469946054604DA00F012FE002800F0B5
:1056000085802A4623462846214600F06FFB064641
:105610000F4602460B462846214600F067FB3EA394
:10562000D3E9002382468B463046394600F05EFBC4
:105630003BA3D3E9002300F0A5F932463B4600F036
:1056400055FB39A3D3E9002300F09EF932463B46CF
:1056500000F04CFB36A3D3E9002300F093F9324667
:105660003B4600F043FB34A3D3E9002300F08CF960
:105670000E9BCDE900019BB30022334B40464946C7
:1056800000F034FBDDE90023CDE902015046594624
:1056900000F02CFB02460B46DDE9020100F072F936
:1056A00032463B4600F022FB42464B4600F06AF988
:1056B00023A3D3E9002306460F465046594600F07F
:1056C00015FB02460B463046394600F05DF90246AE
:1056D0000B462846214600F055F905B0BDE8F08F8D
:1056E00002460B463046394600F000FB14A3D3E9CE
:1056F000002300F047F952465B4600F0F7FA2A46CD
:10570000234600F041F905B0BDE8F08F2846214658
:1057100005B0BDE8F08F00BF7CD5CF5A3AD9E53D42
:10572000EB9C2B8AE6E55A3E7DFEB157E31DC73E52
:10573000D561C119A0012A3FA6F810111111813FAE
:10574000495555555555C53F0000E03F21F00041F2
:10575000704700BF00000000C1F30A522DE9F84372
:10576000A2F2FF36132E0B460D4604468846074626
:105770001DDC002E40DB3C4A42FA06F901EA090230
:105780000243864618D036A3D3E9002300F0FCF884
:105790000022002300F03AFD20B1002D42DB28EA70
:1057A000090500273C4629462046BDE8F883332EEC
:1057B00006DDB6F5806F2FD019462046BDE8F88388
:1057C000A2F213424FF0FF3929FA02F910EA090F49
:1057D000F2D023A3D3E9002300F0D6F8002200235F
:1057E00000F014FD0028DDD0002D21DB454627EA1E
:1057F00009073C462946D7E719A3D3E9002300F05F
:10580000C3F80022002300F001FD0028CAD0002DBB
:1058100019DB00273D46C5E702460B4600F0B4F809
:105820000446CAE74FF4801343FA06F6B044B6E7DD
:10583000142E10D00123C6F1340603FA06F63719E8
:1058400028BF9844D2E725F00042084B224318BFF6
:105850001D460027A6E705F10108C7E7AFF3008062
:105860009C7500883CE4377EFFFF0F000000F0BF0E
:10587000F8B5C1F30A5604460D460B4617460EBB53
:1058800021F000430343864625D00022344B00F02C
:105890002DFA344A974204460D460B462ADBC1F3E3
:1058A0000A56363E3E4440F2FE72964228DC002EF6
:1058B00012DD23F0FF4323F4E00343EA06552046BC
:1058C0002946F8BD40F2FF729642EBD102460B46E4
:1058D00000F05AF8F8BDF8BD16F1350F1DDA4CF29C
:1058E00050339F4222462B4625DC19A1D1E9000105
:1058F00000F03CF816A3D3E9002300F0F7F9F8BD57
:1059000022462B4614A1D1E9000100F02FF812A382
:10591000D3E9002300F0EAF9F8BD23F0FF4323F4B4
:10592000E003363643EA06552046294600220E4B50
:1059300000F0DCF9F8BD08A1D1E9000100F016F88B
:1059400005A3D3E9002300F0D1F9F8BDAFF300803F
:1059500059F3F8C21F6EA5019C7500883CE4377EA0
:1059600000005043B03CFFFF0000903C03F00043B8
:1059700021F0004242EA0301704700BF81F000417C
:1059800002E000BF83F0004330B54FEA41044FEA24
:10599000430594EA050F08BF90EA020F1FBF54EABF
:1059A000000C55EA020C7FEA645C7FEA655C00F05B
:1059B000E2804FEA5454D4EB5555B8BF6D420CDD2C
:1059C0002C4480EA020281EA030382EA000083EAAF
:1059D000010180EA020281EA0303362D88BF30BD4F
:1059E00011F0004F4FEA01314FF4801C4CEA1131A5
:1059F00002D0404261EB410113F0004F4FEA033304
:105A00004CEA133302D0524263EB430394EA050F8E
:105A100000F0A780A4F10104D5F1200E0DDB02FAFD
:105A20000EFC22FA05F2801841F1000103FA0EF291
:105A3000801843FA05F359410EE0A5F120050EF157
:105A4000200E012A03FA0EFC28BF4CF0020C43FA88
:105A500005F3C01851EBE37101F0004507D54FF095
:105A6000000EDCF1000C7EEB00006EEB0101B1F5E5
:105A7000801F1BD3B1F5001F0CD349085FEA30002B
:105A80004FEA3C0C04F101044FEA445212F5800F36
:105A900080F09A80BCF1004F08BF5FEA500C50F1D3
:105AA000000041EB045141EA050130BD5FEA4C0CB6
:105AB000404141EB010111F4801FA4F10104E9D13F
:105AC00091F0000F04BF01460020B1FA81F308BF36
:105AD0002033A3F10B03B3F120020CDA0C3208DD02
