:020000040800F2
:10000000A00B0020F50B0008550C0008550C00084B
:10001000550C0008550C0008550C000800000000A5
:10002000000000000000000000000000550C000867
:10003000550C000800000000550C0008E92C0008D1
:10004000550C0008550C0008550C0008550C00080C
:10005000550C0008550C0008FD2100081B22000863
:10006000392200085722000875220008550C0008A4
:10007000550C0008550C0008550C0008550C0008DC
:10008000550C0008550C0008550C0008550C0008CC
:10009000550C0008550C0008550C00089322000868
:1000A000550C0008550C0008550C0008550C0008AC
:1000B000C9370008550C0008550C0008550C0008FD
:1000C000550C0008550C0008550C0008550C00088C
:1000D000550C0008550C00088901000885350008FA
:1000E000550C0008550C0008550C0008550C00086C
:1000F000550C0008550C0008550C0008550C00085C
:10010000550C0008550C0008AD4B0008550C0008B4
:10011000550C0008550C0008550C0008550C00083B
:10012000550C0008550C0008550C0008550C00082B
:10013000550C0008550C0008550C0008550C00081B
:10014000550C0008550C0008550C0008550C00080B
:10015000550C0008550C0008550C0008550C0008FB
:10016000550C0008550C0008550C0008550C0008EB
:10017000550C0008550C0008550C0008550C0008DB
:10018000550C0008550C000880B500AF40F2255111
:10019000434800F012FA0346002B7ED0404800F09E
:1001A000B6F90346DAB23F4B1A703F4B1B78782BF7
:1001B00008D13C4B1B781A463C4B1A603A4B002244
:1001C0001A7043E0384B1B78792B08D1354B1B78DC
:1001D0001A46374B1A60344B00221A7036E0324B05
:1001E0001B78582B08D12F4B1B781A46314B1A60BD
:1001F0002D4B00221A7029E02B4B1B78592B08D16C
:10020000284B1B781A462C4B1A60274B00221A7079
:100210001CE0254B1B78672B07D1224B1A78274B04
:100220001A70214B00221A7010E01F4B1B78732BA1
:1002300008D11C4B1B781A46214B1A601A4B00221E
:100240001A7003E0174B1A78174B1A701D4B1A6877
:10025000164B1B689A4205D11B4B1A68144B1B683E
:100260009A4212D0114B1B68184606F067FF0246EF
:10027000164B1A600E4B1B68184606F05FFF0246CD
:10028000134B1A60134B01221A60084B1B680D4A6E
:100290001360074B1B680C4A136000BF80BD00BF92
:1002A00000440040260200202502002020020020F9
:1002B000F4010020040200200C020020FE010020B6
:1002C000F80100201802002014020020540300202E
:1002D000940300205003002090B484B000AF034684
:1002E0000A46FB711346BB710023FB60BB7903F028
:1002F00003039B000F2202FA03F3FB601649BB794C
:100300009B08DBB21846144ABB799B08DBB2023368
:1003100052F82320FB68DB431A40831C41F823205A
:100320000D48BB799B08DBB21C460B4ABB799B0886
:10033000DBB2023352F82320F979BB7903F00303CF
:100340009B0001FA03F31A43A31C40F8232000BFCB
:100350001037BD4690BC70470038014080B58AB068
:1003600000AF7860396000237B6200233B6200238A
:10037000FB610023BB617B681B8A9BB27B627B6A4B
:1003800023F440537B623B68DB881A467B6A134345
:100390007B627B6A9AB27B681A827B689B899BB27C
:1003A0007B627B6A23F4B05323F00C037B623B68CF
:1003B0009A883B681B8913439AB23B685B89134355
:1003C0009BB21A467B6A13437B627B6A9AB27B6854
:1003D0009A817B689B8A9BB27B627B6A23F4407321
:1003E0007B623B689B891A467B6A13437B627B6A0C
:1003F0009AB27B689A8207F10803184600F0EAFD7A
:100400007B68304A934203D07B682F4A934202D1E3
:100410007B693B6201E03B693B627B689B899BB2E5
:100420001BB2002B0CDA3A6A13469B0013449A0065
:100430001A443B681B685B00B2FBF3F3FB610BE003
:100440003A6A13469B0013449A001A443B681B689F
:100450009B00B2FBF3F3FB61FB691C4AA2FB032385
:100460005B091B017B627B6A1B09642202FB03F3AD
:10047000FA69D31ABB617B689B899BB21BB2002BC4
:100480000CDABB69DB003233104AA2FB03235B09A1
:1004900003F007037A6A13437B620BE0BB691B011D
:1004A00032330A4AA2FB03235B0903F00F037A6A83
:1004B00013437B627B6A9AB27B681A8100BF28373C
:1004C000BD4680BD00100140001401401F85EB5166
:1004D00080B483B000AF78600B46FB70FB78002BD4
:1004E00008D07B689B899BB243F400539AB27B6827
:1004F0009A8107E07B689B899BB223F400539AB2F0
:100500007B689A8100BF0C37BD4680BC704780B4C1
:1005100083B000AF78607B689B889BB2C3F308030D
:100520009BB218460C37BD4680BC704780B487B07C
:1005300000AF78600B467B8013467B7000233B61E5
:100540000023FB600023BB6000237B617B687B6131
:100550007B88DBB25B09DBB23B617B8803F01F0366
:10056000FB600122FB6802FA03F3BB603B69012BCD
:1005700003D17B690C337B6109E03B69022B03D11A
:100580007B6910337B6102E07B6914337B617B788C
:10059000002B06D07B697A691168BA680A431A6031
:1005A00006E07B697A691168BA68D2430A401A602A
:1005B00000BF1C37BD4680BC704780B487B000AF19
:1005C00078600B467B800023FB6000237B61002367
:1005D000BB600023FB747B88DBB25B09DBB2BB60D2
:1005E0007B8803F01F037B6101227B6902FA03F31E
:1005F0007B61BB68012B07D17B689B899BB21A4644
:100600007B6913407B6111E0BB68022B07D17B68DB
:100610001B8A9BB21A467B6913407B6106E07B68AC
:100620009B8A9BB21A467B6913407B617B881B0ABD
:100630009BB2FB600122FB6802FA03F3FB607B685C
:100640001B889BB21A46FB681340FB607B69002B3A
:1006500005D0FB68002B02D00123FB7401E00023CE
:10066000FB74FB7C18461C37BD4680BC704780B5C8
:1006700084B000AF78600B46FB70FB78FB73FB7BAC
:10068000002B03D1786800F0F9F867E0FB7B012BC1
:1006900003D1786800F000F960E0FB7B022B03D106
:1006A000786800F007F959E0FB7B032B03D17868E9
:1006B00000F00EF952E0FB7B042B03D1786800F0C8
:1006C00015F94BE0FB7B052B03D1786800F034F97A
:1006D00044E0FB7B062B03D1786800F053F93DE042
:1006E000FB7B072B03D1786800F074F936E0FB7BC5
:1006F000082B03D1786800F095F92FE0FB7B092BDC
:1007000003D1786800F0B6F928E0FB7B0A2B03D10F
:10071000786800F0D5F921E0FB7B0B2B03D17868DA
:1007200000F0DCF91AE0FB7B0C2B03D1786800F0B9
:10073000E3F913E0FB7B0D2B03D1786800F0EAF9B5
:100740000CE0FB7B0E2B03D1786800F0F1F905E09B
:10075000FB7B0F2B02D1786800F010FA786800F06C
:1007600005F800BF1037BD4680BD000080B58CB0D5
:1007700000AF786000237B770023BB6200237B629D
:1007800000233B62012387F82C3000233B777B68F2
:10079000214A934208D1214A204B5B6C43F4807379
:1007A00053640023BB6118E07B681D4A934208D163
:1007B0001A4A1A4B5B6C43F4007353640023BB6109
:1007C0000BE07B68174A934207D1144A134B5B6CCA
:1007D00043F4806353640023BB6100233B61002327
:1007E000BB604FF48033FB604FF440737B6107F1D3
:1007F0000803184600F07EFD07F1180319467868D3
:1008000000F024FD7B689B6843F001027B689A60DE
:1008100000BF3037BD4680BD002001400038024097
:10082000002101400022014080B584B000AF786013
:100830000B46FB7040F6FF73FB60F9780123012241
:10084000786800F07FFD7B689B6843F080427B689E
:100850009A6006E0FB685A1EFA60002B01D1002363
:1008600008E07B681B6803F00203002BF2D07B6872
:10087000DB6C9BB218461037BD4680BD80B582B098
:1008800000AF78600121034800F0A0F900BF0837ED
:10089000BD4680BD0000024080B582B000AF7860E8
:1008A0000221034800F092F900BF0837BD4680BD21
:1008B0000000024080B582B000AF78600421034898
:1008C00000F084F900BF0837BD4680BD000002403B
:1008D00080B582B000AF78600821034800F076F957
:1008E00000BF0837BD4680BD0000024080B582B021
:1008F00000AF78607B680B4A934203D07B680A4A5A
:10090000934203D11021094800F060F97B68084A3E
:10091000934203D14021074800F058F900BF08373F
:10092000BD4680BD00200140002101400000024082
:10093000002201400014024080B582B000AF786010
:100940007B680B4A934203D07B680A4A934203D1E7
:100950002021094800F03AF97B68084A934203D104
:100960008021074800F032F900BF0837BD4680BD3E
:10097000002001400021014000000240002201400F
:100980000014024080B582B000AF78607B680C4AEA
:10099000934203D07B680B4A934203D140210A481B
:1009A00000F014F97B68094A934204D14FF4807136
:1009B000074800F00BF900BF0837BD4680BD00BFF7
:1009C00000200140002101400000024000220140BF
:1009D0000014024080B582B000AF78607B680C4A9A
:1009E000934203D07B680B4A934203D180210A488B
:1009F00000F0ECF87B68094A934204D14FF400718F
:100A0000074800F0E3F800BF0837BD4680BD00BFCF
:100A1000002001400021014000000240002201406E
:100A20000014024080B582B000AF78607B680C4A49
:100A3000934203D07B680B4A934203D101210A48B9
:100A400000F0C4F87B68094A934204D14FF48061F6
:100A5000074800F0BBF800BF0837BD4680BD00BFA7
:100A6000002001400021014000040240002201401A
:100A70000014024080B582B000AF78607B680B4AFA
:100A8000934203D07B680A4A934203D1022109486A
:100A900000F09CF87B68084A934203D1082107487C
:100AA00000F094F800BF0837BD4680BD002001402B
:100AB00000210140000402400022014000140240D5
:100AC00080B582B000AF78600121034800F07EF865
:100AD00000BF0837BD4680BD0008024080B582B027
:100AE00000AF78600221034800F070F800BF0837BB
:100AF000BD4680BD0008024080B582B000AF78607E
:100B00000421034800F062F800BF0837BD4680BDED
:100B10000008024080B582B000AF78600821034829
:100B200000F054F800BF0837BD4680BD0008024001
:100B300080B582B000AF78607B680B4A934203D0E7
:100B40007B680A4A934203D11021094800F03EF81D
:100B50007B68084A934203D11021074800F036F819
:100B600000BF0837BD4680BD002001400021014084
:100B700000080240002201400014024080B582B00B
:100B800000AF78607B680C4A934203D07B680B4AC5
:100B9000934204D120210A4800F018F807E07B684E
:100BA000084A934203D12021074800F00FF800BF04
:100BB0000837BD4680BD00BF002001400021014034
:100BC00000080240002201400014024080B584B0B9
:100BD00002AF78600B467B80798801230193022362
:100BE000009300230322786803F0A4FA00BF0837BB
:100BF000BD4680BD80B582B000AF114B7B60114B0C
:100C00003B6007E03B681A1D3A607A68111D796005
:100C100012681A603B680C4A9342F3D30B480C49A4
:100C20004FF000028842B8BF40F8042BFADB02F014
:100C3000A5FB00F073F900BF0837BD4680BD00BFBB
:100C4000B877000800000020F0000020F00000202D
:100C50009C03002080B400AFFEE7000080B584B0A4
:100C600000AF0121042000F07BFA0023BB800023A9
:100C7000FB804FF6FF73BB600023BB810023BB7377
:100C80003B1D1946054803F0A5FF0121034804F068
:100C90000BF800BF1037BD4680BD00BF0008004004
:100CA00080B586B000AFFFF7D9FF7023BB8001236A
:100CB000FB8002233B8240F63303FB603B1D194659
:100CC000184804F011F80821164804F0FBF941F225
:100CD0006703FB603B1D1946124804F07FF80821AA
:100CE000104804F00AFA41F69B03FB603B1D1946CD
:100CF0000C4804F0FBF808210A4804F01BFA42F201
:100D0000CF03FB603B1D1946064804F075F9082126
:100D1000044804F02AFA00F007F800BF1837BD466F
:100D200080BD00BF0008004080B582B000AF012147
:100D3000082000F0F7F902220C21274802F0E2F81F
:100D400002220D21244802F0DDF802220E21224861
:100D500002F0D8F802220F211F4802F0D3F84FF416
:100D60007F433B600023BB710023FB7102233B7177
:100D700003237B713B461946174802F001F8012115
:100D8000022000F0CFF94FF470433B600023BB71A9
:100D90000023FB7101233B7103237B713B46194602
:100DA0000E4801F0EDFF0121102000F0BBF94FF4D7
:100DB00070433B600023BB710023FB7101233B7137
:100DC00003237B713B461946054801F0D9FF00BF5C
:100DD0000837BD4680BD00BF000C02400004024041
:100DE0000010024080B584B000AF03463960FB714B
:100DF0003B68002BCCBF01230023FB733B68002B17
:100E0000B8BF5B423B60FB79013B032B7AD801A260
:100E100052F823F0250E00085D0E0008950E00081C
:100E2000CD0E0008FB7B002B0AD04FF480513848D0
:100E300002F04CF84FF40051354802F055F809E043
:100E40004FF40051324802F041F84FF480513048DD
:100E500002F04AF82F4A3B68536354E0FB7B002BB7
:100E60000AD04FF480412A4802F030F84FF4004194
:100E7000274802F039F809E04FF40041244802F015
:100E800025F84FF48041224802F02EF8214A3B68B1
:100E9000936338E0FB7B002B0AD04FF480511E484F
:100EA00002F014F84FF480411B4802F01DF809E0ED
:100EB0004FF48041184802F009F84FF48051164869
:100EC00002F012F8134A3B68D3631CE0FB7B002B53
:100ED0000AD04FF40051104801F0F8FF4FF40041E0
:100EE0000D4802F001F809E04FF400410A4801F012
:100EF000EDFF4FF40051084801F0F6FF054A3B684A
:100F0000136400E000BF00BF1037BD4680BD00BFC6
:100F100000040240000800400010024080B500AF0D
:100F200002F02CFA01F004FF03F068FB02F03AFF34
:100F300002F0CCFA02F02EF804210848FFF797FBE4
:100F400041F2883001F0B8FE02F0E6FB03F0C4F98C
:100F500003F06EFC03F064FDF8E700BF00200140E1
:100F600080B483B000AF0346FB71054B00221A70BA
:100F7000034AFB79137000BF0C37BD4680BC704735
:100F80000238024080B582B000AF00233B600023EE
:100F9000FB710023BB71312000F01EF90346BB71C9
:100FA0003B6801333B603B68B3F5A06F02D0BB796F
:100FB000002BF0D0312000F00FF90346002B02D0B7
:100FC0000123FB7101E00023FB71FB791846083710
:100FD000BD4680BD80B489B000AF78600023BB619E
:100FE00000237B610023FB6102233B610023FB6044
:100FF0000223BB60474B9B6803F00C03BB61BB69DA
:10100000042B07D0082B09D0002B3DD17B68424A26
:101010001A603DE07B68414A1A6039E03D4B5B68ED
:101020009B0D03F00103FB603A4B5B6803F03F0349
:10103000BB60FB68002B0CD0384ABB68B2FBF3F3F3
:10104000344A52689209C2F3080202FB03F3FB61BF
:101050000BE0314ABB68B2FBF3F32E4A52689209A7
:10106000C2F3080202FB03F3FB612A4B5B681B0C13
:1010700003F0030301335B003B61FA693B69B2FB98
:10108000F3F27B681A6003E07B68234A1A6000BFB2
:10109000204B9B6803F0F003BB61BB691B09BB617C
:1010A0001F4ABB6913441B78DBB27B617B681A68FB
:1010B0007B69DA407B685A60164B9B6803F4E05307
:1010C000BB61BB699B0ABB61154ABB6913441B78B2
:1010D000DBB27B617B685A687B69DA407B689A6027
:1010E0000C4B9B6803F46043BB61BB695B0BBB614A
:1010F0000B4ABB6913441B78DBB27B617B685A687F
:101100007B69DA407B68DA6000BF2437BD4680BC6B
:10111000704700BF003802400024F40000127A003B
:101120000000002080B483B000AF78600B46FB70F5
:10113000FB78002B06D00949084B1A6B7B681343D8
:101140000B6306E00549054B1A6B7B68DB431340D4
:101150000B6300BF0C37BD4680BC704700380240AF
:1011600080B483B000AF78600B46FB70FB78002B37
:1011700006D00949084B1A6C7B6813430B6406E0E0
:101180000549054B1A6C7B68DB4313400B6400BFB9
:101190000C37BD4680BC70470038024080B483B035
:1011A00000AF78600B46FB70FB78002B06D0094936
:1011B000084B5A6C7B6813434B6406E00549054BAA
:1011C0005A6C7B68DB4313404B6400BF0C37BD4651
:1011D00080BC70470038024080B487B000AF03463F
:1011E000FB710023FB6000237B610023FB74FB7910
:1011F0005B09DBB2FB60FB68012B03D1124B1B6860
:101200007B6109E0FB68022B03D10F4B1B6F7B61F5
:1012100002E00D4B5B6F7B61FB7903F01F03FB600A
:101220007A69FB6822FA03F303F00103002B02D072
:101230000123FB7401E00023FB74FB7C18461C3780
:10124000BD4680BC704700BF0038024080B485B006
:1012500000AF786039600023FB600023FB727B687D
:101260005B68FB60FB6823F0407323F48073FB60D2
:101270003B681B791A023B681B681343FA681343E7
:10128000FB607B68FA685A607B689B68FB60FA6861
:10129000174B1340FB603B681A693B68DB681A43D5
:1012A0003B689B681A433B685B795B001343FA68B1
:1012B0001343FB607B68FA689A607B68DB6AFB60BB
:1012C000FB6823F47003FB603B681B7D013BDAB2D3
:1012D000FB7A1343FB72FB7A1B05FA681343FB602E
:1012E0007B68FA68DA6200BF1437BD4680BC70477D
:1012F000FDF7FFC080B485B000AF78600023FB60CD
:101300000E4B5B68FB60FA680D4B1340FB607B681B
:101310001A687B685B681A437B689B681A437B6822
:10132000DB681343FA681343FB60044AFB685360AD
:1013300000BF1437BD4680BC704700BF002301408A
:10134000E030FCFF80B485B000AF786008461146FD
:101350001A460346FB700B46BB7013467B70002396
:10136000FB600023BB60FB78092B23D97B68DB681B
:10137000FB60FB78A3F10A0213465B0013440722CB
:1013800002FA03F3BB60BB68DB43FA681340FB60FF
:101390007978FB78A3F10A0213465B00134401FA43
:1013A00003F3BB60FA68BB681343FB607B68FA68B1
:1013B000DA601EE07B681B69FB60FA7813465B000D
:1013C0001344072202FA03F3BB60BB68DB43FA68ED
:1013D0001340FB607978FA7813465B00134401FAF6
:1013E00003F3BB60FA68BB681343FB607B68FA6871
:1013F0001A61BB78062B21D87B685B6BFB60BB78DE
:101400005A1E13469B0013441F2202FA03F3BB60CB
:10141000BB68DB43FA681340FB60F978BB785A1E5F
:1014200013469B00134401FA03F3BB60FA68BB68E0
:101430001343FB607B68FA685A6347E0BB780C2B68
:1014400021D87B681B6BFB60BB78DA1F13469B00BF
:1014500013441F2202FA03F3BB60BB68DB43FA6844
:101460001340FB60F978BB78DA1F13469B001344E6
:1014700001FA03F3BB60FA68BB681343FB607B6847
:10148000FA681A6322E07B68DB6AFB60BB78A3F131
:101490000D0213469B0013441F2202FA03F3BB60A4
:1014A000BB68DB43FA681340FB60F978BB78A3F1B3
:1014B0000D0213469B00134401FA03F3BB60FA6864
:1014C000BB681343FB607B68FA68DA6200BF1437BD
:1014D000BD4680BC704780B483B000AF78600B46D7
:1014E000FB707B68FA781A70012318460C37BD46EA
:1014F00080BC704780B485B000AF7860396000234D
:10150000FB600AE07B685A1C7A603A68511C3960BB
:1015100012781A70FB680133FB603B681B78002B64
:10152000F0D1FB6818461437BD4680BC70470000F8
:1015300080B586B000AFF8607A603B600B46FB7206
:1015400000237B617B68013B7B603B68092B1DD9D5
:101550003B681D4AA2FB0323DB08F97A7A68F86826
:10156000FFF7E6FF78617B69FA681344FB6010E0DF
:10157000FB7A1946F868FFF7AEFFFB680133FB60A2
:101580007B6901337B617B68013B7B607B68002B5F
:10159000EEDC39680C4BA3FB0123DA0813469B00F1
:1015A00013445B00CA1AD3B23033DBB21946F86871
:1015B000FFF791FF02467B6913447B617B69184604
:1015C0001837BD4680BD00BFCDCCCCCC80B586B031
:1015D00000AFF8607A603B600B46FB7200237B61D2
:1015E0003B68002B03DA3B685B423B6101E03B68F0
:1015F0003B617B68013B7B603B69092B1FD93B68E2
:10160000002B0CDA3B692E4AA2FB0323DB085B426A
:10161000F97A7A68F868FFF7D9FF78610AE03B69E0
:10162000274AA2FB0323DB08F97A7A68F868FFF7F8
:10163000CDFF78617B69FA681344FB6025E03B6865
:10164000002B11DA7B68013B7B600DE0FB7A1946C9
:10165000F868FFF740FFFB680133FB607B690133EB
:101660007B617B68013B7B607B68002BEEDC3B6829
:10167000002B0ADA2D21F868FFF72DFF02467B695F
:1016800013447B61FB680133FB6039690C4BA3FB9E
:101690000123DA0813469B0013445B00CA1AD3B235
:1016A0003033DBB21946F868FFF715FF02467B6955
:1016B00013447B617B6918461837BD4680BD00BF67
:1016C000CDCCCCCC80B588B002AFF8607A601A4639
:1016D0000B46FB721346BB7200237B617B68013BA8
:1016E0007B603B6A1B09002B20D03B6A1B09BA7A3E
:1016F000F97A009313467A68F868FFF7E3FF024629
:101700007B6913447B617B69FA681344FB6010E0DA
:10171000FB7A1946F868FFF7DEFEFB680133FB60D1
:101720007B6901337B617B68013B7B607B68002BBD
:10173000EEDC3B6A03F00F03092B0BD83B6ADBB2EC
:1017400003F00F03DBB23033DBB21946F868FFF762
:10175000C2FE19E0BB7A002B0BD03B6ADBB203F070
:101760000F03DBB23733DBB21946F868FFF7B3FE7D
:101770000AE03B6ADBB203F00F03DBB25733DBB2A4
:101780001946F868FFF7A7FE7B6901337B617B6927
:1017900018461837BD4680BD80B58AB002AFF860E4
:1017A000B9607A603B600023BB6100237B61FB680A
:1017B000002B00F0FC80FB6800221A70F7E07B68C9
:1017C0001B78252B0BD0FB685A1CFA607A68511CD9
:1017D000796012781A707B6901337B61E7E07B687E
:1017E00001331B78252B0BD1FB685A1CFA6025228C
:1017F0001A707B6802337B607B6901337B61D6E0C2
:101800002023FB770023BB777B6801337B607B68F9
:101810001B78302B14D13023FB777B6801337B603E
:101820000EE0BB7F1A46920013445B00DAB27B687D
:101830001B781344DBB2303BBB777B6801337B60A2
:101840007B681B782F2B03D97B681B78392BE8D951
:10185000BA7F7B6913441A46BB689A4205D9BB68B4
:10186000DAB27B69DBB2D31ABB777B681B78583B53
:10187000202B00F28E8001A252F823F04D190008AF
:101880009319000893190008931900089319000888
:101890009319000893190008931900089319000878
:1018A00093190008931900087D1900080119000810
:1018B0009319000893190008931900089319000858
:1018C00001190008931900089319000893190008DA
:1018D0009319000893190008931900089319000838
:1018E0009319000893190008691900089319000852
:1018F00019190008931900089319000831190008F4
:10190000B87F3B681A1D3A601B68F97F0246F86889
:10191000FFF75CFEB8613FE0B87F3B681A1D3A6094
:101920001B68F97F0246F868FFF702FEB86133E0F2
:10193000B87F3B681A1D3A601B68F97F009300234B
:101940000246F868FFF7BEFEB86125E0B87F3B6845
:101950001A1D3A601B68F97F009301230246F8685C
:10196000FFF7B0FEB86117E03B681A1D3A601B68CC
:101970001946F868FFF7BEFDB8610DE03B681A1D17
:101980003A601B68DBB21946F868FFF7A4FDB8613E
:1019900002E04FF0FF3325E07B6801337B60BB69D9
:1019A000FA681344FB607A69BB6913447B617B6806
:1019B0001B78002B04D07A69BB689A42FFF4FFAE13
:1019C0007A69BB689A4203D2FB6800221A7008E069
:1019D000FB68013BFB60FB6800221A707B69013BDE
:1019E0007B617B6918462037BD4680BD80B584B0D9
:1019F00000AFF860B9607A607B68BA686421F86803
:101A0000FFF7CAFE034618461037BD4680BD0EB428
:101A100080B585B000AF786007F12003BB60BA687D
:101A2000F9697868FFF7E2FFF860FB681846143739
:101A3000BD46BDE8804003B07047000080B588B067
:101A400000AF786001210820FFF76CFB01214FF403
:101A50008040FFF7A3FB00233B770023BB770123E4
:101A6000FB7703237B770123BB6107F1180319463A
:101A70001A4801F085F91023BB6107F118031946D4
:101A8000164801F07DF900210320FEF725FC012313
:101A90003B610123BB7500233B7510237B7507F168
:101AA0001003184602F040FA06233B7303237B73AE
:101AB0000023BB730123FB7307F10C03184602F0EC
:101AC000D7FA074B00221A607B6800225A607B68B5
:101AD00000221A6000BF2037BD4680BD000C0240C6
:101AE0003802002080B588B000AF7860012108205E
:101AF000FFF718FB01214FF48040FFF74FFB002355
:101B00003B770023BB770123FB7703237B770223FB
:101B1000BB6107F1180319461A4801F031F9202377
:101B2000BB6107F118031946164801F029F9012194
:101B30000320FEF7D1FB02233B610123BB75002389
:101B40003B7510237B7507F11003184602F0ECF982
:101B500007233B7303237B730023BB730123FB73B6
:101B600007F10C03184602F083FA074B00221A60B3
:101B70007B6800225A607B6800221A6000BF203711
:101B8000BD4680BD000C02403402002080B588B004
:101B900000AF786001210820FFF7C4FA01214FF45B
:101BA0008040FFF7FBFA00233B770023BB7701233C
:101BB000FB7703237B770423BB6107F118031946E6
:101BC0001A4801F0DDF84023BB6107F118031946FC
:101BD000164801F0D5F802210320FEF77DFB04230F
:101BE0003B610123BB7500233B7510237B7507F117
:101BF0001003184602F098F908233B7303237B7304
:101C00000023BB730123FB7307F10C03184602F09A
:101C10002FFA074B00221A607B6800225A607B680B
:101C200000221A6000BF2037BD4680BD000C024074
:101C30003C02002080B588B000AF78600121082008
:101C4000FFF770FA01214FF48040FFF7A7FA002355
:101C50003B770023BB770123FB7703237B770823A4
:101C6000BB6107F1180319461A4801F089F880236F
:101C7000BB6107F118031946164801F081F80321EA
:101C80000320FEF729FB08233B610123BB750023DA
:101C90003B7510237B7507F11003184602F044F9D9
:101CA00009233B7303237B730023BB730123FB7363
:101CB00007F10C03184602F0DBF9074B00221A600B
:101CC0007B6800225A607B6800221A6000BF2037C0
:101CD000BD4680BD000C02403002002080B588B0B7
:101CE00000AF786001210220FFF71CFA01214FF4B8
:101CF0008040FFF753FA00233B770023BB77012393
:101D0000FB7703237B771023BB6107F11803194688
:101D10001A4801F035F80423BB6107F1180319468E
:101D2000164801F02DF804210120FEF7D5FA102302
:101D30003B610123BB7500233B7510237B7507F1C5
:101D40001003184602F0F0F80A233B7303237B7359
:101D50000023BB730123FB7307F10C03184602F049
:101D600087F9074B00221A607B6800225A607B6863
:101D700000221A6000BF2037BD4680BD000402402B
:101D80002802002080B588B000AF786001210220D1
:101D9000FFF7C8F901214FF48040FFF7FFF9002356
:101DA0003B770023BB770123FB7703237B7720233B
:101DB000BB6107F1180319461A4800F0E1FF082338
:101DC000BB6107F118031946164800F0D9FF052139
:101DD0000120FEF781FA20233B610123BB7500231C
:101DE0003B7510237B7507F11003184602F09CF831
:101DF00017233B7303237B730023BB730123FB7304
:101E000007F10C03184602F033F9074B00221A6061
:101E10007B6800225A607B6800221A6000BF20376E
:101E2000BD4680BD000402402C02002080B483B077
:101E300000AF7860124B1A687B681B68D21A7B6807
:101E40005A600F4B1A687B681A600D4B1B68002B99
:101E500004DA7B6801221A7201230CE0084B1B682C
:101E6000002B04DD7B6800221A72002303E07B68EC
:101E700002221A72022318460C37BD4680BC7047F6
:101E80003802002080B483B000AF7860124B1A682B
:101E90007B681B68D21A7B685A600F4B1A687B6894
:101EA0001A600D4B1B68002B04DA7B6801221A7242
:101EB00001230CE0084B1B68002B04DD7B6800222B
:101EC0001A72002303E07B6802221A72022318466A
:101ED0000C37BD4680BC70473402002080B483B00C
:101EE00000AF7860124B1A687B681B68D21A7B6857
:101EF0005A600F4B1A687B681A600D4B1B68002BE9
:101F000004DA7B6801221A7201230CE0084B1B687B
:101F1000002B04DD7B6800221A72002303E07B683B
:101F200002221A72022318460C37BD4680BC704745
:101F30003C02002080B483B000AF7860124B1A6876
:101F40007B681B68D21A7B685A600F4B1A687B68E3
:101F50001A600D4B1B68002B04DA7B6801221A7291
:101F600001230CE0084B1B68002B04DD7B6800227A
:101F70001A72002303E07B6802221A7202231846B9
:101F80000C37BD4680BC70473002002080B582B05F
:101F900000AF0121144800F080FF0346FB711021BF
:101FA000114800F07AFF0346BB71104B1B78FA7999
:101FB0009A4214D00D4AFB7913700C4B1B78002BFE
:101FC0000DD1BB79012B05D1094B1B680133084AA0
:101FD000136004E0064B1B68013B054A136000BF19
:101FE0000837BD4680BD00BF000C02401000002035
:101FF0003802002080B582B000AF0221144800F002
:102000004CFF0346FB712021114800F046FF0346B8
:10201000BB71104B1B78FA799A4214D00D4AFB79A8
:1020200013700C4B1B78002B0DD1BB79012B05D104
:10203000094B1B680133084A136004E0064B1B6818
:10204000013B054A136000BF0837BD4680BD00BF95
:10205000000C0240110000203402002080B582B044
:1020600000AF0421144800F018FF0346FB71402123
:10207000114800F012FF0346BB71104B1B78FA7930
:102080009A4214D00D4AFB7913700C4B1B78002B2D
:102090000DD1BB79012B05D1094B1B680133084ACF
:1020A000136004E0064B1B68013B054A136000BF48
:1020B0000837BD4680BD00BF000C02401200002062
:1020C0003C02002080B582B000AF0821144800F027
:1020D000E4FE0346FB718021114800F0DEFE03465A
:1020E000BB71104B1B78FA799A4214D00D4AFB79D8
:1020F00013700C4B1B78002B0DD1BB79012B05D134
:10210000094B1B680133084A136004E0064B1B6847
:10211000013B054A136000BF0837BD4680BD00BFC4
:10212000000C0240130000203002002080B582B075
:1021300000AF1021144800F0B0FE0346FB710421EB
:10214000114800F0AAFE0346BB71104B1B78FA79C8
:102150009A4214D00D4AFB7913700C4B1B78002B5C
:102160000DD1BB79012B05D1094B1B680133084AFE
:10217000136004E0064B1B68013B054A136000BF77
:102180000837BD4680BD00BF000402401400002097
:102190002802002080B582B000AF2021144800F052
:1021A0007CFE0346FB710821114800F076FE0346D1
:1021B000BB71104B1B78FA799A4214D00D4AFB7907
:1021C00013700C4B1B78002B0DD1BB79012B05D163
:1021D000094B1B680133084A136004E0064B1B6877
:1021E000013B054A136000BF0837BD4680BD00BFF4
:1021F00000040240150000202C02002080B500AF32
:10220000012001F003FF0346002B04D0FFF7BEFEC0
:10221000012001F01FFF00BF80BD80B500AF02208C
:1022200001F0F4FE0346002B04D0FFF7E3FE02208A
:1022300001F010FF00BF80BD80B500AF042001F0A9
:10224000E5FE0346002B04D0FFF708FF042001F051
:1022500001FF00BF80BD80B500AF082001F0D6FEB1
:102260000346002B04D0FFF72DFF082001F0F2FEFB
:1022700000BF80BD80B500AF102001F0C7FE03464F
:10228000002B04D0FFF752FF102001F0E3FE00BF47
:1022900080BD80B500AF202001F0B8FE0346002BC2
:1022A00004D0FFF777FF202001F0D4FE00BF80BDEF
:1022B0002DE9F04F85B000AF774B1A68774B1B685C
:1022C00013445B42DA0F13445B101A46744B1A60D6
:1022D000744B1A68744B1B681344DA0F13445B1079
:1022E0001A46724B1A606D4B1A686E4B1B6813448A
:1022F0005B42DA0F13445B101A466D4B1A60664B53
:102300001A68694B1B681344DA0F13445B101A46B2
:10231000684B1A60624B1A68674B1B68D31A674A8E
:102320001360624B1A68664B1B68D31A654A1360C8
:102330005F4B1A68644B1B68D31A644A13605D4B89
:102340001A68634B1B68D31A624A1360544B1B68AC
:10235000594A1360554B1B68594A1360544B1B680C
:10236000594A1360534B1B68594A1360534B1B68FF
:10237000184604F0E3FE0246574B1A60514B1B68A7
:10238000184604F0DBFE0246544B1A604F4B1B68A4
:10239000184604F0D3FE0246514B1A604D4B1B68A1
:1023A000184604F0CBFE02464E4B1A604A4B1A68A0
:1023B0004A4B1B681946104604F00CFE03464FF0CA
:1023C0008041184604F0C2FF03461A46464B1A6085
:1023D000434B1A68434B1B681946104604F0FAFD3C
:1023E00003464FF08041184604F0B0FF03461A46FA
:1023F0003E4B1A603E4B1B68184604F07FFA0446B9
:102400000D46354B1A68354B1B681946104604F0CB
:10241000DFFD0346184604F071FA1BA3D3E900233D
:1024200004F0EAFB02460B462046294604F008F970
:1024300003460C461846214604F076FD02462C4B16
:102440001A602B4B1B68184604F058FA10A3D3E906
:10245000002304F037FD0346002B4BD0244B1B68B0
:10246000184604F04BFA0AA3D3E9002304F0E6F877
:1024700003460C461846214604F056FD02461C4B06
:102480001A6054E0AFF300806666666666E66840F0
:102490006E861BF0F921194038020020340200201A
:1024A000980200203C02002030020020A4020020FC
:1024B0005002002078020020FC0000204C02002086
:1024C000000100205C0200200401002054020020D2
:1024D00008010020AC020020700200206C020020E5
:1024E000A002002068020020940200207402002054
:1024F000B0010020C84B1B684FF00001184605F0E2
:102500000FF80346002B12D0C34B1B68184604F08B
:10251000F5F9B9A3D3E9002304F092F803460C4679
:102520001846214604F000FD0246BB4B1A60BA4B28
:102530001B68BA49184604F055FE0346184604F0D5
:10254000DDF9AFA3D3E9002304F056FB03460C46A4
:102550001846214604F0E8FC0246B14B1A60B14B24
:102560001B68184604F0CAF9C7E90201AE4B1B68A4
:10257000184604F0C3F904460D46A74B1B681846DD
:1025800004F0BCF902460B461046194602F0B4FEB0
:1025900002460B462046294604F004FA03460C4640
:1025A000C7E90034A14B1B68184604F0A7F905469B
:1025B0000E46994B1B68184604F0A0F903460C46DA
:1025C0001846214602F04AFE03460C461A462346A8
:1025D0002846314604F0E6F903460C461A462346DF
:1025E000D7E9000104F02CF803460C4618462146B2
:1025F00085A3D3E9002304F0FFFA03460C461A46EC
:102600002346D7E9020104F01BF803460C4618469E
:10261000214604F089FC0246824B1A60844B1B68F9
:10262000184604F06BF9C7E902017F4B1B68184696
:1026300004F064F904460D46774B1B68184604F015
:102640005DF902460B461046194602F007FE0246A7
:102650000B462046294604F0A5F903460C461D46C4
:102660002646724B1B68184604F048F9C7E900017A
:10267000694B1B68184604F041F903460C4618469E
:10268000214602F039FE03460C46984684F0004984
:1026900042464B46D7E9000104F084F903460C4654
:1026A0001A4623462846314603F0CAFF03460C4625
:1026B0001846214654A3D3E9002304F09DFA0346AB
:1026C0000C461A462346D7E9020103F0B9FF034638
:1026D0000C461846214604F027FC0246544B1A606B
:1026E000544B1B68184604F009F9804689464E4B46
:1026F0001B68184604F002F904460D464E4B1B6851
:10270000184604F0FBF83EA3D3E9002304F04AF98D
:1027100002460B46104619464FF00002474B04F0A4
:102720006BFA02460B461046194602F0E5FD0246DA
:102730000B462046294604F035F903460C461D4653
:1027400026463A4B1B68184604F0D8F8C7E9020140
:10275000394B1B68184604F0D1F829A3D3E90023AC
:1027600004F020F903460C46184621464FF00002BB
:10277000324B04F041FA03460C461846214602F05B
:102780006DFD03460C461A462346D7E9020104F0C4
:1027900009F903460C461A4623462846314603F0FB
:1027A0004FFF03460C461846214619A3D3E90023E0
:1027B00004F022FA03460C461A4623464046494690
:1027C00003F03EFF03460C461846214604F0ACFBDE
:1027D0000246184B1A601A4B1B68184604F08EF814
:1027E00080468946104B1B68184604F087F804465B
:1027F00028E000BFAFF300806E861BF0F92119407E
:10280000F1D4C853FB210940762EBFE54782D43F5F
:102810003F1F2BD05CDBD43FB001002000003443CD
:10282000900200207C02002094020020740200200C
:10283000600200209C020020080200200080664008
:10284000800200200D463E4B1B68184604F056F8E7
:1028500037A3D3E9002304F0A5F802460B4610463F
:1028600019464FF00002374B04F0C6F902460B46FA
:102870001046194602F0F2FC02460B462046294655
:1028800004F090F803460C461D4626462E4B1B6866
:10289000184604F033F8C7E90201294B1B681846B3
:1028A00004F02CF822A3D3E9002304F07BF80346BC
:1028B0000C46184621464FF00002224B04F09CF9CA
:1028C00003460C461846214602F016FD03460C4608
:1028D0009A4684F0004B52465B46D7E9020104F069
:1028E00061F803460C461A4623462846314603F053
:1028F000A7FE03460C46184621460FA3D3E9002342
:1029000004F07AF903460C461A46234640464946E7
:1029100003F096FE03460C461846214604F004FBDD
:1029200002460A4B1A6000BF1437BD46BDE8F08F5F
:10293000F1D4C853FB2109403F1F2BD05CDBD43FAF
:1029400008020020008066407402002080020020FF
:102950002DE9B04300AFA24B1B781A46A14B1A6079
:10296000A14B1B781A46A14B1A60A14B1B68184655
:1029700003F0B2FF04460D469A4B1B68184603F05D
:10298000ABFF91A3D3E9002304F00CF802460B46F9
:102990002046294603F054FE03460C4618462146BD
:1029A00004F09AFA0246924B1A60924B1B68184642
:1029B00003F092FF04460D468C4B1B68184603F04B
:1029C0008BFF81A3D3E9002303F0ECFF02460B4603
:1029D0002046294603F034FE03460C46184621469D
:1029E00004F07AFA0246834B1A60834B1B68184640
:1029F00003F072FF74A3D3E9002303F0D3FF03466F
:102A00000C4625461C46774B1B68184603F064FFAE
:102A10004FF00002794B03F0C5FF02460B4610460B
:102A200019466BA3D3E9002303F0BCFF02460B4613
:102A30002046294603F004FE03460C46184621466C
:102A400004F04AFA02466E4B1A606B4B1B6818463C
:102A500003F042FF5CA3D3E9002303F0A3FF034686
:102A60000C4625461C465F4B1B68184603F034FF96
:102A70004FF00002614B03F095FF02460B461046F3
:102A8000194653A3D3E9002303F08CFF02460B46FB
:102A90002046294603F0D4FD03460C46184621463D
:102AA00004F01AFA0246564B1A60514B1B68524A00
:102AB0001360504B1B68534A1360534B1B681846F6
:102AC00003F00AFF04460D464D4B1B684F4A82FB3C
:102AD00003129210DB17D31A184603F0FDFE80464E
:102AE00089464B4B1B68184603F008FF3AA3D3E90D
:102AF000002303F057FF02460B46104619464FF0DD
:102B00000002444B04F078F802460B461046194682
:102B100002F0F2FB02460B464046494603F042FFF4
:102B200002460B462046294603F08AFD03460C4622
:102B30001846214604F0D0F90246334B1A60364B52
:102B40001B68184603F0C8FE04460D46334B1B684D
:102B50002E4A82FB03129210DB17D31A184603F099
:102B6000BBFE804689462A4B1B68184603F0C6FE0A
:102B700019A3D3E9002303F015FF02460B461046C4
:102B800019464FF00002234B04F036F802460B467C
:102B90001046194602F062FB02460B464046494683
:102BA00003F000FF02460B462046294603F048FD8D
:102BB00003460C461846214604F08EF90246164B91
:102BC0001A6000BFBDE8B083158C4AEA0434713F37
:102BD000C8D0D291337FF23EF1D4C853FB210940D3
:102BE0002402002064020020270200204802002066
:102BF000A8020020840200200C0100200000E03F19
:102C00008C020020100100208802002067666666A2
:102C10000802002000806640580200204002002088
:102C200080B483B000AF03463960FB7197F9073079
:102C3000002B0BDA0D49FB7903F00F03043B3A68D4
:102C4000D2B21201D2B20B441A7609E0084997F9C0
:102C500007303A68D2B21201D2B20B4483F8002393
:102C600000BF0C37BD4680BC704700BF00ED00E0E0
:102C700000E100E080B582B000AF78607B68B3F11E
:102C8000807F01D3012311E00A4A7B6823F07F4350
:102C9000013B53600F214FF0FF30FFF7C1FF054BA1
:102CA00000229A60034B07221A6000231846083757
:102CB000BD4680BD10E000E080B483B000AF786016
:102CC0007B684FF47A7202FB03F3064A136000BF7D
:102CD000044B1B68002BFBD100BF0C37BD4680BCEA
:102CE000704700BF1401002080B400AF0D4B1B687B
:102CF00001330C4A13600C4B1B68002B04D00A4BA9
:102D00001B68013B084A1360084B1B68002B04D06A
:102D1000064B1B68013B054A136000BFBD4680BCE3
:102D2000704700BF180100201C0100201401002082
:102D300080B500AF0F4B1B78002B19D10120FEF797
:102D40000FF900BFFEF71EF90346002BFAD00A4B1D
:102D50001B680A4AA2FB03239B0C1846FFF78AFF55
:102D60000346002B00D0FEE7024B01221A7000E060
:102D700000BF80BD200100209000002083DE1B43A7
:102D800080B487B000AF7860396000237B61002396
:102D90003B610023FB6000237B6176E001227B69BD
:102DA00002FA03F33B613B681A683B691340FB601E
:102DB000FA683B699A4265D17B681A687B695B0057
:102DC000032101FA03F3DB431A407B681A607B6836
:102DD0001A683B681B7919467B695B0001FA03F3AB
:102DE0001A437B681A603B681B79012B03D03B6850
:102DF0001B79022B2ED17B689A687B695B000321CB
:102E000001FA03F3DB431A407B689A607B689A6897
:102E10003B685B7919467B695B0001FA03F31A434F
:102E20007B689A607B685A687B699BB2194601236C
:102E30008B40DB431A407B685A607B685B683A686A
:102E4000927911467A6992B201FA02F292B21A4369
:102E50007B685A607B68DA687B699BB25B00032100
:102E600001FA03F3DB431A407B68DA607B68DA68B7
:102E70003B68DB7919467B695B0001FA03F31A436F
:102E80007B68DA607B6901337B617B690F2B85D9B5
:102E900000BF1C37BD4680BC704780B485B000AF12
:102EA00078600B467B800023FB737B681A697B8804
:102EB0001340002B02D00123FB7301E00023FB73BE
:102EC000FB7B18461437BD4680BC704780B483B086
:102ED00000AF78600B467B807B687A881A8300BFDE
:102EE0000C37BD4680BC704780B483B000AF7860BB
:102EF0000B467B807B687A885A8300BF0C37BD46BF
:102F000080BC704780B485B000AF78600B467B8092
:102F100013467B700023FB600023BB607A787B88BC
:102F200003F007039B0002FA03F3FB607B88DB08D6
:102F30009BB218467B88DB089BB21A467B68083236
:102F400053F822207B8803F007039B000F2101FA2E
:102F500003F3DB4302EA03017B6800F1080243F854
:102F600022107B88DB089BB21A467B68083253F834
:102F70002220FB681343BB607B88DB089BB21A46A8
:102F80007B680832B96843F8221000BF1437BD4689
:102F900080BC704780B582B000AF01210820FEF7E9
:102FA000C1F84FF4E0633B6002237B7101233B7166
:102FB0000023BB710023FB713B4619460A48FFF70B
:102FC000DFFE4FF480710848FFF780FF4FF4007177
:102FD0000548FFF77BFF4FF480610348FFF776FF5A
:102FE00000BF0837BD4680BD000C024080B500AF71
:102FF0004FF400710248FFF777FF00BF80BD00BFAC
:10300000000C024080B500AF4FF480710248FFF71A
:103010006BFF00BF80BD00BF000C024080B500AF59
:103020004FF480610248FFF75FFF00BF80BD00BF23
:10303000000C024080B500AF4FF480710748FFF7E5
:1030400045FF4FF400710548FFF740FF4FF48061E2
:103050000248FFF73BFF00BF80BD00BF000C0240ED
:1030600080B500AF012000F077F84CF2503000F04E
:1030700076F900BF80BD80B582B000AF03463A60EC
:10308000FB710B46BB71BA79FB791146184600F00B
:1030900041F907E03B681B78184600F0CCF83B6824
:1030A00001333B603B681B78002BF3D100BF08372E
:1030B000BD4680BD80B483B000AF0346FB71FA7992
:1030C0000B4913469B0013449B000B4404331968BF
:1030D000FA79074813469B0013449B0003440833C6
:1030E0001B884B8300BF0C37BD4680BC704700BFB8
:1030F0001800002080B483B000AF0346FB71FA795A
:103100000B4913469B0013449B000B44043319687E
:10311000FA79074813469B0013449B000344083385
:103120001B880B8300BF0C37BD4680BC704700BFB7
:103130001800002080B500AF0120FFF7DBFF4FF43F
:103140007A7000F00CF90120FFF7B4FF4FF47A70A9
:1031500000F005F900BF80BD80B582B000AF034626
:10316000FB710020FFF7A6FF97F90730002B03DA69
:103170000520FFF7BFFF02E00520FFF79BFFFB796B
:1031800003F04003002B03D00420FFF7B3FF02E05D
:103190000420FFF78FFFFB7903F02003002B03D0FF
:1031A0000320FFF7A7FF02E00320FFF783FFFB796F
:1031B00003F01003002B03D00220FFF79BFF02E077
:1031C0000220FFF777FFFFF7B5FFFB7903F0080355
:1031D000002B03D00520FFF78DFF02E00520FFF74D
:1031E00069FFFB7903F00403002B03D00420FFF7F1
:1031F00081FF02E00420FFF75DFFFB7903F002038B
:10320000002B03D00320FFF775FF02E00320FFF738
:1032100051FFFB7903F00103002B03D00220FFF7DD
:1032200069FF02E00220FFF745FFFFF783FF00BFC1
:103230000837BD4680BD80B582B000AF0346FB7144
:103240000020FFF757FF97F90730002B03DA05201E
:10325000FFF750FF02E00520FFF72CFFFB7903F09A
:103260004003002B03D00420FFF744FF02E00420BA
:10327000FFF720FFFB7903F02003002B03D003208E
:10328000FFF738FF02E00320FFF714FFFB7903F09C
:103290001003002B03D00220FFF72CFF02E00220D6
:1032A000FFF708FFFFF746FFFB7903F00803002B49
:1032B00003D00520FFF71EFF02E00520FFF7FAFE0E
:1032C000FB7903F00403002B03D00420FFF712FF67
:1032D00002E00420FFF7EEFEFB7903F00203002B6F
:1032E00003D00320FFF706FF02E00320FFF7E2FE12
:1032F000FB7903F00103002B03D00220FFF7FAFE55
:1033000002E00220FFF7D6FEFFF714FF00BF0837E8
:10331000BD4680BD80B584B000AF03460A46FB7150
:103320001346BB71FB790F2B01D90023FB71BB79CD
:10333000012B01D90023BB71BB799B01FB73FA7B85
:10334000FB791343FB73FB7B63F07F03FB73FB7B16
:103350001846FFF701FF00BF1037BD4680BD80B49F
:1033600083B000AF786000BF7B685A1E7A60002B84
:10337000FAD100BF0C37BD4680BC704780B500AFA6
:10338000124A124B1B6843F0010313600F4B0022DB
:103390009A600E4A0D4B1B6823F0847323F480332C
:1033A00013600A4B0A4A5A60084A084B1B6823F408
:1033B00080231360054B0022DA6000F00DF8054B06
:1033C0004FF000629A6000BF80BD00BF003802402D
:1033D0001030002400ED00E080B483B000AF002383
:1033E0007B6000233B60354A344B1B6843F48033D9
:1033F0001360324B1B6803F400333B607B6801337E
:103400007B603B68002B03D17B68B3F5A06FF0D1E4
:103410002A4B1B6803F40033002B02D001233B60CE
:1034200001E000233B603B68012B42D1234A234B40
:103430001B6C43F080531364214A214B1B6843F4F7
:10344000804313601D4A1D4B9B6893601B4A1B4BB6
:103450009B6843F400439360184A184B9B6843F4FD
:10346000A0539360154B174A5A60144A134B1B68BC
:1034700043F08073136000BF104B1B6803F00073B0
:10348000002BF9D0104B40F205621A600B4A0B4B2F
:103490009B6823F003039360084A084B9B6843F042
:1034A0000203936000BF054B9B6803F00C03082BDD
:1034B000F9D100BF0C37BD4680BC704700380240D0
:1034C0000070004008544007003C024080B588B0BE
:1034D00000AF01210220FDF725FE01214FF48020DD
:1034E000FDF73EFE4FF440637B6102237B760223AF
:1034F0003B760023BB760123FB7607F114031946C4
:103500001E48FFF73DFC07220A211C48FFF7FAFC82
:1035100007220B211948FFF7F5FC4FF416537B6087
:1035200000233B8100237B810023BB8100233B825E
:103530000C23FB813B1D19461148FCF70FFF0121AD
:103540000F48FCF7C5FF012240F225510C48FCF75B
:10355000EDFF27233B7700237B770023BB770123F5
:10356000FB7707F11C03184600F082FD0121044897
:10357000FCF7AEFF00BF2037BD4680BD000402400F
:103580000048004080B500AF40F225515448FDF797
:1035900014F80346002B06D05148FCF7B8FF034649
:1035A000DAB2504B1A70504B1B78582B07D14D4B49
:1035B0001A784E4B1A704C4B00221A708DE04A4B11
:1035C0001B78592B07D1474B1A78494B1A70464B39
:1035D00000221A7081E0444B1B78432B07D1414BEA
:1035E0001A78444B1A70404B00221A7075E03E4B1B
:1035F0001B784F2B55D13B4B1A783F4B1A703D4BE4
:103600001B781A46642303FB02F33B4A12781344E7
:10361000184603F093FD03463849184603F096FE1A
:1036200003461A46364B1A60354B1B683549184617
:1036300003F0CEFC03461A46334B1B68194610466E
:1036400003F0C6FC03461A462D4B1A602C4B1B6830
:103650004FF00001184603F063FF0346002B09D02A
:10366000274B1B682949184603F0B4FC03461A4649
:10367000234B1A60224B1B682449184603F06EFF47
:103680000346002B09D01E4B1B682049184603F047
:103690009FFC03461A461A4B1A60134B00221A70FD
:1036A0001BE0114B1B784C2B07D10E4B1A78184B93
:1036B0001A700D4B00221A700FE00B4B1B78422B37
:1036C00007D1084B1A78134B1A70074B00221A7057
:1036D00003E0044B1A78044B1A7000BF80BD00BF92
:1036E00000480040B002002000020020FD01002040
:1036F000FC0100201C0200201002002000002041DC
:103700000802002000009A42240100200000B44377
:1037100027020020FF01002080B400AF034B1B688C
:10372000034A136000BFBD4680BC704708020020FA
:103730002401002080B483B000AF78607B685AB267
:10374000034B1A7000BF0C37BD4680BC704700BFEA
:10375000CC02002080B584B000AF01210120FDF72C
:10376000FFFC49F68313BB800023FB800923BB6069
:103770000023BB810023BB733B1D19464FF08040E3
:1037800001F028FA01214FF0804001F08DFA01226A
:1037900001214FF0804001F005FD00BF1037BD460C
:1037A00080BD80B582B000AF1C233B7100237B71CC
:1037B0000123BB710123FB713B1D184600F058FC2F
:1037C00000BF0837BD4680BDB0B500AF01214FF046
:1037D000804001F00AFD0346002B00F09982012190
:1037E0004FF0804001F02AFDAD48FEF74BFBAC4B9B
:1037F0005A6813461B019B1A9B00184603F06CF88D
:10380000A5A3D3E9002303F0CDF803460C461846E0
:10381000214603F061FB0246A24B1A60A24BB3F9AA
:1038200000309AB29F4B1B689BB2D31A9BB21AB25C
:103830009E4B1A809D4BB3F900309AB29C4BB3F962
:1038400000309BB2D31A9BB21AB29A4B1A809A4B91
:10385000B3F900309AB2954BB3F900309BB21344E0
:103860009BB21AB2944B1A80944B1B68184603F013
:1038700065FC04468D4BB3F90030184603F05EFC3E
:1038800003468F49184603F0ADFC03461D46894B9D
:10389000B3F90030184603F051FC03468949184635
:1038A00003F0A0FC03461946284603F093FB0346A9
:1038B0001D46814BB3F90030184603F03FFC034628
:1038C0004FF00001184603F08DFC034619462846C8
:1038D00003F080FB03461946204603F07BFB0346BA
:1038E000184603F045FE0246744B1A60734B1B6882
:1038F0004FF6FE72934203DD704B4FF6FE721A6074
:103900006E4B1B6819460220FDF76CFA674BB3F942
:103910000020674B1A806C48FEF7E0FA6A4B5A6841
:1039200013461B019B1A9B00184602F0D5FF5AA3B1
:10393000D3E9002303F036F803460C461846214627
:1039400003F0CAFA0246614B1A60614BB3F90030CA
:103950009AB25E4B1B689BB2D31A9BB21AB25D4BF4
:103960001A805C4BB3F900309AB25B4BB3F900306C
:103970009BB2D31A9BB21AB2584B1A80584BB3F968
:1039800000309AB2534BB3F900309BB213449BB250
:103990001AB2534B1A80534B1B68184603F0CEFBE8
:1039A00004464C4BB3F90030184603F0C7FB0346FE
:1039B0004349184603F016FC03461D46474BB3F92E
:1039C0000030184603F0BAFB03463E49184603F0A0
:1039D00009FC03461946284603F0FCFA03461D4637
:1039E0003F4BB3F90030184603F0A8FB03464FF0F5
:1039F0000001184603F0F6FB03461946284603F07B
:103A0000E9FA03461946204603F0E4FA034618464D
:103A100003F0AEFD0246334B1A60324B1B684FF683
:103A2000FE72934203DD2F4B4FF6FE721A602D4B50
:103A30001B6819460320FDF7D5F9264BB3F9002082
:103A4000254B1A802848FEF7F1F9274B5A68134690
:103A50001B019B1A9B00184602F03EFF0EA3D3E900
:103A6000002302F09FFF03460C461846214603F050
:103A700033FA02461D4B1A601D4BB3F900309AB25F
:103A80001A4B1B689BB2D31A9BB21AB2194B1A80FD
:103A900032E000BFAFF30080EC51B81E85EBF53F7C
:103AA000B402002048010020560100203E01002001
:103AB00076010020780100207A01002060010020BA
:103AC0000000A04000002041DC0200204C0100204A
:103AD00058010020400100207C0100207E010020D0
:103AE0008001002064010020D00200204401002059
:103AF000540100203C010020894BB3F900309AB2F8
:103B0000884BB3F900309BB2D31A9BB21AB2864BE2
:103B10001A80864BB3F900309AB2814BB3F900306A
:103B20009BB213449BB21AB2804B1A80804B1B6825
:103B3000184603F003FB0446794BB3F900301846EE
:103B400003F0FCFA03467B49184603F04BFB03469F
:103B50001D46754BB3F90030184603F0EFFA0346E3
:103B60007549184603F03EFB03461946284603F004
:103B700031FA03461D466D4BB3F90030184603F089
:103B8000DDFA03464FF00001184603F02BFB034615
:103B90001946284603F01EFA03461946204603F04C
:103BA00019FA0346184603F0E3FC0246604B1A601C
:103BB0005F4B1B684FF6FE72934203DD5C4B4FF682
:103BC000FE721A605A4B1B6819460120FDF70AF96C
:103BD000534BB3F90020534B1A805848FEF7AAF90B
:103BE000564B5A6813461B019B1A9B00184602F05D
:103BF00073FE49A3D3E9002302F0D4FE03460C462A
:103C00001846214603F068F902464D4B1A604D4BA9
:103C1000B3F900309AB24A4B1B689BB2D31A9BB2DD
:103C20001AB2494B1A80484BB3F900309AB2474B4D
:103C3000B3F900309BB2D31A9BB21AB2444B1A802C
:103C4000444BB3F900309AB23F4BB3F900309BB20A
:103C500013449BB21AB23F4B1A803F4B1B68184665
:103C600003F06CFA0446384BB3F90030184603F001
:103C700065FA03462F49184603F0B4FA03461D4679
:103C8000334BB3F90030184603F058FA03462A497B
:103C9000184603F0A7FA03461946284603F09AF996
:103CA00003461D462B4BB3F90030184603F046FA85
:103CB00003464FF00001184603F094FA03461946F4
:103CC000284603F087F903461946204603F082F997
:103CD0000346184603F04CFC02461F4B1A601E4B6D
:103CE0001B684FF6FE72934203DD1B4B4FF6FE72CC
:103CF0001A60194B1B6819460420FDF773F8124B24
:103D0000B3F90020114B1A80FEF7D2FAFEF720FE1D
:103D100000BFB0BDAFF30080EC51B81E85EBF53F9E
:103D20003C0100207001002072010020740100207D
:103D30005C0100200000A04000002041C0020020E3
:103D4000500100205A010020420100208201002081
:103D500084010020860100206801002080B485B025
:103D600000AF7B600346FB810B46BB8113467B8122
:103D7000084AFB891380084ABB891380074A7B895C
:103D800013807B681AB2064B1A8000BF1437BD46F9
:103D900080BC7047540100205601002058010020CB
:103DA0005A01002080B500AFFFF7D4FCFFF7F9FC03
:103DB0000B48FDF743FE0B48FDF794FE0A48FDF75C
:103DC000E5FE0A48FDF736FF0948FDF787FF094879
:103DD000FDF7D8FFFCF764FFFCF7A6FF00BF80BD2E
:103DE000D0020020B4020020DC020020C00200202B
:103DF000EC020020F802002080B582B000AF7860AD
:103E00007B689BB25B429BB218B27B689BB25B4201
:103E10009BB219B27B681AB27B68FFF79FFF034B16
:103E200000221A7000BF0837BD4680BDCC020020BA
:103E300080B582B000AF78607B6818B27B6819B239
:103E40007B689BB25B429BB21AB27B685B42FFF716
:103E500085FF0020FFF76EFC00BF0837BD4680BD20
:103E600080B582B000AF78607B6818B27B689BB287
:103E70005B429BB219B27B689BB25B429BB21AB2A7
:103E80007B68FFF76BFF0020FFF754FC00BF08378B
:103E9000BD4680BD80B582B000AF78607B689BB2C4
:103EA0005B429BB218B27B6819B27B681AB27B681E
:103EB0005B42FFF753FF0020FFF73CFC00BF0837D1
:103EC000BD4680BD80B582B000AF78607B689BB294
:103ED0005B429BB218B27B689BB25B429BB219B249
:103EE0007B689BB25B429BB21AB27B685B42FFF776
:103EF00035FF0120FFF71EFC00BF0837BD4680BD1F
:103F000080B582B000AF78607B6818B27B6819B268
:103F10007B681AB27B68FFF721FF0120FFF70AFCDC
:103F200000BF0837BD4680BD80B485B000AF786063
:103F30000023FB60344BFB607B689B79002B4FD0E8
:103F40003149314B1A687B681B68DB4313400B60B7
:103F50002D492D4B5A687B681B68DB4313404B602F
:103F60007B681B791A46FB681344FB60FB68FA68A0
:103F700011687A6812680A431A602349224B9A68CA
:103F80007B681B68DB4313408B601F491E4BDA685C
:103F90007B681B68DB431340CB607B685B79102B2D
:103FA0000ED11949184B9A687B681B6813438B60C4
:103FB0001549154BDA687B681B681343CB601DE01D
:103FC000114BFB607B685B791A46FB681344FB600E
:103FD000FB68FA6811687A6812680A431A600DE093
:103FE0007B681B791A46FB681344FB60FB68FA6820
:103FF00011687A681268D2430A401A6000BF143709
:10400000BD4680BC704700BF003C014080B485B015
:1040100000AF78600023FB730023BB600C4B1A6871
:104020007B681340BB600A4B5A697B681340002BC6
:1040300005D0BB68002B02D00123FB7301E00023F5
:10404000FB73FB7B18461437BD4680BC704700BF2E
:10405000003C014080B483B000AF7860034A7B68C5
:10406000536100BF0C37BD4680BC7047003C014027
:1040700080B485B000AF78600023FB730023BB736E
:104080000F237B737B68DB78002B39D0274BDB68F1
:10409000DB431B0ADBB203F00703FB73FB7BC3F1BB
:1040A0000403BB737A7BFB7B42FA03F37B737B686D
:1040B0005B781A46BB7B02FA03F3FB737B689A7842
:1040C0007B7B1340DAB2FB7B1343FB73FB7B1B014F
:1040D000FB73174A7B681B781344FA7B83F8002331
:1040E000134A7B681B785B09DBB218467B681B7838
:1040F00003F01F03012101FA03F342F820300FE01F
:104100000B497B681B785B09DBB218467B681B7820
:1041100003F01F0301229A4000F1200341F82320FD
:1041200000BF1437BD4680BC704700BF00ED00E003
:1041300000E100E080B584B002AF78600846114627
:104140001A4603467B800B467B7013463B707B8888
:10415000002B0ED0786800F021F838787A787988CA
:104160003B7D01933B7C00930346786800F02EF87A
:1041700000E000BF0837BD4680BD80B483B000AF0B
:1041800078607B6803F13F4303F57E039B0A9BB293
:1041900018460C37BD4680BC7047000080B582B021
:1041A00000AF78607868FFF7E8FF03461A460123FE
:1041B00003FA02F1044A044B1B6B0B43136300BF69
:1041C0000837BD4680BD00BF0038024080B584B0CE
:1041D00000AF7860084611461A4603467B800B46BE
:1041E0007B7013463B707868FFF7C7FF0346BB73CD
:1041F0000023FB7367E07A88FB7B42FA03F303F04A
:104200000103002B5BD0BB7BBA7B324931F8122013
:1042100011B2FA7B012000FA02F212B20A4312B282
:1042200091B22C4A22F813107B68DB68FA7B5200AB
:10423000032101FA02F2D2431340397EFA7B520085
:1042400001FA02F21A437B68DA607B681A68FB7B2A
:104250005B00032101FA03F3DB4313407978FA7B17
:10426000520001FA02F21A437B681A607B78012B34
:1042700002D07B78022B23D17B685B68FA7B01211B
:1042800001FA02F292B2D24313403978FA7B01FA72
:1042900002F292B21A437B685A607B689A68FB7B91
:1042A0005B00032101FA03F3DB431340397FFA7B00
:1042B000520001FA02F21A437B689A6000E000BFE4
:1042C000FB7B0133FB73FB7B0F2B94D900BF1037B3
:1042D000BD4680BD8801002080B500AF00F088FA9F
:1042E0000346012B12D19A4B01221A60994B1B688D
:1042F0000133984A13600A20FEF7DEFC954B1B68D9
:10430000C82B1AD1924B00221A6016E000F070FA06
:104310000346022B11D18E4B02221A608D4B1B6873
:1043200001338C4A13600A20FEF7C6FC894B1B68D8
:10433000C82B02D1864B00221A60854B1B68012BCB
:1043400015D1854B1B78012B0DD1844B1B788A2B03
:1043500002D87F4B00221A60002300220021002097
:10436000FFF7FCFCF1E03220FFF794FDEDE0784B25
:104370001B68022B15D1784B1B78012B0DD1774B85
:104380001B78912B02D9724B00221A600023002265
:1043900000210020FFF7E2FCD7E03220FFF760FDAC
:1043A000D3E06B4B1B68002B40F0CF80694B0022A1
:1043B0001A606A4B1B788A2B16D8674B1B78012B27
:1043C00012D1664B1B78652B0AD9644B1B787A2B6C
:1043D00006D80023002200210020FFF7BFFC1DE0CB
:1043E0006420FFF757FD19E05C4B1B78912B15D922
:1043F000594B1B78012B11D1584B1B78652B0AD9CF
:10440000564B1B787A2B06D800230022002100206F
:10441000FFF7A4FC02E06420FFF722FD4E4B1B785F
:10442000002B40F092804E4B1B68002B56D14D4B19
:104430001B684D49184603F087F80346002B22D02D
:10444000484B1B684949184603F06AF80346002B9D
:1044500019D00A20FFF736FD424B1B684249184627
:1044600003F068F80346002B38D03E4B1B684049E8
:10447000184603F073F80346002B00D12EE0384BAA
:1044800001221A602AE0374B1B683949184603F0AD
:1044900047F80346002B21D0324B1B684FF0000138
:1044A000184603F051F80346002B17D00A20FFF7F7
:1044B00027FD2C4B1B682C49184603F03BF803469C
:1044C000002B0BD0274B1B682949184603F046F8F0
:1044D0000346002B02D0224B01221A60204B1B689E
:1044E000012B32D1234BD3E900014FF00002224BC4
:1044F00002F0C0FC0346002B09D00023002200215B
:104500000020FFF72BFC164B02221A601DE0194B0E
:10451000D3E900014FF00002174B02F0D3FC034631
:10452000002B03D03220FFF783FC0EE0114BD3E9C0
:1045300000014FF00002104B02F0A6FC0346002BD6
:1045400000D102E03220FFF757FC00BF80BD00BF62
:10455000C4010020C8010020FF010020FD0100204F
:10456000BC010020080200200000A0430000B4436A
:1045700000009643E001002000004E4080B582B06C
:1045800002AFFEF76DFD164B1B68184602F0B6F938
:10459000144B1B781A46144B1B7801930092024669
:1045A0000B4612491248FDF732FA114A0021002049
:1045B000FEF761FD0F4B1B781A460A4B1B78194614
:1045C000094B1B7800930B460B490948FDF71FFA6E
:1045D000074A01210020FEF74EFD00BFBD4680BD09
:1045E00008020020FC010020FD010020BC7500082D
:1045F0000C030020FE010020CC75000880B582B0BD
:1046000000AF01210420FCF78DFD02233B60002355
:104610003B7103237B710023BB710223FB713B467B
:1046200019465048FEF7ACFB04233B6000233B7166
:1046300003237B710023BB710223FB713B461946A8
:104640004848FEF79DFB08233B6000233B71032392
:104650007B710023BB710223FB713B461946414825
:10466000FEF78EFB10233B6000233B7103237B711D
:104670000023BB710223FB713B4619463948FEF704
:104680007FFB20233B6000233B7103237B710023CE
:10469000BB710223FB713B4619463248FEF770FBA3
:1046A00040233B6000233B7103237B710023BB71DC
:1046B0000223FB713B4619462A48FEF761FB802323
:1046C0003B6000233B7103237B710023BB710223FA
:1046D000FB713B4619462348FEF752FB4FF48073AB
:1046E0003B6000233B7103237B710023BB710223DA
:1046F000FB713B4619461B48FEF742FB4FF4007323
:104700003B6000233B7103237B710023BB710223B9
:10471000FB713B4619461348FEF732FB4FF48063AA
:104720003B6000233B7103237B710023BB71022399
:10473000FB713B4619460B48FEF722FB4FF4006322
:104740003B6000233B7103237B710023BB71022379
:10475000FB713B4619460348FEF712FB00BF0837C2
:10476000BD4680BD0008024080B400AF174B1B68F7
:10477000002B07D0164B1B68002B03D0154B1B6872
:10478000002B01D101231CE0134B1B68002B07D029
:10479000124B1B68002B03D0114B1B68002B01D15F
:1047A00002230EE00F4B1B68002B07D00E4B1B683B
:1047B000002B03D00D4B1B68002B01D1032300E01D
:1047C00000231846BD4680BC704700BFC0000020D3
:1047D000C4000020C8000020D8000020DC00002019
:1047E000E0000020CC000020D0000020D4000020F9
:1047F00080B400AF0B4B1B68012B01D101230CE0EF
:10480000094B1B68012B01D1022306E0074B1B68F3
:10481000002B01D1032300E000231846BD4680BCD5
:10482000704700BFE8000020E4000020C401002021
:1048300080B500AF02212F48FEF72FFB03461A4632
:104840002D4B1A6004212B48FEF727FB03461A461E
:104850002A4B1A6008212748FEF71FFB03461A4619
:10486000274B1A6010212348FEF717FB03461A4610
:10487000244B1A6020211F48FEF70FFB03461A46FF
:10488000214B1A6040211B48FEF707FB03461A46DE
:104890001E4B1A6080211748FEF7FFFA03461A469E
:1048A0001B4B1A604FF480711248FEF7F6FA03466C
:1048B0001A46184B1A604FF400710E48FEF7EDFAD5
:1048C00003461A46144B1A604FF480610948FEF7FC
:1048D000E4FA03461A46114B1A604FF4006105488A
:1048E000FEF7DBFA03461A460D4B1A6000F01CF87F
:1048F00000BF80BD00080240C0000020C4000020AE
:10490000C8000020D8000020DC000020E0000020CB
:10491000CC000020D0000020D4000020E8000020BF
:10492000E40000200000000098B500AF04213648E4
:10493000FBF77AFF0346184601F0BEFF03460C461C
:10494000324AC2E90034314BD3E900014FF0000292
:104950004FF0000302F08EFA0346002B03D12C4BDC
:1049600001221A6002E02A4B00221A60274BD3E989
:10497000000121A3D3E9002302F09AFA0346002B99
:1049800011D0224BD3E900011DA3D3E9002302F08B
:1049900085FA0346002B06D01E4A4FF000031E4C3A
:1049A000C2E9003423E0194BD3E9000112A3D3E993
:1049B000002302F073FA0346002B06D0154A4FF08D
:1049C0000003164CC2E9003411E0104BD3E900019A
:1049D0000BA3D3E9002302F06BFA0346002B06D0A9
:1049E0000C4A4FF000034FF00004C2E90034642089
:1049F000FEF762F900BF98BD000000000074964009
:104A000000000000009C974000200140E8010020C9
:104A1000F0010020E001002000004E40000059405D
:104A200080B500AFFFF7A0FE0346012B03D05C4B1F
:104A30001B68012B33D15A4B01221A60594B1B685A
:104A4000632B09DCFEF7DEFA0A20FEF735F9554B39
:104A50001B680133534A1360524B1B68642B40F0B0
:104A60009880514B1B68632B00F39380FEF7E2FAAA
:104A70000A20FEF721F94C4B1B6801334A4A1360A8
:104A8000494B1B68642B40F08480474B00221A601E
:104A9000444B00221A60424B00221A6079E0FFF773
:104AA00063FE0346022B03D03D4B1B68022B30D123
:104AB0003B4B02221A603B4B1B68632B09DCFEF761
:104AC000ADFA0A20FEF7F8F8364B1B680133354A79
:104AD0001360344B1B68642B5DD1334B1B68632B15
:104AE00059DCFEF7A7FA0A20FEF7E6F82E4B1B6802
:104AF00001332D4A13602C4B1B68642B4BD12A4B7E
:104B000000221A60274B00221A60254B00221A60EF
:104B100041E0FFF729FE0346032B03D0204B1B681F
:104B2000032B30D11E4B03221A601E4B1B68632BD4
:104B300009DCFEF75BFA0A20FEF7BEF8194B1B688A
:104B40000133184A1360174B1B68642B25D1164B91
:104B50001B68632B21DCFEF76DFA0A20FEF7ACF828
:104B6000114B1B680133104A13600F4B1B68642BF9
:104B700013D10D4B00221A600A4B00221A60084B19
:104B800000221A6009E0FEF755FA064B00221A606F
:104B900004E000BF02E000BF00E000BF00BF80BD36
:104BA000D8010020D0010020D401002080B500AF42
:104BB0000121074800F019FB0346002B05D0012115
:104BC000034800F03BFBFFF7D9FC00BF80BD00BFEE
:104BD000000C004080B485B000AF786039600023DD
:104BE000FB817B681B88FB817B68284A934213D03A
:104BF0007B68274A93420FD07B68B3F1804F0BD07C
:104C00007B68244A934207D07B68234A934203D0AF
:104C10007B68224A934208D1FB8923F07003FB8111
:104C20003B685A88FB891343FB817B681C4A93428B
:104C30000CD07B681B4A934208D0FB8923F4407355
:104C4000FB813B681A89FB891343FB817B68FA89E6
:104C50001A803B685A687B68DA623B681A887B680E
:104C60001A857B68094A934203D07B68084A9342BD
:104C700004D13B689B7A9AB27B681A867B680122D2
:104C80009A8200BF1437BD4680BC704700000140C7
:104C9000000401400004004000080040000C0040F7
:104CA000001000400014004080B483B000AF786072
:104CB0000B46FB70FB78002B08D07B681B889BB2EF
:104CC00043F001039AB27B681A8007E07B681B8877
:104CD0009BB223F001039AB27B681A8000BF0C37A5
:104CE000BD4680BC7047000080B485B000AF7860DE
:104CF000396000237B810023FB810023BB817B681B
:104D00001B8C9BB223F001039AB27B681A847B68E8
:104D10001B8CFB817B689B88BB817B681B8B7B81A9
:104D20007B8923F070037B817B8923F003037B81E4
:104D30003B681A887B8913437B81FB8923F002033C
:104D4000FB813B689A89FB891343FB813B685A8846
:104D5000FB891343FB817B681E4A934203D07B6827
:104D60001D4A934223D1FB8923F00803FB813B6852
:104D7000DA89FB891343FB81FB8923F00403FB8160
:104D80003B689A88FB891343FB81BB8923F48073BA
:104D9000BB81BB8923F40073BB813B681A8ABB8942
:104DA0001343BB813B685A8ABB891343BB817B6831
:104DB000BA899A807B687A891A833B689A687B688B
:104DC0005A637B68FA891A8400BF1437BD4680BCD9
:104DD000704700BF000001400004014080B485B06E
:104DE00000AF7860396000237B810023FB810023C2
:104DF000BB817B681B8C9BB223F010039AB27B684B
:104E00001A847B681B8CFB817B689B88BB817B68D9
:104E10001B8B7B817B8923F4E0437B817B8923F49B
:104E200040737B813B681B881B029AB27B891343CA
:104E30007B81FB8923F02003FB813B689B891B015D
:104E40009AB2FB891343FB813B685B881B019AB2D2
:104E5000FB891343FB817B68224A934203D07B6822
:104E6000214A93422BD1FB8923F08003FB813B68CD
:104E7000DB891B019AB2FB891343FB81FB8923F079
:104E80004003FB813B689B881B019AB2FB8913435B
:104E9000FB81BB8923F48063BB81BB8923F400635E
:104EA000BB813B681B8A9B009AB2BB891343BB81C1
:104EB0003B685B8A9B009AB2BB891343BB817B68CA
:104EC000BA899A807B687A891A833B689A687B687A
:104ED0009A637B68FA891A8400BF1437BD4680BC88
:104EE000704700BF000001400004014080B485B05D
:104EF00000AF7860396000237B810023FB810023B1
:104F0000BB817B681B8C9BB223F480739AB27B6855
:104F10001A847B681B8CFB817B689B88BB817B68C8
:104F20009B8B7B817B8923F070037B817B8923F0C2
:104F300003037B813B681A887B8913437B81FB8950
:104F400023F40073FB813B689B891B029AB2FB89A7
:104F50001343FB813B685B881B029AB2FB891343B6
:104F6000FB817B68224A934203D07B68214A9342AB
:104F70002BD1FB8923F40063FB813B68DB891B0297
:104F80009AB2FB891343FB81FB8923F48063FB8185
:104F90003B689B881B029AB2FB891343FB81BB8948
:104FA00023F48053BB81BB8923F40053BB813B684E
:104FB0001B8A1B019AB2BB891343BB813B685B8A86
:104FC0001B019AB2BB891343BB817B68BA899A8063
:104FD0007B687A899A833B689A687B68DA637B6826
:104FE000FA891A8400BF1437BD4680BC704700BFE1
:104FF000000001400004014080B485B000AF78603B
:1050000039600023BB8100237B810023FB817B6807
:105010001B8C9BB223F480539AB27B681A847B6802
:105020001B8C7B817B689B88FB817B689B8BBB8116
:10503000BB8923F4E043BB81BB8923F44073BB816C
:105040003B681B881B029AB2BB891343BB817B89D7
:1050500023F400537B813B689B891B039AB27B89B5
:1050600013437B813B685B881B039AB27B891343A4
:105070007B817B68114A934203D07B68104A93423C
:105080000AD1FB8923F48043FB813B681B8A9B0187
:105090009AB2FB891343FB817B68FA899A807B680B
:1050A000BA899A833B689A687B681A647B687A89B4
:1050B0001A8400BF1437BD4680BC70470000014011
:1050C0000004014080B485B000AF78600B467B805F
:1050D0000023FB817B681B8BFB81FB8923F008038A
:1050E000FB81FA897B881343FB817B68FA891A83E9
:1050F00000BF1437BD4680BC704780B485B000AF98
:1051000078600B467B800023FB817B681B8BFB81D7
:10511000FB8923F40063FB817B881B029AB2FB8925
:105120001343FB817B68FA891A8300BF1437BD469D
:1051300080BC704780B485B000AF78600B467B8040
:105140000023FB817B689B8BFB81FB8923F0080399
:10515000FB81FA897B881343FB817B68FA899A83F8
:1051600000BF1437BD4680BC704780B485B000AF27
:1051700078600B467B800023FB817B689B8BFB81E7
:10518000FB8923F40063FB817B881B029AB2FB89B5
:105190001343FB817B68FA899A8300BF1437BD46AD
:1051A00080BC704780B483B000AF78600B467B80D2
:1051B00013467B707B78002B08D07B689B899AB262
:1051C0007B8813439AB27B689A8109E07B689B894C
:1051D0009AB27B88DB439BB213409AB27B689A8178
:1051E00000BF0C37BD4680BC704780B485B000AFAF
:1051F00078600B467B800023FB730023BB81002378
:105200007B817B681B8A9AB27B881340BB817B6859
:105210009B899AB27B8813407B81BB89002B05D088
:105220007B89002B02D00123FB7301E00023FB7379
:10523000FB7B18461437BD4680BC704780B483B0F2
:1052400000AF78600B467B807B88DB439AB27B683B
:105250001A8200BF0C37BD4680BC704730B5224A69
:1052600021F00043934287B01BDD204A934205DDC5
:1052700002460B4601F0E2F907B030BD02AA00F089
:105280007FF800F00303012B1AD0022B0FD01BB3C1
:105290000124DDE90423DDE90201009401F000F8B6
:1052A000EAE70022002300F08FFA07B030BDDDE905
:1052B0000423DDE9020100F087FA01F10041DBE798
:1052C000DDE904450093DDE9020122462B4600F0AA
:1052D000E7FF01F10041CFE7DDE90423DDE9020149
:1052E00000F072FAC8E700BFFB21E93FFFFFEF7F44
:1052F00021F00041704700BF30B51F4A21F0004344
:10530000934287B01BDD1D4A934205DD02460B46E2
:1053100001F094F907B030BD02AA00F031F800F0B6
:1053200003000128DDE904231AD002280FD0E0B1E0
:10533000DDE9020100F048FA01F10041EAE700234B
:1053400000930022002300F0ABFF07B030BD012422
:10535000DDE90201009400F0A3FF01F10041D9E76B
:10536000DDE9020100F030FAD4E70124DDE90201B1
:10537000009400F095FFCDE7FB21E93FFFFFEF7FB1
:105380002DE9F04F9A4E21F00047B74291B040F31B
:105390008E809246974A97420C4626DC00298AA3C3
:1053A000D3E9002340F3B48101F048F9924B9F42C6
:1053B00004460D4600F0908085A3D3E9002301F058
:1053C0003DF902460B46CAE900232046294601F072
:1053D00035F97FA3D3E9002301F030F90125CAE9AB
:1053E0000201284611B0BDE8F08F844A974240F38D
:1053F0009080834A974265DC3D15A5F21645A7EBE0
:10540000055319461F46064601F066FD01F064FA91
:105410008046894602460B4630463946CDE90A8920
:1054200001F00CF90022774B01F0BCFA8946804666
:1054300001F052FD01F050FA02460B4606460F46B7
:1054400040464946CDE90C6701F0F8F800226D4B63
:1054500001F0A8FA00220023CDE90E0101F00AFDB7
:10546000002800F07381002330463946002201F005
:1054700001FD002814BF01230223634A0192022187
:105480002A4600910AA8514600F0C2FA002C0546AF
:1054900014DADAF80420DAF80C3002F1004203F1F1
:1054A00000434542CAF80420CAF80C3006E0C2E9BD
:1054B000000100250024C2E902450025284611B05C
:1054C000BDE8F08F02460B4601F0B8F80025CAE9A6
:1054D0000201CAE90001F1E73FA3D3E9002301F08B
:1054E000ADF83FA3D3E900230D46044601F0A6F82A
:1054F00002460B46CAE900232946204601F09EF8E1
:1055000037A3D3E9002301F099F80125CAE9020184
:10551000D4E7FFF7EDFE34A3D3E9002380468946A4
:1055200001F040FA0022394B01F08AF801F0D4FC76
:10553000054601F0D1F924A3D3E90023CDE9040104
:1055400001F030FA02460B464046494601F076F833
:105550001FA3D3E9002380468946DDE9040101F059
:1055600021FA1F2DCDE9020154DC294B6A1E53F8A4
:1055700022309F424ED002460B464046494601F03B
:105580005DF802460B46CAE9002383460E465A469A
:1055900033464046494601F051F8DDE9022301F067
:1055A0004DF8002C02460B46CAE9022386DA5B4618
:1055B00006F1004601F100418AE84800CAF80C10E3
:1055C000CAF808006D4279E700004054FB21F93F1A
:1055D0003163621A61B4D03D0000601A61B4D03DFD
:1055E0007370032E8A19A33B83C8C96D305FE43FF3
:1055F000FB21E93F7BD90240FB21F93FFB213941E7
:10560000FFFFEF7F000070415C7600080000E03F84
:10561000DC750008DDE902234046494601F00EF83A
:105620003A15C1F30A53D31A102B83460E4609923A
:10563000CAE90001ABDD58A3D3E90023DDE9040189
:1056400001F0B0F906460F4602460B464046494671
:1056500000F0F4FFCDE9060102460B4640464946FC
:1056600000F0ECFF32463B4600F0E8FF4CA3D3E9E4
:10567000002306460F46DDE9040101F093F93246A6
:105680003B4600F0DBFFDDE90689CDE90201024679
:105690000B464046494600F0D1FF0B46C1F30A577E
:1056A0000E460999CF1B0246312F8346CAE90023D3
:1056B0006CDD3DA3D3E90023DDE9040101F072F9BB
:1056C00006460F4602460B4640464946CDE9068946
:1056D00000F0B4FF02460B4680468946DDE906012C
:1056E00000F0ACFF32463B4600F0A8FF30A3D3E900
:1056F000002306460F46DDE9040101F053F9324666
:105700003B4600F09BFF02460B46CDE9022334E7FF
:1057100000F096FF2A4B9F4204460D4618D026A360
:10572000D3E9002300F08CFF02460B46CAE90023B0
:105730002946204600F082FF1FA3D3E9002300F092
:105740007FFF4FF0FF35CAE90201B7E6032394E675
:1057500011A3D3E9002300F073FF11A3D3E90023C1
:105760000D46044600F06CFF02460B46CAE90023D2
:105770002946204600F062FF09A3D3E9002300F088
:105780005FFF4FF0FF35CAE9020197E6DDE90689C0
:10579000FDE600BFAFF300800000601A61B4D03DA9
:1057A0007370032E8A19A33B0000002E8A19A33BB5
:1057B000C14920259A837B393163621A61B4D03D97
:1057C000FB21F93F000000002DE9F04F21F00046D9
:1057D000B6F1795F85B00C4692469B4605466BDA7A
:1057E00001F07AFB002800F0E8802A46234628468C
:1057F000214601F0D7F874A3D3E9002380468946F7
:1058000001F0D0F872A3D3E9002300F019FF42465B
:105810004B4601F0C7F870A3D3E9002300F00EFF58
:1058200042464B4601F0BEF86DA3D3E9002300F0D9
:1058300007FF42464B4601F0B5F86BA3D3E90023BE
:1058400000F0FCFE42464B4601F0ACF868A3D3E9F9
:10585000002300F0F5FE42464B4601F0A3F8CDE9E7
:1058600000010022644B4046494601F09BF8DDE907
:10587000002306460F464046494601F093F852463B
:10588000804689465B462846214601F08BF8024651
:105890000B464046494600F0D1FE02460B463046D4
:1058A000394600F0CBFE02460B460020534900F07B
:1058B000C5FE05B0BDE8F08F02460B4601F072F858
:1058C00041A3D3E900238046894601F06BF840A349
:1058D000D3E9002300F0B4FE42464B4601F062F8E3
:1058E0003DA3D3E9002300F0A9FE42464B4601F058
:1058F00059F83BA3D3E9002300F0A2FE42464B46F1
:1059000001F050F838A3D3E9002300F097FE424697
:105910004B4601F047F836A3D3E9002300F090FE90
:105920004B46424601F03EF8354B9E42CDE9000120
:1059300097DD344B9E424FF0000238DCA6F5001391
:1059400000202E4916461F4600F078FECDE90201E0
:105950000022294B4046494601F024F832463B4696
:1059600000F06CFEDDE9002306460F46404649463E
:1059700001F018F85246804689465B462846214683
:1059800001F010F802460B464046494600F056FE2C
:1059900002460B463046394600F050FE02460B46A2
:1059A000DDE9020100F04AFE05B0BDE8F08F164BBC
:1059B000164FCDE902230026CAE71049002005B0A2
:1059C000BDE8F08FAFF30080D43888BEE9FAA8BDF7
:1059D000C4B1B4BD9EEE213EAD529C804F7E923E3E
:1059E0009015CB19A001FA3E7751C1166CC1563FF4
:1059F0004C5555555555A53F0000E03F0000F03F80
:105A00003233D33F0000E93F0000E73F0000D23FC0
:105A10002DE9F04FADF5197D9C4CA29E9C4D54F89C
:105A2000264005942646D41E85FB0475E417C4EB76
:105A3000A50424EAE4741D460893631CA3EB8303C6
:105A4000013D02EBC30304932B4609940295651BA9
:105A5000F418039006911AD42C4401340DF17808FF
:105A600000260027DDF88C9208E059F8250000F0A8
:105A700033FF0135A542E8E9020108D0002DF4DA30
:105A8000013530463946A542E8E90201F6D1059BC9
:105A9000002B2EDB089B4FEAC309039BA9F10808E2
:105AA000984420AB9944059B70AA02EBC30B0DF5FB
:105AB000DC7A029B002BC0F20F83039B4D46A3F1BF
:105AC00008040026002775E90223F4E9020100F02A
:105AD00069FF02460B463046394600F0B1FD4445A9
